:100000000C94EB020C9413030C9413030C94130341
:100010000C9413030C9413030C9413030C94130308
:100020000C9413030C9413030C9413030C941303F8
:100030000C9413030C9413030C9413030C941303E8
:100040000C940F0D0C9413030C94ED0B0C94C70B34
:100050000C9413030C9413030C9413030C941303C8
:100060000C94590D0C941303000000002400270089
:100070002A000000000023002600290000000008DC
:10008000000201000003040700000000000000005F
:100090001112131415160A0B0C0D0E0F0102040891
:1000A00010204080010204081020010204081020E2
:1000B00000000000250028002B00040404040404B0
:1000C000040402020202020203030303030300000A
:1000D0000000003E5B4F5B3E3E6B4F6B3E1C3E7C28
:1000E0003E1C183C7E3C181C577D571C1C5E7F5ED6
:1000F0001C00183C1800FFE7C3E7FF001824180095
:10010000FFE7DBE7FF30483A060E2629792926402B
:100110007F050507407F05253F5A3CE73C5A7F3E57
:100120001C1C08081C1C3E7F14227F22145F5F00E9
:100130005F5F06097F017F006689956A6060606085
:100140006094A2FFA29408047E040810207E201070
:1001500008082A1C08081C2A08081E101010100C79
:100160001E0C1E0C30383E3830060E3E0E060000C7
:1001700000000000005F00000007000700147F146B
:100180007F14242A7F2A12231308646236495620DA
:10019000500008070300001C2241000041221C00FF
:1001A0002A1C7F1C2A08083E0808008070300008BE
:1001B00008080808000060600020100804023E5192
:1001C00049453E00427F4000724949494621414924
:1001D0004D331814127F1027454545393C4A49498B
:1001E0003141211109073649494936464949291EF5
:1001F00000001400000040340000000814224114E4
:1002000014141414004122140802015909063E4135
:100210005D594E7C1211127C7F494949363E41415D
:1002200041227F4141413E7F494949417F090909B6
:10023000013E414151737F0808087F00417F410022
:100240002040413F017F081422417F404040407FD1
:10025000021C027F7F0408107F3E4141413E7F091E
:100260000909063E4151215E7F091929462649495F
:10027000493203017F01033F4040403F1F2040209F
:100280001F3F4038403F631408146303047804039D
:100290006159494D43007F4141410204081020004B
:1002A0004141417F040201020440404040400003BC
:1002B00007080020545478407F2844443838444488
:1002C0004428384444287F385454541800087E0980
:1002D0000218A4A49C787F0804047800447D4000A0
:1002E0002040403D007F1028440000417F40007CBA
:1002F000047804787C080404783844444438FC18B2
:1003000024241818242418FC7C0804040848545495
:10031000542404043F44243C4040207C1C204020C2
:100320001C3C4030403C44281028444C9090907C29
:100330004464544C4400083641000000770000003B
:100340004136080002010204023C2623263C1EA17D
:10035000A161123A4040207A3854545559215555DC
:10036000794122545478422155547840205455798B
:10037000400C1E527212395555555939545454591E
:1003800039555454580000457C410002457D4200D7
:1003900001457C407D1211127DF0282528F07C5407
:1003A0005545002054547C547C0A097F4932494900
:1003B00049323A4444443A324A4848303A41412169
:1003C0007A3A42402078009DA0A07D3D4242423DC5
:1003D0003D4040403D3C24FF2424487E4943662B59
:1003E0002FFC2F2BFF0929F620C0887E09032054FB
:1003F0005479410000447D413048484A32384040F9
:10040000227A007A0A0A727D0D19317D2629292F58
:1004100028262929292630484D4020380808080870
:1004200008080808382F10C8ACBA2F102834FA0072
:10043000007B000008142A142222142A14085500F4
:10044000550055AA55AA55AAFF55FF55FF000000B3
:10045000FF00101010FF00141414FF001010FF0014
:10046000FF1010F010F0141414FC001414F700FF27
:100470000000FF00FF1414F404FC141417101F10E4
:10048000101F101F1414141F00101010F000000093
:10049000001F101010101F10101010F0100000009E
:1004A000FF101010101010101010FF10000000FFAF
:1004B000140000FF00FF00001F10170000FC04F4F0
:1004C00014141710171414F404F40000FF00F714A8
:1004D000141414141414F700F7141414171410102F
:1004E0001F101F141414F4141010F010F000001F4B
:1004F000101F0000001F14000000FC140000F0108A
:10050000F01010FF10FF141414FF141010101F002F
:10051000000000F010FFFFFFFFFFF0F0F0F0F0FF31
:10052000FFFF0000000000FFFF0F0F0F0F0F384408
:10053000443844FC4A4A4A347E02020606027E02DD
:100540007E0263554941633844443C04407E201E8A
:100550002006027E020299A5E7A5991C2A492A1CB9
:100560004C7201724C304A4D4D303048784830BCA6
:10057000625A463D3E494949007E0101017E2A2AD0
:100580002A2A2A44445F444440514A444040444A51
:1005900051400000FF0103E080FF000008086B6B82
:1005A000083612362436060F090F06000018180008
:1005B00000001010003040FF0101001F01011E006B
:1005C000191D1712003C3C3C3C00000000000001DB
:1005D00002030405AC1B11241FBECFEFD8E0DEBF21
:1005E000CDBF27E0ACEBB5E001C01D92A23BB20746
:1005F000E1F715E0A0E0B1E0E8ECFDE302C0059012
:100600000D92AC3BB107D9F712E0CBEED2E004C0BB
:100610002197FE010E94E01CCA3ED107C9F70E9443
:1006200004150C94E21E0C940000FC01538D448DC3
:10063000252F30E0842F90E0821B930B541710F08D
:10064000CF96089501970895FC01918D828D98179A
:1006500061F0828DDF01A80FB11D5D968C91928DA6
:100660009F5F9F73928F90E008958FEF9FEF0895A3
:10067000FC01918D828D981731F0828DE80FF11D6C
:10068000858D90E008958FEF9FEF0895FC01918D87
:10069000228D892F90E0805C9F4F821B91098F7380
:1006A000992708958FEB96E00E94460321E0892B5D
:1006B00009F420E0822F0895FC01848DDF01A80F4A
:1006C000B11DA35ABF4F2C91848D90E001968F737A
:1006D0009927848FA689B7892C93A089B1898C9199
:1006E000837080648C93938D848D981306C00288E8
:1006F000F389E02D80818F7D80830895EF92FF92B2
:100700000F931F93CF93DF93EC0181E0888F9B8D34
:100710008C8D981305C0E889F989808185FD26C0F4
:10072000F62E0B8D10E00F5F1F4F0F731127E02E79
:100730008C8DE8120CC00FB607FCFACFE889F98956
:10074000808185FFF5CFCE010E945C03F1CF8B8DB8
:10075000FE01E80FF11DE35AFF4FF0829FB7F894B6
:100760000B8FEA89FB89808180620AC09FB7F89469
:10077000EE89FF896083E889F989808183708064CC
:1007800080839FBF81E090E0DF91CF911F910F9117
:10079000FF90EF900895CF93DF93EC01888D88232D
:1007A000C9F0EA89FB89808185FD05C0A889B989DE
:1007B0008C9186FD0FC00FB607FCF5CF808185FFB9
:1007C000F2CFA889B9898C9185FFEDCFCE010E9427
:1007D0005C03E7CFDF91CF91089580E090E0892B13
:1007E00029F00E94520381110C9400000895833077
:1007F00081F028F4813099F08230A1F0089587309B
:10080000A9F08830B9F08430D1F4809180008F7DD8
:1008100003C0809180008F7780938000089584B515
:100820008F7702C084B58F7D84BD08958091B0001C
:100830008F7703C08091B0008F7D8093B0000895C2
:100840003FB7F8948091250690912606A09127063F
:10085000B091280626B5A89B05C02F3F19F0019638
:10086000A11DB11D3FBFBA2FA92F982F8827820F36
:10087000911DA11DB11DBC01CD0142E0660F771F86
:10088000881F991F4A95D1F708950F931F93CF930F
:10089000DF93DC0155968C915597823071F083304F
:1008A00009F1813009F08CC01496ED91FC911597F7
:1008B000E41BF50BE21BF30B20C01496ED91FC91A9
:1008C0001597CF01861B970BBC01615071091696D5
:1008D000ED91FC911797CF01841B950BAC01421B46
:1008E000530B6EC01696ED91FC911797CF01861BA6
:1008F000970BBC0161507109FA0177FD1BC1169677
:100900008D919C911797681779070CF013C1F7FF29
:1009100004C02E0F3F1FE0E0F0E014968D919C91F3
:100920001597AF01420F531F841795071CF49C01C4
:100930002E1B3F0B121613060CF0FCC0CB0177FDEB
:10094000079643E0959587954A95E1F79695982FF8
:10095000882797958795E80FF91FE050FF4F67703C
:10096000772781E090E001C0880F6A95EAF7482F69
:100970000130110541F088F00230110509F0DAC0AC
:100980002E0F3F1F15C02E0F3F1FE217F30709F46C
:10099000D1C08081842B8193F8CF80952E0F3F1F8B
:1009A000E217F30709F4C6C0908198239193F8CF1A
:1009B000E217F30709F4BEC0808184278193F8CF42
:1009C00077FDB8C014968D919C911597681779079B
:1009D0000CF0B0C057FF04C0240F351F40E050E0BA
:1009E00016968D919C911797FA01E20FF31F8E17BF
:1009F0009F071CF49C01241B350B121613060CF0E8
:100A000099C0A22F842F86958695869590E8899F18
:100A1000600D711D1124FB01E050FF4F4770A9F1DB
:100A200098E0941B492F50E0EA01C25FDA4F8881B9
:100A3000291790F4421B51092FEF30E002C0359581
:100A400027954A95E2F782230130110541F068F0BD
:100A50000230110589F06EC00130110519F42081B2
:100A6000822B0CC00130110520F480952081822357
:100A700005C00230110531F4208182278083A91737
:100A800008F458C0A91BE058FF4FA83048F10230C5
:100A9000110559F4EF018A2F988190959883C058D9
:100AA000DF4F88508830C0F730C081E00130110539
:100AB00009F080E08195EF019A2F8883C058DF4FBD
:100AC00098509830D0F788EF8A0F8695869586954E
:100AD00090E8899FE00DF11D1124E058FF4FA770A9
:100AE000AA2341F1B0E0AA5FBA4F8C910130110501
:100AF00029F038F002301105E9F419C09081892BF2
:100B000018C080959081892314C088EF8A0F86953C
:100B10008695869590E8899FE00DF11D1124E05897
:100B2000FF4FA77039F0B0E0AA5FBA4F8C91908167
:100B300089278083DF91CF911F910F9108950F93A3
:100B40001F93CF93DF93DC01FB0155968C91559752
:100B5000823089F0833021F1813009F0E7C01496AA
:100B60008D919C911597BC01641B750BAB01415095
:100B70005109BF011DC014966D917C911597CB0151
:100B80008E1B9F0BFC0116968D919C911797BC01B3
:100B9000641B750BAB0141505109E21BF30BC6C03E
:100BA00016966D917C9117976E1B7F0B621B730BD2
:100BB00057FD1BC114968D919C91159748175907A5
:100BC0000CF013C177FF04C0260F371F60E070E000
:100BD00016968D919C911797FB01E20FF31F8E17CC
:100BE0009F071CF49C01261B370B121613060CF0F2
:100BF000FCC0A22F862F86958695869590E8899FC2
:100C0000400D511D1124FA01E050FF4F6770A9F10A
:100C100098E0961B492F50E0EA01C25FDA4F8881C5
:100C2000291790F4421B51092FEF30E002C035958F
:100C300027954A95E2F782230130110541F068F0CB
:100C40000230110589F0D1C00130110519F420815D
:100C5000822B0CC00130110520F480952081822365
:100C600005C00230110531F4208182278083A91745
:100C700008F4BBC0A91BE058FF4FA83048F1023070
:100C8000110559F4EF018A2F988190959883C058E7
:100C9000DF4F88508830C0F733C081E00130110544
:100CA00009F080E08195EF019A2F8883C058DF4FCB
:100CB00098509830D0F788EF8A0F8695869586955C
:100CC00060E8869FE00DF11D1124E058FF4FA770EA
:100CD000AA2309F48AC0B0E0AA5FBA4F8C91013010
:100CE000110531F040F00230110509F07EC01BC043
:100CF0009081892B03C0809590818923808375C062
:100D000088EF8A0F86958695869570E8879FE00D17
:100D1000F11D1124E058FF4FA77009F466C0B0E040
:100D2000AA5FBA4F8C9190818927E8CF57FD5DC0AB
:100D300016968D919C911797481759070CF055C03E
:100D4000F7FF04C02E0F3F1FE0E0F0E014968D91F6
:100D50009C911597BF01620F731F861797071CF4AC
:100D60009C012E1B3F0B121613060CF03EC0CA014D
:100D700057FD079663E0959587956A95E1F79695F7
:100D8000982F882797958795E80FF91FE050FF4F18
:100D90004770552781E090E001C0880F4A95EAF737
:100DA000482F0130110539F078F002301105E9F4CF
:100DB0002E0F3F1F13C02E0F3F1FE217F307A9F09E
:100DC0008081842B8193F9CF80952E0F3F1FE217EE
:100DD000F30759F0908198239193F9CFE217F30725
:100DE00021F0808184278193F9CFDF91CF911F91EA
:100DF0000F910895FC0177FD9AC080859185681751
:100E000079070CF094C057FD92C0828593854817EE
:100E100059070CF08CC08589823009F07CC0848130
:100E20009581DC01A61BB70BBD016150710986815C
:100E30009781FC01E41BF50BAF01415051090AC039
:100E4000813041F484819581841B950BAB01BC01F9
:100E5000615071092130310529F008F12230310546
:100E6000E1F10895FA0157FD3796A3E0F595E7956E
:100E7000AA95E1F7F695FE2FEE27F795E7956E0F09
:100E80007F1FFB01E050FF4F4770552781E090E046
:100E900001C0880F4A95EAF79081892B3AC0FA0180
:100EA00057FD379623E0F595E7952A95E1F7F695F6
:100EB000FE2FEE27F795E7956E0F7F1FFB01E050A1
:100EC000FF4F4770552781E090E001C0880F4A9599
:100ED000EAF78095908189231CC0FA0157FD379667
:100EE00083E0F595E7958A95E1F7F695FE2FEE27D5
:100EF000F795E7956E0F7F1FFB01E050FF4F47709E
:100F0000552781E090E001C0880F4A95EAF790816B
:100F1000892780830895833009F092CF8681978155
:100F2000861B970BBA01AC014150510993CF08952C
:100F30000895FC016370658B8481958126813781DA
:100F4000613039F0633029F09187808733872287B9
:100F50000895318720879387828708956F927F92C3
:100F60008F929F92AF92BF92CF92DF92EF92FF92B9
:100F70000F931F93CF93DF93EC014B015A0169014B
:100F80003801E881F9810284F385E02D0995E88133
:100F9000F9810288F389E02D87019601A501B4014A
:100FA000CE010995A501460D571D41505109E88113
:100FB000F9810288F389E02D9601B401CE010995EB
:100FC000E881F9810088F189E02D9301A501B40140
:100FD000CE010995C80CD91CB60161507109E88190
:100FE000F9810088F189E02D9301A501CE010995D1
:100FF000E881F9810688F789E02DCE01DF91CF9154
:101000001F910F91FF90EF90DF90CF90BF90AF9026
:101010009F908F907F906F9009948F929F92AF9244
:10102000BF92CF92DF92EF92FF920F931F93CF93D5
:10103000DF934C016B015A01E901DC01ED91FC9158
:101040006217730781F40417150724F48B2D5801D8
:10105000042F182F0A191B0998012F5F3F4F048C8A
:10106000F58DE02D12C04017510709F526173707F7
:1010700024F48D2D6901C62FD82F9E012C193D090E
:101080002F5F3F4F068CF78DE02D8701A501B6013C
:10109000C4010995DF91CF911F910F91FF90EF90BF
:1010A000DF90CF90BF90AF909F908F900895028473
:1010B000F385E02D0995D401ED91FC910488F58923
:1010C000E02D9E01A501B601C4010995D401ED9161
:1010D000FC910688F789E02DC401DF91CF911F9123
:1010E0000F91FF90EF90DF90CF90BF90AF909F90C7
:1010F0008F900994EF92FF920F931F93DC011A9641
:101100000D911C911B9718962D913C911997ED917B
:10111000FC9100A0F1A1E02D7B0140E050E060E0F7
:1011200070E009951F910F91FF90EF9008954F92F5
:101130005F926F927F928F929F92AF92BF92CF9267
:10114000DF92EF92FF920F931F93CF93DF936C0187
:101150002B015A0139014801DC01ED91FC91028417
:10116000F385E02D0995E201640C751CD601ED9123
:10117000FC91C615D7055CF40088F189E02D870144
:101180009401A501BE01C60109952196EFCF0688FD
:10119000F789E02DC601DF91CF911F910F91FF904C
:1011A000EF90DF90CF90BF90AF909F908F907F9007
:1011B0006F905F904F9009948F929F92AF92BF92E1
:1011C000CF92DF92EF92FF920F931F93CF93DF9313
:1011D000EC015B014A016901E881F9810284F38530
:1011E000E02D099595012C0D3D1D21503109E88117
:1011F000F9810488F589E02D78018401A401B50105
:10120000CE010995E881F9810688F789E02DCE01A4
:10121000DF91CF911F910F91FF90EF90DF90CF90D2
:10122000BF90AF909F908F9009948F929F92AF92B2
:10123000BF92CF92DF92EF92FF920F931F93CF93C3
:10124000DF93EC015B014A0169017801E881F981D2
:101250000284F385E02D0995C80CD91C8601015044
:101260001109E881F9810488F589E02D9501A4012F
:10127000B501CE010995E881F9810688F789E02D4D
:10128000CE01DF91CF911F910F91FF90EF90DF90F2
:10129000CF90BF90AF909F908F9009940895EF9258
:1012A000FF920F931F93DC01ED91FC9100A0F1A13F
:1012B000E02D09951F910F91FF90EF9008950F93E6
:1012C0001F93DC01ED91FC91068CF78DE02D0995C3
:1012D0001F910F9108950F931F93DC01ED91FC91E5
:1012E000048CF58DE02D09951F910F910895DC0177
:1012F000ED91FC910084F185E02D09942F923F92AD
:101300004F925F926F927F928F929F92AF92BF9215
:10131000CF92DF92EF92FF920F931F93CF93DF93C1
:1013200000D000D000D0CDB7DEB72C017E836D8316
:101330006A015901C801FC82EB824801841A950AAE
:1013400097FE03C091948194910835012D813E81CF
:10135000621A730A77FE03C071946194710868146D
:1013600079045CF43A2D2B2D5C01832F922F3D8163
:101370002E81DE82CD82C32ED22EAD81BE81AA16F1
:10138000BB065CF43C2D2D2D6C01832F922F3D81EB
:101390002E81BE82AD82A32EB22E85012D813E818B
:1013A000021B130B1C012C183D0837FE03C031949F
:1013B00021943108780117FF03C03FEFE31AF30AC5
:1013C000F594E794C816D9062CF08FEF9FEF9A8317
:1013D000898304C0A1E0B0E0BA83A9832D813E8156
:1013E000A216B30624F1D201ED91FC910484F58597
:1013F000E02D2B813C816814790424F44D815E81B9
:10140000B60103C0A6016D817E81C2010995E21873
:10141000F308F7FE06C029813A81C20ED31EE00E02
:10142000F11E8D819E8101969E838D83D7CF269656
:101430000FB6F894DEBF0FBECDBFDF91CF911F91E5
:101440000F91FF90EF90DF90CF90BF90AF909F9063
:101450008F907F906F905F904F903F902F90089566
:1014600085ED8093BC008091BC0084FDFCCF109280
:101470009A06089540910106262F30E0240F311D71
:1014800021323105DCF420919A062430C9F4FC01A4
:1014900080E090E0861758F4309101062191DC013C
:1014A000AF51BA4FA30FB11D2C930196F3CF80918A
:1014B0000106680F6093010680E0089581E00895B9
:1014C00082E0089508950895E0912E0680912D06FA
:1014D000E81730F4F0E0EF53FA4F808190E0089580
:1014E0008FEF9FEF089590912E0680912D0698170B
:1014F00050F4E92FF0E0EF53FA4F208130E09F5F86
:1015000090932E0602C02FEF3FEFC90108958091FE
:101510002D0690E020912E06821B91090895CF920E
:10152000DF92EF92FF920F931F93CF93DF937C0193
:10153000CB018A0120919B06222389F0EB016B01EC
:10154000C40ED51ECC15DD0569F06991D701ED916A
:10155000FC910190F081E02DC7010995F3CF642F34
:101560000E943A0AC801DF91CF911F910F91FF901D
:10157000EF90DF90CF900895CF93DF931F92CDB778
:10158000DEB7698320919B062223D1F02091BE060D
:10159000203240F021E030E0FC013383228380E000
:1015A00090E015C080919C06E82FF0E0E356F94FDB
:1015B000998190838F5F80939C068093BE0605C0BF
:1015C00061E0CE0101960E943A0A81E090E00F901E
:1015D000DF91CF910895089580E090E008950E94F2
:1015E000CD1EAF92BF92CF92EF92FF920F931F93B7
:1015F000CF93DF93EC01262F888D998D009709F00A
:1016000040C06A3059F41D861C862C898E859F85C2
:1016100038E0239F800D911D112441C06D3009F4E5
:10162000AAC08E898823C1F03C898C859D8546E0BF
:10163000349F800D911D11244885598548175907FD
:101640005CF41D861C868E859F8548E0349F800D46
:10165000911D11249F878E87EA88FB880889198944
:101660004E855F856C857D85CC88CE010E94BC113E
:101670002C898C859D8536E0239F800D911D11243A
:1016800042C06A3079F41D861C862C89FC0136968E
:10169000E4918E859F852E9F800D911D11249F873B
:1016A0008E8769C06D3009F466C0FC0134963491B0
:1016B000631708F460C03196E491E61708F45BC044
:1016C000FC01329665917491422F50E0431B510901
:1016D00037E0349F5001359FB00C1124A60EB71E81
:1016E000F501329634913196E491332311F0E111F2
:1016F0000DC0F5013496E4912C898C859D85E29F7F
:10170000800D911D11249D878C8735C0F50135967C
:1017100044915E89552311F16C89E32FF0E0E40FC9
:10172000F11D47FDFA956E9FD0016F9FB00D1124FA
:101730004C855D854A0F5B1FE885F985E417F50741
:101740006CF41D861C86FC013696E4918E859F857F
:101750006E9F800D911D11249F878E87EA88FB88DC
:10176000088919894E855F856C857D85CC88CE0179
:101770000E94BC11BECF81E090E0DF91CF911F911C
:101780000F91FF90EF90CF90BF90AF9008951F9270
:101790000F920FB60F9211242F933F934F935F93A5
:1017A0006F937F938F939F93AF93BF93EF93FF9329
:1017B0008FEB96E00E945C03FF91EF91BF91AF9198
:1017C0009F918F917F916F915F914F913F912F9159
:1017D0000F900FBE0F901F9018951F920F920FB68B
:1017E0000F9211242F938F939F93EF93FF93E09188
:1017F000CF06F091D0068081E091D506F091D60613
:1018000082FD12C090818091D8068F5F8F732091E6
:10181000D906821751F0E091D806F0E0E154F94F73
:10182000958F8093D80601C08081FF91EF919F91A1
:101830008F912F910F900FBE0F901F901895CF93FF
:10184000DF93282F30E0F901E458FF4F8491F9012C
:10185000E456FF4FD491F901E654FF4FC491CC23D5
:1018600091F081110E94F703EC2FF0E0EE0FFF1FC3
:10187000EE58FF4FA591B491EC91ED2381E090E0FB
:1018800021F480E002C080E090E0DF91CF910895E4
:101890001F93CF93DF93282F30E0F901E458FF4FD7
:1018A0008491F901E456FF4FD491F901E654FF4FBA
:1018B000C491CC23C1F0162F81110E94F703EC2FA5
:1018C000F0E0EE0FFF1FE055FF4FA591B4919FB7D9
:1018D000F894111104C08C91D095D82302C0EC91DA
:1018E000DE2BDC939FBFDF91CF911F910895CF93A3
:1018F000DF9390E0FC01E456FF4F2491FC01E65495
:10190000FF4F8491882361F190E0880F991FFC01BB
:10191000E859FF4FC591D491FC01E055FF4FA591C7
:10192000B491611109C09FB7F894888120958223F2
:101930008883EC912E230BC0623061F49FB7F8943A
:101940008881322F309583238883EC912E2B2C9322
:101950009FBF06C08FB7F894E8812E2B28838FBFD6
:10196000DF91CF9108958E3008F08E50877080649B
:1019700080937C0080917A00806480937A008091CB
:101980007A0086FDFCCF809178002091790090E06C
:10199000922B08958230910538F0880F991F880F97
:1019A000991F05970197F1F708958F929F92AF9233
:1019B000BF92CF92DF92EF92FF926B017C010E9467
:1019C00020044B015C01C114D104E104F104F1F0E5
:1019D0000E942004DC01CB0188199909AA09BB09DE
:1019E000883E9340A105B10570F321E0C21AD108E9
:1019F000E108F10888EE880E83E0981EA11CB11C56
:101A0000C114D104E104F10419F7DDCFFF90EF9088
:101A1000DF90CF90BF90AF909F908F9008951F92CE
:101A20000F920FB60F9211242F933F938F939F9392
:101A3000AF93BF9380912F0690913006A09131060D
:101A4000B09132063091240623E0230F2D3720F485
:101A50000196A11DB11D05C026E8230F0296A11D08
:101A6000B11D2093240680932F0690933006A093F7
:101A70003106B09332068091250690912606A091FA
:101A80002706B09128060196A11DB11D8093250659
:101A900090932606A0932706B0932806BF91AF9196
:101AA0009F918F913F912F910F900FBE0F901F909C
:101AB00018951F920F920FB60F9211242F933F93F8
:101AC0004F935F936F937F938F939F93AF93BF9346
:101AD000EF93FF938091B900887F803609F49CC012
:101AE00068F5883209F45BC090F4803109F454C081
:101AF00038F4882309F4F6C0883009F44DC0F6C0E4
:101B0000883109F44CC0803209F45DC0EFC08034E4
:101B100009F468C048F4803309F455C0883309F0EB
:101B2000E5C080939806D8C0803509F44FC0883549
:101B300009F45DC0883409F0D9C0D6C0883909F4E9
:101B4000C7C0A8F4883709F467C038F4883609F4A8
:101B500063C0803709F460C0C9C0883809F4B8C0D0
:101B6000803909F45FC0803809F0C0C05BC0803B99
:101B700009F486C038F4803A09F466C0883A09F45A
:101B80007FC0B4C0803C09F4A7C0883C09F4A4C05D
:101B9000883B09F48AC0AAC08091750610C0909154
:101BA000970680919606981770F5E091970681E068
:101BB0008E0F80939706F0E0EA58F94F808180936A
:101BC000BB0085EC86C0809398068EC0E091970696
:101BD00081E08E0F809397068091BB00F0E0EA5879
:101BE000F94F808390919706809196066EC0E091A0
:101BF000970681E08E0F809397068091BB00F0E0FE
:101C0000EA58F94F80838091990681116DC081E077
:101C10008093740684EA61C083E080939A061092F0
:101C20002306CFCF80912306803208F051C0E09187
:101C3000230681E08E0F809323068091BB00F0E0A5
:101C4000ED5FF94F8083BDCF85EC8093BC0010928F
:101C50009A0680912306803230F4E0912306F0E06A
:101C6000ED5FF94F10826091230670E0E091290644
:101C7000F0912A0683E096E009951092230636C07B
:101C800084E080939A061092020610920106E09179
:101C90002B06F0912C06099580910106811105C053
:101CA00081E0809301061092E105E091020681E057
:101CB0008E0F80930206F0E0EF51FA4F80818093FF
:101CC000BB009091020680910106981708F479CF25
:101CD00085E88093BC000AC085EC8093BC0010921C
:101CE0009A0604C0109298060E94300AFF91EF9164
:101CF000BF91AF919F918F917F916F915F914F9124
:101D00003F912F910F900FBE0F901F9018958EBD91
:101D100000000DB407FEFDCF8EB50895CF93CFB769
:101D2000F8948091C005811127C0E4ECF0E0849123
:101D3000E6EAF0E09491E82FF0E0EE0FFF1FE8599B
:101D4000FF4FA591B491EC91E92321F461E08AE081
:101D50000E94480C61E08AE00E94770C8CB580619B
:101D60008CBD8CB580648CBD61E08DE00E94770CE9
:101D700061E08BE00E94770C8091C0058F5F8093BB
:101D8000C005CFBFCF9108950F931F93CF93DF93DB
:101D900000D000D000D0CDB7DEB71A8219821C82E5
:101DA0001B821E821D8240E050E060E875E0CE019B
:101DB00001960E941F1403E316E0F8016081CE0132
:101DC00001960E94D613CE0101960E948A11F80155
:101DD0006181CE0101960E94D613CE0101960E9428
:101DE0008A11F8016281CE0101960E94D613CE01BC
:101DF00001960E948A11F8016381CE0101960E942A
:101E0000D613CE0101960E948A11F8016185CE0198
:101E100001960E94D613BE016F5F7F4F8FEB96E055
:101E20000E945F1489819A810E947E1D26960FB6BA
:101E3000F894DEBF0FBECDBFDF91CF911F910F9100
:101E40000895CF92DF92EF92FF921F93CF93DF938B
:101E5000182FEB018FB7F894C0902F06D090300662
:101E6000E0903106F09032068FBF812F0E941F0C48
:101E7000892B31F58091BC059091BD05A091BE05DF
:101E8000B091BF05A7019601281B390B4A0B5B0BCC
:101E9000DA01C90180399140A105B10588F0812F8F
:101EA0000E941F0C892B21F4988181E08927888367
:101EB000C092BC05D092BD05E092BE05F092BF0570
:101EC000DF91CF911F91FF90EF90DF90CF90089519
:101ED000CF92DF92EF92FF920F931F93CF93DF93F6
:101EE0006C017A018B01C0E0D0E0CE15DF0581F0F6
:101EF000D8016D918D01D601ED91FC910190F08199
:101F0000E02DC6010995892B11F02196EECF7E01B7
:101F1000C701DF91CF911F910F91FF90EF90DF905C
:101F2000CF9008950F931F93CF93DF93EC01888197
:101F30009981009729F02A813B812617370788F479
:101F40008B016F5F7F4F0E94071E009761F099839E
:101F500088831B830A832C813D81232B11F4FC0190
:101F6000108281E001C080E0DF91CF911F910F913D
:101F700008953091BE06313208F04BC080919A0628
:101F80008111FCCF9091BD0622E020939A0621E0BA
:101F9000209399062FEF209398061092970630937E
:101FA0009606EDE9F6E0A6E7B6E020E0321721F06C
:101FB00041914D932F5FFACF1092750620917506CF
:101FC000990F922B9093750690917406913061F45D
:101FD00010927406909175069093BB009091BC008E
:101FE00093FDF8CF95EC01C095EE9093BC009091D5
:101FF0009A069230E1F3909198069F3F79F0809194
:102000009806803241F080919806803331F084E068
:1020100005C081E003C082E001C083E010929C060D
:102020001092BE0610929B0608959091A1079111FF
:102030000C94870E28E030E040E8E091A407F0918E
:10204000A50750819091AB07909595239083E091DF
:10205000A207F091A3079091AA07582F542319F0D3
:102060005081952B03C05081909595239083E091EA
:10207000A407F091A50750819091AB07952B908311
:10208000469521503109C9F60895CF93C82F809104
:102090009C078F3F59F1E091A607F091A707908127
:1020A0008091AC07892B8083E091A807F091A90764
:1020B00090818091AD07809589238083E091A60768
:1020C000F091A70790818091AC0780958923808348
:1020D0008C2F0E941510E091A607F091A707908120
:1020E0008091AC07892B8083CF91089580919A07C6
:1020F00091E090939B068093BD0610929C061092EF
:10210000BE0660E08CE597E00E94BC0A6C2F8CE56F
:1021100097E00E94BC0ACF910C94B90FCF93DF9344
:102120009CB59F7D9CBD9CB5937F9CBD9CB59C7FC1
:102130009CBD9DB591609DBDC8E6D7E0682F8A81A2
:102140000E94480C8C899D89DF91CF910C94CA0C18
:1021500081E00C948E1080E00C948E10CF93DF936E
:10216000C82FD62F0E94AB108C2F8F7180620E94D7
:10217000870EC82F8D2F0E94870E0E94A8108C2FCB
:10218000DF91CF910895CF93C82F0E94AB108C2F71
:102190008F710E94870E8FEF0E94870EC82F0E94BA
:1021A000A8108C2FCF910895CF930E94AB1081EE91
:1021B0000E94870EC82F0E94A8108C2FCF910895DF
:1021C000209168073091690740916A0750916B0729
:1021D0002417350721F0682F822F0C94480C08959E
:1021E00080E00E94E01080917807909179070E942A
:1021F000CA0C8DE10E94C31081FF08C0809178074E
:10220000909179070E94CA0C0E94D41080E00E942D
:10221000C310682F6E7F80E00E94AE1082E00E94A3
:10222000C310EEECF5E0E49161E070E001C0660FF0
:10223000EA95EAF7682B82E00C94AE10EF92FF92D9
:102240000F931F93CF93DF93182F7B01C42F0E940E
:10225000AB10812F8F7180620E94870ED82F87016B
:10226000CC2339F0F80181918F010E94870EC15073
:10227000F7CF0E94A8108D2FDF91CF911F910F9162
:10228000FF90EF9008950F931F93CF938C0186E0FA
:102290000E94C310C82FC77D0230110531F4C062FF
:1022A0008BE990E0A0E0B0E00DC00130110529F00D
:1022B00085E590E0A0E0B0E005C0C86081E490E072
:1022C000A0E0B0E08093780790937907A0937A0715
:1022D000B0937B076C2F86E00E94AE1086E00E94D0
:1022E000C31091E0C81390E0892FCF911F910F91F7
:1022F000089580E00E94C31081FD0BC0682F6260CA
:1023000080E00E94AE1065E070E080E090E00C9408
:10231000D50C0895EF92FF920F931F93CF93DF9305
:1023200000D0CDB7DEB78C0180E289831A82F80134
:10233000E480F580FFEFEF1AFF0AB701C8010E94A1
:10234000920F882381F0F801208131818481958169
:10235000BE016F5F7F4F820F931F0E94DB1EF8014B
:10236000F582E48281E00F900F90DF91CF911F9171
:102370000F91FF90EF9008952F923F924F925F92AE
:102380006F927F928F929F92AF92BF92CF92DF9285
:10239000EF92FF920F931F93CF93DF93CDB7DEB7EA
:1023A0006B970FB6F894DEBF0FBECDBF9B8F8A8FA1
:1023B0005B011A01D22E1F830E833701C982DC0113
:1023C00058962D913C9159972115310509F0E6C099
:1023D00018968D919C911997681779070CF0CDC1CB
:1023E0001A968D919C911B97481759070CF0C5C1FF
:1023F0008C2C912CFB0126E0C29EE00DF11D1124D6
:10240000FB87EA871E161F060CF0B7C1A40183E004
:10241000440F551F8A95E1F75D874C87CA01820DED
:10242000931D181619060CF0A8C157968C918111AE
:1024300004C05FEA5D1508F4D394AA8DBB8DED91BD
:10244000FC9111970284F385E02DCD010995B5E04B
:10245000DB9EC0011124F5013596FF87EE87BB8214
:10246000AA8225019C012A193B09398B288BA101DD
:10247000485F5F4F5B8B4A8BE889F989E40DF51D56
:10248000E253FF4F5491588761013D822C82888529
:1024900080FF13C0AA8DBB8DED91FC91B981B13045
:1024A00031F40484F585E02D2E813F8116C0068429
:1024B000F785E02DEE80FF801AC0EE81FF81E615E2
:1024C000F705F1F0AA8DBB8DED91FC91B981B1308A
:1024D00051F40484F585E02D9301A601B2018A8DA3
:1024E0009B8D09950DC00684F785E02D730184014D
:1024F00094014C815D816A817B818A8D9B8D0995D8
:10250000E885E695E887FFEFCF1ADF0A2C813D8149
:10251000280D391D3D832C834A895B89C416D50655
:1025200009F0B5CF5FEF451A550A8A819B81880D66
:10253000991D9B838A83AE85BF854A165B0609F089
:102540009BCFEE81FF81E615F70509F4F4C0EA8D13
:10255000FB8DA081B181F981F13079F4B5016B5F18
:102560007F4F5096ED91FC915197830128E030E028
:10257000A1018A8D9B8D0995DEC06A857B856819CE
:1025800079091E96ED91FC911F9773010C851D85AD
:102590009401A1018A8D9B8D0995CDC0F9013496D6
:1025A000E491DE1AF901329685919491B7E0DB9EB1
:1025B000800D911D1124F901259134913B8B2A8BBB
:1025C000FC01259134912901FC013296C490319689
:1025D00034913E87329614913196D490498142309D
:1025E00058F0612E012E000C77088D2D0D2C000C5B
:1025F000990B9987888704C019861886612C712CDD
:10260000AA8DBB8DED91FC9111970284F385E02D8D
:10261000CD010995B9818B2E912C689CC001699CD4
:10262000900D789C900D1124FC01EA0DFB1DFD8797
:10263000EC871A82712C612CE12F110FFF0B950191
:102640002E0F3F1F3B872A87AC0CB11CA5014E0FF4
:102650005F1F5F8B4E8BC1018D0D911DD7FC9A952D
:10266000998F888F9E85691608F065C0862D90E049
:1026700048855985480F591F489D9001499D300D47
:10268000589D300D1124D101A20FB31FB98BA88B17
:10269000EC85FD85FD83EC83AA84BB84DA80FA8512
:1026A000DF1A288D398D280F391F3D8B2C8B8D2DEE
:1026B0008A0D4E895F89A416B506C1F1877041F471
:1026C000C2010196EA89FB89E40DF51D74902C0185
:1026D00077FE21C0AA8DBB8DED91FC91B981B130FF
:1026E00061F40484F585E02D2E813F814C895D895C
:1026F000B5018A8D9B8D09950EC00684F785E02D66
:10270000EE80FF8084019401488959896C817D8124
:102710008A8D9B8D0995770CEFEFAE1ABE0A2C813E
:102720003D81280D391D3D832C83C1CF3A813C0D5D
:102730003A83639497CFAA8DBB8DED91FC9111974D
:102740000688F789E02DCD016B960FB6F894DEBFB1
:102750000FBECDBFDF91CF911F910F91FF90EF90F2
:10276000DF90CF90BF90AF909F908F907F906F90B1
:102770005F904F903F902F9009946B960FB6F8940E
:10278000DEBF0FBECDBFDF91CF911F910F91FF90A4
:10279000EF90DF90CF90BF90AF909F908F907F9001
:1027A0006F905F904F903F902F900895CF92DF925F
:1027B000EF92FF920F931F93CF93DF9300D000D03F
:1027C000CDB7DEB78C01862F4AE09E012F5F3F4FC9
:1027D0007901B90190E00E942A1CF70101900020C4
:1027E000E9F73197EE19FF09E1F0D8011496CD9081
:1027F000DC901597CE0EDF1EB601C8010E94920F25
:10280000882381F0F8012081318184819581B7018D
:10281000820F931F0E94DB1ED8011596DC92CE9288
:10282000149781E00F900F900F900F90DF91CF9150
:102830001F910F91FF90EF90DF90CF900895EF924E
:10284000FF920F931F93CF93DF93EC017B018A01DB
:10285000BA010E94920F2881398181110DC0211582
:10286000310519F0C9010E947E1D198218821D824E
:102870001C821B821A8206C01D830C83B701C9010A
:102880000E94DB1ECE01DF91CF911F910F91FF902F
:10289000EF9008956115710579F0FB01019000201A
:1028A000E9F73197AF01461B570BDC01ED91FC9125
:1028B0000280F381E02D099480E090E008950F9369
:1028C0001F93CF93DF93EC01FB014481558160811D
:1028D0007181E881F9810280F381E02D09958C01F5
:1028E0006EE775E0CE010E944A14800F911FDF91C0
:1028F000CF911F910F9108958F929F92AF92BF92A7
:102900000F931F93CF93DF93CDB7DEB7A1970FB689
:10291000F894DEBF0FBECDBF19A2423008F44AE0E2
:102920008E010F5D1F4F842E912CA12CB12CA5017F
:1029300094010E94AA1CE62FB901CA010150110995
:10294000EA3014F4E05D01C0E95CD801EC93232B7C
:10295000242B252B61F7B80180E897E00E944A14E8
:10296000A1960FB6F894DEBF0FBECDBFDF91CF9119
:102970001F910F91BF90AF909F908F900895CF932C
:10298000DF93682F70E080E090E04AE00E947C14C2
:10299000EC016EE775E080E897E00E944A148C0F26
:1029A0009D1FDF91CF910895CF92DF92EF92FF921A
:1029B000CF93DF936C01990FEE08FF08F7FE19C063
:1029C0006DE280E897E00E94F10AEC016627772724
:1029D000CB016C197D098E099F094AE00E947C1485
:1029E0008C0F9D1FDF91CF91FF90EF90DF90CF90E4
:1029F00008954AE0C701B601DF91CF91FF90EF90B3
:102A0000DF90CF900C947C14CF93DF9300D000D054
:102A100000D0CDB7DEB7789484B5826084BD84B52C
:102A2000816084BD85B5826085BD85B5816085BDC9
:102A300080916E00816080936E0010928100809181
:102A40008100826080938100809181008160809309
:102A50008100809180008160809380008091B1002E
:102A600084608093B1008091B00081608093B00059
:102A700080917A00846080937A0080917A008260ED
:102A800080937A0080917A00816080937A008091AF
:102A90007A00806880937A001092C100E091CF069E
:102AA000F091D00682E08083E091CB06F091CC06D5
:102AB0001082E091CD06F091CE068FEC80831092CB
:102AC000D706E091D306F091D40686E08083E091AA
:102AD000D106F091D206808180618083E091D10699
:102AE000F091D206808188608083E091D106F091D8
:102AF000D206808180688083E091D106F091D20671
:102B000080818F7D808362E775E08FEB96E00E9485
:102B10004A146EE775E08FEB96E00E944A1462E07B
:102B200084E00E94770C62E082E00E94770C62E011
:102B300083E00E94770C62E089E00E94770C62E0FB
:102B400086E00E94770C62E085E00E94770C80911D
:102B500068079091690720916A0730916B07821787
:102B6000930719F061E00E94770C80916A079091B9
:102B70006B0720916807309169072817390719F00A
:102B800061E00E94770C0E948E0E80E00E94E010AF
:102B900081E00E948E1065E070E080E090E00E948D
:102BA000D50C6CE080E00E94AE106FE584E00E94DE
:102BB000AE1082E090E00E944311882319F081E07A
:102BC00080936E0786E00E94C31080E090E00E9430
:102BD00043110E94AB1080E50E94870E83E70E949C
:102BE000870E0E94A81060E08DE10E94AE1060E0A8
:102BF0008CE10E94AE101092700760E787E00E949F
:102C0000AE106CE485E00E94AE100E94AB1082EE24
:102C10000E94870E0E94A8100E94D4100E94791171
:102C200080E00E94C310682F6E7F80E00E94AE108B
:102C300080E090E00E94431165E284E00E94AE10C3
:102C400060E085E00E94AE10409176076CE175E08F
:102C50008AE00E941E11409176076CE175E080E1E8
:102C60000E941E1160916F0781E10E94AE10409199
:102C7000760750E066E175E081E797E00E94D21E9A
:102C8000E6E9F0E084914091760766E175E00E9404
:102C90001E11E0E9F0E0849160916F070E94AE1090
:102CA00082E00E94C310EEECF5E0949161E070E0E8
:102CB00001C0660F9A95EAF7682B82E00E94AE1079
:102CC0000E94F01082E080939B078CE380939A0728
:102CD00080919C078F3F09F48BC061E080919E0733
:102CE0000E94770C61E08091A0070E94770C809190
:102CF000A007082E000C990BFC01E654FF4FE4914D
:102D0000F0E0EE0FFF1FE055FF4F25913491309317
:102D1000A7072093A607FC01E456FF4FE491E09338
:102D2000AC0780919E07082E000C990BFC01E6541D
:102D3000FF4FE491F0E0EE0FFF1FE055FF4F2591AC
:102D400034913093A9072093A807FC01E456FF4F64
:102D5000E491E093AD078091A10781113EC061E04D
:102D600080919C070E94770C61E080919D070E94F2
:102D7000770C80919D07082E000C990BFC01E654FE
:102D8000FF4FE491F0E0EE0FFF1FE055FF4F25915C
:102D900034913093A5072093A407FC01E456FF4F1C
:102DA000E491E093AB0780919C07082E000C990BEF
:102DB000FC01E654FF4FE491F0E0EE0FFF1FE055F9
:102DC000FF4F259134913093A3072093A207FC0174
:102DD000E456FF4FE491E093AA078091A10788236E
:102DE000D1F10E948E0E80E58CBD81E08DBD33C097
:102DF00010922E0610922D0610929C061092BE067E
:102E000010929A0681E0809399061092740661E010
:102E100082E10E94480C61E083E10E94480C8091AD
:102E2000B9008E7F8093B9008091B9008D7F809327
:102E3000B90088E48093B80085E48093BC0082E602
:102E40009AE090932C0680932B0683E69AE0909369
:102E50002A068093290680919F0787FD1EC061E0A6
:102E60000E94770C61E080919F070E94480C61E00E
:102E700070E080E090E00E94D50C60E080919F07B8
:102E80000E94480C6AE070E080E090E00E94D50C5F
:102E900061E080919F070E94480C8EEA0E944510D5
:102EA00085ED0E94451080E80E94451088EA0E9446
:102EB00045108FE30E94451083ED0E94451080E08D
:102EC0000E94451080E40E9445108DE80E94451044
:102ED00084E10E94451080E20E94451080E00E943B
:102EE000451081EA0E94451088EC0E9445108AED49
:102EF0000E94451082E10E94451081E80E94451021
:102F00008FEC0E94451089ED0E94451081EF0E94D0
:102F100045108BED0E94451080E40E94451084EA24
:102F20000E94451086EA0E9445108EE20E944510DC
:102F30008FEA0E94451080E094E0E0E0F1E0DF01DC
:102F40009C011D9221503040E1F7CC24C394D12C38
:102F5000A7E36A2E712CBAE0EB2EF12C10E0A12E23
:102F600015E0B12E2FB7F89480912F06909130067E
:102F7000A0913106B09132062FBF809370069093D6
:102F80007106A0937206B093730640916C0650913F
:102F90006D0660916E0670916F06841B950BA60BF3
:102FA000B70B853F9140A105B10590F00E94C40E7A
:102FB0008091700690917106A0917206B09173068F
:102FC00080936C0690936D06A0936E06B0936F0687
:102FD00020907006309071064090720650907306F3
:102FE0008091680690916906A0916A06B0916B067F
:102FF000A2019101281B390B4A0B5B0B293C3105BF
:103000004105510508F46AC081E00E94B30C97FDA8
:103010000396959587959595879580933E0680E0D4
:103020000E94B30C97FD0396959587959595879586
:1030300080933D0683E00E94B30C97FD039695951F
:103040008795959587958093400682E00E94B30C02
:1030500097FD0396959587959595879580933F065F
:1030600086E00E94B30C97FD0396959587959595FC
:1030700087958093440680915B068093460684E0A2
:103080000E941F0C209147069195819591098227F6
:103090008170992782279091510691959827927077
:1030A000982780915006819589278470892790916F
:1030B0005A069195982798708927809347068091A2
:1030C0004906809348068F5F8093490620926806E0
:1030D0003092690640926A0650926B0680916406AF
:1030E00090916506A0916606B0916706A2019101D4
:1030F000281B390B4A0B5B0B2B3F31054105510552
:1031000008F47BC00E94F01010916F07012F1D3052
:1031100008F00CE080917007811102C0101B01C003
:1031200010E00E94AB1080EA0E94870E3DE3832EE0
:1031300036E0932E015030F0D4018D914D010E9464
:10314000870EF8CF112329F080E00E94870E1150DE
:10315000F9CF0E94A81081E00E94E0100E94AB10FD
:103160008FEF0E94870E182F0E94A8101073B1F3E2
:1031700080E00E94E01060E787E00E94AE1084FDCE
:103180000E94D4100E94791180E00E94C310682F21
:10319000616080E00E94AE1060E787E00E94AE10A0
:1031A00081E00E94E01080917107882341F04091F6
:1031B000760761E777E08AE00E941E1110C082E086
:1031C0000E94C310EEECF5E09491B60101C0660FC9
:1031D0009A95EAF76095682382E00E94AE108DE12F
:1031E0000E94C31081FD0E94D41020926406309288
:1031F000650640926606509267068091700690912F
:103200007106A0917206B0917306409160065091CC
:1032100061066091620670916306841B950BA60B94
:10322000B70B893E9340A105B10590F00E94C40EF2
:103230008091700690917106A0917206B09173060C
:103240008093600690936106A0936206B093630634
:103250008091700690917106A0917206B0917306EC
:1032600040915C0650915D0660915E0670915F062C
:10327000841B950BA60BB70B8F3E9240A105B105A1
:1032800008F45CC180915B0690E065E070E00E940C
:10329000961C8C0181E080939407D0929307C09292
:1032A0009207D0929107C092900710928D071092CA
:1032B0008C0770928F0760928E07809149068695E1
:1032C000869590E00E94D41443E750E050938D0718
:1032D00040938C0770928F0760928E07C801019609
:1032E0000E94D414D0928D07C0928C072AE0209FB0
:1032F000C001219F900D112490938F0780938E071A
:103300006EE380E897E00E94F10AF0928D07E09268
:103310008C0710928F0710928E0761E875E080E8A5
:1033200097E00E944A14809133060E94BF14F092E5
:103330008D07E0928C07F0928F07E0928E0767E886
:1033400075E080E897E00E944A14809133060E945D
:10335000BF14F0928D07E0928C0784E190E0909387
:103360008F0780938E076DE875E080E897E00E94F4
:103370004A1480913C060E94BF14F0928D07E0929F
:103380008C07AEE1B0E0B0938F07A0938E0763E99E
:1033900075E080E897E00E944A14809135060E940B
:1033A000BF14F0928D07E0928C07E8E2F0E0F09312
:1033B0008F07E0938E0769E975E080E897E00E9447
:1033C0004A141A8219821C821B821E821D8240E0CE
:1033D00050E060E875E0CE0101960E941F148091D4
:1033E0003606813069F038F0823091F448E050E0E0
:1033F00062EB75E009C048E050E06FE975E004C099
:1034000049E050E068EA75E0CE0101960E941F1481
:10341000BE016F5F7F4F80E897E00E945F1481E2FA
:103420000E94451080E00E9445108FE70E944510E1
:1034300082E20E94451080E00E94451087E00E94D1
:10344000451080919C078F3F81F1E091A607F09194
:10345000A70790818091AC07892B8083E091A80712
:10346000F091A90790818091AD07892B8083E0912D
:10347000A607F091A70790818091AC0780958923DA
:10348000808300E011E0D8018D918D010E9415101C
:10349000A016B106C1F7E091A607F091A7079081A9
:1034A0008091AC07892B80832EC04090B800BCE08F
:1034B000B093B80000E011E03324339480919A0770
:1034C00030929B068093BD0610929C061092BE0619
:1034D00060E48CE597E00E94BC0A480120E1522E8E
:1034E000F40161914F018CE597E00E94BC0A5A9467
:1034F0005110F6CF0E94B90F005F1F4FA016B10602
:10350000E9F64092B800A0E0B1E0E0E0F4E01D92FE
:103510003197E9F789819A810E947E1D809170061A
:1035200090917106A0917206B091730680935C062B
:1035300090935D06A0935E06B0935F0687E10E94BC
:10354000C31080FFC9C081E080934E0680914D0674
:103550008F5F80934D068091330681110CC080915E
:103560003406882341F080913C06811104C081E03B
:1035700080934F0602C010924F0661E576E082E02C
:103580000E94210F60E576E083E00E94210F6AE54A
:1035900076E089E00E94210F86E00E941F0C21E066
:1035A000892B09F420E02093560685E00E941F0C29
:1035B00021E0009709F420E020935806F091570687
:1035C000E0915606F11106C0EE2309F470C0009791
:1035D00009F550C0EE2319F0E11169C033C000971E
:1035E00089F5409170065091710660917206709154
:1035F00073060091520610915306209154063091A3
:103600005506401B510B620B730B493C510561057C
:103610007105C0F04091700650917106609172067C
:10362000709173064093520650935306609354066C
:103630007093550620915B06215020935B06F11193
:10364000CBCF18C0892B99F18091700690917106AB
:10365000A0917206B0917306809352069093530620
:10366000A0935406B093550680915B068F5F8093BC
:103670005B061DC0EE23D9F0892BC9F4809170063A
:1036800090917106A0917206B09173064091520616
:10369000509153066091540670915506841B950B0A
:1036A000A60BB70B893C9105A105B10568F686E02C
:1036B0000E941F0C21E0892B09F420E0209357067B
:1036C00085E00E941F0C21E0892B09F420E0209363
:1036D00059060E94ED0346CC50904B0650924A0684
:1036E00080916F078A3018F09AE0892E01C0882EE9
:1036F00090917007911103C0982E981801C0912CD9
:103700000E94AB1081E60E94870E03E316E08A94C4
:10371000FFEF8F1639F08FEF0E94870ED8018D933F
:103720008D01F5CF992029F08FEF0E94870E9A9492
:10373000F9CF0E94A81060E787E00E94AE10809148
:103740003C0680934B068150851980934C0610925D
:103750004E0610924D06FFCEEFEBF6E0138212827A
:1037600088EE93E0A0E0B0E084839583A683B783DE
:1037700026E235E03183208325EC30E0358724874D
:1037800024EC30E03787268720EC30E0318B208B2B
:1037900021EC30E0338B228B22EC30E0358B248B14
:1037A00026EC30E0378B268B118E128E138E148E02
:1037B000ECE5F7E01382128284839583A683B783B6
:1037C00088E395E091838083E0E8F7E0138212823A
:1037D00020E830E03583248380E490E0978386837B
:1037E0003187208793878287158A158614861786E6
:1037F000168681E0848B2FEF3FEF338B228B318B4A
:10380000208B868B178A118E108E8AE495E0918327
:1038100080838FEF848F80A3868F858F84E0878F4E
:10382000E8E6F7E087E090E09183808388E090E02D
:1038300093838283168280E28783108685E0868761
:1038400085E090E0A0E0B0E0848B958BA68BB78BF1
:1038500011860895BB274A3031F4992322F4BDE242
:10386000909581959F4F0C94361CBB27FB015527E3
:10387000AA27880F991FAA1FA41710F0A41B8395CD
:103880005051B9F7A05DAA3308F0A95DA193009744
:1038900079F7B111B1931192CB010C944F1CDC015B
:1038A000FC01672F71917723E1F7329704C07C9177
:1038B0006D9370836291AE17BF07C8F308952F927E
:1038C0003F924F925F926F927F928F929F92AF92B0
:1038D000BF92CF92DF92EF92FF920F931F93CF93FD
:1038E000DF93CDB7DEB7CA1BDB0B0FB6F894DEBF94
:1038F0000FBECDBF09942A88398848885F846E84BA
:103900007D848C849B84AA84B984C884DF80EE8003
:10391000FD800C811B81AA81B981CE0FD11D0FB60C
:10392000F894DEBF0FBECDBFED01089597FB072EC3
:1039300016F4009407D077FD09D00E94CC1C07FC38
:1039400005D03EF4909581959F4F089570956195AF
:103950007F4F0895A1E21A2EAA1BBB1BFD010DC0CB
:10396000AA1FBB1FEE1FFF1FA217B307E407F5072F
:1039700020F0A21BB30BE40BF50B661F771F881F0B
:10398000991F1A9469F760957095809590959B01A1
:10399000AC01BD01CF010895AA1BBB1B51E107C0BB
:1039A000AA1FBB1FA617B70710F0A61BB70B881FCF
:1039B000991F5A95A9F780959095BC01CD0108955E
:1039C000EE0FFF1F0590F491E02D09940F931F93C4
:1039D000CF93DF938230910510F482E090E0E09184
:1039E000B007F091B10720E030E0A0E0B0E0309700
:1039F00019F1408151810281138148175907C8F09C
:103A00008417950769F4109731F012960C9312976A
:103A100013961C9327C00093B0071093B10722C0E0
:103A20002115310519F04217530718F49A01BD0109
:103A3000EF01DF01F801DBCF21153105F9F0281B7B
:103A4000390B2430310580F48A819B816115710521
:103A500021F0FB019383828304C09093B10780938C
:103A6000B007FE01329644C0FE01E20FF31F8193BE
:103A7000919322503109398328833AC02091AE07AF
:103A80003091AF07232B41F42091020530910305BB
:103A90003093AF072093AE072091000530910105C8
:103AA0002115310541F42DB73EB7409104055091E1
:103AB0000505241B350BE091AE07F091AF07E21727
:103AC000F307A0F42E1B3F0B2817390778F0AC0141
:103AD0004E5F5F4F2417350748F04E0F5F1F50931E
:103AE000AF074093AE078193919302C0E0E0F0E00E
:103AF000CF01DF91CF911F910F910895CF93DF9365
:103B0000009709F481C0FC01329713821282A091C0
:103B1000B007B091B107109781F420813181820FF5
:103B2000931F2091AE073091AF072817390751F541
:103B3000F093AF07E093AE0767C0ED0120E030E0FF
:103B4000CE17DF0740F44A815B819E014115510584
:103B5000F1F0EA01F5CFD383C28340815181840F14
:103B6000951FC817D90759F488819981840F951F2B
:103B70000296918380838A819B819383828321151E
:103B8000310529F4F093B107E093B0073DC0E90196
:103B9000FB83EA8349915991C40FD51FEC17FD07A8
:103BA00061F480819181840F951F0296E9019983C8
:103BB0008883828193819B838A83E0E0F0E0129680
:103BC0008D919C911397009719F0FD01DC01F7CFBF
:103BD0008D919C9111979D012E5F3F4F820F931FF6
:103BE0002091AE073091AF072817390769F4309755
:103BF00029F41092B1071092B00702C0138212820A
:103C0000B093AF07A093AE07DF91CF910895A0E0E6
:103C1000B0E0EDE0FEE10C94631CEC01009721F4B0
:103C2000CB010E94E61CB4C0FC01E60FF71F9C010B
:103C300022503109E217F30708F4A8C0D9010D9109
:103C40001C91119706171707B0F00530110508F4FD
:103C50009BC0C80104978617970708F495C00250C7
:103C60001109061B170B019311936D937C93CF01E0
:103C70000E947E1D89C05B01A01AB10A4C01800E12
:103C8000911EA091B007B091B107612C712CE12C6D
:103C9000F12C109709F446C08D919C911197A815AD
:103CA000B905B1F56C0142E0C40ED11CCA14DB04A5
:103CB00078F14C018A189B08640142E0C40ED11CC3
:103CC0001296BC9012971396AC91B5E0CB16D10426
:103CD00040F0B282A38391828082D9016D937C935C
:103CE00009C00E5F1F4F800F911FF90191838083E0
:103CF000EB2DFA2FE114F10431F0D7011396FC9368
:103D0000EE93129741C0F093B107E093B0073CC027
:103D10006816790608F43C017D0112960D90BC915D
:103D2000A02DB7CF8091AE079091AF078816990666
:103D3000E1F466167706C8F48091000590910105BC
:103D4000009741F48DB79EB7409104055091050549
:103D5000841B950BE817F907C8F4F093AF07E093BD
:103D6000AE07F901718360830FC0CB010E94E61C8E
:103D70007C01009759F0A801BE010E94D21ECE011D
:103D80000E947E1DC70104C0CE0102C080E090E009
:103D9000CDB7DEB7EEE00C947F1C81E090E0F894A4
:103DA0000C94E21EFB01DC0102C001900D92415017
:103DB0005040D8F70895FB01DC0101900D920020DE
:083DC000E1F70895F894FFCF2C
:103DC80000000000000000000000000000000000EB
:103DD80000000000000000000000000000000000DB
:103DE80000000000000000000000000000000000CB
:103DF800000000000000000000000000000000803B
:103E080080800000000000000000000000000000AA
:103E1800008080C0C000000000000000000000001A
:103E2800000000000000000000000000000000008A
:103E3800000000000000000000000000000000007A
:103E4800000000000000000000000000000000006A
:103E58000000000080C0E0F0F8FCF8E0000000007E
:103E680000000000000000000000000000808080CA
:103E7800808000808000000000808080808000FFBB
:103E8800FFFF00000000808080800000808000002C
:103E980080FFFF808000808000808080800080809C
:103EA8000000000000808000008C8E84000080F8F4
:103EB800F8F880000000000000000000000000008A
:103EC800F0F0F0F0F0F0F0F0F0F0F0F0E0E0C080AA
:103ED80000E0FCFEFFFFFF7FFFFFFFFFFF00000089
:103EE8000000000000000000000000FEFFC7010104
:103EF800010183FFFF00007CFEC70101010183FF70
:103F0800FFFF0038FEC78301010183C7FFFF0000E0
:103F180001FFFF010100FFFF0701010100007FFF12
:103F280080000000FFFF7F0000FFFFFF000001FF8F
:103F3800FFFF01000000000000000000000000007A
:103F4800030F3F7F7FFFFFFFFFFFFFFFE7C7C78F1D
:103F58008F9FBFFFFFC3C0F0FFFFFFFFFFFCFCFC0C
:103F6800FCFCFCFCFCF8F8F0F0E0C00001030303E3
:103F7800030301030300000000010303030301011D
:103F88000301000000010303030301010303000010
:103F9800000303000000030300000000000000010C
:103FA80003030303030100000001030100000003F1
:103FB80003010000000000000000000000000000F5
:103FC80000000080C0E0F0F9FFFFFFFFFF3F1F0F78
:103FD80087C7F7FFFF1F1F3DFCF8F8F8F87C7DFF47
:103FE800FFFFFFFFFFFFFF7F3F0F0700303000009C
:103FF80000000000000000000000000000000000B9
:1040080000000000FEFEFC000000000000000000B0
:1040180000000000000000000000000000E0C000F8
:104028000000000000000000000030300000000028
:104038000000000000000000000000000000000078
:1040480000C0FEFFFFFFFFFFFFFFFFFF7F7F3F1F57
:104058000F071F7FFFFFF8F8FFFFFFFFFFFEF8E0E5
:10406800000000010000000000000000FEFE00004B
:1040780000FCFEFC0C06060EFCF80000F0F81C0E16
:104088000606060CFFFFFF0000FEFE00000000FC15
:10409800FEFC00183C7E66E6CE84000006FFFF06A4
:1040A80006FCFEFC0C0606060000FEFE0000C0F83A
:1040B800FC4E4646464E7C7840183C76E6CECC8090
:1040C80000000000000000000000000000000000E8
:1040D8000000000001070F1F1F3F3F3F3F1F0F0356
:1040E8000000000000000000000000000F0F0000AA
:1040F800000F0F0F000000000F0F000003070E0C49
:1041080018180C060F0F0F0000010F0E0C180C0FDB
:10411800070100040E0C180C0F070000000F0F0019
:10412800000F0F0F0000000000000F0F0000000735
:10413800070C0C181C0C060600040E0C180C0F07B4
:104148000000000000000000000000000000000067
:104158000000000000000000000000000000000057
:104168000000000000000000000000000000000047
:104178000000000000000000000000000000000037
:104188000000000000000000000000000000000027
:104198000000000000000000000000000000000017
:1041A8000000000000000000000000000000000007
:1041B80000000000000000000000000000000000F7
:1041C8000000B2078000000103070F1F3F7F008037
:1041D800C0E0F0F8FCFE314E6F646532314E6F641A
:1041E8006531000000007E03680F1503CB0346030A
:1041F8002403380300000000BC0A8F0AEC0A4E09A9
:10420800870A730A640A00000000F10A680FEC0AC2
:10421800EB0AFA064E0977094F096B095F097E090F
:104228004E099907980745049F0597087A080D08CD
:10423800AE075374617274696E672E2E2E000D0AD4
:1042480000564C203A20005652203A20004D534741
:104258003A20004449533A20004D4F443A20005335
:1042680074616E6461726400456E6368616E636553
:0C42780064004D656173757265640000A0
:00000001FF
