:100000000C94EB020C9413030C9413030C94130341
:100010000C9413030C9413030C9413030C94130308
:100020000C9413030C9413030C9413030C941303F8
:100030000C9413030C9413030C9413030C941303E8
:100040000C9427130C9413030C94F5120C94CF12F8
:100050000C9413030C9413030C9413030C941303C8
:100060000C9471130C94130300000000003E5B4FCE
:100070005B3E3E6B4F6B3E1C3E7C3E1C183C7E3C08
:10008000181C577D571C1C5E7F5E1C00183C180016
:10009000FFE7C3E7FF0018241800FFE7DBE7FF30A6
:1000A000483A060E2629792926407F050507407F14
:1000B00005253F5A3CE73C5A7F3E1C1C08081C1C87
:1000C0003E7F14227F22145F5F005F5F06097F017D
:1000D0007F006689956A606060606094A2FFA29468
:1000E00008047E040810207E201008082A1C080836
:1000F0001C2A08081E101010100C1E0C1E0C303884
:100100003E3830060E3E0E06000000000000005F84
:1001100000000007000700147F147F14242A7F2AA0
:100120001223130864623649562050000807030062
:10013000001C2241000041221C002A1C7F1C2A08AE
:10014000083E080800807030000808080808000011
:1001500060600020100804023E5149453E00427F85
:10016000400072494949462141494D331814127FD4
:100170001027454545393C4A494931412111090774
:100180003649494936464949291E000014000000F5
:1001900040340000000814224114141414140041C7
:1001A00022140802015909063E415D594E7C121184
:1001B000127C7F494949363E414141227F414141BC
:1001C0003E7F494949417F090909013E4141517337
:1001D0007F0808087F00417F41002040413F017FA8
:1001E000081422417F404040407F021C027F7F0470
:1001F00008107F3E4141413E7F090909063E4151B9
:10020000215E7F09192946264949493203017F01A8
:10021000033F4040403F1F2040201F3F4038403FA9
:10022000631408146303047804036159494D4300BF
:100230007F4141410204081020004141417F0402F6
:10024000010204404040404000030708002054548D
:1002500078407F284444383844444428384444286B
:100260007F385454541800087E090218A4A49C78BE
:100270007F0804047800447D40002040403D007F1A
:100280001028440000417F40007C047804787C08FA
:100290000404783844444438FC18242418182424CE
:1002A00018FC7C08040408485454542404043F44B3
:1002B000243C4040207C1C2040201C3C4030403CE2
:1002C00044281028444C9090907C4464544C440042
:1002D00008364100000077000000413608000201A6
:1002E0000204023C2623263C1EA1A161123A404092
:1002F000207A38545455592155557941225454780F
:1003000042215554784020545579400C1E527212A7
:100310003955555559395454545939555454580030
:1003200000457C410002457D420001457C407D1234
:1003300011127DF0282528F07C5455450020545496
:100340007C547C0A097F4932494949323A44444441
:100350003A324A4848303A4141217A3A424020787C
:10036000009DA0A07D3D4242423D3D4040403D3C7D
:1003700024FF2424487E4943662B2FFC2F2BFF09A2
:1003800029F620C0887E0903205454794100004496
:100390007D413048484A32384040227A007A0A0A81
:1003A000727D0D19317D2629292F282629292926F4
:1003B00030484D4020380808080808080808382F39
:1003C00010C8ACBA2F102834FA00007B00000814C3
:1003D0002A142222142A14085500550055AA55AA99
:1003E00055AAFF55FF55FF000000FF00101010FF39
:1003F00000141414FF001010FF00FF1010F010F094
:10040000141414FC001414F700FF0000FF00FF1484
:1004100014F404FC141417101F10101F101F1414D0
:10042000141F00101010F0000000001F101010101A
:100430001F10101010F010000000FF10101010100E
:1004400010101010FF10000000FF140000FF00FF4C
:1004500000001F10170000FC04F4141417101714E8
:1004600014F404F40000FF00F7141414141414140A
:10047000F700F7141414171410101F101F1414147D
:10048000F4141010F010F000001F101F0000001FE7
:1004900014000000FC140000F010F01010FF10FF1A
:1004A000141414FF141010101F00000000F010FFAF
:1004B000FFFFFFFFF0F0F0F0F0FFFFFF0000000093
:1004C00000FFFF0F0F0F0F0F3844443844FC4A4A17
:1004D0004A347E02020606027E027E0263554941CC
:1004E000633844443C04407E201E2006027E020203
:1004F00099A5E7A5991C2A492A1C4C7201724C3017
:100500004A4D4D303048784830BC625A463D3E49ED
:100510004949007E0101017E2A2A2A2A2A44445F91
:10052000444440514A444040444A51400000FF0185
:1005300003E080FF000008086B6B08361236243693
:10054000060F090F060000181800000010100030F8
:1005500040FF0101001F01011E00191D1712003C80
:100560003C3C3C000000000000000000240027008C
:100570002A000000000023002600290000000008D7
:10058000000201000003040700000000000000005A
:100590001112131415160A0B0C0D0E0F010204088C
:1005A00010204080010204081020010204081020DD
:1005B00000000000250028002B00040404040404AB
:1005C0000404020202020202030303030303000104
:1005D00002030405901411241FBECFEFD8E0DEBF44
:1005E000CDBF27E0A8EEB5E001C01D92A83EB2073E
:1005F000E1F715E0A0E0B1E0E6E4F2E402C0059026
:100600000D92A83EB107D9F712E0CBEED2E004C0BC
:100610002197FE010E94241FCA3ED107C9F70E94FC
:1006200010150C9421210C9400002091EA0681E021
:10063000213208F044C08091C6068111FCCF809120
:10064000E90692E09093C60691E09093C5069FEF6D
:100650009093C4061092C3062093C206A9ECB6E09C
:10066000E2EAF6E090E0291331C01092A1069091E1
:10067000A106880F892B8093A1068091A006813066
:1006800049F51092A0068091A1068093BB0080914D
:10069000BC0083FDF8CF85EC8093BC008091C6063A
:1006A0008230E1F38091C4068F3FB1F08091C4069F
:1006B0008032A1F08091C406803391F084E01092E2
:1006C000C8061092EA061092C70608953D9131932C
:1006D0009F5FC9CF85EEE0CF80E0F1CF82E0EFCF22
:1006E00083E0EDCF28E030E040E8E091DA07F091D8
:1006F000DB0750819091E107909595239083E091DD
:10070000D807F091D9079091E007582F542389F02A
:100710005081952B9083E091DA07F091DB0790816F
:100720005091E107952B9083469521503109E9F6C8
:100730000895508190959523EDCFAF92BF92CF92BF
:10074000DF92EF92FF920F931F93CF93DF936C0191
:100750007B018B01040F151FEB015E01AE18BF0872
:10076000C017D10759F06991D601ED91FC91019024
:10077000F081E02DC6010995892B79F7C501DF913C
:10078000CF911F910F91FF90EF90DF90CF90BF908E
:10079000AF90089508950895FC01538D448D252F41
:1007A00030E0842F90E0821B930B541710F0CF960B
:1007B000089501970895FC01918D828D981761F03D
:1007C000A28DAE0FBF2FB11D5D968C91928D9F5F54
:1007D0009F73928F90E008958FEF9FEF0895FC0133
:1007E000918D828D981731F0828DE80FF11D858DE6
:1007F00090E008958FEF9FEF0895FC01918D228D79
:10080000892F90E0805C9F4F821B91098F739927FD
:1008100008958BEE96E00E94FD0321E0892B09F4F8
:1008200020E0822F089580E090E0892B29F00E943B
:10083000090481110C9400000895FC01A48DA80FF7
:10084000B92FB11DA35ABF4F2C91848D90E0019612
:100850008F739927848FA689B7892C93A089B18932
:100860008C91837080648C93938D848D981306C0D3
:100870000288F389E02D80818F7D80830895EF9237
:10088000FF920F931F93CF93DF93EC0181E0888F4A
:100890009B8D8C8D98131AC0E889F989808185FF1A
:1008A00015C09FB7F894EE89FF896083E889F989BC
:1008B00080818370806480839FBF81E090E0DF91BE
:1008C000CF911F910F91FF90EF900895F62E0B8D11
:1008D00010E00F5F1F4F0F731127E02E8C8D8E11CC
:1008E0000CC00FB607FCFACFE889F989808185FF33
:1008F000F5CFCE010E941D04F1CFEB8DEC0FFD2F43
:10090000F11DE35AFF4FF0829FB7F8940B8FEA89ED
:10091000FB8980818062CFCFCF93DF93EC01888DFC
:100920008823B9F0AA89BB89E889F9898C9185FD6A
:1009300003C0808186FD0DC00FB607FCF7CF8C91F8
:1009400085FFF2CF808185FFEDCFCE010E941D048F
:10095000E9CFDF91CF910895833081F028F4813081
:1009600099F08230A9F008958730A9F08830C9F055
:100970008430B1F4809180008F7D03C0809180002D
:100980008F7780938000089584B58F7784BD089514
:1009900084B58F7DFBCF8091B0008F778093B000BE
:1009A00008958091B0008F7DF9CFCF93DF93282FEA
:1009B00030E0F901E458FA4F8491F901E456FA4F16
:1009C000D491F901E654FA4FC491CC23A1F08111DE
:1009D0000E94AC04EC2FF0E0EE0FFF1FEE58FA4F30
:1009E000A591B491EC91ED2381E090E009F480E0D1
:1009F000DF91CF91089580E090E0FACF1F93CF93DD
:100A0000DF93282F30E0F901E458FA4F8491F9017F
:100A1000E456FA4FD491F901E654FA4FC491CC232D
:100A2000A9F0162F81110E94AC04EC2FF0E0EE0F1C
:100A3000FF1FE055FA4FA591B4918FB7F894EC9150
:100A4000111108C0D095DE23DC938FBFDF91CF91C9
:100A50001F910895DE2BF8CF20919E0730919F07BC
:100A60004091A0075091A1072417350721F0682F66
:100A7000822F0C94FE040895CF93DF9390E0FC0145
:100A8000E456FA4F249186549A4FFC0184918823AE
:100A9000D1F090E0880F991FFC01E859FA4FA59119
:100AA000B491FC01E055FA4FC591D491623071F4D4
:100AB0009FB7F8943C91822F809583238C93E88193
:100AC0002E2B28839FBFDF91CF9108958FB7F89485
:100AD000EC912E2B2C938FBFF6CF806480937C00FB
:100AE00080917A00806480937A0080917A0086FDFC
:100AF000FCCF809178009091790008958230910523
:100B000038F0880F991F880F991F05970197F1F703
:100B10000895CF93DF939CB59F7D9CBD9CB5937F3B
:100B20009CBD9CB59C7F9CBD9DB591609DBDCEE953
:100B3000D7E0682F8A810E94FE048C899D89DF910D
:100B4000CF910C947E0581E00C94890580E00C9493
:100B500089053FB7F8948091510690915206A09173
:100B60005306B091540626B5A89B05C02F3F19F037
:100B70000196A11DB11D3FBFBA2FA92F982F88271D
:100B8000BC01CD01620F711D811D911D42E0660FF8
:100B9000771F881F991F4A95D1F708958F929F92CA
:100BA000AF92BF92CF92DF92EF92FF924B015C0126
:100BB0000E94A9056B017C010E94A9056C197D09A1
:100BC0008E099F09683E734081059105A8F321E0D5
:100BD000821A9108A108B10888EEC80E83E0D81ED9
:100BE000E11CF11C81149104A104B10429F7FF90C8
:100BF000EF90DF90CF90BF90AF909F908F9008952F
:100C00000895FC016370658B84819581268137810D
:100C1000613039F0633029F09187808733872287EC
:100C20000895318720879387828708952F923F9276
:100C30004F925F926F927F928F929F92AF92BF92EC
:100C4000CF92DF92EF92FF920F931F93CF93DF9398
:100C5000CDB7DEB769970FB6F894DEBF0FBECDBF34
:100C6000998F888F5B011A01D22E1F830E83370163
:100C7000C982DC0158962D913C9159972115310577
:100C800009F004C118968D919C91199768177907FE
:100C90000CF0C0C11A968D919C911B97481759076B
:100CA0000CF0B8C18C2C912CFB0126E0C29EE00D0B
:100CB000F11D1124F987E8871E161F060CF0AAC142
:100CC000A40193E0440F551F9A95E1F75D874C8787
:100CD000CA01820D931D181619060CF09BC1579678
:100CE0008C91811104C05FEA5D1508F4D394A88D3E
:100CF000B98DED91FC9111970284F385E02DCD0122
:100D00000995F5013596F98BE88BBB82AA822501FE
:100D100088E690E08A199B099C0145E0D49E200D4D
:100D2000311D11243B8B2A8BEA89FB89E40DF51DCB
:100D300024913D822C82D12CC12C622F70E07F87C0
:100D40006E87E88DF98DA081B18120FF7CC0F9818B
:100D5000F13009F069C01C96ED91FC912E813F8124
:100D6000A1014C0D5D1DB201888D998D0995EE850F
:100D7000FF85F595E7952E2F4FEFC41AD40A6C81A5
:100D80007D81680D791D7D836C8378E0C716D10461
:100D9000A1F68FEF481A580AAA81BB81A80DB91D88
:100DA000BB83AA83E889F989E415F50509F0BCCF6E
:100DB0002E813F8126153705A9F0A88DB98DED91BB
:100DC000FC91B981B13009F051C0B5016B5F7F4F23
:100DD0000088F189E02D830128E030E0A101888DB1
:100DE000998D0995A88DB98DED91FC911197068883
:100DF000F789E02DCD0169960FB6F894DEBF0FBEDE
:100E0000CDBFDF91CF911F910F91FF90EF90DF90B9
:100E1000CF90BF90AF909F908F907F906F905F909A
:100E20004F903F902F9009941E96ED91FC91EE808B
:100E3000FF80840194014C815D816A817B81888D72
:100E4000998D099594CF2E813F812615370509F498
:100E50008ECF3981313029F41C96ED91FC919301AC
:100E60007FCF1E96ED91FC917301E3CF6885798564
:100E7000681979090684F785E02D73010C851D85B5
:100E80009401A101888D998D0995ACCFF901349613
:100E90009491329745915491D91AB7E0DB9E400D59
:100EA000511D1124F90125913491398B288BFA01B8
:100EB00045905490FA01329664903196C4903296DF
:100EC0001491319604913981323008F48AC0E12EB0
:100ED000012E000CFF08402F002E000C550B5987E7
:100EE0004887A88DB98DED91FC9111970284F38507
:100EF000E02DCD010995B9818B2E912CE89CC00184
:100F0000E99C900DF89C900D1124FC01EA0DFB1D4D
:100F1000FF87EE871C82D12C712C9B868A869101DB
:100F2000200F311D07FD3A953D8B2C8BA501410FFC
:100F3000511D17FD5A955F8B4E8B7C1408F052CFD4
:100F4000872D90E048855985480F591F6A857B8514
:100F5000469F9001479F300D569F300D1124D901B7
:100F6000A20DB31DBD87AC87EE85FF85FB83EA83A9
:100F7000B12CA12C2C893D89280F391F3B8B2A8B42
:100F80008C818A0DA61408F040C0877041F4C2011C
:100F90000196E889F989E40DF51DD4902C01D7FE5E
:100FA00015C0A88DB98DED91FC91B981B130F1F4E6
:100FB0000484F585E02D2E813F814A895B896E8905
:100FC0007F896A0D7B1D888D998D0995DD0CEFEF6A
:100FD000AE1ABE0A2A813B81280D391D3B832A8324
:100FE000CFCF19861886F12CE12C7BCF0684F785AC
:100FF000E02DEE80FF80840194014C855D856A813F
:101000007B81888D998D0995E1CF3C81360D3C839C
:10101000739493CF69960FB6F894DEBF0FBECDBF21
:10102000DF91CF911F910F91FF90EF90DF90CF90C4
:10103000BF90AF909F908F907F906F905F904F90F8
:101040003F902F900895AF92BF92CF92EF92FF9270
:101050000F931F93CF93DF93EC01262F888D998DEB
:10106000009709F04FC06A30C9F41D861C868C8930
:1010700098E0899F900111248E859F85820F931F90
:101080009F878E8781E090E0DF91CF911F910F9134
:10109000FF90EF90CF90BF90AF9008956D3091F397
:1010A000CC888E898823C1F08C859D85E6E0CE9E14
:1010B000800D911D1124488559854817590764F4FE
:1010C0004E855F851D861C86F8E0CF9EC0011124E9
:1010D000840F951F9F878E87EA88FB880889198966
:1010E0004E855F856C857D85CE010E9416062C8914
:1010F0008C859D8536E0239F800D911D11249D8751
:101100008C87C0CF6A3069F41D861C86FC01369638
:10111000E4912C898E859F85E29F800D911D11247D
:10112000AFCF6D3009F4AECFFC0134963491631724
:1011300008F4A8CF3196E491E61708F4A3CFFC0198
:10114000329645915491E62FE31BFF0B37E03E9F0B
:1011500050013F9FB00C1124A40EB51EF50132962C
:1011600034913196E4913323A1F1EE2391F1CC88AF
:10117000F5013596E4914E89442301F10E2E000CC1
:10118000FF0BE30FF11DCE9EA001CF9E500D112449
:101190006C857D85460F571F6885798564177507AF
:1011A0006CF44E855F851D861C860696FC01849135
:1011B000C89E400D511D11245F874E87EA88FB8829
:1011C000088919894E855F856C857D85CE010E94D1
:1011D0001606F5013496E4912C898C859D85E29F55
:1011E000800D911D11248BCF6F927F928F929F92D1
:1011F000AF92BF92CF92DF92EF92FF920F931F9325
:10120000CF93DF93EC016B015A0139014801E8816A
:10121000F9810284F385E02D0995E881F98102883E
:10122000F389E02D87019301A501B601CE0109954F
:10123000A501480D591D41505109E881F9810288E5
:10124000F389E02D9301B601CE010995E881F9817A
:101250000088F189E02D9401A501B601CE01099520
:10126000C60CD71CB60161507109E881F98100886C
:10127000F189E02D9401A501CE010995E881F9815C
:101280000688F789E02DCE01DF91CF911F910F9154
:10129000FF90EF90DF90CF90BF90AF909F908F9096
:1012A0007F906F9009946F927F928F929F92AF92EE
:1012B000BF92CF92DF92EF92FF920F931F93CF9343
:1012C000DF935C01EB016A01490138018701DC0110
:1012D000ED91FC916217730719F5641675062CF0F1
:1012E000962D872D3A01C92ED82E96012619370939
:1012F0002F5F3F4F048CF58DE02DA301BE01C5018A
:101300000995DF91CF911F910F91FF90EF90DF90A2
:10131000CF90BF90AF909F908F907F906F900895E7
:101320004615570591F42617370724F0892D4B01F0
:10133000C22FD82F9E01281939092F5F3F4F068CE5
:10134000F78DE02DA601B401DACF0284F385E02DFC
:101350000995D501ED91FC910488F589E02D830173
:101360009401A601BE01C5010995D501ED91FC913D
:101370000688F789E02DC501DF91CF911F910F916C
:10138000FF90EF90DF90CF90BF90AF909F908F90A5
:101390007F906F900994EF92FF920F931F93DC015F
:1013A0001A960D911C911B9718962D913C911997A7
:1013B000ED91FC9100A0F1A1E02D7B0150E040E017
:1013C00070E060E009951F910F91FF90EF900895F4
:1013D0004F925F926F927F928F929F92AF92BF9245
:1013E000CF92DF92EF92FF920F931F93CF93DF93F1
:1013F0006C012B015A0139014801DC01ED91FC918E
:101400000284F385E02D0995E201640C751CD60178
:10141000ED91FC91C615D7055CF40088F189E02DAB
:1014200087019401A501BE01C60109952196EFCF60
:101430000688F789E02DC601DF91CF911F910F91AA
:10144000FF90EF90DF90CF90BF90AF909F908F90E4
:101450007F906F905F904F9009948F929F92AF9280
:10146000BF92CF92DF92EF92FF920F931F93CF9391
:10147000DF93EC015B014A016901E881F981028493
:10148000F385E02D099595012C0D3D1D2150310965
:10149000E881F9810488F589E02D78018401A401AF
:1014A000B501CE010995E881F9810688F789E02D1B
:1014B000CE01DF91CF911F910F91FF90EF90DF90C0
:1014C000CF90BF90AF909F908F9009948F929F92F2
:1014D000AF92BF92CF92DF92EF92FF920F931F9342
:1014E000CF93DF93EC015B014A0169017801E88148
:1014F000F9810284F385E02D0995C80CD91C860179
:1015000001501109E881F9810488F589E02D9501E0
:10151000A401B501CE010995E881F9810688F78912
:10152000E02DCE01DF91CF911F910F91FF90EF90B1
:10153000DF90CF90BF90AF909F908F9009940895C7
:10154000EF92FF920F931F93DC01ED91FC9100A0AD
:10155000F1A1E02D09951F910F91FF90EF90089553
:101560000F931F93DC01ED91FC91068CF78DE02D1C
:1015700009951F910F9108950F931F93DC01ED9131
:10158000FC91048CF58DE02D09951F910F91089524
:10159000DC01ED91FC910084F185E02D09942F92FE
:1015A0003F924F925F926F927F928F929F92AF92F3
:1015B000BF92CF92DF92EF92FF920F931F93CF9340
:1015C000DF9300D000D000D0CDB7DEB73C016A0178
:1015D0003E832D83FC82EB825801A41AB50AB7FE24
:1015E00003C0B194A194B1088D809E80861A970A99
:1015F00097FE03C09194819491088A149B045CF037
:10160000902F812F0D811E819D838E839C2D8D2D8A
:101610006B01692F782F0C151D055CF09D818E8163
:101620007E836D83692F782F902F812F8601C92E9D
:10163000D82E1601201A310A2B012D813E81421A23
:10164000530A57FE03C0519441945108710137FE6B
:1016500003C03FEFE31AF30AF594E7948D819E816E
:10166000861797075CF5A1E0B0E0BA83A983C0169E
:10167000D1064CF1D301ED91FC910484F585E02D68
:101680002B813C81A8016D817E818A149B041CF012
:101690004D815E81B801C3010995E418F508F7FE94
:1016A0000AC02D813E8189819A81280F391F3E838E
:1016B0002D83E20CF31C0F5F1F4FD9CF2FEF3FEFAD
:1016C0003A832983D4CF26960FB6F894DEBF0FBE97
:1016D000CDBFDF91CF911F910F91FF90EF90DF90E1
:1016E000CF90BF90AF909F908F907F906F905F90C2
:1016F0004F903F902F9008950F931F93CF93DF93B8
:10170000EC018D89823009F453C0833009F4ACC0F8
:10171000813009F05CC0EC81FD81E41BF50BAF0169
:10172000421B530B77FD3FC08E819F81681779075D
:10173000D4F557FF04C0240F351F50E040E08C81E2
:101740009D81FA01E20FF31F8E179F071CF49C0185
:10175000241B350B1216130634F5FB0177FD379663
:10176000A3E0F595E795AA95E1F7F695FE2FEE270C
:10177000F795E795E40FF51FE050FF4F6770772767
:1017800081E090E001C0880F6A95EAF7482F0130A8
:10179000110509F472C008F47CC02E0F3F1F0230FF
:1017A000110509F483C0DF91CF911F910F91089526
:1017B000AC81BD81CD01861B970BBC0161507109C5
:1017C000EE81FF81E41BF50BAF01421B530B77FD4C
:1017D000EACF8C819D81681779072CF757FF04C0E9
:1017E000240F351F50E040E08E819F81FA01E20F07
:1017F000F31F8E179F071CF49C01241B350B121638
:1018000013068CF6922FA42FA695A695A69580E890
:10181000A89FD0011124A60FB71FA050BF4F47703B
:1018200009F457C058E0541B452F652F70E0FB01A9
:10183000E25FFA4F8081251708F0B0C0621B710982
:101840002FEF30E002C0359527956A95E2F78223A5
:1018500001301105A9F108F464C00230110509F046
:10186000A2CF2C9182272EC0AE81BF81CD01861BD5
:10187000970BBC016150710955CF2E0F3F1FE21726
:10188000F30709F490CF8191DF011197842B8C939A
:10189000F6CF80952E0F3F1FE217F30709F483CF91
:1018A0009191DF01119798239C93F6CFE217F307EC
:1018B00009F479CF8191DF01119784278C93F6CFBA
:1018C0002C91822B8C93941708F46DCF941BA05805
:1018D000BF4F983008F447C00230110531F5FD01C3
:1018E000892F208120952083E058FF4F8850883031
:1018F000C0F728EF290F26952695269530E02F5F13
:101900003F4F3695322F222737952795A20FB31FC9
:10191000977009F448CFE92FF0E0EA5FFA4F808131
:1019200032C080952C918223CDCF81E0013011050A
:1019300009F080E08195FD01292F8083E058FF4F59
:1019400028502830D0F728EF290F26952695269580
:1019500030E02F5F3F4F3695322F2227379527955E
:10196000A20FB31F9770992309F41DCFE92FF0E060
:10197000EA5FFA4F80810130110541F058F00230E2
:10198000110509F010CF9C91892702C09C91892BE9
:101990008C9309CF80959C918923FACF0130110552
:1019A00009F48ECF08F4BDCF0230110509F459CFE8
:1019B0008DCF0F931F93CF93DF93EC018D898230EE
:1019C00009F45EC0833009F4B5C0813009F067C006
:1019D000AC81BD81CD01841B950BAC0141505109F7
:1019E00057FD49C08C819D81481759070CF043C0B1
:1019F00077FF04C0260F371F70E060E08E819F8163
:101A0000FB01E20FF31F8E179F071CF49C01261B9E
:101A1000370B121613067CF5922FA62FA695A695C6
:101A2000A69580E8A89FD0011124A40FB51FA0504F
:101A3000BF4F677009F48FC048E0461B642F70E009
:101A4000FB01E25FFA4F8081241708F002C1621B9C
:101A500071092FEF30E002C0359527956A95E2F7BE
:101A600082230130110509F46DC008F49CC00230D6
:101A7000110509F4F8C0DF91CF911F910F910895DE
:101A8000EC81FD81E61BF70BAE81BF81CD01841B8C
:101A9000950BAC0141505109BF01621B730B57FDFF
:101AA000EACF8E819F81481759072CF777FF04C032
:101AB000260F371F70E060E08C819D81FB01E20FF3
:101AC000F31F8E179F071CF49C01261B370B121661
:101AD00013068CF6FA0157FD379693E0F595E795D6
:101AE0009A95E1F7F695FE2FEE27F795E795E60F25
:101AF000F71FE050FF4F4770552781E090E001C08D
:101B0000880F4A95EAF7482F0130110509F488C07B
:101B100008F492C02E0F3F1F0230110509F0ABCF21
:101B2000E217F30709F4A7CF8191DF01119784270A
:101B30008C93F6CFEE81FF81E61BF70BBF01621B92
:101B4000730B4ECF2C91822B8C93941708F493CF68
:101B5000941BA058BF4F983008F447C002301105BD
:101B600031F5FD01892F208120952083E058FF4F1A
:101B700088508830C0F728EF290F2695269526959E
:101B800030E02F5F3F4F3695322F2227379527952C
:101B9000A20FB31F977009F46ECFE92FF0E0EA5F50
:101BA000FA4F808132C080952C918223CDCF81E085
:101BB0000130110509F080E08195FD01292F808316
:101BC000E058FF4F28502830D0F728EF290F2695EE
:101BD0002695269530E02F5F3F4F3695322F2227EE
:101BE00037952795A20FB31F9770992309F443CF18
:101BF000E92FF0E0EA5FFA4F80810130110541F0F2
:101C000058F00230110509F036CF9C91892702C0A7
:101C10009C91892B8C932FCF80959C918923FACF0F
:101C20002E0F3F1FE217F30709F425CF8191DF0143
:101C30001197842B8C93F6CF80952E0F3F1F2E1774
:101C40003F0709F418CF9191DF01119798239C93D6
:101C5000F6CF0130110509F475CF08F4A4CF023096
:101C6000110509F075CF2C9182276ECFDC0177FD2D
:101C700067C018968D919C911997681779070CF099
:101C80005FC057FD5DC01A968D919C911B974817B8
:101C900059070CF055C055968C9155978230B9F084
:101CA000833041F1813049F414968D919C91841BCD
:101CB000950BAB01BC01615071092130310521F157
:101CC00008F43FC02230310509F458C00895149635
:101CD000ED91FC911597E61BF70BBF01615071095F
:101CE00016968D919C91FC01E41BF50BAF014150C0
:101CF0005109E3CF16968D919C91861B970BBA01E3
:101D0000AC0141505109D9CFFA0157FD3796A3E0F4
:101D1000F595E795AA95E1F7F695FE2FEE27F7954D
:101D2000E795E60FF71FE050FF4F4770552721E07A
:101D300030E001C0220F4A95EAF78081822B808330
:101D40000895FA0157FD379623E0F595E7952A9512
:101D5000E1F7F695FE2FEE27F795E795E60FF71FCB
:101D6000E050FF4F4770552781E090E001C0880F99
:101D70004A95EAF7809590818923E1CFFA0157FDD2
:101D8000379683E0F595E7958A95E1F7F695FE2F6E
:101D9000EE27F795E795E60FF71FE050FF4F4770E6
:101DA000552721E030E001C0220F4A95EAF78081F3
:101DB0008227C5CF089585ED8093BC008091BC003B
:101DC00084FDFCCF1092C606089520912D06260FA3
:101DD0003327331F21323105ECF42091C606FC0174
:101DE00090E080E0243069F082E00895A0912D0613
:101DF0002191AC01435F594FA40FB52FB11D2C9316
:101E00000196861798F380912D06680F60932D0632
:101E100080E0089581E00895E0915A068091590686
:101E2000E81730F4F0E0E351FA4F808190E0089534
:101E30008FEF9FEF089590915A06809159062FEFEA
:101E40003FEF981748F4E92FF0E0E351FA4F208173
:101E500030E09F5F90935A06C9010895809159061A
:101E600090915A06891B990B0895CF92DF92EF92B9
:101E7000FF920F931F93CF93DF937C01CB018A01D5
:101E80002091C706222389F0EB016B01C40ED51EF9
:101E9000CC15DD0569F06991D701ED91FC910190B8
:101EA000F081E02DC7010995F3CF642F0E94E50E64
:101EB000C801DF91CF911F910F91FF90EF90DF90BC
:101EC000CF900895CF93DF931F92CDB7DEB769838C
:101ED0002091C7062223F9F02091EA06203258F01B
:101EE00021E030E0FC013383228390E080E00F901A
:101EF000DF91CF9108958091C806E82FF0E0E75375
:101F0000F94F998190838F5F8093C8068093EA068A
:101F100081E090E0ECCF61E0CE0101960E94E50EF9
:101F2000F7CF90E080E008958EBD00000DB407FE6D
:101F3000FDCF8EB50895CF93C82F8091D2078F3FE4
:101F400099F1E091DC07F091DD0780819091E20743
:101F5000892B8083E091DE07F091DF0790818091EB
:101F6000E307809589238083E091DC07F091DD070A
:101F700090818091E2078095892380838091D707A3
:101F8000882371F08C2F0E94940FE091DC07F09170
:101F9000DD0780819091E207892B8083CF9108959E
:101FA0008C2F0E947203F1CF8091D00791E0909323
:101FB000C7068093E9061092C8061092EA0660E010
:101FC00088E897E00E94620F6C2F88E897E00E94F3
:101FD000620FCF910C941503CF93DF93C82FD62FA8
:101FE0000E94A6058C2F8F7180620E94940FC82FCB
:101FF0008D2F0E94940F0E94A3058C2FDF91CF910B
:102000000895CF93C82F0E94A6058C2F0E94940F8D
:102010008FEF0E94940FC82F0E94A3058C2FCF91A1
:1020200008950F931F93CF938C0186E00E940110B7
:10203000C82FC77D85E590E0A0E0B0E00230110533
:1020400029F4C0628BE990E0A0E0B0E08093AE0795
:102050009093AF07A093B007B093B1076C2F86E0C1
:102060000E94EC0F86E00E94011091E0C81390E0FE
:10207000892FCF911F910F91089580E00E94011048
:1020800081FD0BC0682F626080E00E94EC0F65E06C
:1020900070E080E090E00C94CE050895CF930E940C
:1020A000A60581EE0E94940FC82F0E94A3058C2FD5
:1020B000CF91089580E00E942C058091AE07909109
:1020C000AF070E947E058DE10E94011081FF08C0CC
:1020D0008091AE079091AF070E947E050E944E103E
:1020E00080E00E940110682F6E7F80E00E94EC0F5C
:1020F00082E00E940110EEECF5E0E49161E070E016
:1021000001C0660FEA95EAF7682B82E00C94EC0FA9
:10211000EF92FF920F931F93CF93DF93C82F7B0112
:10212000142F0E94A6058C2F8F7180620E94940F3D
:10213000082FE701115020F089910E94940FFACFE7
:102140000E94A305802FDF91CF911F910F91FF90E7
:10215000EF900895CF93CFB7F8948091EC0581115B
:1021600027C0E4ECF5E08491E6EAF5E09491E82FED
:10217000F0E0EE0FFF1FE859FA4FA591B491EC91F2
:10218000E92321F461E08AE00E94FE0461E08AE034
:102190000E943C058CB580618CBD8CB580648CBD83
:1021A00061E08DE00E943C0561E08BE00E943C050F
:1021B0008091EC058F5F8093EC05CFBFCF910895A0
:1021C000CF92DF92EF92FF921F93CF93DF93182F5E
:1021D000EB018FB7F894C0907806D0907906E09024
:1021E0007A06F0907B068FBF812F0E94D504892B41
:1021F00031F58091E8059091E905A091EA05B0914B
:10220000EB05A7019601281B390B4A0B5B0BDA0182
:10221000C90180399140A105B10588F0812F0E9444
:10222000D504892B21F4888191E089278883C09285
:10223000E805D092E905E092EA05F092EB05DF911E
:10224000CF911F91FF90EF90DF90CF900895FB0109
:1022500001900020E9F73197AF01461B570BDC01D5
:10226000ED91FC910280F381E02D09948F929F9271
:10227000AF92BF920F931F93CF93DF93CDB7DEB78B
:10228000A1970FB6F894DEBF0FBECDBF19A24230A2
:1022900008F44AE08E010F5D1F4F842E912CB12C63
:1022A000A12CA50194010E94021FE62FB901CA01C9
:1022B000EA3004F5E05DD801EE938D01232B242B49
:1022C000252B79F790E080E0109729F0BD0186EB8F
:1022D00097E00E942711A1960FB6F894DEBF0FBEBB
:1022E000CDBFDF91CF911F910F91BF90AF909F9085
:1022F0008F900895E95CDFCFBC0186EB97E00C94EA
:102300002711CF93DF93682F70E090E080E04AE0E0
:102310000E943611EC0162E775E086EB97E00E94BF
:1023200027118C0F9D1FDF91CF910895CF92DF92DF
:10233000EF92FF92CF93DF936C01990FEE08FF08A5
:10234000F7FE21C06DE286EB97E00E942308EC01C6
:1023500066277727CB016C197D098E099F094AE012
:102360000E943611C80FD91F62E775E086EB97E02F
:102370000E9427118C0F9D1FDF91CF91FF90EF904E
:10238000DF90CF9008954AE0C701B6010E94361150
:10239000EC01EACF0F931F93CF93DF93EC01888179
:1023A0009981009759F02A813B812617370730F031
:1023B00081E0DF91CF911F910F9108958B016F5FA5
:1023C0007F4F0E944F20009759F0998388831B8389
:1023D0000A832C813D81232B59F7FC011082E8CF21
:1023E00080E0E7CFEF92FF920F931F93CF93DF939D
:1023F000EC017B01FB0101900020E9F731978F018F
:10240000061B170BB8010E94CA112881398181115E
:1024100013C02115310519F0C9010E94C61F198288
:1024200018821D821C821B821A82DF91CF911F911C
:102430000F91FF90EF9008951D830C83B701C901A0
:10244000DF91CF911F910F91FF90EF900C941A2183
:102450000E940C21FF920F931F93CF93DF938C0167
:10246000EB01F8800E94B51EF81621F06F2DC8010F
:102470000E94BD1ECE01DF91CF911F910F91FF9061
:1024800008950F931F93CF93DF9300D000D0CDB763
:10249000DEB780E00E946D0597FD039695958795C0
:1024A000959587959195819591098C0100581F4FBD
:1024B000109395060093940681E00E946D0597FDA8
:1024C0000396959587959595879591958195910911
:1024D00080589F4F909397068093960682E00E94C3
:1024E0006D0597FD0396959587959595879591959B
:1024F0008195910980589F4F9093990680939806F3
:1025000083E00E946D0597FD0396959587959595B7
:10251000879591958195910980589F4F90939B063F
:1025200080939A0600580983BE016F5F7F4F90E049
:1025300080E00E942A128091960680588A83BE010C
:102540006E5F7F4F81E090E00E942A128091980692
:1025500080588B83BE016D5F7F4F82E090E00E94C8
:102560002A1280919A0680588C83BE016C5F7F4F3F
:1025700083E090E00E942A120F900F900F900F902E
:10258000DF91CF911F910F910895CF93DF93EB01CE
:102590000E94B51E8883CE01DF91CF9108951F92CE
:1025A0000F920FB60F9211242F933F934F935F9387
:1025B0006F937F938F939F93AF93BF93EF93FF930B
:1025C0008BEE96E00E941D04FF91EF91BF91AF91B9
:1025D0009F918F917F916F915F914F913F912F913B
:1025E0000F900FBE0F901F9018951F920F920FB66D
:1025F0000F9211242F938F939F93EF93FF93E0916A
:10260000FB06F091FC068081E0910107F091020742
:1026100082FD1BC09081809104078F5F8F73209192
:102620000507821741F0E0910407F0E0E551F94F0A
:10263000958F80930407FF91EF919F918F912F9138
:102640000F900FBE0F901F9018958081F4CF1F92AE
:102650000F920FB60F9211242F933F938F939F9356
:10266000AF93BF938091780690917906A0917A06F6
:10267000B0917B063091500623E0230F2D3758F59B
:102680000196A11DB11D209350068093780690936A
:102690007906A0937A06B0937B06809151069091BB
:1026A0005206A0915306B09154060196A11DB11D8A
:1026B0008093510690935206A0935306B09354060C
:1026C000BF91AF919F918F913F912F910F900FBE2E
:1026D0000F901F90189526E8230F0296A11DB11D9B
:1026E000D2CF1F920F920FB60F9211242F933F93C8
:1026F0004F935F936F937F938F939F93AF93BF930A
:10270000EF93FF938091B900887F803609F44AC027
:10271000F0F5883209F4A7C018F5803109F49BC0A0
:10272000B8F4882309F4F9C0883009F494C0FF9103
:10273000EF91BF91AF919F918F917F916F915F9139
:102740004F913F912F910F900FBE0F901F901895B2
:10275000883109F488C0803251F78093C40614C0D0
:10276000803409F49DC040F48033B9F38833F9F61E
:102770008093C40685ECB0C0803509F485C08835E7
:1027800009F496C0883499F60E94DB0ED0CF8839C0
:1027900009F48CC038F5883729F050F4883611F0E8
:1027A000803729F683E08093C60610924F0657C003
:1027B000883809F47BC0803919F0803809F0B7CF28
:1027C00080914F06803208F071C0E0914F0681E0A1
:1027D0008E0F80934F068091BB00F0E0E15DF94FD2
:1027E00080833DC0803B39F0E0F4803A09F479C041
:1027F000883A09F09CCF84E08093C60610922E069A
:1028000010922D06E0915706F09158060995809197
:102810002D0681110FC081E080932D0610920D06C8
:1028200009C0803C09F4A6CF883C09F4A3CF883BBB
:1028300009F07DCFE0912E0681E08E0F80932E0669
:10284000F0E0E35FF94F80818093BB0090912E060A
:1028500080912D0629C08091A1068093BB0085EC54
:102860008093BC0064CF9091C3068091C2069817F4
:1028700058F5E091C30681E08E0F8093C306F0E027
:10288000EE55F94F8081E9CFE091C30681E08E0FCC
:102890008093C3068091BB00F0E0EE55F94F808332
:1028A0009091C3068091C2069817C8F285E8D8CFE8
:1028B000E091C30681E08E0F8093C3068091BB0038
:1028C000F0E0EE55F94F80838091C50681115CCF11
:1028D00081E08093A00684EA8093BC001092C60633
:1028E00026CF85EC8093BC001092C60680914F06DF
:1028F000803230F4E0914F06F0E0E15DF94F108254
:1029000060914F0670E0E0915506F09156068FE217
:1029100096E0099510924F060ACF1092C40634CF64
:10292000EBEEF6E01382128288EE93E0A0E0B0E0D6
:1029300084839583A683B78326E235E031832083A1
:1029400025EC30E03587248724EC30E03787268774
:1029500020EC30E0318B208B21EC30E0338B228B6C
:1029600022EC30E0358B248B26EC30E0378B268B45
:10297000118E128E138E148EE8E8F7E01382128205
:1029800084839583A683B78388E395E091838083CE
:10299000E6EBF7E01382128220E830E035832483EF
:1029A00080E490E0978386833187208793878287AE
:1029B000158A158614861786168681E0848B2FEF7C
:1029C0003FEF338B228B318B208B868B178A118EB6
:1029D000108E8AE495E0918380838FEF848F80A3AB
:1029E000868F858F84E0878FEEE9F7E087E090E0BF
:1029F0009183808388E090E093838283168280E2D3
:102A00008783108685E0868785E090E0A0E0B0E0CF
:102A1000848B958BA68BB78B118610929A0708959D
:102A2000CF93DF93CDB7DEB764970FB6F894DEBFD0
:102A30000FBECDBF789484B5826084BD84B58160BB
:102A400084BD85B5826085BD85B5816085BD809179
:102A50006E00816080936E001092810080918100F1
:102A600082608093810080918100816080938100E9
:102A7000809180008160809380008091B1008460AB
:102A80008093B1008091B00081608093B00080910C
:102A90007A00846080937A0080917A0082608093CB
:102AA0007A0080917A00816080937A0080917A0028
:102AB000806880937A001092C100E091FB06F0914B
:102AC000FC0682E08083E091F706F091F806108220
:102AD000E091F906F091FA068FEC808310920307DB
:102AE000E091FF06F091000786E08083E091FD060B
:102AF000F091FE06808180618083E091FD06F09177
:102B0000FE06808188608083E091FD06F091FE06DC
:102B1000808180688083E091FD06F091FE068081CF
:102B20008F7D808365E775E08BEE96E00E9427112C
:102B300062E775E08BEE96E00E94271162E084E088
:102B40000E943C0562E082E00E943C0562E083E076
:102B50000E943C0562E089E00E943C0562E086E05C
:102B60000E943C0562E085E00E943C05BE016F5F6B
:102B70007F4F90E080E00E94C51289818058990BB8
:102B80009093950680939406BE016F5F7F4F81E01E
:102B900090E00E94C51289818058990B9093970606
:102BA00080939606BE016F5F7F4F82E090E00E94A7
:102BB000C51289818058990B909399068093980645
:102BC000BE016F5F7F4F83E090E00E94C512898154
:102BD0008058990B90939B0680939A06BE016F5F75
:102BE0007F4F84E090E00E94C512198110939206F5
:102BF000BE016F5F7F4F85E090E00E94C512898122
:102C00008093930680919E0790919F072091A00743
:102C10003091A1078217930719F061E00E943C05EB
:102C20008091A0079091A10720919E0730919F0766
:102C30002817390719F061E00E943C050E94AA108C
:102C400080E00E942C0581E00E94890565E070E02B
:102C500080E090E00E94CE056CE080E00E94EC0FE6
:102C60006FE584E00E94EC0F82E090E00E9411107A
:102C7000882319F081E08093A40786E00E94011068
:102C800090E080E00E9411100E94A60580E50E945D
:102C9000940F83E70E94940F0E94A30560E08DE1EA
:102CA0000E94EC0F60E08CE10E94EC0F1092A607EE
:102CB00060E787E00E94EC0F6CE485E00E94EC0F77
:102CC0000E94A60582EE0E94940F0E94A3050E9416
:102CD0004E100E943D1080E00E940110682F6E7F10
:102CE00080E00E94EC0F90E080E00E94111065E20D
:102CF00084E00E94EC0F1D3708F01DE7612F85E08E
:102D00000E94EC0F4091AC076CE175E08AE00E94F4
:102D100088104091AC076CE175E080E10E9488105A
:102D20006091A50781E10E94EC0F4091AC0750E053
:102D300066E175E087EA97E00E941121E6E9F5E097
:102D400084914091AC0766E175E00E948810E0E94B
:102D5000F5E084916091A5070E94EC0F82E00E944B
:102D60000110EEECF5E0949161E070E001C0660FB7
:102D70009A95EAF7682B82E00E94EC0F0E945A10A5
:102D800082E08093D1078CE38093D0078091D207B3
:102D90008F3F09F441C261E08091D4070E943C0555
:102DA00061E08091D6070E943C058091D607082EED
:102DB000000C990BFC01E654FA4FE491F0E0EE0FA1
:102DC000FF1FE055FA4F259134913093DD07209392
:102DD000DC07FC01E456FA4FE491E093E2078091AE
:102DE000D407082E000C990BFC01E654FA4FE4912D
:102DF000F0E0EE0FFF1FE055FA4F2591349130932C
:102E0000DF072093DE07FC01E456FA4FE491E093DC
:102E1000E3078091D70781113EC061E08091D2071E
:102E20000E943C0561E08091D3070E943C0580919F
:102E3000D307082E000C990BFC01E654FA4FE491DD
:102E4000F0E0EE0FFF1FE055FA4F259134913093DB
:102E5000DB072093DA07FC01E456FA4FE491E09394
:102E6000E1078091D207082E000C990BFC01E65473
:102E7000FA4FE491F0E0EE0FFF1FE055FA4F259175
:102E800034913093D9072093D807FC01E456FA4FC8
:102E9000E491E093E0078091D707882331F00E9406
:102EA000AA1080E58CBD81E08DBD8091D50787FD9E
:102EB0001EC061E00E943C0561E08091D5070E9440
:102EC000FE0461E070E080E090E00E94CE0560E0EA
:102ED0008091D5070E94FE046AE070E080E090E0F7
:102EE0000E94CE0561E08091D5070E94FE048EEA23
:102EF0000E949B0F85ED0E949B0F80E80E949B0F14
:102F000088EA0E949B0F8FE30E949B0F83ED0E9433
:102F10009B0F80E00E949B0F80E40E949B0F8DE836
:102F20000E949B0F84E10E949B0F80E20E949B0FF6
:102F300080E00E949B0F81EA0E949B0F88EC0E9418
:102F40009B0F8AED0E949B0F82E10E949B0F81E8FC
:102F50000E949B0F8FEC0E949B0F89ED0E949B0F9C
:102F600081EF0E949B0F8BED0E949B0F80E40E94DB
:102F70009B0F84EA0E949B0F86EA0E949B0F8EE2C1
:102F80000E949B0F8FEA0E949B0FE0E0F1E080E03F
:102F900094E0DF019C011D9221503040E1F70E9436
:102FA0004112F4E1CF2ED12CAEE16A2E712C00E457
:102FB00010E02FB7F8948091780690917906A0914F
:102FC0007A06B0917B062FBF80939C0690939D0656
:102FD000A0939E06B0939F0680919A0790919B07BD
:102FE000891769F08823B1F0833009F4ACC108F087
:102FF00047C1813009F475C1823009F48CC1833036
:1030000009F4A9C108F0F7C1813009F472C1823016
:1030100009F489C180919A0780939B0720909C06B0
:1030200030909D0640909E0650909F0680918E069F
:1030300090918F06A0919006B091910652014101A6
:10304000881A990AAA0ABB0AD501C401893E93408D
:10305000A105B10540F020928E0630928F06409275
:1030600090065092910680918A0690918B06A091CD
:103070008C06B0918D06B201A101481B590B6A0B59
:103080007B0BDB01CA014597A105B10508F407C216
:1030900080E00E946D0597FD03969595879595951F
:1030A00087952091940630919506820F931F97FF84
:1030B00002C090E080E08F3F910519F014F08FEF8F
:1030C00090E080935C0681E00E946D0597FD039679
:1030D00095958795959587952091960630919706B9
:1030E000820F931F97FF02C090E080E08F3F910511
:1030F00019F014F08FEF90E080935D0682E00E945B
:103100006D0597FD039695958795959587952091E3
:10311000980630919906820F931F97FF02C090E0A6
:1031200080E08F3F910519F014F08FEF90E08093CD
:103130005E0683E00E946D0597FD03969595879541
:103140009595879520919A0630919B06820F931F43
:1031500097FF02C090E080E08F3F910519F014F0D6
:103160008FEF90E080935F068091930680936406D2
:1031700086E00E946D0597FD039695958795959538
:10318000879580936306809199078093650684E014
:103190000E94D5049091660680FB90F9809181068B
:1031A000819589278270982780918006819589274B
:1031B000847089279091980791959827987089270E
:1031C0008093660680915B06809367068F5F80938D
:1031D0005B060E945A108091A507982E8D3010F042
:1031E0003CE0932E9091A607882E89189111812C8E
:1031F0000E94A60580EA0E94940F2CE5E22E26E0AC
:10320000F22E9A945FEF951609F4FCC0D7018D91C8
:103210007D010E94940FF5CF10925A061092590624
:103220001092C8061092EA061092C60681E08093BA
:10323000C5061092A00661E082E10E94FE0461E0F2
:1032400083E10E94FE048091B9008E7F8093B900D3
:103250008091B9008D7F8093B90088E48093B80095
:1032600085E48093BC008AEC93E0909358068093A9
:1032700057068BEC93E0909356068093550615CE37
:10328000853009F490C008F476C0863009F0B7CED6
:103290008091920690E090939D0780939C07809187
:1032A0009C0790919D078937910524F010929D0706
:1032B00010929C0780919C0790919D0797FF06C0F4
:1032C00048E750E050939D0740939C0780919C07EE
:1032D000809392068C87BE01645F7F4F84E090E00C
:1032E00017C0809194069091950690939D078093C6
:1032F0009C0780919C0790919D07809394069093E2
:10330000950680588F83BE01695F7F4F90E080E013
:103310000E942A127FCE80919606909197069093F4
:103320009D0780939C0780919C0790919D078093B7
:1033300096069093970680588887BE01685F7F4FF6
:1033400081E090E0E5CF8091980690919906909366
:103350009D0780939C0780919C0790919D07809387
:1033600098069093990680588987BE01675F7F4FC2
:1033700082E090E0CDCF80919A0690919B06909349
:103380009D0780939C0780919C0790919D07809357
:103390009A0690939B0680588A87BE01665F7F4F8E
:1033A00083E090E0B5CF8091930690E090939D07E5
:1033B00080939C0780919C0790919D07059724F02E
:1033C00010929D0710929C0780919C0790919D07F9
:1033D00097FF06C084E090E090939D0780939C0740
:1033E00080919C07809393068B87BE01655F7F4F1A
:1033F00085E090E08DCF8530E9F228F2863009F43F
:103400004ECF08CE8A94BFEF8B1621F080E00E9449
:10341000940FF8CF0E94A30581E00E942C050E9422
:10342000A6058FEF0E94940FF82E0E94A3058F2D02
:103430008073A9F380E00E942C0560E787E00E947A
:10344000EC0F84FD0E944E100E943D1080E00E940F
:103450000110682F616080E00E94EC0F60E787E058
:103460000E94EC0F81E00E942C058091A707882321
:1034700009F4F8C04091AC0767EA77E08AE00E945F
:1034800088108DE10E94011081FD0E944E10209253
:103490008A0630928B0640928C0650928D0680915F
:1034A0009C0690919D06A0919E06B0919F0640912A
:1034B0008606509187066091880670918906841B64
:1034C000950BA60BB70B8D3B9240A105B10508F4F7
:1034D000ACC281E08093CA0781E090E09093C90775
:1034E0008093C8079093C7078093C6071092C307BD
:1034F0001092C2071092C5071092C40780919A07D4
:10350000813021F41092C7071092C60781E895E038
:103510000E947C1180915C060E94811180919A0723
:10352000813051F421E030E03093C9072093C8077F
:103530003093C7072093C6071092C3071092C207A3
:103540009AE0292E312C3092C5072092C407823090
:1035500051F41092C7071092C60781E090E0909353
:10356000C9078093C80787E895E00E947C11809185
:103570005D060E94811180919A07823051F481E0AA
:1035800090E09093C9078093C8079093C7078093F2
:10359000C6071092C3071092C207D092C507C09207
:1035A000C4078DE895E00E947C118091810690E02F
:1035B0000E9496111092C3071092C2077092C5071D
:1035C0006092C40783E995E00E947C1184E00E9428
:1035D000D5040E9496111092C3071092C207B8E258
:1035E0004B2E512C5092C5074092C40780919A07E8
:1035F000853051F41092C7071092C60781E090E021
:103600009093C9078093C80789E995E00E947C11CF
:103610001A8219821C821B821E821D8270E060E069
:10362000CE0101960E94CA1129813A8181112DC0D3
:103630002115310519F0C9010E94C61F1A8219828D
:103640001E821D821C821B828091930663EA75E0B4
:10365000823059F110F56FE975E0813031F162EB9C
:1036600075E023C082E00E940110EEECF5E0949139
:1036700021E030E001C0220F9A95EAF72095622FF1
:10368000682382E00E94EC0FFCCE1E821D8264E75C
:1036900075E0C9010E941A21D7CF68EA75E083302E
:1036A00021F06DEA75E08430D1F6CE0101960E94DA
:1036B000F2114D815E8169817A8186EB97E00E94EB
:1036C0009D0362E775E086EB97E00E9427118091E9
:1036D0009A07853051F421E030E03093C9072093F8
:1036E000C8073093C7072093C6071093C3070093FA
:1036F000C2071092C5071092C407833051F410928C
:10370000C7071092C60781E090E09093C9078093A5
:10371000C80787EB95E00E947C1180915E060E94AD
:10372000811180919A07833051F421E030E0309389
:10373000C9072093C8073093C7072093C607109383
:10374000C3070093C207AAE08A2E912C9092C50766
:103750008092C407843051F41092C7071092C607B4
:1037600081E090E09093C9078093C8078DEB95E0C6
:103770000E947C1180915F060E94811180919A07BE
:10378000843051F481E090E09093C9078093C8079A
:103790009093C7078093C6071093C3070093C2078F
:1037A000D092C507C092C40783EC95E00E947C11BB
:1037B0008091800690E00E9496111093C3070093B9
:1037C000C2077092C5076092C40789EC95E00E9419
:1037D0007C11809163060E9481111093C3070093AE
:1037E000C207F8E2AF2EB12CB092C507A092C40771
:1037F0008FEC95E00E947C1180916A060E948111F5
:1038000080919A07873009F5D092C307C092C2070A
:103810008FE290E09093C5078093C4071092C7078A
:103820001092C607EE24E394F12CF092C907E092BF
:10383000C80785ED95E00E947C11F092C907E092DF
:10384000C807F092C707E092C6071092C30710920C
:10385000C20779E3E72EF12CF092C507E092C40786
:1038600081EE95E00E947C118DE090E09093C3077B
:103870008093C207F092C507E092C40760915B068F
:1038800070E090E080E04AE00E94361183E290E030
:103890009093C3078093C207F092C507E092C407D4
:1038A00084EE95E00E947C1180E390E09093C30742
:1038B0008093C207F092C507E092C4076091710639
:1038C00070E090E080E04AE00E94361186E490E0EB
:1038D0009093C3078093C207F092C507E092C40794
:1038E00080919A07863051F41092C7071092C6074C
:1038F00081E090E09093C9078093C80785EA95E03E
:103900000E947C1183E590E09093C3078093C207E7
:1039100089E390E09093C5078093C4076091920675
:1039200070E090E080E04AE00E94361180919A07B2
:10393000863051F481E090E09093C9078093C807E6
:103940009093C7078093C60781E20E949B0F80E097
:103950000E949B0F8FE70E949B0F82E20E949B0FA9
:1039600080E00E949B0F87E00E949B0F8091D2070E
:103970008F3F09F4E6C0E091DC07F091DD0780811C
:103980009091E207892B8083E091DE07F091DF07B9
:1039900080819091E307892B8083E091DC07F0918F
:1039A000DD0790818091E20780958923808350E034
:1039B000E52E51E0F52E60E0862E65E0962ED701CB
:1039C0008D917D019091D707992309F4B7C00E948A
:1039D000940F8E149F0499F7E091DC07F091DD07B6
:1039E00080819091E207892B8083E0E0F1E080E024
:1039F00094E0DF019C011D9221503040E1F7898164
:103A00009A81009711F00E94C61F80919C069091A8
:103A10009D06A0919E06B0919F0680938606909386
:103A20008706A0938806B093890687E10E9401105B
:103A300080FFBDC081E080937606809175068F5F20
:103A400080937506809168068111F1C080916906A6
:103A5000882309F4ECC0809171068111E8C081E0EF
:103A60008093770661E876E082E00E94E01060E8EB
:103A700076E083E00E94E0108FB7F89420907806FB
:103A80003090790640907A0650907B068FBF89E08F
:103A90000E94D504892B39F580917C0690917D0692
:103AA000A0917E06B0917F0652014101881A990AC1
:103AB000AA0ABB0AD501C40180399140A105B1050C
:103AC000C0F089E00E94D504892B29F480919A07DF
:103AD0008F5F80939A0720927C0630927D064092F9
:103AE0007E0650927F0680919A07873010F01092E0
:103AF0009A0786E00E94D50421E0892B09F420E092
:103B00002093940785E00E94D50421E0009709F4F2
:103B100020E020939607309195072091940731116A
:103B200089C0222309F4ABC0009709F0D0C022233A
:103B300009F4A5C0892B09F484C0A1C00E947203B6
:103B400048CF2090B8008CE08093B80030E0E32E9E
:103B500031E0F32E40E0442E45E0542EBB24B394D4
:103B60008091D007B092C7068093E9061092C806EC
:103B70001092EA0660E488E897E00E94620F47012D
:103B800020E1322EF40161914F0188E897E00E9414
:103B9000620F3A943110F6CF0E941503F0E1EF0E58
:103BA000F11C4E145F04E1F62092B8001ECF509035
:103BB0007306509272068091A5079AE0892E8A308A
:103BC00008F4882E9091A607982E98189111912CA0
:103BD0000E94A60581E60E94940F88E6E82E86E002
:103BE000F82E8A943FEF831639F08FEF0E94940FDE
:103BF000D7018D937D01F5CF9A94BFEF9B1621F0ED
:103C00008FEF0E94940FF8CF0E94A30560E787E032
:103C10000E94EC0F80917106809373068150851984
:103C20008093740610927606109275060BCF109250
:103C3000770618CF222309F447C0211120C0892B11
:103C4000F1F080919C0690919D06A0919E06B09106
:103C50009F06409182065091830660918406709180
:103C600085064C015D01841A950AA60AB70AB501BA
:103C7000A401433351056105710508F064C086E075
:103C80000E94D50421E0892B09F420E020939507B8
:103C900085E00E94D50421E0892B09F420E02093DF
:103CA000970780919A07873011F40E94411280E0B3
:103CB00090E0892B09F47DC90E940904882309F446
:103CC00070C90E9400006DC9009709F0B8CF4091FB
:103CD0009C0650919D0660919E0670919F06498BAF
:103CE0005A8B6B8B7C8B409182065091830660913E
:103CF00084067091850629883A884B885C88241A46
:103D0000350A460A570AB201A1014333510561053C
:103D10007105B0F029883A884B885C882092820629
:103D200030928306409284065092850640919C070B
:103D300050919D074150510950939D0740939C0716
:103D400031117BCFF4CE8093820690938306A093AB
:103D50008406B093850680919C0790919D070196FB
:103D600090939D0780939C078ACFF999FECF92BDCF
:103D700081BDF89A992780B50895262FF999FECF2D
:103D80001FBA92BD81BD20BD0FB6F894FA9AF99A78
:103D90000FBE019608952F923F924F925F926F92BD
:103DA0007F928F929F92AF92BF92CF92DF92EF92CB
:103DB000FF920F931F93CF93DF93CDB7DEB7CA1B4C
:103DC000DB0B0FB6F894DEBF0FBECDBF09942A8877
:103DD000398848885F846E847D848C849B84AA841F
:103DE000B984C884DF80EE80FD800C811B81AA81AC
:103DF000B981CE0FD11D0FB6F894DEBF0FBECDBF77
:103E0000ED010895A1E21A2EAA1BBB1BFD010DC0F6
:103E1000AA1FBB1FEE1FFF1FA217B307E407F5077A
:103E200020F0A21BB30BE40BF50B661F771F881F56
:103E3000991F1A9469F760957095809590959B01EC
:103E4000AC01BD01CF010895EE0FFF1F0590F49165
:103E5000E02D09940F931F93CF93DF938230910548
:103E600010F482E090E0E091E607F091E70730E09F
:103E700020E0B0E0A0E0309799F42115310509F475
:103E80004AC0281B390B24303105D8F58A819B8123
:103E90006115710589F1FB0193838283FE0111C0D5
:103EA000408151810281138148175907E0F048177A
:103EB000590799F4109761F012960C931297139684
:103EC0001C933296CF01DF91CF911F910F910895EE
:103ED0000093E6071093E707F4CF2115310551F061
:103EE0004217530738F0A901DB019A01BD01DF0138
:103EF000F801C1CFEF01F9CF9093E7078093E60770
:103F0000CDCFFE01E20FF31F81939193225031092F
:103F100039832883D7CF2091E4073091E507232BFD
:103F200041F420910205309103053093E507209379
:103F3000E40720910005309101052115310541F478
:103F40002DB73EB74091040550910505241B350B54
:103F5000E091E407F091E507E217F307A0F42E1BC8
:103F60003F0B2817390778F0AC014E5F5F4F2417DD
:103F7000350748F04E0F5F1F5093E5074093E40765
:103F8000819391939FCFF0E0E0E09CCFCF93DF93BC
:103F90000097E9F0FC01329713821282A091E607A4
:103FA000B091E707ED0130E020E01097A1F4208107
:103FB0003181820F931F2091E4073091E507281784
:103FC000390709F061C0F093E507E093E407DF915A
:103FD000CF910895EA01CE17DF07E8F54A815B81AA
:103FE0009E0141155105B1F7E901FB83EA8349912F
:103FF0005991C40FD51FEC17FD0761F480819181A1
:104000000296840F951FE9019983888382819381A9
:104010009B838A83F0E0E0E012968D919C91139748
:104020000097B9F52D913C911197CD010296820F21
:10403000931F2091E4073091E5072817390739F6D7
:10404000309751F51092E7071092E607B093E50715
:10405000A093E407BCCFD383C28340815181840FF6
:10406000951FC817D90761F44E5F5F4F888199810A
:10407000480F591F518340838A819B819383828398
:104080002115310509F0B0CFF093E707E093E6077B
:104090009ECFFD01DC01C0CF13821282D7CFB0E0EA
:1040A000A0E0E5E5F0E20C94CD1E8C01009751F400
:1040B000CB010E942A1F8C01C801CDB7DEB7E0E119
:1040C0000C94E91EFC01E60FF71F9C0122503109F8
:1040D000E217F30708F49DC0D901CD91DC91119747
:1040E000C617D70798F0C530D10530F3CE01049735
:1040F0008617970708F3C61BD70B2297C193D19356
:104100006D937C93CF010E94C61FD6CF5B01AC1A82
:10411000BD0A4C018C0E9D1EA091E607B091E707E9
:10412000512C412CF12CE12C109731F58091E407B2
:104130009091E5078815990509F05CC04616570669
:1041400008F058C08091000590910105009741F456
:104150008DB79EB74091040550910505841B950BC2
:10416000E817F90708F055C0F093E507E093E40776
:10417000F90171836083A0CF8D919C911197129664
:104180006C90129713967C901397A815B90559F562
:104190006C0142E0C40ED11CCA14DB0420F1AC0156
:1041A0004A195B09DA011296159780F062827382D0
:1041B00051834083D9016D937C93E114F10471F034
:1041C000D7011396FC93EE93129776CF22968C0F1D
:1041D0009D1FF90191838083F301EFCFF093E707EF
:1041E000E093E60769CF4816590608F42C017D01D3
:1041F000D3019ACFCB010E942A1F7C01009749F07E
:10420000AE01B8010E941121C8010E94C61F87019A
:1042100053CF10E000E050CF81E090E0F8940C9490
:104220002121FB01DC0102C001900D924150504060
:10423000D8F70895FB01DC0101900D920020E1F711
:064240000895F894FFCF81
:104246000000000000000000000000000000000068
:104256000000000000000000000000000000000058
:104266000000000000000000000000000000000048
:1042760000000000000000000000000000000080B8
:104286008080000000000000000000000000000028
:10429600008080C0C0000000000000000000000098
:1042A6000000000000000000000000000000000008
:1042B60000000000000000000000000000000000F8
:1042C60000000000000000000000000000000000E8
:1042D6000000000080C0E0F0F8FCF8E000000000FC
:1042E6000000000000000000000000000080808048
:1042F600808000808000000000808080808000FF39
:10430600FFFF0000000080808080000080800000A9
:1043160080FFFF8080008080008080808000808019
:104326000000000000808000008C8E84000080F871
:10433600F8F8800000000000000000000000000007
:10434600F0F0F0F0F0F0F0F0F0F0F0F0E0E0C08027
:1043560000E0FCFEFFFFFF7FFFFFFFFFFF00000006
:104366000000000000000000000000FEFFC7010181
:10437600010183FFFF00007CFEC70101010183FFED
:10438600FFFF0038FEC78301010183C7FFFF00005E
:1043960001FFFF010100FFFF0701010100007FFF90
:1043A60080000000FFFF7F0000FFFFFF000001FF0D
:1043B600FFFF0100000000000000000000000000F8
:1043C600030F3F7F7FFFFFFFFFFFFFFFE7C7C78F9B
:1043D6008F9FBFFFFFC3C0F0FFFFFFFFFFFCFCFC8A
:1043E600FCFCFCFCFCF8F8F0F0E0C0000103030361
:1043F600030301030300000000010303030301019B
:10440600030100000001030303030101030300008D
:104416000003030000000303000000000000000189
:10442600030303030301000000010301000000036E
:104436000301000000000000000000000000000072
:1044460000000080C0E0F0F9FFFFFFFFFF3F1F0FF5
:1044560087C7F7FFFF1F1F3DFCF8F8F8F87C7DFFC4
:10446600FFFFFFFFFFFFFF7F3F0F07003030000019
:104476000000000000000000000000000000000036
:1044860000000000FEFEFC0000000000000000002E
:1044960000000000000000000000000000E0C00076
:1044A60000000000000000000000303000000000A6
:1044B60000000000000000000000000000000000F6
:1044C60000C0FEFFFFFFFFFFFFFFFFFF7F7F3F1FD5
:1044D6000F071F7FFFFFF8F8FFFFFFFFFFFEF8E063
:1044E600000000010000000000000000FEFE0000C9
:1044F60000FCFEFC0C06060EFCF80000F0F81C0E94
:104506000606060CFFFFFF0000FEFE00000000FC92
:10451600FEFC00183C7E66E6CE84000006FFFF0621
:1045260006FCFEFC0C0606060000FEFE0000C0F8B7
:10453600FC4E4646464E7C7840183C76E6CECC800D
:104546000000000000000000000000000000000065
:104556000000000001070F1F1F3F3F3F3F1F0F03D3
:104566000000000000000000000000000F0F000027
:10457600000F0F0F000000000F0F000003070E0CC6
:1045860018180C060F0F0F0000010F0E0C180C0F59
:10459600070100040E0C180C0F070000000F0F0097
:1045A600000F0F0F0000000000000F0F00000007B3
:1045B600070C0C181C0C060600040E0C180C0F0732
:1045C60000000000000000000000000000000000E5
:1045D60000000000000000000000000000000000D5
:1045E60000000000000000000000000000000000C5
:1045F60000000000000000000000000000000000B5
:1046060000000000000000000000000000000000A4
:104616000000000000000000000000000000000094
:104626000000000000000000000000000000000084
:104636000000000000000000000000000000000074
:104646000000E8078000000103070F1F3F7F00807E
:10465600C0E0F0F8FCFE314E6F646532314E6F6497
:104666006531000000003F049D03CC038C04FD036C
:10467600DB03EF0300000000620F350F910F9F0A66
:104686002E0F1B0F0C0F0000000023089D03910F37
:10469600DA0E360E9F0AC80AA00ABC0AB00ACF0A6A
:1046A6009F0A010600067C0BD90CE809CB095309C1
:1046B600F4080D0A005374617274696E672E2E2E0B
:1046C600004C58203A20004C59203A20004C5357B1
:1046D6003A20005349443A20004D4F443A200053B3
:1046E600544400454E4348004D53524400415554EE
:1046F6004F004E4F4E45005258203A200052592046
:104706003A20005253573A2000504F543A20004462
:1047160049533A200043414C4942524154494F4E75
:084726000054780052780000F5
:00000001FF
