:100000000C946B000C9493000C9493000C9493004C
:100010000C9493000C9493000C9493000C94930014
:100020000C9493000C9493000C9493000C94930004
:100030000C9493000C9493000C9493000C949300F4
:100040000C94FA050C9493000C9404040C949C02F8
:100050000C9493000C9493000C9493000C949300D4
:100060000C9493000C9493000000000024002700DF
:100070002A00010204081020408001020408102018
:10008000010204081020040404040404040402020D
:1000900002020202030303030303111213141516D1
:1000A0000A0B0C0D0E0F00010203040500000000F6
:1000B000250028002B000000000023002600290056
:1000C0000000000800020100000304070000000017
:1000D00000000000F30711241FBECFEFD8E0DEBF01
:1000E000CDBF26E0A4E4B1E001C01D92AA31B20761
:1000F000E1F711E0A0E0B1E0ECE7FAE102C0059021
:100100000D92A434B107D9F710E0CBE6D0E004C0DB
:100110002197FE010E943A0BCA36D107C9F70E9407
:100120004D080C943C0D0C940000CF92DF92EF929E
:10013000FF920F931F93CF93DF936C017A018B0192
:10014000C0E0D0E0CE15DF0581F0D8016D918D01C2
:10015000D601ED91FC910190F081E02DC601099549
:10016000892B11F02196EECF7E01C701DF91CF914F
:100170001F910F91FF90EF90DF90CF90089580E551
:1001800091E00E94F70221E0892B09F420E0822F00
:1001900008958F929F92AF92BF92CF92DF92EF928B
:1001A000FF920E94C9054B015C0185E0C82ED12C4D
:1001B000E12CF12C0E94C905DC01CB0188199909B9
:1001C000AA09BB09883E9340A105B10598F321E037
:1001D000C21AD108E108F10888EE880E83E0981E63
:1001E000A11CB11CC114D104E104F10419F7FF9062
:1001F000EF90DF90CF90BF90AF909F908F90089539
:100200000E94270DCF93DF939CB59F7D9CBD9CB52D
:10021000937F9CBD9CB59C7F9CBD9DB591609DBD11
:10022000CDEED1E0682F8A810E9453058C899D898B
:10023000DF91CF910C94BE05CF93C82F80E00E9430
:1002400002018C2F0E944406C82F81E00E94020107
:100250008C2FCF91089581EE0C941C01CF93C82F61
:1002600080E00E9402018C2F8F710E9444068FEF64
:100270000E944406C82F81E00E9402018C2FCF917A
:100280000895CF93DF93C82FD62F80E00E940201FC
:100290008C2F8F7180620E944406C82F8D2F0E9480
:1002A000440681E00E9402018C2FDF91CF910895D6
:1002B0000F931F93CF938C0186E00E942E01C82FCD
:1002C000C77D0230110531F4C0628BE990E0A0E0F7
:1002D000B0E00DC00130110529F085E590E0A0E007
:1002E000B0E005C0C86081E490E0A0E0B0E0809399
:1002F000FD019093FE01A093FF01B09300026C2FCB
:1003000086E00E94410186E00E942E0191E0C81320
:1003100090E0892FCF911F910F910895EF92FF9256
:100320000F931F93CF93DF93182F7B01C42F80E08F
:100330000E940201812F8F7180620E944406D82F93
:100340008701CC2339F0F80181918F010E94440686
:10035000C150F7CF81E00E9402018D2FDF91CF9134
:100360001F910F91FF90EF9008952091ED01309132
:10037000EE014091EF015091F0012417350721F073
:10038000682F822F0C945305089580E00E942E015F
:1003900081FD07C0682F626080E00E9441010C94DB
:1003A000C900089580E00E94B5018091FD019091FF
:1003B000FE010E94BE058DE10E942E0181FF08C052
:1003C0008091FD019091FE010E94BE050E942B01CB
:1003D00080E00E942E01682F6E7F80E00E94410124
:1003E00082E00E942E01E6EAF0E0E49161E070E034
:1003F00001C0660FEA95EAF7682B82E00C94410190
:1004000042E050E064E271E080E591E00C949500F8
:100410000F931F93CF93DF93EC018881998100970D
:1004200029F02A813B812617370788F48B016F5FFB
:100430007F4F0E94610C009761F0998388831B8332
:100440000A832C813D81232B11F4FC01108281E071
:1004500001C080E0DF91CF911F910F910895EF923D
:10046000FF920F931F93CF93DF936115710511F4E2
:1004700080E01CC041155105C1F07B01EC018C816D
:100480009D818A01080F191FB801CE010E94080240
:10049000882371F3288139818C819D81B701820F76
:1004A000931F0E94350D1D830C8381E0DF91CF9156
:1004B0001F910F91FF90EF900895CF93DF9300D09D
:1004C000CDB7DEB720E229831A8241E050E0BE01B9
:1004D0006F5F7F4F0E942F020F900F90DF91CF919F
:1004E0000895EF92FF920F931F93CF93DF9300D065
:1004F00000D0CDB7DEB77C01862F4AE08E010F5FBA
:100500001F4FB80190E00E94CE0AF8010190002030
:10051000E9F73197AF01401B510BB801C7010E94A9
:100520002F020F900F900F900F90DF91CF911F919E
:100530000F91FF90EF9008951F920F920FB60F92B8
:1005400011242F933F934F935F936F937F938F93D8
:100550009F93AF93BF93EF93FF9380E591E00E9449
:100560003604FF91EF91BF91AF919F918F917F9151
:100570006F915F914F913F912F910F900FBE0F9010
:100580001F901895089580E090E00895FC01538D28
:10059000448D252F30E0842F90E0821B930B54175D
:1005A00010F0CF96089501970895FC01918D828DEA
:1005B000981761F0828DDF01A80FB11D5D968C91B7
:1005C000928D9F5F9F73928F90E008958FEF9FEFC2
:1005D0000895FC01918D828D981731F0828DE80F7E
:1005E000F11D858D90E008958FEF9FEF0895FC0138
:1005F000918D228D892F90E0805C9F4F821B910905
:100600008F739927089580E090E0892B29F00E944C
:10061000BF0081110C9400000895833081F028F40C
:10062000813099F08230A1F008958730A9F08830A8
:10063000B9F08430D1F4809180008F7D03C0809127
:1006400080008F7780938000089584B58F7702C0F3
:1006500084B58F7D84BD08958091B0008F7703C0ED
:100660008091B0008F7D8093B00008958E3008F0A7
:100670008E508770806480937C0080917A008064C3
:1006800080937A0080917A0086FDFCCF809178007B
:100690002091790090E0922B0895EF92FF920F93B2
:1006A0001F93CF93DF93CDB7DEB72E970FB6F89495
:1006B000DEBF0FBECDBF1A8619861C861B861E861E
:1006C0001D8660E070E0CE0109960E94080229852F
:1006D0003A8581110DC02115310519F0C9010E941B
:1006E000D80B1A8619861E861D861C861B8607C097
:1006F0001E861D8666E271E0C9010E94350D60917B
:100700000106CE0109960E947102CE0109960E944F
:100710005D0260910206CE0109960E947102CE012F
:1007200009960E945D0260910306CE0109960E941F
:100730007102CE0109960E945D0260910406CE010D
:1007400009960E947102CE0109960E945D02609195
:100750000806CE0109960E947102CE0109960E94F8
:100760005D0260910A06CE0109960E947102CE01D7
:1007700009960E945D024FE050E063E371E0CE0114
:1007800009960E942F0200E010E0CE0101967C0144
:1007900080910B0690E0002E02C0959587950A94F3
:1007A000E2F74AE0B701817099270E94CE0AF7016B
:1007B00001900020E9F73197AF014E195F09B701A9
:1007C000CE0109960E942F020F5F1F4F08301105BE
:1007D000F9F64D855E8569857A8580E591E00E9410
:1007E00095000E94000289859A850E94D80B2E965A
:1007F0000FB6F894DEBF0FBECDBFDF91CF911F9132
:100800000F91FF90EF9008951F920F920FB60F92E5
:1008100011242F938F939F93EF93FF93E0916001A7
:10082000F09161018081E0916601F091670182FDA4
:1008300012C09081809169018F5F8F7320916A014E
:10084000821751F0E0916901F0E0E05BFE4F958F77
:100850008093690101C08081FF91EF919F918F91F9
:100860002F910F900FBE0F901F901895FC01848D53
:10087000DF01A80FB11DA35ABF4F2C91848D90E0CA
:1008800001968F739927848FA689B7892C93A089A5
:10089000B1898C91837080648C93938D848D98132F
:1008A00006C00288F389E02D80818F7D80830895C2
:1008B000EF92FF920F931F93CF93DF93EC0181E0B0
:1008C000888F9B8D8C8D981305C0E889F98980816C
:1008D00085FD26C0F62E0B8D10E00F5F1F4F0F73A6
:1008E0001127E02E8C8DE8120CC00FB607FCFACF52
:1008F000E889F989808185FFF5CFCE010E94360411
:10090000F1CF8B8DFE01E80FF11DE35AFF4FF0820E
:100910009FB7F8940B8FEA89FB89808180620AC0B7
:100920009FB7F894EE89FF896083E889F98980810F
:100930008370806480839FBF81E090E0DF91CF91DE
:100940001F910F91FF90EF900895CF93DF93EC01EB
:10095000888D8823C9F0EA89FB89808185FD05C0DF
:10096000A889B9898C9186FD0FC00FB607FCF5CF19
:10097000808185FFF2CFA889B9898C9185FFEDCF61
:10098000CE010E943604E7CFDF91CF910895CF9337
:10099000DF93282F30E0F901E054FF4F8491F901F3
:1009A000EE58FF4FD491F901EA57FF4FC491CC2381
:1009B00091F081110E940D03EC2FF0E0EE0FFF1F6C
:1009C000EA54FF4FA591B491EC91ED2381E090E0C2
:1009D00021F480E002C080E090E0DF91CF910895A3
:1009E00081E00E94360397FD03969595879595952E
:1009F00087958093020680E00E94360397FD039658
:100A000095958795959587958093010683E00E943B
:100A1000360397FD039695958795959587958093D1
:100A2000040682E00E94360397FD0396959587950C
:100A3000959587958093030686E00E94360397FD7F
:100A4000039695958795959587958093080680914F
:100A50004B0180930A0684E00E94C70420910B0694
:100A6000919581959109822781709927822790918C
:100A7000450191959827927098278091440181951E
:100A800089278470892790914A01919598279870B9
:100A9000892780930B068091000680930C068F5F58
:100AA0008093000608951F93CF93DF93282F30E0A3
:100AB000F901E054FF4F8491F901EE58FF4FD491B2
:100AC000F901EA57FF4FC491CC23C1F0162F8111D1
:100AD0000E940D03EC2FF0E0EE0FFF1FE455FF4FD7
:100AE000A591B4919FB7F894111104C08C91D09541
:100AF000D82302C0EC91DE2BDC939FBFDF91CF9116
:100B00001F910895CF93DF9390E0FC01EE58FF4FC3
:100B10002491FC01EA57FF4F8491882361F190E012
:100B2000880F991FFC01E859FF4FC591D491FC0132
:100B3000E455FF4FA591B491611109C09FB7F89496
:100B40008881209582238883EC912E230BC062300C
:100B500061F49FB7F8948881322F3095832388837E
:100B6000EC912E2B2C939FBF06C08FB7F894E88191
:100B70002E2B28838FBFDF91CF910895823091056E
:100B800038F0880F991F880F991F05970197F1F783
:100B900008953FB7F8948091120690911306A091A2
:100BA0001406B091150626B5A89B05C02F3F19F075
:100BB0000196A11DB11D3FBFBA2FA92F982F8827DD
:100BC000820F911DA11DB11DBC01CD0142E0660F38
:100BD000771F881F991F4A95D1F708952FB7F8946A
:100BE00060910E0670910F0680911006909111068B
:100BF0002FBF08951F920F920FB60F9211242F93BB
:100C00003F938F939F93AF93BF9380910E069091E4
:100C10000F06A0911006B091110630910D0623E049
:100C2000230F2D3720F40196A11DB11D05C026E824
:100C3000230F0296A11DB11D20930D0680930E0671
:100C400090930F06A0931006B093110680911206A0
:100C500090911306A0911406B09115060196A11D5E
:100C6000B11D8093120690931306A0931406B093BF
:100C70001506BF91AF919F918F913F912F910F904A
:100C80000FBE0F901F9018958EBD00000DB407FE8B
:100C9000FDCF8EB508950F931F93CF93DF930E94DE
:100CA000D201C091F401DC2FCD3008F0DCE080915E
:100CB000F501811102C0CD1B01C0C0E080E00E949F
:100CC000020180EA0E94440601E016E0D15030F0B3
:100CD000F80181918F010E944406F8CFCC2329F0BE
:100CE00080E00E944406C150F9CF81E00E940201D9
:100CF00081E00E94B5018FEF0E941C018073D9F33F
:100D000080E00E94B50160E787E00E94410184FD18
:100D10000E942B010E94C50180E00E942E01682FD5
:100D2000616080E00E94410160E787E00E9441012C
:100D300081E00E94B5018091F601882341F0409145
:100D4000FB0166EF71E08AE00E948E0112C082E032
:100D50000E942E01E6EAF0E0E49121E030E001C0DB
:100D6000220FEA95EAF72095622F682382E00E941D
:100D700041018DE10E942E0181FF06C0DF91CF91DC
:100D80001F910F910C942B01DF91CF911F910F9127
:100D90000895EF92FF920F931F93CF93DF937C01FF
:100DA000A8ECEA0EF11CD701ED91FC913A9768F49A
:100DB000FC0100E010E0A481B581AB2B49F00F5F8E
:100DC0001F4F74960A301105B1F78FEF9FEF26C0C1
:100DD00021153105D1F3A4E1A09FF001A19FF00DF1
:100DE0001124EC01CE0FDF1F49875A876B877C8760
:100DF0003D832C831F821E8218861E861D8681E0FD
:100E0000898B0E94EE05688379838A839B83F7012F
:100E100080819181019691838083C801DF91CF9178
:100E20001F910F91FF90EF9008954F925F926F92F4
:100E30007F928F929F92AF92BF92CF92DF92EF926A
:100E4000FF920F931F93CF93DF938C010E94EE05C7
:100E50006B017C01E80108531F4FFE0121E030E0E7
:100E600042E050E0138A128A84819581892BA1F196
:100E700080809180A280B38081859285A385B4858E
:100E800026013701481859086A087B084816590690
:100E90006A067B0608F1880D991DAA1DBB1D80837B
:100EA0009183A283B38381898823B1F0A585B68518
:100EB000109719F4338B228B0FC0878590898A177E
:100EC0009B0750F4338B228B0196908B87878A1770
:100ED0009B0710F0538B428B7496E017F10711F6C5
:100EE00084E1F82E8A899B89892B41F18885EC81E0
:100EF000FD81882321F08E819F81099501C009958C
:100F00008A899B890297D1F4F80180819181892B8C
:100F1000A9F08C819D81892B89F0FE018F2D119282
:100F20008A95E9F70E94EE05688379838A839B831B
:100F3000F801808191810197918380836496C01725
:100F4000D10781F6DF91CF911F910F91FF90EF9024
:100F5000DF90CF90BF90AF909F908F907F906F90D9
:100F60005F904F900895CF92DF92EF92FF921F9380
:100F7000CF93DF93182FEB010E94EE056B017C01EC
:100F8000812F0E94C704892B31F58091FC05909137
:100F9000FD05A091FE05B091FF05A7019601281B54
:100FA000390B4A0B5B0BDA01C90180399140A1056D
:100FB000B10588F0812F0E94C704892B21F4988104
:100FC00081E089278883C092FC05D092FD05E092DC
:100FD000FE05F092FF05DF91CF911F91FF90EF90FA
:100FE000DF90CF900895E0E5F1E01382128288EE61
:100FF00093E0A0E0B0E084839583A683B78386E185
:1010000091E09183808385EC90E09587848784ECE0
:1010100090E09787868780EC90E0918B808B81ECC5
:1010200090E0938B828B82EC90E0958B848B86ECA6
:1010300090E0978B868B118E128E138E148E82E326
:1010400095E00E94B00A88E694E00E94B00A8EE91A
:1010500093E00E94B00A84ED92E00E94B00A8AE018
:1010600092E00E94B00AEDEEF1E087E090E091831B
:10107000808388E090E093838283168280E2878376
:10108000108685E0868785E090E0A0E0B0E0848B64
:10109000958BA68BB78B11860895789484B5826062
:1010A00084BD84B5816084BD85B5826085BD85B50C
:1010B000816085BD80916E00816080936E0010928A
:1010C0008100809181008260809381008091810005
:1010D0008160809381008091800081608093800096
:1010E0008091B10084608093B1008091B0008160F4
:1010F0008093B00080917A00846080937A00809120
:101100007A00826080937A0080917A008160809377
:101110007A0080917A00806880937A001092C100F2
:10112000E0916001F091610182E08083E0915C01D7
:10113000F0915D011082E0915E01F0915F018FEC12
:10114000808310926801E0916401F091650186E06E
:101150008083E0916201F0916301808180618083EE
:10116000E0916201F0916301808188608083E09169
:101170006201F0916301808180688083E091620167
:10118000F091630180818F7D80834BE050E067E2C6
:1011900071E080E591E00E9495000E94000262E00B
:1011A00084E00E94820562E082E00E94820562E0A3
:1011B00083E00E94820562E089E00E94820562E08D
:1011C00086E00E94820562E085E00E9482058091AF
:1011D000ED019091EE012091EF013091F001821725
:1011E000930719F061E00E9482058091EF019091D0
:1011F000F0012091ED013091EE012817390719F027
:1012000061E00E948205CFB7F894809105028111B8
:1012100027C0E0E9F0E08491ECE7F0E09491E82F5A
:10122000F0E0EE0FFF1FE859FF4FA591B491EC914C
:10123000E92321F461E08AE00E94530561E08AE03D
:101240000E9482058CB580618CBD8CB580648CBD9C
:1012500061E08DE00E94820561E08BE00E948205E2
:10126000809105028F5F80930502CFBF80E00E94CE
:10127000B50181E00E9402010E94C9006CE080E09B
:101280000E9441016FE584E00E94410182E090E00C
:101290000E945801882319F081E08093F30186E0D1
:1012A0000E942E0180E090E00E94580180E00E94A0
:1012B000020180E50E94440683E70E94440681E023
:1012C0000E94020160E08DE10E94410160E08CE13A
:1012D0000E9441011092F50160E787E00E94410100
:1012E0006CE485E00E94410182EE0E941C010E9494
:1012F0002B010E94C50180E00E942E01682F6E7FA5
:1013000080E00E94410180E090E00E94580165E287
:1013100084E00E94410160E085E00E94410140912B
:10132000FB016CE071E08AE00E948E014091FB01BC
:101330006CE071E080E10E948E016091F40181E136
:101340000E9441014091FB0150E066E071E086EFB0
:1013500091E00E942C0DE0EAF0E084914091FB01C5
:1013600066E071E00E948E01EAE9F0E0849160910C
:10137000F4010E94410182E00E942E01E6EAF0E0C1
:10138000E49161E070E001C0660FEA95EAF7682B2E
:1013900082E00E9441010E94D2012DE433E044EF3B
:1013A00051E060E070E082E395E00E94C90620EF22
:1013B00034E048EC50E060E070E08EE993E00E9499
:1013C000C9062BE436E04AEF50E060E070E084EDBF
:1013D00092E00E94C9060E94EE0560934C01709352
:1013E0004D0180934E0190934F018EE993E00E944E
:1013F000150784ED92E00E94150782E395E00E94B4
:10140000150765E471E082E00E94B30764E471E0CF
:1014100083E00E94B3076AE471E089E00E94B307A9
:1014200086E00E94C70421E0892B09F420E0209384
:10143000460185E00E94C70421E0009709F420E0FE
:1014400020934801E091470120914601E11106C037
:10145000222309F470C0009709F550C0222319F027
:10146000211169C033C0009789F540914C0150911A
:101470004D0160914E0170914F01C0900602D090D5
:101480000702E0900802F09009024C195D096E090C
:101490007F094739510561057105C0F040914C0144
:1014A00050914D0160914E0170914F0140930602A1
:1014B00050930702609308027093090230914B0128
:1014C000315030934B01E111CBCF18C0892B99F1EA
:1014D00080914C0190914D01A0914E01B0914F012E
:1014E0008093060290930702A0930802B09309022A
:1014F00080914B018F5F80934B011DC02223D9F057
:10150000892BC9F480914C0190914D01A0914E011D
:10151000B0914F014091060250910702609108027C
:1015200070910902841B950BA60BB70B87399105A7
:10153000A105B10568F686E00E94C70421E0892B69
:1015400009F420E02093470185E00E94C70421E0D0
:10155000892B09F420E0209349010E9403033BCF2B
:10156000CF93DF93D82FC92F0E94EE05ED2FFC2FCC
:10157000AF0148535F4F24E1DF01322F1D923A95AE
:10158000E9F760837183828393837496E417F50788
:1015900099F711821082DF91CF910895BB274A30CD
:1015A00031F4992322F4BDE2909581959F4F0C94DC
:1015B000DA0ABB27FB015527AA27880F991FAA1F04
:1015C000A41710F0A41B83955051B9F7A05DAA335E
:1015D00008F0A95DA193009779F7B111B193119229
:1015E000CB010C94F30ADC01FC01672F7191772386
:1015F000E1F7329704C07C916D9370836291AE17CE
:10160000BF07C8F308952F923F924F925F926F9257
:101610007F928F929F92AF92BF92CF92DF92EF9282
:10162000FF920F931F93CF93DF93CDB7DEB7CA1B03
:10163000DB0B0FB6F894DEBF0FBECDBF09942A882E
:10164000398848885F846E847D848C849B84AA84D6
:10165000B984C884DF80EE80FD800C811B81AA8163
:10166000B981CE0FD11D0FB6F894DEBF0FBECDBF2E
:10167000ED010895EE0FFF1F0590F491E02D099400
:101680000F931F93CF93DF938230910510F482E084
:1016900090E0E0911806F091190620E030E0A0E01B
:1016A000B0E0309719F140815181028113814817D0
:1016B0005907C8F08417950769F4109731F012960E
:1016C0000C93129713961C9327C00093180610933F
:1016D000190622C02115310519F04217530718F4D5
:1016E0009A01BD01EF01DF01F801DBCF21153105C2
:1016F000F9F0281B390B2430310580F48A819B8155
:101700006115710521F0FB019383828304C09093DE
:10171000190680931806FE01329644C0FE01E20FBE
:10172000F31F8193919322503109398328833AC062
:101730002091160630911706232B41F420910201C7
:101740003091030130931706209316062091000173
:10175000309101012115310541F42DB73EB740917B
:10176000040150910501241B350BE0911606F09100
:101770001706E217F307A0F42E1B3F0B28173907B3
:1017800078F0AC014E5F5F4F2417350748F04E0FDD
:101790005F1F50931706409316068193919302C0E2
:1017A000E0E0F0E0CF01DF91CF911F910F9108951C
:1017B000CF93DF93009709F481C0FC013297138225
:1017C0001282A0911806B0911906109781F4208119
:1017D0003181820F931F209116063091170628172A
:1017E000390751F5F0931706E093160667C0ED012F
:1017F00020E030E0CE17DF0740F44A815B819E0194
:1018000041155105F1F0EA01F5CFD383C283408140
:101810005181840F951FC817D90759F48881998180
:10182000840F951F0296918380838A819B81938385
:1018300082832115310529F4F0931906E0931806E7
:101840003DC0E901FB83EA8349915991C40FD51F3B
:10185000EC17FD0761F480819181840F951F02963A
:10186000E90199838883828193819B838A83E0E065
:10187000F0E012968D919C911397009719F0FD015D
:10188000DC01F7CF8D919C9111979D012E5F3F4F09
:10189000820F931F209116063091170628173907DB
:1018A00069F4309729F4109219061092180602C0B4
:1018B00013821282B0931706A0931606DF91CF9180
:1018C0000895A0E0B0E0E7E6FCE00C94070BEC0123
:1018D000009721F4CB010E94400BB4C0FC01E60F3D
:1018E000F71F9C0122503109E217F30708F4A8C042
:1018F000D9010D911C91119706171707B0F005300B
:10190000110508F49BC0C80104978617970708F4CF
:1019100095C002501109061B170B019311936D938B
:101920007C93CF010E94D80B89C05B01A01AB10A39
:101930004C01800E911EA0911806B0911906612CE1
:10194000712CE12CF12C109709F446C08D919C91DB
:101950001197A815B905B1F56C0142E0C40ED11C70
:10196000CA14DB0478F14C018A189B08640142E038
:10197000C40ED11C1296BC9012971396AC91B5E090
:10198000CB16D10440F0B282A38391828082D90128
:101990006D937C9309C00E5F1F4F800F911FF9015B
:1019A00091838083EB2DFA2FE114F10431F0D701FC
:1019B0001396FC93EE93129741C0F0931906E093AF
:1019C00018063CC06816790608F43C017D011296A1
:1019D0000D90BC91A02DB7CF80911606909117065F
:1019E00088169906E1F466167706C8F4809100011E
:1019F00090910101009741F48DB79EB74091040189
:101A000050910501841B950BE817F907C8F4F09372
:101A10001706E0931606F901718360830FC0CB01AE
:101A20000E94400B7C01009759F0A801BE010E9462
:101A30002C0DCE010E94D80BC70104C0CE0102C0FC
:101A400080E090E0CDB7DEB7EEE00C94230B81E0B0
:101A500090E0F8940C943C0DFB01DC0102C0019075
:101A60000D9241505040D8F70895FB01DC010190E0
:0C1A70000D920020E1F70895F894FFCFDC
:101A7C0000001A068000314E6F646532314E6F647F
:101A8C0065310000000058049500C602A504F70259
:101A9C00D502E9020D0A005374617274696E672EE7
:101AAC002E2E005B532C204C2C20522C2052455DAA
:041ABC003A200000CC
:107800000C94343C0C94513C0C94513C0C94513CE1
:107810000C94513C0C94513C0C94513C0C94513CB4
:107820000C94513C0C94513C0C94513C0C94513CA4
:107830000C94513C0C94513C0C94513C0C94513C94
:107840000C94513C0C94513C0C94513C0C94513C84
:107850000C94513C0C94513C0C94513C0C94513C74
:107860000C94513C0C94513C11241FBECFEFD8E036
:10787000DEBFCDBF11E0A0E0B1E0ECE9FFE702C060
:1078800005900D92A230B107D9F712E0A2E0B1E065
:1078900001C01D92AD30B107E1F70E942D3D0C945F
:1078A000CC3F0C94003C982F959595959595959582
:1078B000905D8F708A307CF0282F295A8091C0000B
:1078C00085FFFCCF9093C6008091C00085FFFCCF60
:1078D0002093C6000895282F205DF0CF982F809127
:1078E000C00085FFFCCF9093C6000895EF92FF92F1
:1078F0000F931F93EE24FF2487018091C00087FD22
:1079000017C00894E11CF11C011D111D81E4E8164B
:1079100082E4F8068FE0080780E0180770F3E09132
:107920000401F091050109958091C00087FFE9CF1E
:107930008091C6001F910F91FF90EF9008950E94D3
:10794000763C982F8091C00085FFFCCF9093C600B5
:1079500091362CF490330CF09053892F089597555D
:10796000892F08951F930E949F3C182F0E949F3CCF
:107970001295107F810F1F9108951F93182F882350
:1079800021F00E94763C1150E1F71F9108951F935A
:10799000182F0E94763C803249F0809103018F5F5E
:1079A000809303018530C1F01F9108958091C0003C
:1079B00085FFFCCF84E18093C6008091C00085FFE5
:1079C000FCCF1093C6008091C00085FFFCCF80E102
:1079D0008093C6001F910895E0910401F091050184
:1079E00009951F9108950E94763C803241F0809164
:1079F00003018F5F80930301853081F008958091AA
:107A0000C00085FFFCCF84E18093C6008091C00058
:107A100085FFFCCF80E18093C6000895E0910401CA
:107A2000F09105010995089540E951E08823A1F0FE
:107A30002D9A28EE33E0FA013197F1F721503040CA
:107A4000D1F72D9828EE33E0FA013197F1F7215064
:107A50003040D1F7815061F708953F924F925F9285
:107A60006F927F928F929F92AF92BF92CF92DF924E
:107A7000EF92FF920F931F93CF93DF93000080E16B
:107A80008093C4001092C50088E18093C10086E015
:107A90008093C2005098589A259A81E00E94143D24
:107AA00024E1F22E9EE1E92E85E9D82E0FE0C02ECA
:107AB00010E1B12EAA24A394B1E49B2EA6E58A2E50
:107AC000F2E57F2EE0E26E2E79E4572E63E5462E36
:107AD00050E5352E0E94763C8033B1F18133B9F107
:107AE000803409F46FC0813409F476C0823409F41B
:107AF00085C0853409F488C0803531F1823521F1A3
:107B0000813511F1853509F485C0863509F48DC0BC
:107B1000843609F496C0843709F403C1853709F423
:107B200072C1863709F466C0809103018F5F80932C
:107B30000301853079F6E0910401F0910501099582
:107B40000E94763C803351F60E94F33CC3CF0E94E2
:107B5000763C803249F78091C00085FFFCCFF092DF
:107B6000C6008091C00085FFFCCF9092C600809136
:107B7000C00085FFFCCF8092C6008091C00085FFC9
:107B8000FCCF7092C6008091C00085FFFCCF609250
:107B9000C6008091C00085FFFCCF5092C600809146
:107BA000C00085FFFCCF4092C6008091C00085FFD9
:107BB000FCCF3092C6008091C00085FFFCCFB09210
:107BC000C60088CF0E94763C863808F4BDCF0E945C
:107BD000763C0E94F33C7ECF0E94763C803809F4CC
:107BE0009CC0813809F40BC1823809F43CC1883942
:107BF00009F48FC080E00E94C73C6CCF84E10E94F2
:107C0000BD3C0E94F33C66CF85E00E94BD3C0E94D3
:107C1000F33C60CF0E94763C809306010E94763C44
:107C2000809307010E94F33C55CF0E94763C80333D
:107C300009F41DC183E00E94BD3C80E00E94C73C66
:107C400049CF0E94763C809309020E94763C809343
:107C5000080280910C028E7F80930C020E94763C79
:107C6000853409F415C18091080290910902892B8D
:107C700089F000E010E00E94763CF801E85FFE4FDA
:107C800080830F5F1F4F80910802909109020817AF
:107C9000190788F30E94763C803209F045CF809125
:107CA0000C0280FF01C16091060170910701660F0F
:107CB000771F7093070160930601A0910802B091AD
:107CC00009021097C9F0E8E0F1E09B01AD014E0F09
:107CD0005F1FF999FECF32BD21BD819180BDFA9A17
:107CE000F99A2F5F3F4FE417F50799F76A0F7B1F4B
:107CF00070930701609306018091C00085FFFCCF5F
:107D0000F092C6008091C00085FFFCCFB092C60003
:107D1000E1CE83E00E94C73CDDCE82E00E94C73CFA
:107D2000D9CE0E94763C809309020E94763C8093D3
:107D300008028091060190910701880F991F909386
:107D40000701809306010E94763C853409F4A6C0A1
:107D500080910C028E7F80930C020E94763C8032D0
:107D600009F0B8CE8091C00085FFFCCFF092C6002C
:107D7000609108027091090261157105B9F140E046
:107D800050E080910C02A82FA170B82FB27011C0E2
:107D9000BB2309F45CC0E0910601F0910701319624
:107DA000F0930701E09306014F5F5F4F46175707B7
:107DB000E8F4AA2369F3F999FECF209106013091E6
:107DC000070132BD21BDF89A90B58091C00085FFB2
:107DD000FCCF9093C6002F5F3F4F30930701209355
:107DE00006014F5F5F4F4617570718F38091C00099
:107DF00085FDE5CE8091C00085FFF8CFE0CE81E023
:107E00000E94C73C67CE0E94763C803209F08CCE3F
:107E10008091C00085FFFCCFF092C6008091C00029
:107E200085FFFCCFE092C6008091C00085FFFCCFAB
:107E3000D092C6008091C00085FFFCCFC092C600E2
:107E40008091C00085FFFCCFB092C60043CEE09188
:107E50000601F091070194918091C00085FFFCCF4D
:107E60009093C6009CCF80E10E94C73C33CE0E9415
:107E7000763C0E94763C182F0E94763C112309F430
:107E800083C0113009F484C08FE00E94C73C22CE29
:107E900080910C02816080930C02E5CE80910C02EF
:107EA000816080930C0259CF809107018823880F4D
:107EB000880B8A2180930B02809106019091070123
:107EC000880F991F90930701809306018091080203
:107ED00080FF09C080910802909109020196909359
:107EE000090280930802F894F999FECF1127E091D6
:107EF0000601F0910701C8E0D1E08091080290915D
:107F00000902103091F40091570001700130D9F34B
:107F100003E000935700E89500915700017001308D
:107F2000D9F301E100935700E89509901990009169
:107F3000570001700130D9F301E000935700E89534
:107F40001395103498F011270091570001700130FB
:107F5000D9F305E000935700E895009157000170B0
:107F60000130D9F301E100935700E895329602976A
:107F700009F0C7CF103011F00296E5CF112480919F
:107F8000C00085FFB9CEBCCE8EE10E94C73CA2CD19
:0C7F900085E90E94C73C9ECDF894FFCF0D
:027F9C00800063
:040000030000780081
:00000001FF