:100000000C9465000C948D000C948D000C948D0064
:100010000C948D000C948D000C948D000C948D002C
:100020000C948D000C948D000C948D000C948D001C
:100030000C948D000C948D000C948D000C948D000C
:100040000C940E040C948D000C9431030C940B034F
:100050000C948D000C948D000C948D000C948D00EC
:100060000C948D000C948D000000000025002800E9
:100070002B000000000023002600290000000008DB
:10008000000201000003040700000000000000005F
:1000900000000000240027002A00010204081020AC
:1000A000408001020408102001020408102004040A
:1000B0000404040404040202020202020303030310
:1000C0000303000102030405B60A11241FBECFEF8B
:1000D000D8E0DEBFCDBF23E0A8E4B1E001C01D92AF
:1000E000A43CB207E1F711E0A0E0B1E0E8EEFAE1EC
:1000F00002C005900D92A834B107D9F710E0C5E60B
:10010000D0E004C02197FE010E94700BC436D107D5
:10011000C9F70E94FE060C94720D0C94000008951D
:1001200080E090E00895FC01538D448D252F30E050
:10013000842F90E0821B930B541710F0CF960895F4
:1001400001970895FC01918D828D981761F0828D41
:10015000DF01A80FB11D5D968C91928D9F5F9F73FB
:10016000928F90E008958FEF9FEF0895FC01918D9D
:10017000828D981731F0828DE80FF11D858D90E00A
:1001800008958FEF9FEF0895FC01918D228D892FA7
:1001900090E0805C9F4F821B91098F73992708958F
:1001A00087E791E00E94C40021E0892B09F420E058
:1001B000822F0895FC01848DDF01A80FB11DA35A81
:1001C000BF4F2C91848D90E001968F739927848F77
:1001D000A689B7892C93A089B1898C91837080649A
:1001E0008C93938D848D981306C00288F389E02D3B
:1001F00080818F7D80830895EF92FF920F931F93EC
:10020000CF93DF93EC0181E0888F9B8D8C8D9813C9
:1002100005C0E889F989808185FD26C0F62E0B8D01
:1002200010E00F5F1F4F0F731127E02E8C8DE81227
:100230000CC00FB607FCFACFE889F989808185FFE9
:10024000F5CFCE010E94DA00F1CF8B8DFE01E80FD1
:10025000F11DE35AFF4FF0829FB7F8940B8FEA89A4
:10026000FB89808180620AC09FB7F894EE89FF897C
:100270006083E889F98980818370806480839FBF6F
:1002800081E090E0DF91CF911F910F91FF90EF906F
:100290000895CF93DF93EC01888D8823C9F0EA8914
:1002A000FB89808185FD05C0A889B9898C9186FD6F
:1002B0000FC00FB607FCF5CF808185FFF2CFA8896C
:1002C000B9898C9185FFEDCFCE010E94DA00E7CF8E
:1002D000DF91CF91089580E090E0892B29F00E9472
:1002E000D00081110C9400000895833081F028F42F
:1002F000813099F08230A1F008958730A9F08830DC
:10030000B9F08430D1F4809180008F7D03C080915A
:1003100080008F7780938000089584B58F7702C026
:1003200084B58F7D84BD08958091B0008F7703C020
:100330008091B0008F7D8093B0000895CF93DF93BC
:10034000282F30E0F901E458FF4F8491F901E65677
:10035000FF4FD491F901E255FF4FC491CC2391F0A6
:1003600081110E947501EC2FF0E0EE0FFF1FEE5897
:10037000FF4FA591B491EC91ED2381E090E021F441
:1003800080E002C080E090E0DF91CF910895CF93AC
:10039000DF9390E0FC01E656FF4F2491FC01E2550B
:1003A000FF4F8491882361F190E0880F991FFC0131
:1003B000E057FF4FC591D491FC01E859FF4FA5913B
:1003C000B491611109C09FB7F89488812095822368
:1003D0008883EC912E230BC0623061F49FB7F894B0
:1003E0008881322F309583238883EC912E2B2C9398
:1003F0009FBF06C08FB7F894E8812E2B28838FBF4C
:10040000DF91CF9108958E3008F08E508770806410
:1004100080937C0080917A00806480937A00809140
:100420007A0086FDFCCF809178002091790090E0E1
:10043000922B0895CF93DF9300D000D000D0CDB79A
:10044000DEB71A8219821C821B821E821D8260E026
:1004500070E0CE0101960E942B0629813A8181111C
:100460000DC02115310519F0C9010E940E0C1A8228
:1004700019821E821D821C821B8207C01E821D8261
:1004800067E471E0C9010E946B0D60916301CE01C8
:1004900001960E94D306CE0101960E94BF0660918C
:1004A0006401CE0101960E94D306CE0101960E94FE
:1004B000BF0660916501CE0101960E94D306CE0170
:1004C00001960E94BF0660916601CE0101960E94CE
:1004D000D306CE0101960E94BF0660916A01CE014B
:1004E00001960E94D306CE0101960E94BF0660913C
:1004F0006C01CE0101960E94D306CE0101960E94A6
:10050000BF066EE171E0CE0101960E94B0066091D7
:100510006D01617070E0CE0101960E94800664E278
:1005200071E0CE0101960E94B00660916D01669562
:10053000617070E0CE0101960E9480066BE271E06E
:10054000CE0101960E94B00660916D0162FB6627A4
:1005500060F970E0CE0101960E94800662E371E0CE
:10056000CE0101960E94B00660916D0163FB662783
:1005700060F970E0CE0101960E948006CE010196DE
:100580000E94930489819A810E940E0C26960FB6D0
:10059000F894DEBF0FBECDBFDF91CF910895CF930A
:1005A000DF9300D000D000D0CDB7DEB71A82198219
:1005B0001C821B821E821D8260E070E0CE010196CB
:1005C0000E942B0629813A8181110DC02115310528
:1005D00019F0C9010E940E0C1A8219821E821D8216
:1005E0001C821B8207C01E821D8267E471E0C90164
:1005F0000E946B0DCE0101960E94930489819A811D
:100600000E940E0C26960FB6F894DEBF0FBECDBF2B
:10061000DF91CF9108951F920F920FB60F92112480
:100620002F933F934F935F936F937F938F939F93FA
:10063000AF93BF93EF93FF9387E791E00E94DA00B7
:10064000FF91EF91BF91AF919F918F917F916F91AA
:100650005F914F913F912F910F900FBE0F901F9080
:1006600018951F920F920FB60F9211242F938F930C
:100670009F93EF93FF93E0918701F0918801808130
:10068000E0918D01F0918E0182FD12C090818091E8
:1006900090018F5F8F7320919101821751F0E0914B
:1006A0009001F0E0E958FE4F958F8093900101C0D2
:1006B0008081FF91EF919F918F912F910F900FBEAD
:1006C0000F901F9018951F93CF93DF93282F30E042
:1006D000F901E458FF4F8491F901E656FF4FD49198
:1006E000F901E255FF4FC491CC23C1F0162F8111BF
:1006F0000E947501EC2FF0E0EE0FFF1FE859FF4F4D
:10070000A591B4919FB7F894111104C08C91D09524
:10071000D82302C0EC91DE2BDC939FBFDF91CF91F9
:100720001F9108958230910538F0880F991F880F26
:10073000991F05970197F1F708953FB7F8948091B5
:10074000510190915201A0915301B091540126B5ED
:10075000A89B05C02F3F19F00196A11DB11D3FBFF9
:10076000BA2FA92F982F8827820F911DA11DB11D87
:10077000BC01CD0142E0660F771F881F991F4A9583
:10078000D1F708952FB7F89460914D0170914E0103
:1007900080914F01909150012FBF0895CF92DF9229
:1007A000EF92FF921F93CF93DF93182FEB010E94DC
:1007B000C2036B017C01812F0E949E01892B31F5C0
:1007C0008091480190914901A0914A01B0914B015B
:1007D000A7019601281B390B4A0B5B0BDA01C901F3
:1007E00080399140A105B10588F0812F0E949E01BA
:1007F000892B21F4988181E089278883C092480160
:10080000D0924901E0924A01F0924B01DF91CF91E1
:100810001F91FF90EF90DF90CF9008951F920F925D
:100820000FB60F9211242F933F938F939F93AF9303
:10083000BF9380914D0190914E01A0914F01B091D5
:10084000500130914C0123E0230F2D3720F4019605
:10085000A11DB11D05C026E8230F0296A11DB11DE3
:1008600020934C0180934D0190934E01A0934F0132
:10087000B09350018091510190915201A091530188
:10088000B09154010196A11DB11D80935101909327
:100890005201A0935301B0935401BF91AF919F9126
:1008A0008F913F912F910F900FBE0F901F90189531
:1008B0008EBD00000DB407FEFDCF8EB50895CF921A
:1008C000DF92EF92FF920F931F93CF93DF936C0110
:1008D0007A018B01C0E0D0E0CE15DF0581F0D801B0
:1008E0006D918D01D601ED91FC910190F081E02D8B
:1008F000C6010995892B11F02196EECF7E01C70123
:10090000DF91CF911F910F91FF90EF90DF90CF90EB
:1009100008950E945D0D42E050E065E471E087E7D4
:1009200091E00C945F04CF93DF93FC0144815581E7
:100930006081718187E791E00E945F04EC010E9471
:100940008B048C0F9D1FDF91CF910895EF92FF9242
:100950000F931F93CF93DF937C0128ECE20EF11CE1
:10096000F701208131812A30310568F4FC0100E073
:1009700010E024813581232B49F00F5F1F4F7496BF
:100980000A301105B1F78FEF9FEF29C0611571058E
:10099000D1F324E1209FE001219FD00D1124C80F45
:1009A000D91F84EF91E0A0E0B0E089879A87AB87F8
:1009B000BC877D836C831F821E8218861E861D86DF
:1009C00081E0898B0E94C203688379838A839B8339
:1009D000F70180819181019691838083C801DF9125
:1009E000CF911F910F91FF90EF900895CF93DF93D8
:1009F0009CB59F7D9CBD9CB5937F9CBD9CB59C7F09
:100A00009CBD9DB591609DBDC4E1D2E0682F8A81F7
:100A10000E9463038C899D89DF91CF910C9492038E
:100A2000CF93DF93C82FD62F80E00E94F6048C2F3F
:100A30008F7180620E945804C82F8D2F0E94580425
:100A400081E00E94F6048C2FDF91CF910895CF931F
:100A5000C82F80E00E94F6048C2F8F710E945804EA
:100A60008FEF0E945804C82F81E00E94F6048C2F5B
:100A7000CF910895CF93C82F80E00E94F6048C2F69
:100A80000E945804C82F81E00E94F6048C2FCF9159
:100A9000089581EE0C943A052091140230911502CC
:100AA00040911602509117022417350721F0682F44
:100AB000822F0C946303089580E00E944C0580917E
:100AC0002402909125020E9492038DE10E94270545
:100AD00081FF08C080912402909125020E94920318
:100AE0000E94490580E00E942705682F6E7F80E004
:100AF0000E94100582E00E942705E2ECF0E0E491FC
:100B000061E070E001C0660FEA95EAF7682B82E0C9
:100B10000C941005EF92FF920F931F93CF93DF93E6
:100B2000182F7B01C42F80E00E94F604812F8F7163
:100B300080620E945804D82F8701CC2339F0F80135
:100B400081918F010E945804C150F7CF81E00E942B
:100B5000F6048D2FDF91CF911F910F91FF90EF90B1
:100B600008950F931F93CF938C0186E00E94270571
:100B7000C82FC77D0230110531F4C0628BE990E0C7
:100B8000A0E0B0E00DC00130110529F085E590E04E
:100B9000A0E0B0E005C0C86081E490E0A0E0B0E073
:100BA0008093240290932502A0932602B0932702FB
:100BB0006C2F86E00E94100586E00E94270591E0D8
:100BC000C81390E0892FCF911F910F9108958F92B4
:100BD0009F92AF92BF92CF92DF92EF92FF920E94CC
:100BE0009D034B015C0185E0C82ED12CE12CF12C3A
:100BF0000E949D03DC01CB0188199909AA09BB0950
:100C0000883E9340A105B10598F321E0C21AD108AE
:100C1000E108F10888EE880E83E0981EA11CB11C43
:100C2000C114D104E104F10419F7FF90EF90DF90B3
:100C3000CF90BF90AF909F908F90089580E00E94DA
:100C4000270581FD07C0682F626080E00E941005C3
:100C50000C94E70508950F931F93CF93DF93EC0156
:100C600088819981009729F02A813B8126173707CF
:100C700088F48B016F5F7F4F0E94970C009761F0A3
:100C8000998388831B830A832C813D81232B11F454
:100C9000FC01108281E001C080E0DF91CF911F91C3
:100CA0000F910895EF92FF920F931F93CF93DF93CD
:100CB0006115710511F480E01CC041155105C1F0AA
:100CC0007B01EC018C819D818A01080F191FB801FD
:100CD000CE010E942B06882371F3288139818C81F3
:100CE0009D81B701820F931F0E946B0D1D830C83A2
:100CF00081E0DF91CF911F910F91FF90EF900895C8
:100D0000EF92FF920F931F93CF93DF93CDB7DEB790
:100D100028970FB6F894DEBF0FBECDBF7C01CB0184
:100D20004AE08E010F5F1F4FB8010E94040BF801CB
:100D300001900020E9F73197AF01401B510BB8013A
:100D4000C7010E94520628960FB6F894DEBF0FBE68
:100D5000CDBFDF91CF911F910F91FF90EF9008953C
:100D60006115710551F0FB0101900020E9F7319701
:100D7000AF01461B570B0C94520680E00895CF93A9
:100D8000DF9300D0CDB7DEB720E229831A8241E09D
:100D900050E0BE016F5F7F4F0E9452060F900F9090
:100DA000DF91CF910895EF92FF920F931F93CF930E
:100DB000DF9300D000D0CDB7DEB77C01862F4AE0AC
:100DC0008E010F5F1F4FB80190E00E94040BF801E5
:100DD00001900020E9F73197AF01401B510BB8019A
:100DE000C7010E9452060F900F900F900F90DF9155
:100DF000CF911F910F91FF90EF900895789484B553
:100E0000826084BD84B5816084BD85B5826085BD06
:100E100085B5816085BD80916E00816080936E0094
:100E20001092810080918100826080938100809186
:100E30008100816080938100809180008160809337
:100E400080008091B10084608093B1008091B000F7
:100E500081608093B00080917A00846080937A00F2
:100E600080917A00826080937A0080917A0081601C
:100E700080937A0080917A00806880937A00109243
:100E8000C100E0918701F091880182E08083E091C8
:100E90008301F09184011082E0918501F091860137
:100EA0008FEC808310928F01E0918B01F0918C0187
:100EB00086E08083E0918901F0918A0180818061E0
:100EC0008083E0918901F0918A018081886080832C
:100ED000E0918901F0918A01808180688083E091AE
:100EE0008901F0918A0180818F7D80834BE050E001
:100EF00069E371E087E791E00E945F040E948B0440
:100F000062E084E00E94C70162E082E00E94C701C3
:100F100062E083E00E94C70162E089E00E94C701AD
:100F200062E086E00E94C70162E085E00E94C7019E
:100F300080911402909115022091160230911702AF
:100F40008217930719F061E00E94C7018091160291
:100F50009091170220911402309115022817390739
:100F600019F061E00E94C701CFB7F8948091550154
:100F7000811127C0E8EBF0E08491E4EAF0E094917D
:100F8000E82FF0E0EE0FFF1FE057FF4FA591B4915F
:100F9000EC91E92321F461E08AE00E94630361E0BF
:100FA0008AE00E94C7018CB580618CBD8CB58064DD
:100FB0008CBD61E08DE00E94C70161E08BE00E9482
:100FC000C701809155018F5F80935501CFBF80E0AD
:100FD0000E944C0581E00E94F6040E94E7056CE047
:100FE00080E00E9410056FE584E00E94100582E019
:100FF00090E00E94B105882319F081E080931A02E5
:1010000086E00E94270580E090E00E94B10580E024
:101010000E94F60480E50E94580483E70E94580469
:1010200081E00E94F60460E08DE10E94100560E01E
:101030008CE10E94100510921C0260E787E00E947C
:1010400010056CE485E00E94100582EE0E943A05CE
:101050000E9449050E941E0680E00E942705682F15
:101060006E7F80E00E94100580E090E00E94B10554
:1010700065E284E00E94100560E085E00E941005B2
:101080004091220266E071E08AE00E948A05409168
:10109000220266E071E080E10E948A0560911B02F5
:1010A00081E10E9410050E945C056AE172E086EF12
:1010B00092E00E94A6046FEC72E08CE292E00E9443
:1010C000A6047EEBE72E73E0F72E01E010E0E2E0ED
:1010D000CE2ED12CF2EC2F2EF0E03F2E0E94C20338
:1010E00060937301709374018093750190937601FE
:1010F0000E94C203AB01BC01C6EFD2E0FE01138A1D
:10110000128A84819581892BA9F180809180A280A7
:10111000B38081859285A385B4852A013B01481857
:1011200059086A087B08481659066A067B0610F1BA
:10113000880D991DAA1DBB1D80839183A283B38353
:1011400081898823B9F0258536852115310519F463
:10115000138B028B0FC0878590898217930750F4F9
:10116000138B028B0196908B87878217930710F061
:10117000D38AC28A7496EE16FF0609F68A899B897D
:10118000892B61F18885EC81FD81882321F08E8196
:101190009F81099501C009958A899B890297F1F47D
:1011A0008091BE039091BF03892BC1F08C819D81FA
:1011B000892BA1F0FE0124E111922A95E9F70E9402
:1011C000C203688379838A839B838091BE03909155
:1011D000BF0301979093BF038093BE036496EC1600
:1011E000FD0661F686E00E949E0121E0892B09F44C
:1011F00020E020935D0185E00E949E0121E00097A0
:1012000009F420E020935F01E0915E0120915D01EF
:10121000E11106C0222309F470C0009709F550C0FF
:10122000222319F0211169C033C0009789F540913C
:1012300073015091740160917501709176018090F5
:10124000560190905701A0905801B090590148194B
:1012500059096A097B094B3F510561057105C0F0C9
:101260004091730150917401609175017091760104
:101270004093560150935701609358017093590160
:1012800030916201315030936201E111CBCF18C02F
:10129000892B99F18091730190917401A09175014E
:1012A000B09176018093560190935701A093580115
:1012B000B0935901809162018F5F809362011DC0DC
:1012C0002223D9F0892BC9F4809173019091740184
:1012D000A0917501B091760140915601509157014E
:1012E0006091580170915901841B950BA60BB70BA7
:1012F0008B3F9105A105B10568F686E00E949E012D
:1013000021E0892B09F420E020935E0185E00E9412
:101310009E0121E0892B09F420E0209360016CE517
:1013200071E082E00E94CE036BE571E083E00E94F1
:10133000CE0361E671E089E00E94CE0380907301E4
:1013400090907401A0907501B090760180916F012A
:1013500090917001A0917101B0917201A501940169
:10136000281B390B4A0B5B0B283C31054105510505
:1013700008F4DBC081E00E94030297FD0396959577
:101380008795959587958093640180E00E9403027C
:1013900097FD03969595879595958795809363011D
:1013A00083E00E94030297FD039695958795959596
:1013B00087958093660182E00E94030297FD039661
:1013C00095958795959587958093650186E00E9410
:1013D000030297FD0396959587959595879580933C
:1013E0006A018091620180936C0184E00E949E01F9
:1013F00020916D019195819591098227817099279E
:10140000822790915C0191959827927098278091FE
:101410005B0181958927847089279091610191955D
:1014200098279870892780936D0180915A01809345
:101430006E018F5F80935A0180926F0190927001CC
:10144000A0927101B09272010E945C05C0911B02D2
:10145000AC2ECD3010F08CE0A82E80911C028111B2
:1014600003C0BC2EBA1801C0B12C80E00E94F60463
:1014700080EA0E945804C3E6D1E0AA943FEFA31289
:1014800002C0CB2D04C089910E945804F6CFCC2312
:1014900029F080E00E945804C150F9CF81E00E94F9
:1014A000F60481E00E944C058FEF0E943A0580739C
:1014B000D9F380E00E944C0560E787E00E941005A8
:1014C00084FD0E9449050E941E0680E00E942705B7
:1014D000682F616080E00E94100560E787E00E944D
:1014E000100581E00E944C0580911D02882341F087
:1014F000409122026DE172E08AE00E948A050FC0ED
:1015000082E00E942705F1019491B80101C0660FA5
:101510009A95EAF76095682382E00E9410058DE1B4
:101520000E94270581FD0E9449050E946B01D6CDCE
:10153000CF93DF93D82FC92F0E94C203ED2FFC2F2A
:10154000AF0148535F4F24E1DF01322F1D923A95DE
:10155000E9F760837183828393837496E417F507B8
:1015600099F711821082DF91CF910895E7E7F1E0BA
:101570001382128288EE93E0A0E0B0E0848395832A
:10158000A683B78380E191E09183808385EC90E02E
:101590009587848784EC90E09787868780EC90E03D
:1015A000918B808B81EC90E0938B828B82EC90E02E
:1015B000958B848B86EC90E0978B868B118E128EA8
:1015C000138E148E86EF92E00E94980A8CE292E0CD
:1015D0000E94980AE4E1F2E087E090E09183808342
:1015E00088E090E093838283168280E2878310866E
:1015F00085E0868785E090E0A0E0B0E0848B958B65
:10160000A68BB78B11860895BB274A3031F49923F6
:1016100022F4BDE2909581959F4F0C94100BBB274F
:10162000FB015527AA27880F991FAA1FA41710F09E
:10163000A41B83955051B9F7A05DAA3308F0A95DAA
:10164000A193009779F7B111B1931192CB010C944A
:10165000290BDC01FC01672F71917723E1F73297A9
:1016600004C07C916D9370836291AE17BF07C8F37D
:1016700008952F923F924F925F926F927F928F9236
:101680009F92AF92BF92CF92DF92EF92FF920F9311
:101690001F93CF93DF93CDB7DEB7CA1BDB0B0FB61B
:1016A000F894DEBF0FBECDBF09942A8839884888D8
:1016B0005F846E847D848C849B84AA84B984C8846E
:1016C000DF80EE80FD800C811B81AA81B981CE0F65
:1016D000D11D0FB6F894DEBF0FBECDBFED0108954A
:1016E000EE0FFF1F0590F491E02D09940F931F93C7
:1016F000CF93DF938230910510F482E090E0E09187
:10170000C203F091C30320E030E0A0E0B0E03097E6
:1017100019F1408151810281138148175907C8F09E
:101720008417950769F4109731F012960C9312976D
:1017300013961C9327C00093C2031093C30322C0C7
:101740002115310519F04217530718F49A01BD010C
:10175000EF01DF01F801DBCF21153105F9F0281B7E
:10176000390B2430310580F48A819B816115710524
:1017700021F0FB019383828304C09093C303809381
:10178000C203FE01329644C0FE01E20FF31F8193B3
:10179000919322503109398328833AC02091C003A4
:1017A0003091C103232B41F42091020130910301B8
:1017B0003093C1032093C0032091000130910101B7
:1017C0002115310541F42DB73EB7409104015091E8
:1017D0000501241B350BE091C003F091C103E21712
:1017E000F307A0F42E1B3F0B2817390778F0AC0144
:1017F0004E5F5F4F2417350748F04E0F5F1F509321
:10180000C1034093C0038193919302C0E0E0F0E0F4
:10181000CF01DF91CF911F910F910895CF93DF9367
:10182000009709F481C0FC01329713821282A091C3
:10183000C203B091C303109781F420813181820FDC
:10184000931F2091C0033091C1032817390751F528
:10185000F093C103E093C00367C0ED0120E030E0E6
:10186000CE17DF0740F44A815B819E014115510587
:10187000F1F0EA01F5CFD383C28340815181840F17
:10188000951FC817D90759F488819981840F951F2E
:101890000296918380838A819B8193838283211521
:1018A000310529F4F093C303E093C2033DC0E9017D
:1018B000FB83EA8349915991C40FD51FEC17FD07AB
:1018C00061F480819181840F951F0296E9019983CB
:1018D0008883828193819B838A83E0E0F0E0129683
:1018E0008D919C911397009719F0FD01DC01F7CFC2
:1018F0008D919C9111979D012E5F3F4F820F931FF9
:101900002091C0033091C1032817390769F430973B
:1019100029F41092C3031092C20302C013821282F0
:10192000B093C103A093C003DF91CF910895A0E0CD
:10193000B0E0EDE9FCE00C943D0BEC01009721F4E4
:10194000CB010E94760BB4C0FC01E60FF71F9C018F
:1019500022503109E217F30708F4A8C0D9010D910C
:101960001C91119706171707B0F00530110508F400
:101970009BC0C80104978617970708F495C00250CA
:101980001109061B170B019311936D937C93CF01E3
:101990000E940E0C89C05B01A01AB10A4C01800E96
:1019A000911EA091C203B091C303612C712CE12C54
:1019B000F12C109709F446C08D919C911197A815B0
:1019C000B905B1F56C0142E0C40ED11CCA14DB04A8
:1019D00078F14C018A189B08640142E0C40ED11CC6
:1019E0001296BC9012971396AC91B5E0CB16D10429
:1019F00040F0B282A38391828082D9016D937C935F
:101A000009C00E5F1F4F800F911FF90191838083E2
:101A1000EB2DFA2FE114F10431F0D7011396FC936A
:101A2000EE93129741C0F093C303E093C2033CC00E
:101A30006816790608F43C017D0112960D90BC9160
:101A4000A02DB7CF8091C0039091C103881699064D
:101A5000E1F466167706C8F48091000190910101C7
:101A6000009741F48DB79EB7409104015091050154
:101A7000841B950BE817F907C8F4F093C103E093B2
:101A8000C003F901718360830FC0CB010E94760B04
:101A90007C01009759F0A801BE010E94620DCE01A1
:101AA0000E940E0CC70104C0CE0102C080E090E08D
:101AB000CDB7DEB7EEE00C94590B81E090E0F894DE
:101AC0000C94720DFB01DC0102C001900D9241509B
:101AD0005040D8F70895FB01DC0101900D920020E1
:081AE000E1F70895F894FFCF2F
:101AE8000000C4038000314E6F64653100000000BF
:101AF800FC005F0493004901C400A200B600205313
:101B08005F533A0020535F414C3A0020535F4152E3
:101B18003A0020535F52543A005374617274696EEC
:081B2800672E2E2E000D0A00AD
:00000001FF
