:100000000C9460000C9488000C9488000C94880078
:100010000C9488000C9488000C9488000C94880040
:100020000C9488000C9488000C9488000C94880030
:100030000C9488000C9488000C9488000C94880020
:100040000C9470040C9488000C943E040C941804D6
:100050000C9488000C9488000C9488000C94880000
:100060000C9488000C948800000000080002010035
:100070000003040700000000000000000000000072
:10008000250028002B0000000000240027002A0083
:10009000040404040404040402020202020203032E
:1000A0000303030301020408102040800102040836
:1000B0001020010204081020000102030405BA0404
:1000C00011241FBECFEFD8E0DEBFCDBF22E0A8E3F2
:1000D000B1E001C01D92AC30B207E1F711E0A0E041
:1000E000B1E0E4E0F0E102C005900D92A833B10761
:1000F000D9F710E0C0E6D0E004C02197FE010E94CD
:10010000F507CF35D107C9F70E9400050C94000808
:100110000C94000090E0FC01EC55FF4F2491FC0191
:10012000E057FF4F8491882399F090E0880F991F42
:10013000FC01EA57FF4FA591B491FC01E458FF4F31
:10014000859194918FB7F894EC91E22BEC938FBF4B
:100150000895CF92DF92EF92FF920F931F93CF9368
:10016000DF936C017A018B01C0E0D0E0CE15DF0592
:1001700081F0D8016D918D01D601ED91FC91019036
:10018000F081E02DC6010995892B11F02196EECF63
:100190007E01C701DF91CF911F910F91FF90EF90EA
:1001A000DF90CF900895089580E090E00895FC01DD
:1001B000538D448D252F30E0842F90E0821B930BCC
:1001C000541710F0CF96089501970895FC01918D72
:1001D000828D981761F0828DDF01A80FB11D5D96A9
:1001E0008C91928D9F5F9F73928F90E008958FEF17
:1001F0009FEF0895FC01918D828D981731F0828DCB
:10020000E80FF11D858D90E008958FEF9FEF089521
:10021000FC01918D228D892F90E0805C9F4F821B85
:1002200091098F739927089587E591E00E9408014D
:1002300021E0892B09F420E0822F0895FC01848DB0
:10024000DF01A80FB11DA35ABF4F2C91848D90E000
:1002500001968F739927848FA689B7892C93A089DB
:10026000B1898C91837080648C93938D848D981365
:1002700006C00288F389E02D80818F7D80830895F8
:10028000EF92FF920F931F93CF93DF93EC0181E0E6
:10029000888F9B8D8C8D981305C0E889F9898081A2
:1002A00085FD26C0F62E0B8D10E00F5F1F4F0F73DC
:1002B0001127E02E8C8DE8120CC00FB607FCFACF88
:1002C000E889F989808185FFF5CFCE010E941E0162
:1002D000F1CF8B8DFE01E80FF11DE35AFF4FF08245
:1002E0009FB7F8940B8FEA89FB89808180620AC0EE
:1002F0009FB7F894EE89FF896083E889F989808146
:100300008370806480839FBF81E090E0DF91CF9114
:100310001F910F91FF90EF900895682F87E591E06E
:100320000C944001CF93DF93EC01888D8823C9F0B2
:10033000EA89FB89808185FD05C0A889B9898C91EE
:1003400086FD0FC00FB607FCF5CF808185FFF2CF89
:10035000A889B9898C9185FFEDCFCE010E941E013D
:10036000E7CFDF91CF91089580E090E0892B29F0CD
:100370000E94140181110C940000089590E0FC018A
:10038000E859FF4F2491FC01EC55FF4F3491FC01DB
:10039000E057FF4FE491EE2309F43CC0222339F1EA
:1003A000233091F038F42130A9F0223001F584B5E2
:1003B0008F7D12C0273091F02830A1F02430B9F49D
:1003C000809180008F7D03C0809180008F77809323
:1003D00080000DC084B58F7784BD09C08091B000C6
:1003E0008F7703C08091B0008F7D8093B000F0E0E4
:1003F000EE0FFF1FE458FF4FA591B4919FB7F894FB
:10040000611104C08C913095382302C0EC913E2BD1
:100410003C939FBF08952091F4013091F5014091E4
:10042000F6015091F7012417350721F0682F822F2C
:100430000C94BE0108958E3008F08E508770806451
:1004400080937C0080917A00806480937A00809110
:100450007A0086FDFCCF809178002091790090E0B1
:10046000922B08958230910538F0880F991F880FDC
:10047000991F05970197F1F70895CF93DF939CB5E6
:100480009F7D9CBD9CB5937F9CBD9CB59C7F9CBD76
:100490009DB591609DBDC4EFD1E0682F8A810E9417
:1004A000BE018C899D89DF91CF910C9432023FB7B8
:1004B000F8948091390190913A01A0913B01B0915B
:1004C0003C0126B5A89B05C02F3F19F00196A11D40
:1004D000B11D3FBFBA2FA92F982F8827820F911DDA
:1004E000A11DB11DBC01CD0142E0660F771F881F21
:1004F000991F4A95D1F708958F929F92AF92BF921C
:10050000CF92DF92EF92FF920E9457024B015C0163
:1005100085E0C82ED12CE12CF12C0E945702DC0181
:10052000CB0188199909AA09BB09883E9340A10506
:10053000B10598F321E0C21AD108E108F10888EE6C
:10054000880E83E0981EA11CB11CC114D104E104E3
:10055000F10419F7FF90EF90DF90CF90BF90AF902C
:100560009F908F9008958EBD00000DB407FEFDCFC3
:100570008EB50895CF93DF93C82FD62F80E00E94C9
:100580003D028C2F8F7180620E94B302C82F8D2F85
:100590000E94B30281E00E943D028C2FDF91CF9137
:1005A0000895CF93C82F80E00E943D028C2F8F7159
:1005B0000E94B3028FEF0E94B302C82F81E00E9415
:1005C0003D028C2FCF9108950F931F93CF938C01F1
:1005D00086E00E94D102C82FC77D0230110531F498
:1005E000C0628BE990E0A0E0B0E00DC001301105E1
:1005F00029F085E590E0A0E0B0E005C0C86081E4A6
:1006000090E0A0E0B0E08093040290930502A093F4
:100610000602B09307026C2F86E00E94BA0286E0C1
:100620000E94D10291E0C81390E0892FCF911F91D1
:100630000F91089580E00E94D10281FD07C0682FCC
:10064000626080E00E94BA020C947C020895CF930D
:10065000C82F80E00E943D028C2F0E94B302C82F59
:1006600081E00E943D028C2FCF91089581EE0C9481
:10067000270380E00E940B02809104029091050202
:100680000E9432028DE10E94D10281FF08C0809158
:100690000402909105020E9432020E94360380E01B
:1006A0000E94D102682F6E7F80E00E94BA0282E031
:1006B0000E94D102E8EBF0E0E49161E070E001C05B
:1006C000660FEA95EAF7682B82E00C94BA02EF9283
:1006D000FF920F931F93CF93DF93182F7B01C42FAB
:1006E00080E00E943D02812F8F7180620E94B302E0
:1006F000D82F8701CC2339F0F80181918F010E9416
:10070000B302C150F7CF81E00E943D028D2FDF91EF
:10071000CF911F910F91FF90EF900895009769F08E
:10072000FC0101900020E9F73197AF01481B590BFC
:10073000BC0187E591E00C94A90080E090E0089569
:100740008F929F92AF92BF920F931F93CF93DF939D
:10075000CDB7DEB7A1970FB6F894DEBF0FBECDBF01
:1007600019A2423008F44AE08E010F5D1F4F842E1B
:10077000912CA12CB12CA50194010E94D307E62F46
:10078000B901CA0101501109EA3014F4E05D01C059
:10079000E95CD801EC93232B242B252B61F7C801AE
:1007A0000E948E03A1960FB6F894DEBF0FBECDBF98
:1007B000DF91CF911F910F91BF90AF909F908F903D
:1007C0000895CF92DF92EF92FF92CF93DF936C0167
:1007D000990FEE08FF08F7FE17C08DE20E948D0109
:1007E000EC0166277727CB016C197D098E099F09DB
:1007F0004AE00E94A0038C0F9D1FDF91CF91FF90D4
:10080000EF90DF90CF9008954AE0C701B601DF91E5
:10081000CF91FF90EF90DF90CF900C94A003682FC2
:1008200070E080E090E04AE00C94A0030E94FB0797
:100830001F920F920FB60F9211242F933F934F9355
:100840005F936F937F938F939F93AF93BF93EF9338
:10085000FF9387E591E00E941E01FF91EF91BF9108
:10086000AF919F918F917F916F915F914F913F9148
:100870002F910F900FBE0F901F9018951F920F92FF
:100880000FB60F9211242F938F939F93EF93FF93A3
:10089000E0916701F09168018081E0916D01F09134
:1008A0006E0182FD12C09081809170018F5F8F7305
:1008B00020917101821751F0E0917001F0E0E95A46
:1008C000FE4F958F8093700101C08081FF91EF9161
:1008D0009F918F912F910F900FBE0F901F901895A1
:1008E0001F920F920FB60F9211242F933F938F9365
:1008F0009F93AF93BF9380913F0190914001A0914E
:100900004101B09142013091380123E0230F2D378E
:1009100020F40196A11DB11D05C026E8230F029603
:10092000A11DB11D2093380180933F019093400198
:10093000A0934101B09342018091390190913A0115
:10094000A0913B01B0913C010196A11DB11D809386
:10095000390190933A01A0933B01B0933C01BF91C0
:10096000AF919F918F913F912F910F900FBE0F905C
:100970001F901895E7E5F1E01382128288EE93E06C
:10098000A0E0B0E084839583A683B7838AE091E0FA
:100990009183808385EC90E09587848784EC90E058
:1009A0009787868780EC90E0918B808B81EC90E03C
:1009B000938B828B82EC90E0958B848B86EC90E01D
:1009C000978B868B118E128E138E148EE4EFF1E0CE
:1009D00087E090E09183808388E090E09383828336
:1009E000168280E28783108685E0868785E090E026
:1009F000A0E0B0E0848B958BA68BB78B1186089511
:100A0000CF93DF9300D000D000D0CDB7DEB778947D
:100A100084B5826084BD84B5816084BD85B5826003
:100A200085BD85B5816085BD80916E0081608093B4
:100A30006E0010928100809181008260809381001D
:100A4000809181008160809381008091800081602D
:100A5000809380008091B10084608093B100809188
:100A6000B00081608093B00080917A0084608093B0
:100A70007A0080917A00826080937A0080917A0077
:100A8000816080937A0080917A00806880937A00F8
:100A90001092C100E0916701F091680182E08083CB
:100AA000E0916301F09164011082E0916501F091A1
:100AB00066018FEC808310926F01E0916B01F091E1
:100AC0006C0186E08083E0916901F0916A01808188
:100AD00080618083E0916901F0916A018081886082
:100AE0008083E0916901F0916A0180818068808350
:100AF000E0916901F0916A0180818F7D808388E1B6
:100B000091E00E948E0384E291E00E948E03809126
:100B1000F4019091F5012091F6013091F7018217CF
:100B2000930711F00E948A008091F6019091F701DD
:100B30002091F4013091F5012817390711F00E9436
:100B40008A002FB72983F89480913D01811124C038
:100B5000EAE9F0E08491EEEAF0E09491E82FF0E029
:100B6000EE0FFF1FEA57FF4FA591B491EC91E923D7
:100B700021F461E08AE00E94BE018AE00E948A00BE
:100B80008CB580618CBD8CB580648CBD8DE00E947D
:100B90008A008BE00E948A0080913D018F5F8093E4
:100BA0003D0139813FBF80E00E940B0281E00E943D
:100BB0003D020E947C026CE080E00E94BA026FE578
:100BC00084E00E94BA0282E090E00E94E40288235E
:100BD00019F081E08093FA0186E00E94D10280E062
:100BE00090E00E94E40280E00E943D0280E50E94C5
:100BF000B30283E70E94B30281E00E943D0260E0FD
:100C00008DE10E94BA0260E08CE10E94BA0210926B
:100C1000FC0160E787E00E94BA026CE485E00E9474
:100C2000BA0282EE0E9427030E9436030E941A0332
:100C300080E00E94D102682F6E7F80E00E94BA029D
:100C400080E090E00E94E40265E284E00E94BA0243
:100C500060E085E00E94BA024091020260E071E02B
:100C60008AE00E9467034091020260E071E080E147
:100C70000E9467036091FB0181E10E94BA020E9419
:100C8000390368EE862E63E0962EA12CB12C78EB0A
:100C9000272E70E0372E01E010E08FB7F894C09057
:100CA0003F01D0904001E0904101F09042018FBFA0
:100CB000C0925301D0925401E0925501F092560136
:100CC00080914F0190915001A0915101B09152013A
:100CD000A7019601281B390B4A0B5B0B283C3105F9
:100CE0004105510508F45CC180E00E941B0297FD9C
:100CF000039695958795959587958093440181E016
:100D00000E941B0297FD039695958795959587956B
:100D10008093430182E00E941B0297FD0396959504
:100D20008795959587958093460183E00E941B02E5
:100D300097FD0396959587959595879580934501A1
:100D400080913E0180934E018F5F80933E01C0925F
:100D50004F01D0925001E0925101F09252010E9455
:100D600039033091FB013983E32E3D3010F08CE0E4
:100D7000E82E8091FC01811103C0F980FE1801C0AA
:100D8000F12C80E00E943D0280EA0E94B30243E41D
:100D900051E05A834983EA945FEFE51202C0F98279
:100DA00008C0E981FA818191FA83E9830E94B30244
:100DB000F2CFF981FF2339F080E00E94B30229814C
:100DC00021502983F6CF81E00E943D0281E00E94FC
:100DD0000B028FEF0E9427038073D9F380E00E94FB
:100DE0000B0260E787E00E94BA0284FD0E9436038E
:100DF0000E941A0380E00E94D102682F616080E0A7
:100E00000E94BA0260E787E00E94BA0281E00E9475
:100E10000B028091FD01882341F0409102026DEFA9
:100E200071E08AE00E9467030FC082E00E94D10255
:100E3000F1019491B80101C0660F9A95EAF76095A7
:100E4000682382E00E94BA028DE10E94D10281FDF6
:100E50000E9436032FB7F89460913F0170914001D2
:100E600080914101909142012FBFA50194010E9400
:100E7000D3076B017C017E836D838FB7F89440901C
:100E80003F015090400160904101709042018FBF3E
:100E90008FB7F89420913F0130914001409141017A
:100EA0005091420129833A834B835C838FBF8091A9
:100EB00043010E940F0480E20E948D018091440151
:100EC0000E940F0480E20E948D01809145010E94E2
:100ED0000F0480E20E948D01809146010E940F0460
:100EE00080E20E948D0180914E010E940F0487E2F2
:100EF00091E00E948E0381E090E0A0E0B0E02981C3
:100F00003A814B815C8120363A4E4F4F5F4F18F447
:100F100080E090E0DC010E94E1038AE30E948D0101
:100F2000C301B201A50194010E94D307CA01B9010E
:100F30002CE330E040E050E00E94D307CB010E9458
:100F4000E1038EE20E948D018D819E810A9724F437
:100F50008DE291E00E948E03C6010B9789359105C1
:100F600018F480E30E948D01C6010E94E10380E332
:100F700091E00E948E0383E00E94D1022FEF280FA0
:100F800061E070E080E090E0233018F060E070E015
:100F9000CB014AE00E94A00384E291E00E948E030C
:100FA0000E94B4017ACEA1E21A2EAA1BBB1BFD013E
:100FB0000DC0AA1FBB1FEE1FFF1FA217B307E40738
:100FC000F50720F0A21BB30BE40BF50B661F771F90
:100FD000881F991F1A9469F7609570958095909570
:100FE0009B01AC01BD01CF010895EE0FFF1F0590DD
:100FF000F491E02D099481E090E0F8940C940008BD
:04100000F894FFCF92
:10100400314E6F646531000000004001A900D70033
:1010140092010801E600FA005374617274696E6704
:101024002E2E2E000D0A002009743A2000303000C4
:0810340020436F6E6E3A2000AC
:00000001FF
