:100000000C946B000C9493000C9493000C9493004C
:100010000C9493000C9493000C9493000C94930014
:100020000C9493000C9493000C9493000C94930004
:100030000C9493000C9493000C9493000C949300F4
:100040000C9447050C9493000C94B6040C94900403
:100050000C9493000C9493000C9493000C949300D4
:100060000C9493000C9493000000000025002800DD
:100070002B000000000023002600290000000008DB
:10008000000201000003040700000000000000005F
:1000900000000000240027002A00010204081020AC
:1000A000408001020408102001020408102004040A
:1000B0000404040404040202020202020303030310
:1000C00003031112131415160A0B0C0D0E0F000169
:1000D00002030405360B11241FBECFEFD8E0DEBFAC
:1000E000CDBF26E0A4E4B1E001C01D92A43FB20759
:1000F000E1F711E0A0E0B1E0E8E0FCE102C005902A
:100100000D92A434B107D9F710E0CBE6D0E004C0DB
:100110002197FE010E94000CCA36D107C9F70E9440
:100120004C080C94020E0C940000089580E090E0BE
:100130000895FC01538D448D252F30E0842F90E0ED
:10014000821B930B541710F0CF96089501970895D2
:10015000FC01918D828D981761F0828DDF01A80FCF
:10016000B11D5D968C91928D9F5F9F73928F90E0F1
:1001700008958FEF9FEF0895FC01918D828D981760
:1001800031F0828DE80FF11D858D90E008958FEF9D
:100190009FEF0895FC01918D228D892F90E0805C66
:1001A0009F4F821B91098F73992708958FE791E0E4
:1001B0000E94CA0021E0892B09F420E0822F0895D3
:1001C000FC01848DDF01A80FB11DA35ABF4F2C91F4
:1001D000848D90E001968F739927848FA689B789C3
:1001E0002C93A089B1898C91837080648C93938DBA
:1001F000848D981306C00288F389E02D80818F7D5D
:1002000080830895EF92FF920F931F93CF93DF9314
:10021000EC0181E0888F9B8D8C8D981305C0E88957
:10022000F989808185FD26C0F62E0B8D10E00F5FC9
:100230001F4F0F731127E02E8C8DE8120CC00FB6E4
:1002400007FCFACFE889F989808185FFF5CFCE01D7
:100250000E94E000F1CF8B8DFE01E80FF11DE35A03
:10026000FF4FF0829FB7F8940B8FEA89FB8980815A
:1002700080620AC09FB7F894EE89FF896083E8899D
:10028000F98980818370806480839FBF81E090E0E2
:10029000DF91CF911F910F91FF90EF900895CF9331
:1002A000DF93EC01888D8823C9F0EA89FB8980817E
:1002B00085FD05C0A889B9898C9186FD0FC00FB650
:1002C00007FCF5CF808185FFF2CFA889B9898C9191
:1002D00085FFEDCFCE010E94E000E7CFDF91CF9107
:1002E000089580E090E0892B29F00E94D6008111CA
:1002F0000C9400000895833081F028F4813099F047
:100300008230A1F008958730A9F08830B9F08430A8
:10031000D1F4809180008F7D03C0809180008F7721
:1003200080938000089584B58F7702C084B58F7D57
:1003300084BD08958091B0008F7703C08091B00094
:100340008F7D8093B0000895CF93DF93282F30E006
:10035000F901E458FF4F8491F901E656FF4FD4911B
:10036000F901E255FF4FC491CC2391F081110E9415
:100370007B01EC2FF0E0EE0FFF1FEE58FF4FA59131
:10038000B491EC91ED2381E090E021F480E002C093
:1003900080E090E0DF91CF910895CF93DF9390E0DC
:1003A000FC01E656FF4F2491FC01E255FF4F84917A
:1003B000882361F190E0880F991FFC01E057FF4FFF
:1003C000C591D491FC01E859FF4FA591B4916111F9
:1003D00009C09FB7F8948881209582238883EC9187
:1003E0002E230BC0623061F49FB7F8948881322FBE
:1003F000309583238883EC912E2B2C939FBF06C0CE
:100400008FB7F894E8812E2B28838FBFDF91CF918F
:1004100008958E3008F08E508770806480937C0041
:1004200080917A00806480937A0080917A0086FDC2
:10043000FCCF809178002091790090E0922B089574
:1004400081E00E94090297FD039695958795959501
:10045000879580934A0180E00E94090297FD0396E8
:1004600095958795959587958093490183E00E949E
:10047000090297FD039695958795959587958093A5
:100480004C0182E00E94090297FD0396959587959D
:100490009595879580934B0186E00E94090297FD10
:1004A00003969595879595958795809350018091B2
:1004B0007A018093520184E00E94A40120915301AB
:1004C0009195819591098227817099278227909132
:1004D0007001919598279270982780916F0181956E
:1004E0008927847089279091790191959827987030
:1004F00089278093530180914801809354018F5F35
:100500008093480108952FB7F89460915601709137
:10051000570180915801909159012FBF0895EF9292
:10052000FF920F931F93CF93DF937C01A8ECEA0E09
:10053000F11CD701ED91FC913A9768F4FC0100E0C1
:1005400010E0A481B581AB2B49F00F5F1F4F74966B
:100550000A301105B1F78FEF9FEF26C02115310545
:10056000D1F3A4E1A09FF001A19FF00D1124EC01B3
:10057000CE0FDF1F49875A876B877C873D832C838B
:100580001F821E8218861E861D8681E0898B0E942E
:100590008302688379838A839B83F70180819181B9
:1005A000019691838083C801DF91CF911F910F91B4
:1005B000FF90EF900895CF92DF92EF92FF921F93FA
:1005C000CF93DF93182FEB010E9483026B017C0114
:1005D000812F0E94A401892B31F5809144019091D3
:1005E0004501A0914601B0914701A7019601281B42
:1005F000390B4A0B5B0BDA01C90180399140A10527
:10060000B10588F0812F0E94A401892B21F49881E3
:1006100081E089278883C0924401D0924501E0920D
:100620004601F0924701DF91CF911F91FF90EF902B
:10063000DF90CF9008954F925F926F927F928F924A
:100640009F92AF92BF92CF92DF92EF92FF920F9361
:100650001F93CF93DF938C010E9483026B017C0177
:10066000E80108531F4FFE0121E030E042E050E076
:10067000138A128A84819581892BA1F180809180CF
:10068000A280B38081859285A385B4852601370138
:10069000481859086A087B08481659066A067B06F6
:1006A00008F1880D991DAA1DBB1D80839183A2832B
:1006B000B38381898823B1F0A585B685109719F495
:1006C000338B228B0FC0878590898A179B0750F444
:1006D000338B228B0196908B87878A179B0710F0AC
:1006E000538B428B7496E017F10711F684E1F82ED4
:1006F0008A899B89892B41F18885EC81FD8188233A
:1007000021F08E819F81099501C009958A899B8975
:100710000297D1F4F80180819181892BA9F08C8115
:100720009D81892B89F0FE018F2D11928A95E9F721
:100730000E948302688379838A839B83F801808186
:1007400091810197918380836496C017D10781F6C8
:10075000DF91CF911F910F91FF90EF90DF90CF909D
:10076000BF90AF909F908F907F906F905F904F90D1
:1007700008950F931F93CF93DF9300D000D000D044
:10078000CDB7DEB7CE0101960E94C2070FE511E09A
:10079000F8016081CE0101960E942108CE010196E8
:1007A0000E94AE07F8016181CE0101960E942108E6
:1007B000CE0101960E94AE07F8016281CE0101963A
:1007C0000E942108CE0101960E94AE07F8016185C2
:1007D000CE0101960E942108CE0101960E946D076C
:1007E00089819A810E949E0C26960FB6F894DEBFEE
:1007F0000FBECDBFDF91CF911F910F910895EF9262
:10080000FF920F931F93CF93DF93CDB7DEB72E9751
:100810000FB6F894DEBF0FBECDBFCE0109960E9481
:10082000C20760914901CE0109960E942108CE01BC
:1008300009960E94AE0760914A01CE0109960E9476
:100840002108CE0109960E94AE0760914B01CE01AE
:1008500009960E942108CE0109960E94AE07609178
:100860004C01CE0109960E942108CE0109960E94F2
:10087000AE0760915001CE0109960E942108CE0179
:1008800009960E94AE0760915201CE0109960E941E
:100890002108CE0109960E94AE074FE050E064E2C5
:1008A00071E0CE0109960E94800700E010E0CE01C1
:1008B00001967C018091530190E0002E02C0959535
:1008C00087950A94E2F74AE0B701817099270E9460
:1008D000940BF70101900020E9F73197AF014E1911
:1008E0005F09B701CE0109960E9480070F5F1F4F75
:1008F00008301105F9F6CE0109960E946D07898529
:100900009A850E949E0C2E960FB6F894DEBF0FBEFD
:10091000CDBFDF91CF911F910F91FF90EF90089580
:100920001F920F920FB60F9211242F933F934F9364
:100930005F936F937F938F939F93AF93BF93EF9347
:10094000FF938FE791E00E94E000FF91EF91BF914C
:10095000AF919F918F917F916F915F914F913F9157
:100960002F910F900FBE0F901F9018951F920F920E
:100970000FB60F9211242F938F939F93EF93FF93B2
:10098000E0918F01F09190018081E0919501F091CB
:10099000960182FD12C09081809198018F5F8F73C4
:1009A00020919901821751F0E0919801F0E0E1580F
:1009B000FE4F958F8093980101C08081FF91EF9148
:1009C0009F918F912F910F900FBE0F901F901895B0
:1009D0001F93CF93DF93282F30E0F901E458FF4FA6
:1009E0008491F901E656FF4FD491F901E255FF4F8A
:1009F000C491CC23C1F0162F81110E947B01EC2FF2
:100A0000F0E0EE0FFF1FE859FF4FA591B4919FB79B
:100A1000F894111104C08C91D095D82302C0EC91A8
:100A2000DE2BDC939FBFDF91CF911F910895823021
:100A3000910538F0880F991F880F991F0597019726
:100A4000F1F708953FB7F89480915A0190915B01B6
:100A5000A0915C01B0915D0126B5A89B05C02F3F18
:100A600019F00196A11DB11D3FBFBA2FA92F982FD4
:100A70008827820F911DA11DB11DBC01CD0142E04F
:100A8000660F771F881F991F4A95D1F708951F9207
:100A90000F920FB60F9211242F933F938F939F9332
:100AA000AF93BF938091560190915701A091580147
:100AB000B09159013091550123E0230F2D3720F4D7
:100AC0000196A11DB11D05C026E8230F0296A11DA8
:100AD000B11D209355018093560190935701A09327
:100AE0005801B093590180915A0190915B01A091F6
:100AF0005C01B0915D010196A11DB11D80935A0169
:100B000090935B01A0935C01B0935D01BF91AF91A5
:100B10009F918F913F912F910F900FBE0F901F903B
:100B200018958EBD00000DB407FEFDCF8EB508955B
:100B30000F931F93CF93DF930E943707C091230237
:100B4000DC2FCD3008F0DCE080912402811102C05E
:100B5000CD1B01C0C0E00E94890680EA0E94910579
:100B600009E411E0D15030F0F80181918F010E9429
:100B70009105F8CFCC2329F080E00E949105C15067
:100B8000F9CF0E94860681E00E94E3060E94890652
:100B90008FEF0E949105C82F0E948606C073B1F3A3
:100BA00080E00E94E30660E787E00E94A90684FDDA
:100BB0000E948C060E942A0780E00E949806682FF7
:100BC000616080E00E94A90660E787E00E94A906B4
:100BD00081E00E94E30680912502882341F0409144
:100BE0002A0265E272E08AE00E94BE0612C082E03C
:100BF0000E949806EEECF0E0E49121E030E001C0C4
:100C0000220FEA95EAF72095622F682382E00E947E
:100C1000A9068DE10E94980681FF06C0DF91CF9161
:100C20001F910F910C948C06DF91CF911F910F9122
:100C30000895CF92DF92EF92FF920F931F93CF937D
:100C4000DF936C017A018B01C0E0D0E0CE15DF05A7
:100C500081F0D8016D918D01D601ED91FC9101904B
:100C6000F081E02DC6010995892B11F02196EECF78
:100C70007E01C701DF91CF911F910F91FF90EF90FF
:100C8000DF90CF9008950E94ED0D0F931F93CF93A7
:100C9000DF93EC0188819981009729F02A813B81BB
:100CA0002617370788F48B016F5F7F4F0E94270D4F
:100CB000009761F0998388831B830A832C813D818F
:100CC000232B11F4FC01108281E001C080E0DF9150
:100CD000CF911F910F910895CF93DF939CB59F7D86
:100CE0009CBD9CB5937F9CBD9CB59C7F9CBD9DB5D8
:100CF00091609DBDCCE1D2E0682F8A810E94E8041A
:100D00008C899D89DF91CF910C94170581E00C941B
:100D10006C0680E00C946C06CF930E94890681EEED
:100D20000E949105C82F0E9486068C2FCF910895AE
:100D3000CF93C82F0E9489068C2F8F710E94910536
:100D40008FEF0E949105C82F0E9486068C2FCF91AD
:100D50000895CF93DF93C82FD62F0E9489068C2F3A
:100D60008F7180620E949105C82F8D2F0E9491057E
:100D70000E9486068C2FDF91CF910895EF92FF920B
:100D80000F931F93CF93DF93182F7B01C42F0E94E3
:100D90008906812F8F7180620E949105D82F87016B
:100DA000CC2339F0F80181918F010E949105C15047
:100DB000F7CF0E9486068D2FDF91CF911F910F9163
:100DC000FF90EF90089520911C0230911D024091F8
:100DD0001E0250911F022417350721F0682F822F21
:100DE0000C94E80408958F929F92AF92BF92CF9295
:100DF000DF92EF92FF920E9422054B015C0185E099
:100E0000C82ED12CE12CF12C0E942205DC01CB0153
:100E100088199909AA09BB09883E9340A105B10523
:100E200098F321E0C21AD108E108F10888EE880E93
:100E300083E0981EA11CB11CC114D104E104F1048B
:100E400019F7FF90EF90DF90CF90BF90AF909F90F9
:100E50008F90089580E00E94980681FD07C0682F5A
:100E6000626080E00E94A9060C94F306089580E079
:100E70000E94E30680912C0290912D020E9417059A
:100E80008DE10E94980681FF08C080912C0290910C
:100E90002D020E9417050E948C0680E00E94980691
:100EA000682F6E7F80E00E94A90682E00E9498066B
:100EB000EEECF0E0E49161E070E001C0660FEA95CD
:100EC000EAF7682B82E00C94A90642E050E060E467
:100ED00071E08FE791E00C941906CF93DF93FC014A
:100EE00044815581608171818FE791E00E941906EC
:100EF000EC010E9465078C0F9D1FDF91CF91089533
:100F0000EF92FF920F931F93CF93DF9361157105BB
:100F100011F480E01CC041155105C1F07B01EC01CA
:100F20008C819D818A01080F191FB801CE010E9492
:100F30004506882371F3288139818C819D81B70111
:100F4000820F931F0E94FB0D1D830C8381E0DF91B4
:100F5000CF911F910F91FF90EF900895CF93DF9362
:100F600000D0CDB7DEB720E229831A8241E050E0FD
:100F7000BE016F5F7F4F0E9480070F900F90DF913F
:100F8000CF910895CF93DF93EC01198218821B82D1
:100F90001A821D821C8260E070E00E944506288152
:100FA000398181110FC02115310519F0C9010E9445
:100FB0009E0C198218821D821C821B821A82DF916C
:100FC000CF9108951D821C8262E471E0C901DF9116
:100FD000CF910C94FB0D0F931F93CF938C0186E060
:100FE0000E949806C82FC77D0230110531F4C062F7
:100FF0008BE990E0A0E0B0E00DC00130110529F0D0
:1010000085E590E0A0E0B0E005C0C86081E490E034
:10101000A0E0B0E080932C0290932D02A0932E02CA
:10102000B0932F026C2F86E00E94A90686E00E94F2
:10103000980691E0C81390E0892FCF911F910F91EE
:101040000895EF92FF920F931F93CF93DF9300D0F9
:1010500000D0CDB7DEB77C01862F4AE08E010F5F4E
:101060001F4FB80190E00E94940BF80101900020FE
:10107000E9F73197AF01401B510BB801C7010E943E
:1010800080070F900F900F900F90DF91CF911F91DD
:101090000F91FF90EF900895789484B5826084BD9D
:1010A00084B5816084BD85B5826085BD85B581606C
:1010B00085BD80916E00816080936E0010928100EA
:1010C00080918100826080938100809181008160A5
:1010D0008093810080918000816080938000809166
:1010E000B10084608093B1008091B00081608093F2
:1010F000B00080917A00846080937A0080917A00B9
:10110000826080937A0080917A00816080937A0077
:1011100080917A00806880937A001092C100E091FB
:101120008F01F091900182E08083E0918B01F0913A
:101130008C011082E0918D01F0918E018FEC808303
:1011400010929701E0919301F091940186E08083E1
:10115000E0919101F0919201808180618083E09122
:101160009101F0919201808188608083E0919101EA
:10117000F0919201808180688083E0919101F091EB
:10118000920180818F7D80834BE050E064E371E0C9
:101190008FE791E00E9419060E94650762E084E0F3
:1011A0000E94CD0162E082E00E94CD0162E083E016
:1011B0000E94CD0162E089E00E94CD0162E086E0FC
:1011C0000E94CD0162E085E00E94CD0180911C0269
:1011D00090911D0220911E0230911F0282179307E9
:1011E00019F061E00E94CD0180911E0290911F02D2
:1011F00020911C0230911D022817390719F061E077
:101200000E94CD01CFB7F89480915E01811127C073
:10121000E8EBF0E08491E4EAF0E09491E82FF0E06C
:10122000EE0FFF1FE057FF4FA591B491EC91E9231A
:1012300021F461E08AE00E94E80461E08AE00E9413
:10124000CD018CB580618CBD8CB580648CBD61E0B6
:101250008DE00E94CD0161E08BE00E94CD01809184
:101260005E018F5F80935E01CFBF80E00E94E30646
:1012700081E00E946C060E94F3066CE080E00E9410
:10128000A9066FE584E00E94A90682E090E00E9432
:10129000EB07882319F081E08093220286E00E9408
:1012A000980680E090E00E94EB070E94890680E5A6
:1012B0000E94910583E70E9491050E94860660E0E6
:1012C0008DE10E94A90660E08CE10E94A9061092BF
:1012D000240260E787E00E94A9066CE485E00E9492
:1012E000A9060E94890682EE0E9491050E94860648
:1012F0000E948C060E942A0780E00E949806682FB0
:101300006E7F80E00E94A90680E090E00E94EB07DB
:1013100065E284E00E94A90660E085E00E94A906DB
:1013200040912A026CE071E08AE00E94BE06409182
:101330002A026CE071E080E10E94BE066091230207
:1013400081E10E94A90640912A0250E066E071E026
:1013500085E292E00E94F20DE8ECF0E08491409189
:101360002A0266E071E00E94BE06E2ECF0E08491A1
:10137000609123020E94A90682E00E949806EEEC8A
:10138000F0E0E49161E070E001C0660FEA95EAF7F1
:10139000682B82E00E94A9060E9437072FEF33E0F6
:1013A00044EF51E060E070E082E994E00E948F0237
:1013B00020E232E048EC50E060E070E08EEF92E036
:1013C0000E948F0228E935E04AEF50E060E070E0CB
:1013D00084E392E00E948F0229EB33E048EE53E071
:1013E00060E070E088EC93E00E948F0211E00E94C0
:1013F000830260937B0170937C0180937D019093C5
:101400007E018EEF92E00E941B0384E392E00E9433
:101410001B0388EC93E00E941B0387E10E9498065F
:1014200080FDFEC000916A0100936901C091230212
:10143000CA3008F4F3C0DAE080912402811102C0BE
:10144000CD1B01C0C0E00E94890681E60E94910583
:101450008FE5E82E81E0F82ED15038F08FEF0E9412
:101460009105F70181937F01F7CFCC2329F08FEF0E
:101470000E949105C150F9CF0E94860660E787E07F
:101480000E94A9068091680180936A018150801BA7
:1014900080936B0110926D0110926C0180915F013D
:1014A00081110BC080916001882339F0809168011F
:1014B000811103C010936E0102C010926E0160E7AB
:1014C00071E082E00E94DB026FE671E083E00E943F
:1014D000DB0269E771E089E00E94DB0286E00E949E
:1014E000A40121E0892B09F420E02093750185E017
:1014F0000E94A40121E0009709F420E020937701E5
:10150000E091760120917501E11106C0222309F4D2
:1015100070C0009709F550C0222319F0211169C04D
:1015200033C0009789F540917B0150917C01609117
:101530007D0170917E01C0907101D0907201E090A8
:101540007301F09074014C195D096E097F094739E8
:10155000510561057105C0F040917B0150917C01FE
:1015600060917D0170917E014093710150937201F1
:10157000609373017093740130917A01315030930C
:101580007A01E111CBCF18C0892B99F180917B01B1
:1015900090917C01A0917D01B0917E0180937101B9
:1015A00090937201A0937301B093740180917A01BA
:1015B0008F5F80937A011DC02223D9F0892BC9F453
:1015C00080917B0190917C01A0917D01B0917E0181
:1015D0004091710150917201609173017091740199
:1015E000841B950BA60BB70B87399105A105B10597
:1015F00068F686E00E94A40121E0892B09F420E02E
:101600002093760185E00E94A40121E0892B09F452
:1016100020E0209378010E947101E9CEDC2F0CCFED
:1016200010936D0180916C018F5F80936C0136CFB8
:10163000CF93DF93D82FC92F0E948302ED2FFC2F69
:10164000AF0148535F4F24E1DF01322F1D923A95DD
:10165000E9F760837183828393837496E417F507B7
:1016600099F711821082DF91CF910895EFE7F1E0B1
:101670001382128288EE93E0A0E0B0E08483958329
:10168000A683B78386E191E09183808385EC90E027
:101690009587848784EC90E09787868780EC90E03C
:1016A000918B808B81EC90E0938B828B82EC90E02D
:1016B000958B848B86EC90E0978B868B118E128EA7
:1016C000138E148E82E994E00E94180B86E296E055
:1016D0000E94180B88EC93E00E94180B8EEF92E0AA
:1016E0000E94180B84E392E00E94180B8CE595E0B1
:1016F0000E94180BECE1F2E087E090E09183808398
:1017000088E090E093838283168280E2878310864C
:1017100085E0868785E090E0A0E0B0E0848B958B43
:10172000A68BB78B11860895BB274A3031F49923D5
:1017300022F4BDE2909581959F4F0C94A00BBB279E
:10174000FB015527AA27880F991FAA1FA41710F07D
:10175000A41B83955051B9F7A05DAA3308F0A95D89
:10176000A193009779F7B111B1931192CB010C9429
:10177000B90BDC01FC01672F71917723E1F73297F8
:1017800004C07C916D9370836291AE17BF07C8F35C
:1017900008952F923F924F925F926F927F928F9215
:1017A0009F92AF92BF92CF92DF92EF92FF920F93F0
:1017B0001F93CF93DF93CDB7DEB7CA1BDB0B0FB6FA
:1017C000F894DEBF0FBECDBF09942A8839884888B7
:1017D0005F846E847D848C849B84AA84B984C8844D
:1017E000DF80EE80FD800C811B81AA81B981CE0F44
:1017F000D11D0FB6F894DEBF0FBECDBFED01089529
:10180000EE0FFF1F0590F491E02D09940F931F93A5
:10181000CF93DF938230910510F482E090E0E09165
:10182000F206F091F30620E030E0A0E0B0E030975F
:1018300019F1408151810281138148175907C8F07D
:101840008417950769F4109731F012960C9312974C
:1018500013961C9327C00093F2061093F30622C040
:101860002115310519F04217530718F49A01BD01EB
:10187000EF01DF01F801DBCF21153105F9F0281B5D
:10188000390B2430310580F48A819B816115710503
:1018900021F0FB019383828304C09093F30680932D
:1018A000F206FE01329644C0FE01E20FF31F81935F
:1018B000919322503109398328833AC02091F00650
:1018C0003091F106232B41F4209102013091030164
:1018D0003093F1062093F006209100013091010130
:1018E0002115310541F42DB73EB7409104015091C7
:1018F0000501241B350BE091F006F091F106E2178B
:10190000F307A0F42E1B3F0B2817390778F0AC0122
:101910004E5F5F4F2417350748F04E0F5F1F5093FF
:10192000F1064093F0068193919302C0E0E0F0E06D
:10193000CF01DF91CF911F910F910895CF93DF9346
:10194000009709F481C0FC01329713821282A091A2
:10195000F206B091F306109781F420813181820F55
:10196000931F2091F0063091F1062817390751F5A1
:10197000F093F106E093F00667C0ED0120E030E05F
:10198000CE17DF0740F44A815B819E014115510566
:10199000F1F0EA01F5CFD383C28340815181840FF6
:1019A000951FC817D90759F488819981840F951F0D
:1019B0000296918380838A819B8193838283211500
:1019C000310529F4F093F306E093F2063DC0E901F6
:1019D000FB83EA8349915991C40FD51FEC17FD078A
:1019E00061F480819181840F951F0296E9019983AA
:1019F0008883828193819B838A83E0E0F0E0129662
:101A00008D919C911397009719F0FD01DC01F7CFA0
:101A10008D919C9111979D012E5F3F4F820F931FD7
:101A20002091F0063091F1062817390769F43097B4
:101A300029F41092F3061092F20602C01382128269
:101A4000B093F106A093F006DF91CF910895A0E046
:101A5000B0E0EDE2FDE00C94CD0BEC01009721F439
:101A6000CB010E94060CB4C0FC01E60FF71F9C01DD
:101A700022503109E217F30708F4A8C0D9010D91EB
:101A80001C91119706171707B0F00530110508F4DF
:101A90009BC0C80104978617970708F495C00250A9
:101AA0001109061B170B019311936D937C93CF01C2
:101AB0000E949E0C89C05B01A01AB10A4C01800EE5
:101AC000911EA091F206B091F306612C712CE12CCD
:101AD000F12C109709F446C08D919C911197A8158F
:101AE000B905B1F56C0142E0C40ED11CCA14DB0487
:101AF00078F14C018A189B08640142E0C40ED11CA5
:101B00001296BC9012971396AC91B5E0CB16D10407
:101B100040F0B282A38391828082D9016D937C933D
:101B200009C00E5F1F4F800F911FF90191838083C1
:101B3000EB2DFA2FE114F10431F0D7011396FC9349
:101B4000EE93129741C0F093F306E093F2063CC087
:101B50006816790608F43C017D0112960D90BC913F
:101B6000A02DB7CF8091F0069091F10688169906C6
:101B7000E1F466167706C8F48091000190910101A6
:101B8000009741F48DB79EB7409104015091050133
:101B9000841B950BE817F907C8F4F093F106E0935E
:101BA000F006F901718360830FC0CB010E94060C1F
:101BB0007C01009759F0A801BE010E94F20DCE01F0
:101BC0000E949E0CC70104C0CE0102C080E090E0DC
:101BD000CDB7DEB7EEE00C94E90B81E090E0F8942D
:101BE0000C94020EFB01DC0102C001900D924150E9
:101BF0005040D8F70895FB01DC0101900D920020C0
:081C0000E1F70895F894FFCF0D
:101C08000000F4068000314E6F646532314E6F6417
:101C18006531000000000201190699004F01CA0051
:101C2800A800BC005B532C204C2C20522C20524581
:101C38005D3A20005374617274696E672E2E2E000F
:041C48000D0A000081
:00000001FF
