:100000000C9460000C9488000C9488000C94880078
:100010000C9488000C9488000C9488000C94880040
:100020000C9488000C9488000C9488000C94880030
:100030000C9488000C9488000C9488000C94880020
:100040000C9468030C9488000C9436030C941003F1
:100050000C9488000C9488000C9488000C94880000
:100060000C9488000C948800000000080002010035
:10007000000304070000000000000000000102036C
:10008000040500000000250028002B0000000000EF
:10009000240027002A0004040404040404040202C7
:1000A00002020202030303030303010204081020F7
:1000B0004080010204081020010204081020B2034D
:1000C00011241FBECFEFD8E0DEBFCDBF21E0ACE1F1
:1000D000B1E001C01D92A23FB207E1F711E0A0E03C
:1000E000B1E0E2E3FEE002C005900D92AC31B10751
:1000F000D9F710E0C0E6D0E004C02197FE010E94CD
:100100000C07CF35D107C9F70E94F8030C941707E5
:100110000C94000090E0FC01E655FF4F2491FC0197
:10012000EA56FF4F8491882399F090E0880F991F39
:10013000FC01E457FF4FA591B491FC01EE57FF4F2E
:10014000859194918FB7F894EC91E22BEC938FBF4B
:100150000895CF92DF92EF92FF920F931F93CF9368
:10016000DF936C017A018B01C0E0D0E0CE15DF0592
:1001700081F0D8016D918D01D601ED91FC91019036
:10018000F081E02DC6010995892B11F02196EECF63
:100190007E01C701DF91CF911F910F91FF90EF90EA
:1001A000DF90CF900895089580E090E00895FC01DD
:1001B000538D448D252F30E0842F90E0821B930BCC
:1001C000541710F0CF96089501970895FC01918D72
:1001D000828D981761F0828DDF01A80FB11D5D96A9
:1001E0008C91928D9F5F9F73928F90E008958FEF17
:1001F0009FEF0895FC01918D828D981731F0828DCB
:10020000E80FF11D858D90E008958FEF9FEF089521
:10021000FC01918D228D892F90E0805C9F4F821B85
:1002200091098F73992708958DE391E00E94080149
:1002300021E0892B09F420E0822F0895FC01848DB0
:10024000DF01A80FB11DA35ABF4F2C91848D90E000
:1002500001968F739927848FA689B7892C93A089DB
:10026000B1898C91837080648C93938D848D981365
:1002700006C00288F389E02D80818F7D80830895F8
:10028000EF92FF920F931F93CF93DF93EC0181E0E6
:10029000888F9B8D8C8D981305C0E889F9898081A2
:1002A00085FD26C0F62E0B8D10E00F5F1F4F0F73DC
:1002B0001127E02E8C8DE8120CC00FB607FCFACF88
:1002C000E889F989808185FFF5CFCE010E941E0162
:1002D000F1CF8B8DFE01E80FF11DE35AFF4FF08245
:1002E0009FB7F8940B8FEA89FB89808180620AC0EE
:1002F0009FB7F894EE89FF896083E889F989808146
:100300008370806480839FBF81E090E0DF91CF9114
:100310001F910F91FF90EF900895CF93DF93EC0121
:10032000888D8823C9F0EA89FB89808185FD05C015
:10033000A889B9898C9186FD0FC00FB607FCF5CF4F
:10034000808185FFF2CFA889B9898C9185FFEDCF97
:10035000CE010E941E01E7CFDF91CF91089580E08A
:1003600090E0892B29F00E94140181110C94000067
:10037000089590E0FC01E859FF4F2491FC01E655F7
:10038000FF4F3491FC01EA56FF4FE491EE2309F44C
:100390003CC0222339F1233091F038F42130A9F008
:1003A000223001F584B58F7D12C0273091F02830BE
:1003B000A1F02430B9F4809180008F7D03C080913A
:1003C00080008F77809380000DC084B58F7784BDC7
:1003D00009C08091B0008F7703C08091B0008F7DFD
:1003E0008093B000F0E0EE0FFF1FEE57FF4FA59196
:1003F000B4919FB7F894611104C08C913095382363
:1004000002C0EC913E2B3C939FBF08952091DA01EE
:100410003091DB014091DC015091DD01241735075B
:1004200021F0682F822F0C94B90108958230910534
:1004300038F0880F991F880F991F05970197F1F7DA
:100440000895CF93DF939CB59F7D9CBD9CB5937F12
:100450009CBD9CB59C7F9CBD9DB591609DBDCAED2A
:10046000D1E0682F8A810E94B9018C899D89DF9132
:10047000CF910C9416023FB7F89480911D01909192
:100480001E01A0911F01B091200126B5A89B05C0B7
:100490002F3F19F00196A11DB11D3FBFBA2FA92F03
:1004A000982F8827820F911DA11DB11DBC01CD0180
:1004B00042E0660F771F881F991F4A95D1F708956C
:1004C0008F929F92AF92BF92CF92DF92EF92FF9264
:1004D0000E943B024B015C0185E0C82ED12CE12C2F
:1004E000F12C0E943B02DC01CB0188199909AA0971
:1004F000BB09883E9340A105B10598F321E0C21ADB
:10050000D108E108F10888EE880E83E0981EA11C4E
:10051000B11CC114D104E104F10419F7FF90EF906C
:10052000DF90CF90BF90AF909F908F9008958EBD39
:1005300000000DB407FEFDCF8EB50895CF93DF9375
:10054000C82FD62F80E00E9421028C2F8F718062ED
:100550000E949702C82F8D2F0E94970281E00E946F
:1005600021028C2FDF91CF910895EF92FF920F938C
:100570001F93CF93DF93182F7B01C42F80E00E943D
:100580002102812F8F7180620E949702D82F8701EC
:10059000CC2339F0F80181918F010E949702C1505C
:1005A000F7CF81E00E9421028D2FDF91CF911F9123
:1005B0000F91FF90EF900895CF93C82F80E00E9495
:1005C00021028C2F8F710E9497028FEF0E94970259
:1005D000C82F81E00E9421028C2FCF91089580E0E6
:1005E0000E94DC0281FD07C0682F626080E00E94EB
:1005F0009E020C9460020895CF93C82F80E00E9461
:1006000021028C2F0E949702C82F81E00E942102B4
:100610008C2FCF91089581EE0C94FC020E9412075A
:100620001F920F920FB60F9211242F933F934F9367
:100630005F936F937F938F939F93AF93BF93EF934A
:10064000FF938DE391E00E941E01FF91EF91BF9116
:10065000AF919F918F917F916F915F914F913F915A
:100660002F910F900FBE0F901F9018951F920F9211
:100670000FB60F9211242F938F939F93EF93FF93B5
:10068000E0914D01F0914E018081E0915301F09194
:10069000540182FD12C09081809156018F5F8F734B
:1006A00020915701821751F0E0915601F0E0E35C90
:1006B000FE4F958F8093560101C08081FF91EF918D
:1006C0009F918F912F910F900FBE0F901F901895B3
:1006D0001F920F920FB60F9211242F933F938F9377
:1006E0009F93AF93BF938091220190912301A0919A
:1006F0002401B091250130911C0123E0230F2D37F7
:1007000020F40196A11DB11D05C026E8230F029615
:10071000A11DB11D20931C01809322019093230100
:10072000A0932401B093250180911D0190911E0199
:10073000A0911F01B09120010196A11DB11D8093D0
:100740001D0190931E01A0931F01B0932001BF9142
:10075000AF919F918F913F912F910F900FBE0F906E
:100760001F901895EDE3F1E01382128288EE93E07A
:10077000A0E0B0E084839583A683B7838AE091E00C
:100780009183808385EC90E09587848784EC90E06A
:100790009787868780EC90E0918B808B81EC90E04E
:1007A000938B828B82EC90E0958B848B86EC90E02F
:1007B000978B868B118E128E138E148EEAEDF1E0DC
:1007C00088E090E09183808387E090E09383828348
:1007D000168280E28783108685E0868785E090E038
:1007E000A0E0B0E0848B958BA68BB78B1186089523
:1007F000CF93DF93CDB7DEB7A1970FB6F894DEBFE6
:100800000FBECDBF789484B5826084BD84B581600D
:1008100084BD85B5826085BD85B5816085BD8091CB
:100820006E00816080936E00109281008091810043
:10083000826080938100809181008160809381003B
:10084000809180008160809380008091B1008460FD
:100850008093B1008091B00081608093B00080915E
:100860007A00846080937A0080917A00826080931D
:100870007A0080917A00816080937A0080917A007A
:10088000806880937A001092C100E0914D01F09150
:100890004E0182E08083E0914901F0914A0110828B
:1008A000E0914B01F0914C018FEC80831092550147
:1008B000E0915101F091520186E08083E0914F0177
:1008C000F0915001808180618083E0914F01F0912F
:1008D0005001808188608083E0914F01F091500148
:1008E000808180688083E0914F01F0915001808188
:1008F0008F7D80838091DA019091DB012091DC0172
:100900003091DD018217930711F00E948A008091D7
:10091000DC019091DD012091DA013091DB01281793
:10092000390711F00E948A001FB7F89480912101C5
:10093000811124C0E0EAF0E08491E4EBF0E09491CE
:10094000E82FF0E0EE0FFF1FE457FF4FA591B491A1
:10095000EC91E92321F461E08AE00E94B9018AE088
:100960000E948A008CB580618CBD8CB580648CBD82
:100970008DE00E948A008BE00E948A008091210114
:100980008F5F809321011FBF80E00E94060281E0FB
:100990000E9421020E9460026CE080E00E949E02A0
:1009A0006FE584E00E949E0286E00E94DC02877D63
:1009B000182F10628BE990E0A0E0B0E08093EA018C
:1009C0009093EB01A093EC01B093ED01612F86E0D1
:1009D0000E949E0286E00E94DC02181709F4EDC115
:1009E00086E00E94DC0286E00E94DC0245E550E0E1
:1009F00060E070E04093EA015093EB016093EC01FA
:100A00007093ED01682F677D86E00E949E0286E06C
:100A10000E94DC0280E00E94210280E50E94970291
:100A200083E70E94970281E00E94210260E08DE14D
:100A30000E949E0260E08CE10E949E021092E20100
:100A400060E787E00E949E026CE485E00E949E02BF
:100A500082EE0E94FC020E940B030E94EF0280E0E3
:100A60000E94DC02682F6E7F80E00E949E026FEF82
:100A700084E00E949E026EE685E00E949E02409104
:100A8000E80160E071E08AE00E94B5024091E8016F
:100A900060E071E080E10E94B5026091E10181E1D6
:100AA0000E949E024AE0442E512C612C712C8FB77B
:100AB000F8948090220190902301A0902401B0909E
:100AC00025018FBF8092350190923601A0923701A7
:100AD000B09238011092390110923A0110923B0104
:100AE00010923C019401A50160E070E080E090E08C
:100AF000A0902D01B0902E01C0902F01D090300118
:100B0000E0903101F09032010091330110913401F5
:100B10000E940307273C3105410551056105710518
:100B20008105910541F138F1E7E2F1E020E0822F03
:100B3000806480937C0080917A00806480937A0046
:100B400080917A0086FDFCCF809178003091790009
:100B500090E0932B97FD03969595879595958795AE
:100B600081932F5F243019F78091260180932C0107
:100B70008F5F809326012090350130903601809060
:100B8000370190903801B0913901A0913A01F0916C
:100B90003B01E0913C019101A4016B2F7A2F8F2F33
:100BA0009E2FA0902D01B0902E01C0902F01D090CB
:100BB0003001E0903101F090320100913301109149
:100BC00034010E940307273C3105410551056105A9
:100BD00071058105910509F008F4ECC020922D0102
:100BE00030922E0180922F0190923001B09331010A
:100BF000A0933201F0933301E093340180E00E942E
:100C000006028091EA019091EB010E9416028DE1AB
:100C10000E94DC0281FF08C08091EA019091EB0103
:100C20000E9416020E940B0380E00E94DC02682FE3
:100C30006E7F80E00E949E0282E00E94DC02ECE770
:100C4000F0E0949121E030E001C0220F9A95EAF79C
:100C5000682F622B82E00E949E028091E101D82ED3
:100C6000873010F096E0D92E9091E201911103C0E7
:100C7000982E9D1801C0912C80E00E94210280EAEC
:100C80000E94970207E211E07801DA94FFEFDF1685
:100C900031F0F70181917F010E949702F6CF9920F0
:100CA00029F080E00E9497029A94F9CF81E00E9497
:100CB000210281E00E9406028FEF0E94FC028073F5
:100CC000D9F380E00E94060260E787E00E949E025E
:100CD00084FD0E940B030E94EF0280E00E94DC0270
:100CE000682F616080E00E949E0260E787E00E94BA
:100CF0009E0281E00E9406028091E301882341F078
:100D00004091E80163EE71E08AE00E94B50211C0F3
:100D100082E00E94DC02ECE7F0E0949161E070E098
:100D200001C0660F9A95EAF76095682382E00E94F9
:100D30009E028DE10E94DC0281FD0E940B038DE288
:100D400091E08017910771F1F80121918F0130E056
:100D500040E050E019A27E01F1E2EF0EF11CCA0161
:100D6000B901A30192010E94E106605DF70162935F
:100D70007F01211531054105510589F7309761F053
:100D800001900020E9F73197AF014E195F09B701D3
:100D90008DE391E00E94A90060E28DE391E00E9462
:100DA0004001CDCF42E050E068E171E08DE391E099
:100DB0000E94A9000E94AF017ACE81E08093E001F9
:100DC0000FCEA1E21A2EAA1BBB1BFD010DC0AA1F4C
:100DD000BB1FEE1FFF1FA217B307E407F50720F0A4
:100DE000A21BB30BE40BF50B661F771F881F991F1F
:100DF0001A9469F760957095809590959B01AC0168
:100E0000BD01CF0108952A193B094C095D096E09FE
:100E10007F09800B910B0895EE0FFF1F0590F49151
:100E2000E02D099481E090E0F8940C941707F89471
:020E3000FFCFF2
:100E3200314E6F646530000000004001A900D70008
:0C0E42008D010801E600FA000D0A000016
:107800000C94343C0C94513C0C94513C0C94513CE1
:107810000C94513C0C94513C0C94513C0C94513CB4
:107820000C94513C0C94513C0C94513C0C94513CA4
:107830000C94513C0C94513C0C94513C0C94513C94
:107840000C94513C0C94513C0C94513C0C94513C84
:107850000C94513C0C94513C0C94513C0C94513C74
:107860000C94513C0C94513C11241FBECFEFD8E036
:10787000DEBFCDBF11E0A0E0B1E0ECE9FFE702C060
:1078800005900D92A230B107D9F712E0A2E0B1E065
:1078900001C01D92AD30B107E1F70E942D3D0C945F
:1078A000CC3F0C94003C982F959595959595959582
:1078B000905D8F708A307CF0282F295A8091C0000B
:1078C00085FFFCCF9093C6008091C00085FFFCCF60
:1078D0002093C6000895282F205DF0CF982F809127
:1078E000C00085FFFCCF9093C6000895EF92FF92F1
:1078F0000F931F93EE24FF2487018091C00087FD22
:1079000017C00894E11CF11C011D111D81E4E8164B
:1079100082E4F8068FE0080780E0180770F3E09132
:107920000401F091050109958091C00087FFE9CF1E
:107930008091C6001F910F91FF90EF9008950E94D3
:10794000763C982F8091C00085FFFCCF9093C600B5
:1079500091362CF490330CF09053892F089597555D
:10796000892F08951F930E949F3C182F0E949F3CCF
:107970001295107F810F1F9108951F93182F882350
:1079800021F00E94763C1150E1F71F9108951F935A
:10799000182F0E94763C803249F0809103018F5F5E
:1079A000809303018530C1F01F9108958091C0003C
:1079B00085FFFCCF84E18093C6008091C00085FFE5
:1079C000FCCF1093C6008091C00085FFFCCF80E102
:1079D0008093C6001F910895E0910401F091050184
:1079E00009951F9108950E94763C803241F0809164
:1079F00003018F5F80930301853081F008958091AA
:107A0000C00085FFFCCF84E18093C6008091C00058
:107A100085FFFCCF80E18093C6000895E0910401CA
:107A2000F09105010995089540E951E08823A1F0FE
:107A30002D9A28EE33E0FA013197F1F721503040CA
:107A4000D1F72D9828EE33E0FA013197F1F7215064
:107A50003040D1F7815061F708953F924F925F9285
:107A60006F927F928F929F92AF92BF92CF92DF924E
:107A7000EF92FF920F931F93CF93DF93000080E16B
:107A80008093C4001092C50088E18093C10086E015
:107A90008093C2005098589A259A81E00E94143D24
:107AA00024E1F22E9EE1E92E85E9D82E0FE0C02ECA
:107AB00010E1B12EAA24A394B1E49B2EA6E58A2E50
:107AC000F2E57F2EE0E26E2E79E4572E63E5462E36
:107AD00050E5352E0E94763C8033B1F18133B9F107
:107AE000803409F46FC0813409F476C0823409F41B
:107AF00085C0853409F488C0803531F1823521F1A3
:107B0000813511F1853509F485C0863509F48DC0BC
:107B1000843609F496C0843709F403C1853709F423
:107B200072C1863709F466C0809103018F5F80932C
:107B30000301853079F6E0910401F0910501099582
:107B40000E94763C803351F60E94F33CC3CF0E94E2
:107B5000763C803249F78091C00085FFFCCFF092DF
:107B6000C6008091C00085FFFCCF9092C600809136
:107B7000C00085FFFCCF8092C6008091C00085FFC9
:107B8000FCCF7092C6008091C00085FFFCCF609250
:107B9000C6008091C00085FFFCCF5092C600809146
:107BA000C00085FFFCCF4092C6008091C00085FFD9
:107BB000FCCF3092C6008091C00085FFFCCFB09210
:107BC000C60088CF0E94763C863808F4BDCF0E945C
:107BD000763C0E94F33C7ECF0E94763C803809F4CC
:107BE0009CC0813809F40BC1823809F43CC1883942
:107BF00009F48FC080E00E94C73C6CCF84E10E94F2
:107C0000BD3C0E94F33C66CF85E00E94BD3C0E94D3
:107C1000F33C60CF0E94763C809306010E94763C44
:107C2000809307010E94F33C55CF0E94763C80333D
:107C300009F41DC183E00E94BD3C80E00E94C73C66
:107C400049CF0E94763C809309020E94763C809343
:107C5000080280910C028E7F80930C020E94763C79
:107C6000853409F415C18091080290910902892B8D
:107C700089F000E010E00E94763CF801E85FFE4FDA
:107C800080830F5F1F4F80910802909109020817AF
:107C9000190788F30E94763C803209F045CF809125
:107CA0000C0280FF01C16091060170910701660F0F
:107CB000771F7093070160930601A0910802B091AD
:107CC00009021097C9F0E8E0F1E09B01AD014E0F09
:107CD0005F1FF999FECF32BD21BD819180BDFA9A17
:107CE000F99A2F5F3F4FE417F50799F76A0F7B1F4B
:107CF00070930701609306018091C00085FFFCCF5F
:107D0000F092C6008091C00085FFFCCFB092C60003
:107D1000E1CE83E00E94C73CDDCE82E00E94C73CFA
:107D2000D9CE0E94763C809309020E94763C8093D3
:107D300008028091060190910701880F991F909386
:107D40000701809306010E94763C853409F4A6C0A1
:107D500080910C028E7F80930C020E94763C8032D0
:107D600009F0B8CE8091C00085FFFCCFF092C6002C
:107D7000609108027091090261157105B9F140E046
:107D800050E080910C02A82FA170B82FB27011C0E2
:107D9000BB2309F45CC0E0910601F0910701319624
:107DA000F0930701E09306014F5F5F4F46175707B7
:107DB000E8F4AA2369F3F999FECF209106013091E6
:107DC000070132BD21BDF89A90B58091C00085FFB2
:107DD000FCCF9093C6002F5F3F4F30930701209355
:107DE00006014F5F5F4F4617570718F38091C00099
:107DF00085FDE5CE8091C00085FFF8CFE0CE81E023
:107E00000E94C73C67CE0E94763C803209F08CCE3F
:107E10008091C00085FFFCCFF092C6008091C00029
:107E200085FFFCCFE092C6008091C00085FFFCCFAB
:107E3000D092C6008091C00085FFFCCFC092C600E2
:107E40008091C00085FFFCCFB092C60043CEE09188
:107E50000601F091070194918091C00085FFFCCF4D
:107E60009093C6009CCF80E10E94C73C33CE0E9415
:107E7000763C0E94763C182F0E94763C112309F430
:107E800083C0113009F484C08FE00E94C73C22CE29
:107E900080910C02816080930C02E5CE80910C02EF
:107EA000816080930C0259CF809107018823880F4D
:107EB000880B8A2180930B02809106019091070123
:107EC000880F991F90930701809306018091080203
:107ED00080FF09C080910802909109020196909359
:107EE000090280930802F894F999FECF1127E091D6
:107EF0000601F0910701C8E0D1E08091080290915D
:107F00000902103091F40091570001700130D9F34B
:107F100003E000935700E89500915700017001308D
:107F2000D9F301E100935700E89509901990009169
:107F3000570001700130D9F301E000935700E89534
:107F40001395103498F011270091570001700130FB
:107F5000D9F305E000935700E895009157000170B0
:107F60000130D9F301E100935700E895329602976A
:107F700009F0C7CF103011F00296E5CF112480919F
:107F8000C00085FFB9CEBCCE8EE10E94C73CA2CD19
:0C7F900085E90E94C73C9ECDF894FFCF0D
:027F9C00800063
:040000030000780081
:00000001FF