:100000000C9460000C9488000C9488000C94880078
:100010000C9488000C9488000C9488000C94880040
:100020000C9488000C9488000C9488000C94880030
:100030000C9488000C9488000C9488000C94880020
:100040000C9402040C9488000C94D0030C94AA0322
:100050000C9488000C9488000C9488000C94880000
:100060000C9488000C948800000000080002010035
:100070000003040700000000000000000000000072
:10008000250028002B0000000000240027002A0083
:10009000040404040404040402020202020203032E
:1000A0000303030301020408102040800102040836
:1000B00010200102040810200001020304054C0472
:1000C00011241FBECFEFD8E0DEBFCDBF22E0A8E2F3
:1000D000B1E001C01D92A430B207E1F711E0A0E049
:1000E000B1E0E2E8FEE002C005900D92A832B1074F
:1000F000D9F710E0C0E6D0E004C02197FE010E94CD
:100100003407CF35D107C9F70E9492040C943F07FA
:100110000C94000090E0FC01EC55FF4F2491FC0191
:10012000E057FF4F8491882399F090E0880F991F42
:10013000FC01EA57FF4FA591B491FC01E458FF4F31
:10014000859194918FB7F894EC91E22BEC938FBF4B
:100150000895CF92DF92EF92FF920F931F93CF9368
:10016000DF936C017A018B01C0E0D0E0CE15DF0592
:1001700081F0D8016D918D01D601ED91FC91019036
:10018000F081E02DC6010995892B11F02196EECF63
:100190007E01C701DF91CF911F910F91FF90EF90EA
:1001A000DF90CF900895089580E090E00895FC01DD
:1001B000538D448D252F30E0842F90E0821B930BCC
:1001C000541710F0CF96089501970895FC01918D72
:1001D000828D981761F0828DDF01A80FB11D5D96A9
:1001E0008C91928D9F5F9F73928F90E008958FEF17
:1001F0009FEF0895FC01918D828D981731F0828DCB
:10020000E80FF11D858D90E008958FEF9FEF089521
:10021000FC01918D228D892F90E0805C9F4F821B85
:1002200091098F73992708958FE491E00E94080146
:1002300021E0892B09F420E0822F0895FC01848DB0
:10024000DF01A80FB11DA35ABF4F2C91848D90E000
:1002500001968F739927848FA689B7892C93A089DB
:10026000B1898C91837080648C93938D848D981365
:1002700006C00288F389E02D80818F7D80830895F8
:10028000EF92FF920F931F93CF93DF93EC0181E0E6
:10029000888F9B8D8C8D981305C0E889F9898081A2
:1002A00085FD26C0F62E0B8D10E00F5F1F4F0F73DC
:1002B0001127E02E8C8DE8120CC00FB607FCFACF88
:1002C000E889F989808185FFF5CFCE010E941E0162
:1002D000F1CF8B8DFE01E80FF11DE35AFF4FF08245
:1002E0009FB7F8940B8FEA89FB89808180620AC0EE
:1002F0009FB7F894EE89FF896083E889F989808146
:100300008370806480839FBF81E090E0DF91CF9114
:100310001F910F91FF90EF90089560E28FE491E0BC
:100320000C944001CF93DF93EC01888D8823C9F0B2
:10033000EA89FB89808185FD05C0A889B9898C91EE
:1003400086FD0FC00FB607FCF5CF808185FFF2CF89
:10035000A889B9898C9185FFEDCFCE010E941E013D
:10036000E7CFDF91CF91089580E090E0892B29F0CD
:100370000E94140181110C940000089590E0FC018A
:10038000E859FF4F2491FC01EC55FF4F3491FC01DB
:10039000E057FF4FE491EE2309F43CC0222339F1EA
:1003A000233091F038F42130A9F0223001F584B5E2
:1003B0008F7D12C0273091F02830A1F02430B9F49D
:1003C000809180008F7D03C0809180008F77809323
:1003D00080000DC084B58F7784BD09C08091B000C6
:1003E0008F7703C08091B0008F7D8093B000F0E0E4
:1003F000EE0FFF1FE458FF4FA591B4919FB7F894FB
:10040000611104C08C913095382302C0EC913E2BD1
:100410003C939FBF08952091EC013091ED014091F4
:10042000EE015091EF012417350721F0682F822F3C
:100430000C94BE0108958E3008F08E508770806451
:1004400080937C0080917A00806480937A00809110
:100450007A0086FDFCCF809178002091790090E0B1
:10046000922B08958230910538F0880F991F880FDC
:10047000991F05970197F1F70895CF93DF939CB5E6
:100480009F7D9CBD9CB5937F9CBD9CB59C7F9CBD76
:100490009DB591609DBDCCEED1E0682F8A810E9410
:1004A000BE018C899D89DF91CF910C9432023FB7B8
:1004B000F8948091290190912A01A0912B01B0918B
:1004C0002C0126B5A89B05C02F3F19F00196A11D50
:1004D000B11D3FBFBA2FA92F982F8827820F911DDA
:1004E000A11DB11DBC01CD0142E0660F771F881F21
:1004F000991F4A95D1F708958F929F92AF92BF921C
:10050000CF92DF92EF92FF920E9457024B015C0163
:1005100085E0C82ED12CE12CF12C0E945702DC0181
:10052000CB0188199909AA09BB09883E9340A10506
:10053000B10598F321E0C21AD108E108F10888EE6C
:10054000880E83E0981EA11CB11CC114D104E104E3
:10055000F10419F7FF90EF90DF90CF90BF90AF902C
:100560009F908F9008958EBD00000DB407FEFDCFC3
:100570008EB50895CF93DF93C82FD62F80E00E94C9
:100580003D028C2F8F7180620E94B302C82F8D2F85
:100590000E94B30281E00E943D028C2FDF91CF9137
:1005A0000895CF93C82F80E00E943D028C2F8F7159
:1005B0000E94B3028FEF0E94B302C82F81E00E9415
:1005C0003D028C2FCF91089580E00E94D10281FDE1
:1005D00007C0682F626080E00E94BA020C947C021F
:1005E0000895CF93C82F80E00E943D028C2F0E9477
:1005F000B302C82F81E00E943D028C2FCF91089555
:1006000081EE0C94F10280E00E940B028091FC01CB
:100610009091FD010E9432028DE10E94D10281FF82
:1006200008C08091FC019091FD010E9432020E945D
:10063000000380E00E94D102682F6E7F80E00E945C
:10064000BA0282E00E94D102E8EBF0E0E49161E0BE
:1006500070E001C0660FEA95EAF7682B82E00C941F
:10066000BA02EF92FF920F931F93CF93DF93182F4D
:100670007B01C42F80E00E943D02812F8F71806238
:100680000E94B302D82F8701CC2339F0F801819161
:100690008F010E94B302C150F7CF81E00E943D025A
:1006A0008D2FDF91CF911F910F91FF90EF900895C3
:1006B000009769F0FC0101900020E9F73197AF0144
:1006C000481B590BBC018FE491E00C94A90080E019
:1006D00090E00895CF92DF92EF92FF920F931F93D5
:1006E000CF93DF93CDB7DEB7A1970FB6F894DEBFF7
:1006F0000FBECDBF282F30E040E050E019A28E01A0
:100700000F5D1F4F8AE0C82ED12CE12CF12CCA01BD
:10071000B901A70196010E940907605DF801629383
:100720008F01211531054105510589F7CF010E943F
:100730005803A1960FB6F894DEBF0FBECDBFDF9170
:10074000CF911F910F91FF90EF90DF90CF90089580
:100750000E943A071F920F920FB60F9211242F9307
:100760003F934F935F936F937F938F939F93AF9339
:10077000BF93EF93FF938FE491E00E941E01FF91DE
:10078000EF91BF91AF919F918F917F916F915F9109
:100790004F913F912F910F900FBE0F901F90189582
:1007A0001F920F920FB60F9211242F938F939F9346
:1007B000EF93FF93E0915F01F09160018081E09100
:1007C0006501F091660182FD12C0908180916801FF
:1007D0008F5F8F7320916901821751F0E09168015A
:1007E000F0E0E15BFE4F958F8093680101C080814E
:1007F000FF91EF919F918F912F910F900FBE0F90CE
:100800001F9018951F920F920FB60F9211242F93DD
:100810003F938F939F93AF93BF9380912E019091BD
:100820002F01A0913001B09131013091280123E0D6
:10083000230F2D3720F40196A11DB11D05C026E818
:10084000230F0296A11DB11D2093280180932E0134
:1008500090932F01A0933001B09331018091290131
:1008600090912A01A0912B01B0912C010196A11D1C
:10087000B11D8093290190932A01A0932B01B0937D
:100880002C01BF91AF919F918F913F912F910F902C
:100890000FBE0F901F901895EFE4F1E013821282C3
:1008A00088EE93E0A0E0B0E084839583A683B783CD
:1008B0008AE091E09183808385EC90E0958784873E
:1008C00084EC90E09787868780EC90E0918B808B1A
:1008D00081EC90E0938B828B82EC90E0958B848B03
:1008E00086EC90E0978B868B118E128E138E148E71
:1008F000ECEEF1E088E090E09183808387E090E087
:1009000093838283168280E28783108685E08687C0
:1009100085E090E0A0E0B0E0848B958BA68BB78B50
:1009200011860895789484B5826084BD84B5816011
:1009300084BD85B5826085BD85B5816085BD8091AA
:100940006E00816080936E00109281008091810022
:10095000826080938100809181008160809381001A
:10096000809180008160809380008091B1008460DC
:100970008093B1008091B00081608093B00080913D
:100980007A00846080937A0080917A0082608093FC
:100990007A0080917A00816080937A0080917A0059
:1009A000806880937A001092C100E0915F01F0911D
:1009B000600182E08083E0915B01F0915C01108234
:1009C000E0915D01F0915E018FEC808310926701F0
:1009D000E0916301F091640186E08083E091610120
:1009E000F0916201808180618083E0916101F091EA
:1009F0006201808188608083E0916101F0916201F1
:100A0000808180688083E0916101F0916201808142
:100A10008F7D808388E191E00E94580384E291E019
:100A20000E9458038091EC019091ED012091EE011C
:100A30003091EF018217930711F00E948A00809194
:100A4000EE019091EF012091EC013091ED0128171A
:100A5000390711F00E948A00CFB7F89480912D01D8
:100A6000811124C0EAE9F0E08491EEEAF0E094918B
:100A7000E82FF0E0EE0FFF1FEA57FF4FA591B4916A
:100A8000EC91E92321F461E08AE00E94BE018AE052
:100A90000E948A008CB580618CBD8CB580648CBD51
:100AA0008DE00E948A008BE00E948A0080912D01D7
:100AB0008F5F80932D01CFBF80E00E940B0281E009
:100AC0000E943D020E947C026CE080E00E94BA021B
:100AD0006FE584E00E94BA0286E00E94D102877D21
:100AE000C82FC0628BE990E0A0E0B0E08093FC01E9
:100AF0009093FD01A093FE01B093FF016C2F86E05F
:100B00000E94BA0286E00E94D102C81709F47DC192
:100B100086E00E94D10286E00E94D10245E550E0C5
:100B200060E070E04093FC015093FD016093FE0192
:100B30007093FF01682F677D86E00E94BA0286E00D
:100B40000E94D10280E00E943D0280E50E94B30233
:100B500083E70E94B30281E00E943D0260E08DE1E4
:100B60000E94BA0260E08CE10E94BA021092F40185
:100B700060E787E00E94BA026CE485E00E94BA0256
:100B800082EE0E94F1020E9400030E94E40280E0D3
:100B90000E94D102682F6E7F80E00E94BA0265E257
:100BA00084E00E94BA026BE485E00E94BA024091A0
:100BB000FA0160E071E08AE00E9431034091FA019D
:100BC00060E071E080E10E9431036091F30181E116
:100BD0000E94BA020E940303C1E0D0E02FB7F8944C
:100BE00080912E0190912F01A0913001B09131019F
:100BF0002FBF1C012D018093470130924801409284
:100C0000490150924A0110924B0110924C011092EE
:100C10004D0110924E019C01A20160E070E080E065
:100C200090E0A0903F01B0904001C0904101D09071
:100C30004201E0904301F090440100914501109180
:100C400046010E942B07273C3105410551056105EE
:100C500071058105910509F008F4D4C080E00E9477
:100C60001B0297FD0396959587959595879580939B
:100C7000340181E00E941B0297FD039695958795AC
:100C8000959587958093330182E00E941B0297FD22
:100C9000039695958795959587958093360183E082
:100CA0000E941B0297FD03969595879595958795CC
:100CB000809335018091320180933E018F5F809354
:100CC000320120923F013092400140924101509206
:100CD000420110924301109244011092450110927A
:100CE00046010E9403038091F301182F8D3008F014
:100CF0001CE09091F401911103C0982E911A01C04B
:100D0000912C80E00E943D0280EA0E94B30283E3BE
:100D1000682E81E0782E115030F0F30181913F016F
:100D20000E94B302F8CF992029F080E00E94B3021C
:100D30009A94F9CF81E00E943D0281E00E940B026B
:100D40008FEF0E94F1028073D9F380E00E940B02C2
:100D500060E787E00E94BA0284FD0E9400030E94BF
:100D6000E40280E00E94D102682F616080E00E946E
:100D7000BA0260E787E00E94BA0281E00E940B029B
:100D80008091F501882341F04091FA0165EF71E00F
:100D90008AE00E94310310C082E00E94D102E8EB99
:100DA000F0E09491BE0101C0660F9A95EAF7609554
:100DB000682382E00E94BA028DE10E94D10281FD87
:100DC0000E940003809133010E946A030E948D01FA
:100DD000809134010E946A030E948D018091350147
:100DE0000E946A030E948D01809136010E946A036D
:100DF0000E948D0180913E010E946A0384E291E08D
:100E00000E9458030E94B401E9CE81E08093F20170
:100E10007FCEA1E21A2EAA1BBB1BFD010DC0AA1F8B
:100E2000BB1FEE1FFF1FA217B307E407F50720F053
:100E3000A21BB30BE40BF50B661F771F881F991FCE
:100E40001A9469F760957095809590959B01AC0117
:100E5000BD01CF0108952A193B094C095D096E09AE
:100E60007F09800B910B0895EE0FFF1F0590F49101
:100E7000E02D099481E090E0F8940C943F07F894F9
:020E8000FFCFA2
:100E8200314E6F646530000000004001A900D700B8
:100E920092010801E600FA005374617274696E6788
:080EA2002E2E2E000D0A0000A7
:00000001FF
