:100000000C9460000C9488000C9488000C94880078
:100010000C9488000C9488000C9488000C94880040
:100020000C9488000C9488000C9488000C94880030
:100030000C9488000C9488000C9488000C94880020
:100040000C9468030C9488000C9436030C941003F1
:100050000C9488000C9488000C9488000C94880000
:100060000C9488000C948800000000080002010035
:10007000000304070000000000000000000102036C
:10008000040500000000250028002B0000000000EF
:10009000240027002A0004040404040404040202C7
:1000A00002020202030303030303010204081020F7
:1000B0004080010204081020010204081020B2034D
:1000C00011241FBECFEFD8E0DEBFCDBF21E0ACE1F1
:1000D000B1E001C01D92A23FB207E1F711E0A0E03C
:1000E000B1E0EAE2FEE002C005900D92AC31B1074A
:1000F000D9F710E0C0E6D0E004C02197FE010E94CD
:100100000807CF35D107C9F70E94F8030C941307ED
:100110000C94000090E0FC01E655FF4F2491FC0197
:10012000EA56FF4F8491882399F090E0880F991F39
:10013000FC01E457FF4FA591B491FC01EE57FF4F2E
:10014000859194918FB7F894EC91E22BEC938FBF4B
:100150000895CF92DF92EF92FF920F931F93CF9368
:10016000DF936C017A018B01C0E0D0E0CE15DF0592
:1001700081F0D8016D918D01D601ED91FC91019036
:10018000F081E02DC6010995892B11F02196EECF63
:100190007E01C701DF91CF911F910F91FF90EF90EA
:1001A000DF90CF900895089580E090E00895FC01DD
:1001B000538D448D252F30E0842F90E0821B930BCC
:1001C000541710F0CF96089501970895FC01918D72
:1001D000828D981761F0828DDF01A80FB11D5D96A9
:1001E0008C91928D9F5F9F73928F90E008958FEF17
:1001F0009FEF0895FC01918D828D981731F0828DCB
:10020000E80FF11D858D90E008958FEF9FEF089521
:10021000FC01918D228D892F90E0805C9F4F821B85
:1002200091098F73992708958DE391E00E94080149
:1002300021E0892B09F420E0822F0895FC01848DB0
:10024000DF01A80FB11DA35ABF4F2C91848D90E000
:1002500001968F739927848FA689B7892C93A089DB
:10026000B1898C91837080648C93938D848D981365
:1002700006C00288F389E02D80818F7D80830895F8
:10028000EF92FF920F931F93CF93DF93EC0181E0E6
:10029000888F9B8D8C8D981305C0E889F9898081A2
:1002A00085FD26C0F62E0B8D10E00F5F1F4F0F73DC
:1002B0001127E02E8C8DE8120CC00FB607FCFACF88
:1002C000E889F989808185FFF5CFCE010E941E0162
:1002D000F1CF8B8DFE01E80FF11DE35AFF4FF08245
:1002E0009FB7F8940B8FEA89FB89808180620AC0EE
:1002F0009FB7F894EE89FF896083E889F989808146
:100300008370806480839FBF81E090E0DF91CF9114
:100310001F910F91FF90EF900895CF93DF93EC0121
:10032000888D8823C9F0EA89FB89808185FD05C015
:10033000A889B9898C9186FD0FC00FB607FCF5CF4F
:10034000808185FFF2CFA889B9898C9185FFEDCF97
:10035000CE010E941E01E7CFDF91CF91089580E08A
:1003600090E0892B29F00E94140181110C94000067
:10037000089590E0FC01E859FF4F2491FC01E655F7
:10038000FF4F3491FC01EA56FF4FE491EE2309F44C
:100390003CC0222339F1233091F038F42130A9F008
:1003A000223001F584B58F7D12C0273091F02830BE
:1003B000A1F02430B9F4809180008F7D03C080913A
:1003C00080008F77809380000DC084B58F7784BDC7
:1003D00009C08091B0008F7703C08091B0008F7DFD
:1003E0008093B000F0E0EE0FFF1FEE57FF4FA59196
:1003F000B4919FB7F894611104C08C913095382363
:1004000002C0EC913E2B3C939FBF08952091DA01EE
:100410003091DB014091DC015091DD01241735075B
:1004200021F0682F822F0C94B90108958230910534
:1004300038F0880F991F880F991F05970197F1F7DA
:100440000895CF93DF939CB59F7D9CBD9CB5937F12
:100450009CBD9CB59C7F9CBD9DB591609DBDCAED2A
:10046000D1E0682F8A810E94B9018C899D89DF9132
:10047000CF910C9416023FB7F89480911D01909192
:100480001E01A0911F01B091200126B5A89B05C0B7
:100490002F3F19F00196A11DB11D3FBFBA2FA92F03
:1004A000982F8827820F911DA11DB11DBC01CD0180
:1004B00042E0660F771F881F991F4A95D1F708956C
:1004C0008F929F92AF92BF92CF92DF92EF92FF9264
:1004D0000E943B024B015C0185E0C82ED12CE12C2F
:1004E000F12C0E943B02DC01CB0188199909AA0971
:1004F000BB09883E9340A105B10598F321E0C21ADB
:10050000D108E108F10888EE880E83E0981EA11C4E
:10051000B11CC114D104E104F10419F7FF90EF906C
:10052000DF90CF90BF90AF909F908F9008958EBD39
:1005300000000DB407FEFDCF8EB50895CF93DF9375
:10054000C82FD62F80E00E9421028C2F8F718062ED
:100550000E949702C82F8D2F0E94970281E00E946F
:1005600021028C2FDF91CF910895EF92FF920F938C
:100570001F93CF93DF93182F7B01C42F80E00E943D
:100580002102812F8F7180620E949702D82F8701EC
:10059000CC2339F0F80181918F010E949702C1505C
:1005A000F7CF81E00E9421028D2FDF91CF911F9123
:1005B0000F91FF90EF900895CF93C82F80E00E9495
:1005C00021028C2F8F710E9497028FEF0E94970259
:1005D000C82F81E00E9421028C2FCF91089580E0E6
:1005E0000E94DC0281FD07C0682F626080E00E94EB
:1005F0009E020C9460020895CF93C82F80E00E9461
:1006000021028C2F0E949702C82F81E00E942102B4
:100610008C2FCF91089581EE0C94FC020E940E075E
:100620001F920F920FB60F9211242F933F934F9367
:100630005F936F937F938F939F93AF93BF93EF934A
:10064000FF938DE391E00E941E01FF91EF91BF9116
:10065000AF919F918F917F916F915F914F913F915A
:100660002F910F900FBE0F901F9018951F920F9211
:100670000FB60F9211242F938F939F93EF93FF93B5
:10068000E0914D01F0914E018081E0915301F09194
:10069000540182FD12C09081809156018F5F8F734B
:1006A00020915701821751F0E0915601F0E0E35C90
:1006B000FE4F958F8093560101C08081FF91EF918D
:1006C0009F918F912F910F900FBE0F901F901895B3
:1006D0001F920F920FB60F9211242F933F938F9377
:1006E0009F93AF93BF938091220190912301A0919A
:1006F0002401B091250130911C0123E0230F2D37F7
:1007000020F40196A11DB11D05C026E8230F029615
:10071000A11DB11D20931C01809322019093230100
:10072000A0932401B093250180911D0190911E0199
:10073000A0911F01B09120010196A11DB11D8093D0
:100740001D0190931E01A0931F01B0932001BF9142
:10075000AF919F918F913F912F910F900FBE0F906E
:100760001F901895EDE3F1E01382128288EE93E07A
:10077000A0E0B0E084839583A683B7838AE091E00C
:100780009183808385EC90E09587848784EC90E06A
:100790009787868780EC90E0918B808B81EC90E04E
:1007A000938B828B82EC90E0958B848B86EC90E02F
:1007B000978B868B118E128E138E148EEAEDF1E0DC
:1007C00088E090E09183808387E090E09383828348
:1007D000168280E28783108685E0868785E090E038
:1007E000A0E0B0E0848B958BA68BB78B1186089523
:1007F000CF93DF93CDB7DEB7A1970FB6F894DEBFE6
:100800000FBECDBF789484B5826084BD84B581600D
:1008100084BD85B5826085BD85B5816085BD8091CB
:100820006E00816080936E00109281008091810043
:10083000826080938100809181008160809381003B
:10084000809180008160809380008091B1008460FD
:100850008093B1008091B00081608093B00080915E
:100860007A00846080937A0080917A00826080931D
:100870007A0080917A00816080937A0080917A007A
:10088000806880937A001092C100E0914D01F09150
:100890004E0182E08083E0914901F0914A0110828B
:1008A000E0914B01F0914C018FEC80831092550147
:1008B000E0915101F091520186E08083E0914F0177
:1008C000F0915001808180618083E0914F01F0912F
:1008D0005001808188608083E0914F01F091500148
:1008E000808180688083E0914F01F0915001808188
:1008F0008F7D80838091DA019091DB012091DC0172
:100900003091DD018217930711F00E948A008091D7
:10091000DC019091DD012091DA013091DB01281793
:10092000390711F00E948A001FB7F89480912101C5
:10093000811124C0E0EAF0E08491E4EBF0E09491CE
:10094000E82FF0E0EE0FFF1FE457FF4FA591B491A1
:10095000EC91E92321F461E08AE00E94B9018AE088
:100960000E948A008CB580618CBD8CB580648CBD82
:100970008DE00E948A008BE00E948A008091210114
:100980008F5F809321011FBF80E00E94060281E0FB
:100990000E9421020E9460026CE080E00E949E02A0
:1009A0006FE584E00E949E0286E00E94DC02877D63
:1009B000182F10628BE990E0A0E0B0E08093EA018C
:1009C0009093EB01A093EC01B093ED01612F86E0D1
:1009D0000E949E0286E00E94DC02181709F4E9C119
:1009E00086E00E94DC0286E00E94DC0245E550E0E1
:1009F00060E070E04093EA015093EB016093EC01FA
:100A00007093ED01682F677D86E00E949E0286E06C
:100A10000E94DC0280E00E94210280E50E94970291
:100A200083E70E94970281E00E94210260E08DE14D
:100A30000E949E0260E08CE10E949E021092E20100
:100A400060E787E00E949E026CE485E00E949E02BF
:100A500082EE0E94FC020E940B030E94EF0280E0E3
:100A60000E94DC02682F6E7F80E00E949E0262E09E
:100A700085E00E949E024091E80160E071E08AE01A
:100A80000E94B5024091E80160E071E080E10E94BF
:100A9000B5026091E10181E10E949E024AE0442E8C
:100AA000512C612C712C8FB7F8948090220190907A
:100AB0002301A0902401B09025018FBF80923501C1
:100AC00090923601A0923701B0923801109239010C
:100AD00010923A0110923B0110923C019401A50141
:100AE00060E070E080E090E0A0902D01B0902E01D9
:100AF000C0902F01D0903001E0903101F090320190
:100B000000913301109134010E94FF06273C31050A
:100B100041055105610571058105910541F138F1E6
:100B2000E7E2F1E020E0822F806480937C008091F6
:100B30007A00806480937A0080917A0086FDFCCFF1
:100B4000809178003091790090E0932B97FD039687
:100B5000959587959595879581932F5F243019F703
:100B60008091260180932C018F5F80932601209035
:100B70003501309036018090370190903801B09166
:100B80003901A0913A01F0913B01E0913C019101C2
:100B9000A4016B2F7A2F8F2F9E2FA0902D01B09044
:100BA0002E01C0902F01D0903001E0903101F090E3
:100BB000320100913301109134010E94FF06273C5D
:100BC000310541055105610571058105910509F062
:100BD00008F4ECC020922D0130922E0180922F015A
:100BE00090923001B0933101A0933201F093330120
:100BF000E093340180E00E9406028091EA01909126
:100C0000EB010E9416028DE10E94DC0281FF08C008
:100C10008091EA019091EB010E9416020E940B0361
:100C200080E00E94DC02682F6E7F80E00E949E02BE
:100C300082E00E94DC02ECE7F0E0949121E030E0F9
:100C400001C0220F9A95EAF7682F622B82E00E947A
:100C50009E028091E101D82E873010F096E0D92EC7
:100C60009091E201911103C0982E9D1801C0912C22
:100C700080E00E94210280EA0E94970207E211E0D0
:100C80007801DA94FFEFDF1631F0F70181917F01EF
:100C90000E949702F6CF992029F080E00E949702E7
:100CA0009A94F9CF81E00E94210281E00E9406021D
:100CB0008FEF0E94FC028073D9F380E00E9406024D
:100CC00060E787E00E949E0284FD0E940B030E9461
:100CD000EF0280E00E94DC02682F616080E00E94E9
:100CE0009E0260E787E00E949E0281E00E94060269
:100CF0008091E301882341F04091E80163EE71E0C7
:100D00008AE00E94B50211C082E00E94DC02ECE79A
:100D1000F0E0949161E070E001C0660F9A95EAF707
:100D20006095682382E00E949E028DE10E94DC02B1
:100D300081FD0E940B038DE291E08017910771F114
:100D4000F80121918F0130E040E050E019A27E01CE
:100D5000F1E2EF0EF11CCA01B901A30192010E9458
:100D6000DD06605DF70162937F01211531054105C4
:100D7000510589F7309761F001900020E9F731972C
:100D8000AF014E195F09B7018DE391E00E94A90000
:100D900060E28DE391E00E944001CDCF42E050E05F
:100DA00068E171E08DE391E00E94A9000E94AF012B
:100DB0007ACE81E08093E00113CEA1E21A2EAA1B25
:100DC000BB1BFD010DC0AA1FBB1FEE1FFF1FA217FB
:100DD000B307E407F50720F0A21BB30BE40BF50BF8
:100DE000661F771F881F991F1A9469F76095709581
:100DF000809590959B01AC01BD01CF0108952A1902
:100E00003B094C095D096E097F09800B910B089520
:100E1000EE0FFF1F0590F491E02D099481E090E022
:0A0E2000F8940C941307F894FFCF28
:100E2A00314E6F646530000000004001A900D70010
:0C0E3A008D010801E600FA000D0A00001E
:00000001FF
