:100000000C94EB020C9413030C9413030C94130341
:100010000C9413030C9413030C9413030C94130308
:100020000C9413030C9413030C9413030C941303F8
:100030000C9413030C9413030C9413030C941303E8
:100040000C940F0D0C9413030C94ED0B0C94C70B34
:100050000C9413030C9413030C9413030C941303C8
:100060000C94590D0C9413031112131415160A0B4A
:100070000C0D0E0F0102040810204080010204083C
:1000800010200102040810200000000025002800B4
:100090002B00040404040404040402020202020209
:1000A00003030303030300000000240027002A00C9
:1000B00000000000230026002900000000080002C4
:1000C0000100000304070000000000000000000021
:1000D0000000003E5B4F5B3E3E6B4F6B3E1C3E7C28
:1000E0003E1C183C7E3C181C577D571C1C5E7F5ED6
:1000F0001C00183C1800FFE7C3E7FF001824180095
:10010000FFE7DBE7FF30483A060E2629792926402B
:100110007F050507407F05253F5A3CE73C5A7F3E57
:100120001C1C08081C1C3E7F14227F22145F5F00E9
:100130005F5F06097F017F006689956A6060606085
:100140006094A2FFA29408047E040810207E201070
:1001500008082A1C08081C2A08081E101010100C79
:100160001E0C1E0C30383E3830060E3E0E060000C7
:1001700000000000005F00000007000700147F146B
:100180007F14242A7F2A12231308646236495620DA
:10019000500008070300001C2241000041221C00FF
:1001A0002A1C7F1C2A08083E0808008070300008BE
:1001B00008080808000060600020100804023E5192
:1001C00049453E00427F4000724949494621414924
:1001D0004D331814127F1027454545393C4A49498B
:1001E0003141211109073649494936464949291EF5
:1001F00000001400000040340000000814224114E4
:1002000014141414004122140802015909063E4135
:100210005D594E7C1211127C7F494949363E41415D
:1002200041227F4141413E7F494949417F090909B6
:10023000013E414151737F0808087F00417F410022
:100240002040413F017F081422417F404040407FD1
:10025000021C027F7F0408107F3E4141413E7F091E
:100260000909063E4151215E7F091929462649495F
:10027000493203017F01033F4040403F1F2040209F
:100280001F3F4038403F631408146303047804039D
:100290006159494D43007F4141410204081020004B
:1002A0004141417F040201020440404040400003BC
:1002B00007080020545478407F2844443838444488
:1002C0004428384444287F385454541800087E0980
:1002D0000218A4A49C787F0804047800447D4000A0
:1002E0002040403D007F1028440000417F40007CBA
:1002F000047804787C080404783844444438FC18B2
:1003000024241818242418FC7C0804040848545495
:10031000542404043F44243C4040207C1C204020C2
:100320001C3C4030403C44281028444C9090907C29
:100330004464544C4400083641000000770000003B
:100340004136080002010204023C2623263C1EA17D
:10035000A161123A4040207A3854545559215555DC
:10036000794122545478422155547840205455798B
:10037000400C1E527212395555555939545454591E
:1003800039555454580000457C410002457D4200D7
:1003900001457C407D1211127DF0282528F07C5407
:1003A0005545002054547C547C0A097F4932494900
:1003B00049323A4444443A324A4848303A41412169
:1003C0007A3A42402078009DA0A07D3D4242423DC5
:1003D0003D4040403D3C24FF2424487E4943662B59
:1003E0002FFC2F2BFF0929F620C0887E09032054FB
:1003F0005479410000447D413048484A32384040F9
:10040000227A007A0A0A727D0D19317D2629292F58
:1004100028262929292630484D4020380808080870
:1004200008080808382F10C8ACBA2F102834FA0072
:10043000007B000008142A142222142A14085500F4
:10044000550055AA55AA55AAFF55FF55FF000000B3
:10045000FF00101010FF00141414FF001010FF0014
:10046000FF1010F010F0141414FC001414F700FF27
:100470000000FF00FF1414F404FC141417101F10E4
:10048000101F101F1414141F00101010F000000093
:10049000001F101010101F10101010F0100000009E
:1004A000FF101010101010101010FF10000000FFAF
:1004B000140000FF00FF00001F10170000FC04F4F0
:1004C00014141710171414F404F40000FF00F714A8
:1004D000141414141414F700F7141414171410102F
:1004E0001F101F141414F4141010F010F000001F4B
:1004F000101F0000001F14000000FC140000F0108A
:10050000F01010FF10FF141414FF141010101F002F
:10051000000000F010FFFFFFFFFFF0F0F0F0F0FF31
:10052000FFFF0000000000FFFF0F0F0F0F0F384408
:10053000443844FC4A4A4A347E02020606027E02DD
:100540007E0263554941633844443C04407E201E8A
:100550002006027E020299A5E7A5991C2A492A1CB9
:100560004C7201724C304A4D4D303048784830BCA6
:10057000625A463D3E494949007E0101017E2A2AD0
:100580002A2A2A44445F444440514A444040444A51
:1005900051400000FF0103E080FF000008086B6B82
:1005A000083612362436060F090F06000018180008
:1005B00000001010003040FF0101001F01011E006B
:1005C000191D1712003C3C3C3C00000000000001DB
:1005D00002030405461B11241FBECFEFD8E0DEBF87
:1005E000CDBF27E0ACEAB5E001C01D92A23AB20748
:1005F000E1F715E0A0E0B1E0ECEAFCE302C0059011
:100600000D92AC3AB107D9F712E0CBEED2E004C0BC
:100610002197FE010E94521CCA3ED107C9F70E94D1
:1006200023140C94541E0C940000FC01538D448D33
:10063000252F30E0842F90E0821B930B541710F08D
:10064000CF96089501970895FC01918D828D98179A
:1006500061F0828DDF01A80FB11D5D968C91928DA6
:100660009F5F9F73928F90E008958FEF9FEF0895A3
:10067000FC01918D828D981731F0828DE80FF11D6C
:10068000858D90E008958FEF9FEF0895FC01918D87
:10069000228D892F90E0805C9F4F821B91098F7380
:1006A000992708958FEA96E00E94460321E0892B5E
:1006B00009F420E0822F0895FC01848DDF01A80F4A
:1006C000B11DA35ABF4F2C91848D90E001968F737A
:1006D0009927848FA689B7892C93A089B1898C9199
:1006E000837080648C93938D848D981306C00288E8
:1006F000F389E02D80818F7D80830895EF92FF92B2
:100700000F931F93CF93DF93EC0181E0888F9B8D34
:100710008C8D981305C0E889F989808185FD26C0F4
:10072000F62E0B8D10E00F5F1F4F0F731127E02E79
:100730008C8DE8120CC00FB607FCFACFE889F98956
:10074000808185FFF5CFCE010E945C03F1CF8B8DB8
:10075000FE01E80FF11DE35AFF4FF0829FB7F894B6
:100760000B8FEA89FB89808180620AC09FB7F89469
:10077000EE89FF896083E889F989808183708064CC
:1007800080839FBF81E090E0DF91CF911F910F9117
:10079000FF90EF900895CF93DF93EC01888D88232D
:1007A000C9F0EA89FB89808185FD05C0A889B989DE
:1007B0008C9186FD0FC00FB607FCF5CF808185FFB9
:1007C000F2CFA889B9898C9185FFEDCFCE010E9427
:1007D0005C03E7CFDF91CF91089580E090E0892B13
:1007E00029F00E94520381110C9400000895833077
:1007F00081F028F4813099F08230A1F0089587309B
:10080000A9F08830B9F08430D1F4809180008F7DD8
:1008100003C0809180008F7780938000089584B515
:100820008F7702C084B58F7D84BD08958091B0001C
:100830008F7703C08091B0008F7D8093B0000895C2
:100840003FB7F8948091600690916106A09162068E
:10085000B091630626B5A89B05C02F3F19F00196FD
:10086000A11DB11D3FBFBA2FA92F982F8827820F36
:10087000911DA11DB11DBC01CD0142E0660F771F86
:10088000881F991F4A95D1F708950F931F93CF930F
:10089000DF93DC0155968C915597823071F083304F
:1008A00009F1813009F08CC01496ED91FC911597F7
:1008B000E41BF50BE21BF30B20C01496ED91FC91A9
:1008C0001597CF01861B970BBC01615071091696D5
:1008D000ED91FC911797CF01841B950BAC01421B46
:1008E000530B6EC01696ED91FC911797CF01861BA6
:1008F000970BBC0161507109FA0177FD1BC1169677
:100900008D919C911797681779070CF013C1F7FF29
:1009100004C02E0F3F1FE0E0F0E014968D919C91F3
:100920001597AF01420F531F841795071CF49C01C4
:100930002E1B3F0B121613060CF0FCC0CB0177FDEB
:10094000079643E0959587954A95E1F79695982FF8
:10095000882797958795E80FF91FE050FF4F67703C
:10096000772781E090E001C0880F6A95EAF7482F69
:100970000130110541F088F00230110509F0DAC0AC
:100980002E0F3F1F15C02E0F3F1FE217F30709F46C
:10099000D1C08081842B8193F8CF80952E0F3F1F8B
:1009A000E217F30709F4C6C0908198239193F8CF1A
:1009B000E217F30709F4BEC0808184278193F8CF42
:1009C00077FDB8C014968D919C911597681779079B
:1009D0000CF0B0C057FF04C0240F351F40E050E0BA
:1009E00016968D919C911797FA01E20FF31F8E17BF
:1009F0009F071CF49C01241B350B121613060CF0E8
:100A000099C0A22F842F86958695869590E8899F18
:100A1000600D711D1124FB01E050FF4F4770A9F1DB
:100A200098E0941B492F50E0EA01C65EDA4F8881B6
:100A3000291790F4421B51092FEF30E002C0359581
:100A400027954A95E2F782230130110541F068F0BD
:100A50000230110589F06EC00130110519F42081B2
:100A6000822B0CC00130110520F480952081822357
:100A700005C00230110531F4208182278083A91737
:100A800008F458C0A91BE058FF4FA83048F10230C5
:100A9000110559F4EF018A2F988190959883C058D9
:100AA000DF4F88508830C0F730C081E00130110539
:100AB00009F080E08195EF019A2F8883C058DF4FBD
:100AC00098509830D0F788EF8A0F8695869586954E
:100AD00090E8899FE00DF11D1124E058FF4FA770A9
:100AE000AA2341F1B0E0AE5EBA4F8C9101301105FE
:100AF00029F038F002301105E9F419C09081892BF2
:100B000018C080959081892314C088EF8A0F86953C
:100B10008695869590E8899FE00DF11D1124E05897
:100B2000FF4FA77039F0B0E0AE5EBA4F8C91908164
:100B300089278083DF91CF911F910F9108950F93A3
:100B40001F93CF93DF93DC01FB0155968C91559752
:100B5000823089F0833021F1813009F0E7C01496AA
:100B60008D919C911597BC01641B750BAB01415095
:100B70005109BF011DC014966D917C911597CB0151
:100B80008E1B9F0BFC0116968D919C911797BC01B3
:100B9000641B750BAB0141505109E21BF30BC6C03E
:100BA00016966D917C9117976E1B7F0B621B730BD2
:100BB00057FD1BC114968D919C91159748175907A5
:100BC0000CF013C177FF04C0260F371F60E070E000
:100BD00016968D919C911797FB01E20FF31F8E17CC
:100BE0009F071CF49C01261B370B121613060CF0F2
:100BF000FCC0A22F862F86958695869590E8899FC2
:100C0000400D511D1124FA01E050FF4F6770A9F10A
:100C100098E0961B492F50E0EA01C65EDA4F8881C2
:100C2000291790F4421B51092FEF30E002C035958F
:100C300027954A95E2F782230130110541F068F0CB
:100C40000230110589F0D1C00130110519F420815D
:100C5000822B0CC00130110520F480952081822365
:100C600005C00230110531F4208182278083A91745
:100C700008F4BBC0A91BE058FF4FA83048F1023070
:100C8000110559F4EF018A2F988190959883C058E7
:100C9000DF4F88508830C0F733C081E00130110544
:100CA00009F080E08195EF019A2F8883C058DF4FCB
:100CB00098509830D0F788EF8A0F8695869586955C
:100CC00060E8869FE00DF11D1124E058FF4FA770EA
:100CD000AA2309F48AC0B0E0AE5EBA4F8C9101300D
:100CE000110531F040F00230110509F07EC01BC043
:100CF0009081892B03C0809590818923808375C062
:100D000088EF8A0F86958695869570E8879FE00D17
:100D1000F11D1124E058FF4FA77009F466C0B0E040
:100D2000AE5EBA4F8C9190818927E8CF57FD5DC0A8
:100D300016968D919C911797481759070CF055C03E
:100D4000F7FF04C02E0F3F1FE0E0F0E014968D91F6
:100D50009C911597BF01620F731F861797071CF4AC
:100D60009C012E1B3F0B121613060CF03EC0CA014D
:100D700057FD079663E0959587956A95E1F79695F7
:100D8000982F882797958795E80FF91FE050FF4F18
:100D90004770552781E090E001C0880F4A95EAF737
:100DA000482F0130110539F078F002301105E9F4CF
:100DB0002E0F3F1F13C02E0F3F1FE217F307A9F09E
:100DC0008081842B8193F9CF80952E0F3F1FE217EE
:100DD000F30759F0908198239193F9CFE217F30725
:100DE00021F0808184278193F9CFDF91CF911F91EA
:100DF0000F910895FC0177FD9AC080859185681751
:100E000079070CF094C057FD92C0828593854817EE
:100E100059070CF08CC08589823009F07CC0848130
:100E20009581DC01A61BB70BBD016150710986815C
:100E30009781FC01E41BF50BAF01415051090AC039
:100E4000813041F484819581841B950BAB01BC01F9
:100E5000615071092130310529F008F12230310546
:100E6000E1F10895FA0157FD3796A3E0F595E7956E
:100E7000AA95E1F7F695FE2FEE27F795E7956E0F09
:100E80007F1FFB01E050FF4F4770552781E090E046
:100E900001C0880F4A95EAF79081892B3AC0FA0180
:100EA00057FD379623E0F595E7952A95E1F7F695F6
:100EB000FE2FEE27F795E7956E0F7F1FFB01E050A1
:100EC000FF4F4770552781E090E001C0880F4A9599
:100ED000EAF78095908189231CC0FA0157FD379667
:100EE00083E0F595E7958A95E1F7F695FE2FEE27D5
:100EF000F795E7956E0F7F1FFB01E050FF4F47709E
:100F0000552781E090E001C0880F4A95EAF790816B
:100F1000892780830895833009F092CF8681978155
:100F2000861B970BBA01AC014150510993CF08952C
:100F30000895FC016370658B8481958126813781DA
:100F4000613039F0633029F09187808733872287B9
:100F50000895318720879387828708956F927F92C3
:100F60008F929F92AF92BF92CF92DF92EF92FF92B9
:100F70000F931F93CF93DF93EC014B015A0169014B
:100F80003801E881F9810284F385E02D0995E88133
:100F9000F9810288F389E02D87019601A501B4014A
:100FA000CE010995A501460D571D41505109E88113
:100FB000F9810288F389E02D9601B401CE010995EB
:100FC000E881F9810088F189E02D9301A501B40140
:100FD000CE010995C80CD91CB60161507109E88190
:100FE000F9810088F189E02D9301A501CE010995D1
:100FF000E881F9810688F789E02DCE01DF91CF9154
:101000001F910F91FF90EF90DF90CF90BF90AF9026
:101010009F908F907F906F9009948F929F92AF9244
:10102000BF92CF92DF92EF92FF920F931F93CF93D5
:10103000DF934C016B015A01E901DC01ED91FC9158
:101040006217730781F40417150724F48B2D5801D8
:10105000042F182F0A191B0998012F5F3F4F048C8A
:10106000F58DE02D12C04017510709F526173707F7
:1010700024F48D2D6901C62FD82F9E012C193D090E
:101080002F5F3F4F068CF78DE02D8701A501B6013C
:10109000C4010995DF91CF911F910F91FF90EF90BF
:1010A000DF90CF90BF90AF909F908F900895028473
:1010B000F385E02D0995D401ED91FC910488F58923
:1010C000E02D9E01A501B601C4010995D401ED9161
:1010D000FC910688F789E02DC401DF91CF911F9123
:1010E0000F91FF90EF90DF90CF90BF90AF909F90C7
:1010F0008F900994EF92FF920F931F93DC011A9641
:101100000D911C911B9718962D913C911997ED917B
:10111000FC9100A0F1A1E02D7B0140E050E060E0F7
:1011200070E009951F910F91FF90EF9008954F92F5
:101130005F926F927F928F929F92AF92BF92CF9267
:10114000DF92EF92FF920F931F93CF93DF936C0187
:101150002B015A0139014801DC01ED91FC91028417
:10116000F385E02D0995E201640C751CD601ED9123
:10117000FC91C615D7055CF40088F189E02D870144
:101180009401A501BE01C60109952196EFCF0688FD
:10119000F789E02DC601DF91CF911F910F91FF904C
:1011A000EF90DF90CF90BF90AF909F908F907F9007
:1011B0006F905F904F9009948F929F92AF92BF92E1
:1011C000CF92DF92EF92FF920F931F93CF93DF9313
:1011D000EC015B014A016901E881F9810284F38530
:1011E000E02D099595012C0D3D1D21503109E88117
:1011F000F9810488F589E02D78018401A401B50105
:10120000CE010995E881F9810688F789E02DCE01A4
:10121000DF91CF911F910F91FF90EF90DF90CF90D2
:10122000BF90AF909F908F9009948F929F92AF92B2
:10123000BF92CF92DF92EF92FF920F931F93CF93C3
:10124000DF93EC015B014A0169017801E881F981D2
:101250000284F385E02D0995C80CD91C8601015044
:101260001109E881F9810488F589E02D9501A4012F
:10127000B501CE010995E881F9810688F789E02D4D
:10128000CE01DF91CF911F910F91FF90EF90DF90F2
:10129000CF90BF90AF909F908F9009940895EF9258
:1012A000FF920F931F93DC01ED91FC9100A0F1A13F
:1012B000E02D09951F910F91FF90EF9008950F93E6
:1012C0001F93DC01ED91FC91068CF78DE02D0995C3
:1012D0001F910F9108950F931F93DC01ED91FC91E5
:1012E000048CF58DE02D09951F910F910895DC0177
:1012F000ED91FC910084F185E02D09942F923F92AD
:101300004F925F926F927F928F929F92AF92BF9215
:10131000CF92DF92EF92FF920F931F93CF93DF93C1
:1013200000D000D000D0CDB7DEB72C017E836D8316
:101330006A015901C801FC82EB824801841A950AAE
:1013400097FE03C091948194910835012D813E81CF
:10135000621A730A77FE03C071946194710868146D
:1013600079045CF43A2D2B2D5C01832F922F3D8163
:101370002E81DE82CD82C32ED22EAD81BE81AA16F1
:10138000BB065CF43C2D2D2D6C01832F922F3D81EB
:101390002E81BE82AD82A32EB22E85012D813E818B
:1013A000021B130B1C012C183D0837FE03C031949F
:1013B00021943108780117FF03C03FEFE31AF30AC5
:1013C000F594E794C816D9062CF08FEF9FEF9A8317
:1013D000898304C0A1E0B0E0BA83A9832D813E8156
:1013E000A216B30624F1D201ED91FC910484F58597
:1013F000E02D2B813C816814790424F44D815E81B9
:10140000B60103C0A6016D817E81C2010995E21873
:10141000F308F7FE06C029813A81C20ED31EE00E02
:10142000F11E8D819E8101969E838D83D7CF269656
:101430000FB6F894DEBF0FBECDBFDF91CF911F91E5
:101440000F91FF90EF90DF90CF90BF90AF909F9063
:101450008F907F906F905F904F903F902F90089566
:1014600085ED8093BC008091BC0084FDFCCF109280
:101470008A06089540913C06262F30E0240F311D46
:1014800021323105DCF420918A062430C9F4FC01B4
:1014900080E090E0861758F430913C062191DC0101
:1014A000A45EB94FA30FB11D2C930196F3CF809189
:1014B0003C06680F60933C0680E0089581E0089543
:1014C00082E0089508950895E091B1058091B005F6
:1014D000E81730F4F0E0E450FA4F808190E008958E
:1014E0008FEF9FEF08959091B1058091B005981707
:1014F00050F4E92FF0E0E450FA4F208130E09F5F94
:101500009093B10502C02FEF3FEFC901089580917C
:10151000B00590E02091B105821B91090895CF920A
:10152000DF92EF92FF920F931F93CF93DF937C0193
:10153000CB018A0120918B06222389F0EB016B01FC
:10154000C40ED51ECC15DD0569F06991D701ED916A
:10155000FC910190F081E02DC7010995F3CF642F34
:101560000E943A0AC801DF91CF911F910F91FF901D
:10157000EF90DF90CF900895CF93DF931F92CDB778
:10158000DEB7698320918B062223D1F02091AE062D
:10159000203240F021E030E0FC013383228380E000
:1015A00090E015C080918C06E82FF0E0E357F94FEA
:1015B000998190838F5F80938C068093AE0605C0DF
:1015C00061E0CE0101960E943A0A81E090E00F901E
:1015D000DF91CF910895089580E090E008950E94F2
:1015E0003F1EAF92BF92CF92EF92FF920F931F9345
:1015F000CF93DF93EC01262F888D998D009709F00A
:1016000040C06A3059F41D861C862C898E859F85C2
:1016100038E0239F800D911D112441C06D3009F4E5
:10162000AAC08E898823C1F03C898C859D8546E0BF
:10163000349F800D911D11244885598548175907FD
:101640005CF41D861C868E859F8548E0349F800D46
:10165000911D11249F878E87EA88FB880889198944
:101660004E855F856C857D85CC88CE010E940611F4
:101670002C898C859D8536E0239F800D911D11243A
:1016800042C06A3079F41D861C862C89FC0136968E
:10169000E4918E859F852E9F800D911D11249F873B
:1016A0008E8769C06D3009F466C0FC0134963491B0
:1016B000631708F460C03196E491E61708F45BC044
:1016C000FC01329665917491422F50E0431B510901
:1016D00037E0349F5001359FB00C1124A60EB71E81
:1016E000F501329634913196E491332311F0E111F2
:1016F0000DC0F5013496E4912C898C859D85E29F7F
:10170000800D911D11249D878C8735C0F50135967C
:1017100044915E89552311F16C89E32FF0E0E40FC9
:10172000F11D47FDFA956E9FD0016F9FB00D1124FA
:101730004C855D854A0F5B1FE885F985E417F50741
:101740006CF41D861C86FC013696E4918E859F857F
:101750006E9F800D911D11249F878E87EA88FB88DC
:10176000088919894E855F856C857D85CC88CE0179
:101770000E940611BECF81E090E0DF91CF911F91D2
:101780000F91FF90EF90CF90BF90AF9008951F9270
:101790000F920FB60F9211242F933F934F935F93A5
:1017A0006F937F938F939F93AF93BF93EF93FF9329
:1017B0008FEA96E00E945C03FF91EF91BF91AF9199
:1017C0009F918F917F916F915F914F913F912F9159
:1017D0000F900FBE0F901F9018951F920F920FB68B
:1017E0000F9211242F938F939F93EF93FF93E09188
:1017F000BF06F091C0068081E091C506F091C60653
:1018000082FD12C090818091C8068F5F8F732091F6
:10181000C906821751F0E091C806F0E0E155F94F92
:10182000958F8093C80601C08081FF91EF919F91B1
:101830008F912F910F900FBE0F901F901895CF93FF
:10184000DF93282F30E0F901E654FF4F8491F9012E
:10185000EC58FF4FD491F901EE56FF4FC491CC23C1
:1018600091F081110E94F703EC2FF0E0EE0FFF1FC3
:10187000E055FF4FA591B491EC91ED2381E090E00C
:1018800021F480E002C080E090E0DF91CF910895E4
:101890001F93CF93DF93282F30E0F901E654FF4FD9
:1018A0008491F901EC58FF4FD491F901EE56FF4FA6
:1018B000C491CC23C1F0162F81110E94F703EC2FA5
:1018C000F0E0EE0FFF1FE857FF4FA591B4919FB7CF
:1018D000F894111104C08C91D095D82302C0EC91DA
:1018E000DE2BDC939FBFDF91CF911F910895CF93A3
:1018F000DF9390E0FC01EC58FF4F2491FC01EE5681
:10190000FF4F8491882361F190E0880F991FFC01BB
:10191000EA55FF4FC591D491FC01E857FF4FA591BF
:10192000B491611109C09FB7F894888120958223F2
:101930008883EC912E230BC0623061F49FB7F8943A
:101940008881322F309583238883EC912E2B2C9322
:101950009FBF06C08FB7F894E8812E2B28838FBFD6
:10196000DF91CF9108958E3008F08E50877080649B
:1019700080937C0080917A00806480937A008091CB
:101980007A0086FDFCCF809178002091790090E06C
:10199000922B08958230910538F0880F991F880F97
:1019A000991F05970197F1F708958F929F92AF9233
:1019B000BF92CF92DF92EF92FF926B017C010E9467
:1019C00020044B015C01C114D104E104F104F1F0E5
:1019D0000E942004DC01CB0188199909AA09BB09DE
:1019E000883E9340A105B10570F321E0C21AD108E9
:1019F000E108F10888EE880E83E0981EA11CB11C56
:101A0000C114D104E104F10419F7DDCFFF90EF9088
:101A1000DF90CF90BF90AF909F908F9008951F92CE
:101A20000F920FB60F9211242F933F938F939F9392
:101A3000AF93BF938091B2059091B305A091B40587
:101A4000B091B50530915F0623E0230F2D3720F4C8
:101A50000196A11DB11D05C026E8230F0296A11D08
:101A6000B11D20935F068093B2059093B305A093B8
:101A7000B405B093B5058091600690916106A09180
:101A80006206B09163060196A11DB11D80936006A8
:101A900090936106A0936206B0936306BF91AF91E5
:101AA0009F918F913F912F910F900FBE0F901F909C
:101AB00018951F920F920FB60F9211242F933F93F8
:101AC0004F935F936F937F938F939F93AF93BF9346
:101AD000EF93FF938091B900887F803609F49CC012
:101AE00068F5883209F45BC090F4803109F454C081
:101AF00038F4882309F4F6C0883009F44DC0F6C0E4
:101B0000883109F44CC0803209F45DC0EFC08034E4
:101B100009F468C048F4803309F455C0883309F0EB
:101B2000E5C080938806D8C0803509F44FC0883559
:101B300009F45DC0883409F0D9C0D6C0883909F4E9
:101B4000C7C0A8F4883709F467C038F4883609F4A8
:101B500063C0803709F460C0C9C0883809F4B8C0D0
:101B6000803909F45FC0803809F0C0C05BC0803B99
:101B700009F486C038F4803A09F466C0883A09F45A
:101B80007FC0B4C0803C09F4A7C0883C09F4A4C05D
:101B9000883B09F48AC0AAC08091650610C0909164
:101BA000870680918606981770F5E091870681E098
:101BB0008E0F80938706F0E0EA59F94F8081809379
:101BC000BB0085EC86C0809388068EC0E0918706B6
:101BD00081E08E0F809387068091BB00F0E0EA5988
:101BE000F94F808390918706809186066EC0E091C0
:101BF000870681E08E0F809387068091BB00F0E01E
:101C0000EA59F94F80838091890681116DC081E086
:101C10008093640684EA61C083E080938A06109210
:101C20005E06CFCF80915E06803208F051C0E09111
:101C30005E0681E08E0F80935E068091BB00F0E02F
:101C4000E25CF94F8083BDCF85EC8093BC0010929D
:101C50008A0680915E06803230F4E0915E06F0E004
:101C6000E25CF94F108260915E0670E0E091AC0595
:101C7000F091AD058EE396E0099510925E0636C0B0
:101C800084E080938A0610923D0610923C06E09113
:101C9000AE05F091AF05099580913C06811105C014
:101CA00081E080933C0610921C06E0913D0681E0A5
:101CB0008E0F80933D06F0E0E45EF94F80818093C3
:101CC000BB0090913D0680913C06981708F479CFAF
:101CD00085E88093BC000AC085EC8093BC0010921C
:101CE0008A0604C0109288060E94300AFF91EF9184
:101CF000BF91AF919F918F917F916F915F914F9124
:101D00003F912F910F900FBE0F901F9018958EBD91
:101D100000000DB407FEFDCF8EB50895CF93CFB769
:101D2000F8948091FB05811127C0ECE9F0E08491E3
:101D3000EEE7F0E09491E82FF0E0EE0FFF1FEA5598
:101D4000FF4FA591B491EC91E92321F461E08AE081
:101D50000E94480C61E08AE00E94770C8CB580619B
:101D60008CBD8CB580648CBD61E08DE00E94770CE9
:101D700061E08BE00E94770C8091FB058F5F809380
:101D8000FB05CFBFCF910895CF92DF92EF92FF92E4
:101D90001F93CF93DF93182FEB018FB7F894C09068
:101DA000B205D090B305E090B405F090B5058FBFB3
:101DB000812F0E941F0C892B31F58091F70590919E
:101DC000F805A091F905B091FA05A7019601281B25
:101DD000390B4A0B5B0BDA01C90180399140A1052F
:101DE000B10588F0812F0E941F0C892B21F4988166
:101DF00081E089278883C092F705D092F805E092A8
:101E0000F905F092FA05DF91CF911F91FF90EF90C5
:101E1000DF90CF900895CF92DF92EF92FF920F93D1
:101E20001F93CF93DF936C017A018B01C0E0D0E068
:101E3000CE15DF0581F0D8016D918D01D601ED91B0
:101E4000FC910190F081E02DC6010995892B11F0DC
:101E50002196EECF7E01C701DF91CF911F910F91A7
:101E6000FF90EF90DF90CF9008953091AE06313221
:101E700008F04BC080918A068111FCCF9091AD068D
:101E800022E020938A0621E0209389062FEF2093F9
:101E900088061092870630938606EDE8F6E0A6E6FF
:101EA000B6E020E0321721F041914D932F5FFACF39
:101EB0001092650620916506990F922B9093650606
:101EC00090916406913061F41092640690916506D9
:101ED0009093BB009091BC0093FDF8CF95EC01C0AE
:101EE00095EE9093BC0090918A069230E1F3909128
:101EF00088069F3F79F080918806803241F080917A
:101F00008806803331F084E005C081E003C082E0C0
:101F100001C083E010928C061092AE0610928B06E0
:101F200008959091910791110C94870E28E030E06C
:101F300040E8E0919407F0919507508190919B07BC
:101F4000909595239083E0919207F091930790915B
:101F50009A07582F542319F05081952B03C05081B4
:101F6000909595239083E0919407F0919507508187
:101F700090919B07952B9083469521503109C9F686
:101F80000895CF93C82F80918C078F3F59F1E0912E
:101F90009607F0919707908180919C07892B808309
:101FA000E0919807F0919907908180919D07809525
:101FB00089238083E0919607F09197079081809123
:101FC0009C078095892380838C2F0E94910FE0913C
:101FD0009607F0919707908180919C07892B8083C9
:101FE000CF91089580918A0791E090938B0680931A
:101FF000AD0610928C061092AE0660E08CE497E07D
:102000000E94BC0A6C2F8CE497E00E94BC0ACF911E
:102010000C94350FCF93DF939CB59F7D9CBD9CB5F1
:10202000937F9CBD9CB59C7F9CBD9DB591609DBDE3
:10203000C8E5D7E0682F8A810E94480C8C899D8969
:10204000DF91CF910C94CA0C81E00C940A1080E0CF
:102050000C940A10CF93DF93C82FD62F0E9427101D
:102060008C2F8F7180620E94870EC82F8D2F0E9447
:10207000870E0E9424108C2FDF91CF910895CF936B
:10208000C82F0E9427108C2F8F710E94870E8FEF10
:102090000E94870EC82F0E9424108C2FCF91089584
:1020A000CF930E94271081EE0E94870EC82F0E94B6
:1020B00024108C2FCF910895209158073091590703
:1020C00040915A0750915B072417350721F0682F7C
:1020D000822F0C94480C089580E00E945C1080913F
:1020E0006807909169070E94CA0C8DE10E943F1019
:1020F00081FF08C080916807909169070E94CA0C0F
:102100000E94501080E00E943F10682F6E7F80E098
:102110000E942A1082E00E943F10EEECF5E0E4916C
:1021200061E070E001C0660FEA95EAF7682B82E093
:102130000C942A10EF92FF920F931F93CF93DF938B
:10214000182F7B01C42F0E942710812F8F7180626E
:102150000E94870ED82F8701CC2339F0F801819196
:102160008F010E94870EC150F7CF0E9424108D2F3F
:10217000DF91CF911F910F91FF90EF9008950F93F2
:102180001F93CF938C0186E00E943F10C82FC77D1C
:102190000230110531F4C0628BE990E0A0E0B0E0BC
:1021A0000DC00130110529F085E590E0A0E0B0E018
:1021B00005C0C86081E490E0A0E0B0E080936807CB
:1021C00090936907A0936A07B0936B076C2F86E022
:1021D0000E942A1086E00E943F1091E0C81390E010
:1021E000892FCF911F910F91089580E00E943F1099
:1021F00081FD0BC0682F626080E00E942A1065E0BC
:1022000070E080E090E00C94D50C08952F923F92FE
:102210004F925F926F927F928F929F92AF92BF92F6
:10222000CF92DF92EF92FF920F931F93CF93DF93A2
:10223000CDB7DEB76B970FB6F894DEBF0FBECDBF3C
:102240009B8F8A8F5B011A01D22E1F830E83370169
:10225000C982DC0158962D913C9159972115310581
:1022600009F0E6C018968D919C9119976817790727
:102270000CF0CDC11A968D919C911B974817590768
:102280000CF0C5C18C2C912CFB0126E0C29EE00D08
:10229000F11D1124FB87EA871E161F060CF0B7C13B
:1022A000A40183E0440F551F8A95E1F75D874C87B1
:1022B000CA01820D931D181619060CF0A8C1579675
:1022C0008C91811104C05FEA5D1508F4D394AA8D46
:1022D000BB8DED91FC9111970284F385E02DCD012A
:1022E0000995B5E0DB9EC0011124F5013596FF8705
:1022F000EE87BB82AA8225019C012A193B09398BF2
:10230000288BA101485F5F4F5B8B4A8BE889F98975
:10231000E40DF51DE253FF4F5491588761013D8252
:102320002C82888580FF13C0AA8DBB8DED91FC9116
:10233000B981B13031F40484F585E02D2E813F81DF
:1023400016C00684F785E02DEE80FF801AC0EE816E
:10235000FF81E615F705F1F0AA8DBB8DED91FC919B
:10236000B981B13051F40484F585E02D9301A601C3
:10237000B2018A8D9B8D09950DC00684F785E02DED
:102380007301840194014C815D816A817B818A8D16
:102390009B8D0995E885E695E887FFEFCF1ADF0A60
:1023A0002C813D81280D391D3D832C834A895B8911
:1023B000C416D50609F0B5CF5FEF451A550A8A81D4
:1023C0009B81880D991D9B838A83AE85BF854A16A4
:1023D0005B0609F09BCFEE81FF81E615F70509F456
:1023E000F4C0EA8DFB8DA081B181F981F13079F4DF
:1023F000B5016B5F7F4F5096ED91FC915197830132
:1024000028E030E0A1018A8D9B8D0995DEC06A85A8
:102410007B85681979091E96ED91FC911F977301D0
:102420000C851D859401A1018A8D9B8D0995CDC0D8
:10243000F9013496E491DE1AF9013296859194916E
:10244000B7E0DB9E800D911D1124F9012591349197
:102450003B8B2A8BFC01259134912901FC0132969A
:10246000C490319634913E87329614913196D4902F
:102470004981423058F0612E012E000C77088D2DD5
:102480000D2C000C990B9987888704C01986188633
:10249000612C712CAA8DBB8DED91FC91119702845A
:1024A000F385E02DCD010995B9818B2E912C689C87
:1024B000C001699C900D789C900D1124FC01EA0DDF
:1024C000FB1DFD87EC871A82712C612CE12F110F07
:1024D000FF0B95012E0F3F1F3B872A87AC0CB11CC9
:1024E000A5014E0F5F1F5F8B4E8BC1018D0D911D9E
:1024F000D7FC9A95998F888F9E85691608F065C0DC
:10250000862D90E048855985480F591F489D9001B8
:10251000499D300D589D300D1124D101A20FB31FDC
:10252000B98BA88BEC85FD85FD83EC83AA84BB84E5
:10253000DA80FA85DF1A288D398D280F391F3D8BF7
:102540002C8B8D2D8A0D4E895F89A416B506C1F19D
:10255000877041F4C2010196EA89FB89E40DF51DFB
:1025600074902C0177FE21C0AA8DBB8DED91FC915A
:10257000B981B13061F40484F585E02D2E813F816D
:102580004C895D89B5018A8D9B8D09950EC00684A5
:10259000F785E02DEE80FF808401940148895989F8
:1025A0006C817D818A8D9B8D0995770CEFEFAE1A3A
:1025B000BE0A2C813D81280D391D3D832C83C1CF5E
:1025C0003A813C0D3A83639497CFAA8DBB8DED91F0
:1025D000FC9111970688F789E02DCD016B960FB617
:1025E000F894DEBF0FBECDBFDF91CF911F910F9149
:1025F000FF90EF90DF90CF90BF90AF909F908F9023
:102600007F906F905F904F903F902F9009946B96C2
:102610000FB6F894DEBF0FBECDBFDF91CF911F91F3
:102620000F91FF90EF90DF90CF90BF90AF909F9071
:102630008F907F906F905F904F903F902F90089574
:102640000F931F93CF93DF93EC01888199810097BB
:1026500029F02A813B812617370788F48B016F5FA9
:102660007F4F0E94791D009761F0998388831B83B7
:102670000A832C813D81232B11F4FC01108281E01F
:1026800001C080E0DF91CF911F910F910895EF92EB
:10269000FF920F931F93CF93DF936115710511F490
:1026A00080E01CC041155105C1F07B01EC018C811B
:1026B0009D818A01080F191FB801CE010E942013C5
:1026C000882371F3288139818C819D81B701820F24
:1026D000931F0E944D1E1D830C8381E0DF91CF91DB
:1026E0001F910F91FF90EF900895CF93DF9300D04B
:1026F000CDB7DEB720E229831A8241E050E0BE0167
:102700006F5F7F4F0E9447130F900F90DF91CF9123
:102710000895EF92FF920F931F93CF93DF9300D012
:1027200000D0CDB7DEB77C01862F4AE08E010F5F67
:102730001F4FB80190E00E94C41BF80101900020D7
:10274000E9F73197AF01401B510BB801C7010E9457
:1027500047130F900F900F900F90DF91CF911F9123
:102760000F91FF90EF9008956115710579F0FB01CD
:1027700001900020E9F73197AF01461B570BDC01B0
:10278000ED91FC910280F381E02D099480E090E0CE
:1027900008958F929F92AF92BF920F931F93CF9302
:1027A000DF93CDB7DEB7A1970FB6F894DEBF0FBEAB
:1027B000CDBF19A2423008F44AE08E010F5D1F4FD1
:1027C000842E912CA12CB12CA50194010E94301CC7
:1027D000E62FB901CA0101501109EA3014F4E05D95
:1027E00001C0E95CD801EC93232B242B252B61F746
:1027F000B80180E797E00E94B413A1960FB6F89451
:10280000DEBF0FBECDBFDF91CF911F910F91BF9063
:10281000AF909F908F900895CF93DF93FC014481F8
:102820005581608171818FEA96E00E940B0FEC0167
:102830006EE775E08FEA96E00E94B4138C0F9D1F3F
:10284000DF91CF910895CF93DF93CDB7DEB72E9769
:102850000FB6F894DEBF0FBECDBF789484B582600A
:1028600084BD84B5816084BD85B5826085BD85B534
:10287000816085BD80916E00816080936E001092B2
:10288000810080918100826080938100809181002D
:1028900081608093810080918000816080938000BE
:1028A0008091B10084608093B1008091B00081601C
:1028B0008093B00080917A00846080937A00809148
:1028C0007A00826080937A0080917A0081608093A0
:1028D0007A0080917A00806880937A001092C1001B
:1028E000E091BF06F091C00682E08083E091BB06D4
:1028F000F091BC061082E091BD06F091BE068FEC0F
:1029000080831092C706E091C306F091C40686E06A
:102910008083E091C106F091C2068081806180834E
:10292000E091C106F091C206808188608083E091C9
:10293000C106F091C206808180688083E091C10663
:10294000F091C20680818F7D808362E775E08FEA17
:1029500096E00E94B4136EE775E08FEA96E00E945D
:10296000B41362E084E00E94770C62E082E00E948F
:10297000770C62E083E00E94770C62E089E00E94BD
:10298000770C62E086E00E94770C62E085E00E94AE
:10299000770C809158079091590720915A073091F0
:1029A0005B078217930719F061E00E94770C809112
:1029B0005A0790915B0720915807309159072817C3
:1029C000390719F061E00E94770C0E948E0E80E0BA
:1029D0000E945C1081E00E940A1065E070E080E0D7
:1029E00090E00E94D50C6CE080E00E942A106FE518
:1029F00084E00E942A1082E090E00E94BF108823A9
:102A000019F081E080935E0786E00E943F1080E02D
:102A100090E00E94BF100E94271080E50E94870E60
:102A200083E70E94870E0E94241060E08DE10E94DF
:102A30002A1060E08CE10E942A101092600760E783
:102A400087E00E942A106CE485E00E942A100E9410
:102A5000271082EE0E94870E0E9424100E945010C0
:102A60000E94F51080E00E943F10682F6E7F80E08A
:102A70000E942A1080E090E00E94BF1065E284E08E
:102A80000E942A1060E085E00E942A1040916607AB
:102A90006CE075E08AE00E949A10409166076CE055
:102AA00075E080E10E949A1060915F0781E10E94C9
:102AB0002A104091660750E066E075E081E697E0F5
:102AC0000E94441EEEE6F0E084914091660766E0C5
:102AD00075E00E949A10E8E6F0E0849160915F074B
:102AE0000E942A1082E00E943F10EEECF5E09491E3
:102AF00061E070E001C0660F9A95EAF7682B82E00A
:102B00000E942A100E946C1082E080938B078CE355
:102B100080938A0780918C078F3F09F48BC061E016
:102B200080918E070E94770C61E0809190070E944F
:102B3000770C80919007082E000C990BFC01EE5643
:102B4000FF4FE491F0E0EE0FFF1FE857FF4F259194
:102B500034913093970720939607FC01EC58FF4F70
:102B6000E491E0939C0780918E07082E000C990B4E
:102B7000FC01EE56FF4FE491F0E0EE0FFF1FE85727
:102B8000FF4F259134913093990720939807FC01CA
:102B9000EC58FF4FE491E0939D07809191078111DC
:102BA0003EC061E080918C070E94770C61E08091CB
:102BB0008D070E94770C80918D07082E000C990BD1
:102BC000FC01EE56FF4FE491F0E0EE0FFF1FE857D7
:102BD000FF4F259134913093950720939407FC0182
:102BE000EC58FF4FE491E0939B0780918C07082EEF
:102BF000000C990BFC01EE56FF4FE491F0E0EE0F54
:102C0000FF1FE857FF4F259134913093930720938E
:102C10009207FC01EC58FF4FE491E0939A078091F2
:102C200091078823D1F10E948E0E80E58CBD81E052
:102C30008DBD33C01092B1051092B00510928C0674
:102C40001092AE0610928A0681E080938906109257
:102C5000640661E082E10E94480C61E083E10E9429
:102C6000480C8091B9008E7F8093B9008091B900A3
:102C70008D7F8093B90088E48093B80085E48093C9
:102C8000BC0082E69AE09093AF058093AE0583E6A0
:102C90009AE09093AD058093AC0580918F0787FDF6
:102CA0001EC061E00E94770C61E080918F070E9456
:102CB000480C61E070E080E090E00E94D50C60E09C
:102CC00080918F070E94480C6AE070E080E090E0FD
:102CD0000E94D50C61E080918F070E94480C8EEA1B
:102CE0000E94C10F85ED0E94C10F80E80E94C10FB4
:102CF00088EA0E94C10F8FE30E94C10F83ED0E94FA
:102D0000C10F80E00E94C10F80E40E94C10F8DE8D6
:102D10000E94C10F84E10E94C10F80E20E94C10F96
:102D200080E00E94C10F81EA0E94C10F88EC0E94DE
:102D3000C10F8AED0E94C10F82E10E94C10F81E89C
:102D40000E94C10F8FEC0E94C10F89ED0E94C10F3C
:102D500081EF0E94C10F8BED0E94C10F80E40E94A1
:102D6000C10F84EA0E94C10F86EA0E94C10F8EE261
:102D70000E94C10F8FEA0E94C10F80E094E0E0E062
:102D8000F1E0DF019C011D9221503040E1F78E01FE
:102D90000F5F1F4FCC24C394D12C9CE0692E20E000
:102DA000A22E25E0B22E772473942FB7F894809149
:102DB000B2059091B305A091B405B091B5052FBFB0
:102DC0008093F3059093F405A093F505B093F60571
:102DD0004091EF055091F0056091F1057091F20579
:102DE000841B950BA60BB70B853F9140A105B10540
:102DF00008F4A5C01A8619861C861B861E861D86A9
:102E000060E070E0CE0109960E94201329853A8582
:102E100081110DC02115310519F0C9010E94F01C66
:102E20001A8619861E861D861C861B8607C01E866E
:102E30001D8660E875E0C9010E944D1E6091C705BE
:102E4000CE0109960E948913CE0109960E9475133E
:102E50006091C805CE0109960E948913CE0109969A
:102E60000E9475136091C905CE0109960E948913CD
:102E7000CE0109960E9475136091CA05CE0109968C
:102E80000E948913CE0109960E9475136091CE05A8
:102E9000CE0109960E948913CE0109960E947513EE
:102EA0006091D005CE0109960E948913CE01099642
:102EB0000E9475134FE050E061E875E0CE0109967D
:102EC0000E944713E12CF12C8091D10590E00E2C4B
:102ED00002C0959587950A94E2F74AE0B80181709F
:102EE00099270E94C41BF80101900020E9F731974F
:102EF000AF01401B510BB801CE0109960E94471348
:102F00004FEFE41AF40A58E0E516F104E9F6CE01B1
:102F100009960E940C1489859A850E94F01C809164
:102F2000F3059091F405A091F505B091F605809315
:102F3000EF059093F005A093F105B093F205209072
:102F4000F3053090F4054090F5055090F60580911A
:102F5000EB059091EC05A091ED05B091EE05A20175
:102F60009101281B390B4A0B5B0B293C31054105AC
:102F7000510508F46AC081E00E94B30C97FD0396E6
:102F800095958795959587958093C80580E00E94D3
:102F9000B30C97FD039695958795959587958093A6
:102FA000C70583E00E94B30C97FD0396959587951E
:102FB000959587958093CA0582E00E94B30C97FD92
:102FC000039695958795959587958093C90586E095
:102FD0000E94B30C97FD03969595879595958795D7
:102FE0008093CE058091DE058093D00584E00E9419
:102FF0001F0C2091D10591958195910982278170AF
:10300000992782279091D4059195982792709827B7
:103010008091D30581958927847089279091DD055A
:1030200091959827987089278093D1058091B6054E
:103030008093D2058F5F8093B6052092EB05309286
:10304000EC054092ED055092EE058091E7059091D8
:10305000E805A091E905B091EA05A2019101281BBC
:10306000390B4A0B5B0B2B3F31054105510508F429
:1030700080C00E946C1080915F07882E8D3010F008
:103080006CE0862E90916007911103C0982E9818DD
:1030900001C0912C0E94271080EA0E94870E57ECF5
:1030A000E52E55E0F52E8A943FEF831631F0D701D7
:1030B0008D917D010E94870EF6CF992029F080E046
:1030C0000E94870E9A94F9CF0E94241081E00E94FA
:1030D0005C100E9427108FEF0E94870EF82E0E942E
:1030E00024108F2D8073A9F380E00E945C1060E7AC
:1030F00087E00E942A1084FD0E9450100E94F51063
:1031000080E00E943F10682F616080E00E942A10DA
:1031100060E787E00E942A1081E00E945C108091A5
:103120006107882341F04091660761E677E08AE015
:103130000E949A1010C082E00E943F10EEECF5E071
:103140009491B60101C0660F9A95EAF760956823DD
:1031500082E00E942A108DE10E943F1081FD0E94B2
:1031600050102092E7053092E8054092E905509210
:10317000EA058091F3059091F405A091F505B091D1
:10318000F6054091E3055091E4056091E5057091E5
:10319000E605841B950BA60BB70B893E9340A10552
:1031A000B10508F457C01A8219821C821B821E8244
:1031B0001D8260E070E0C8010E94201329813A81DD
:1031C00081110DC02115310519F0C9010E94F01CB3
:1031D0001A8219821E821D821C821B8207C01E82D7
:1031E0001D8260E875E0C9010E944D1E6091B7051F
:1031F000C8010E948913C8010E9475136091B80527
:10320000C8010E948913C8010E9475136091B90515
:10321000C8010E948913C8010E9475136091C005FE
:10322000C8010E948913C8010E940C1489819A81E7
:103230000E94F01C8091F3059091F405A091F50592
:10324000B091F6058093E3059093E405A093E5051E
:10325000B093E6058091F3059091F405A091F505F2
:10326000B091F6054091DF055091E0056091E105D0
:103270007091E205841B950BA60BB70B8F3E924015
:10328000A105B10508F48DC081E20E94C10F80E064
:103290000E94C10F8FE70E94C10F82E20E94C10FFE
:1032A00080E00E94C10F87E00E94C10F80918C07CF
:1032B0008F3F91F1E0919607F0919707908180916F
:1032C0009C07892B8083E0919807F0919907908162
:1032D00080919D07892B8083E0919607F091970755
:1032E000908180919C0780958923808340E0E42E23
:1032F00041E0F42ED7018D917D010E94910FAE1413
:10330000BF04C1F7E0919607F091970790818091F3
:103310009C07892B80832EC04090B8006092B80033
:1033200030E0E32E31E0F32E80918A0770928B0615
:103330008093AD0610928C061092AE0660E48CE489
:1033400097E00E94BC0A470120E1522EF4016191EE
:103350004F018CE497E00E94BC0A5A945110F6CFBA
:103360000E94350FF0E1EF0EF11CAE14BF04E1F640
:103370004092B800A0E0B1E0E0E0F4E01D923197A7
:10338000E9F78091F3059091F405A091F505B091CE
:10339000F6058093DF059093E005A093E105B093D7
:1033A000E20587E10E943F1080FF2EC17092C505A3
:1033B0008091C4058F5F8093C4058091B70581110A
:1033C0000BC08091B805882339F08091C005811128
:1033D00003C07092C60502C01092C60570928407A1
:1033E000D0928307C0928207D0928107C092800753
:1033F00010927D0710927C0710927F0710927E0733
:1034000061E975E080E797E00E94B4136091D2050E
:1034100070E080E090E04AE00E94C91310927D07BE
:1034200010927C07E8E0F0E0F0937F07E0937E07DE
:1034300068E975E080E797E00E94B4136091D005D9
:1034400070E080E090E04AE00E94C91310927D078E
:1034500010927C0720E130E030937F0720937E07B5
:103460006FE975E080E797E00E94B4136091CE05A4
:1034700070E080E090E04AE00E94C91310927D075E
:1034800010927C0748E150E050937F0740937E07FD
:1034900066EA75E080E797E00E94B4134AE060E4D2
:1034A00070E080E090E00E94C91364ED75E082E076
:1034B0000E94C40E63ED75E083E00E94C40E6DEDC2
:1034C00075E089E00E94C40E86E00E941F0C21E096
:1034D000892B09F420E02093D90585E00E941F0C78
:1034E00021E0009709F420E02093DB053091DA0514
:1034F0002091D905311106C0222309F470C000972C
:1035000009F550C0222319F0211169C033C000977A
:1035100089F54091F3055091F4056091F50570919E
:10352000F6052090D5053090D6054090D7055090EF
:10353000D8054219530964097509473951056105D0
:103540007105C0F04091F3055091F4056091F505C7
:103550007091F6054093D5055093D6056093D70535
:103560007093D8054091DE0541504093DE0531113E
:10357000CBCF18C0892B99F18091F3059091F40578
:10358000A091F505B091F6058093D5059093D605E9
:10359000A093D705B093D8058091DE058F5F809307
:1035A000DE051DC02223D9F0892BC9F48091F305D3
:1035B0009091F405A091F505B091F6054091D505DF
:1035C0005091D6056091D7057091D805841B950B55
:1035D000A60BB70B87399105A105B10568F686E002
:1035E0000E941F0C21E0892B09F420E02093DA05CA
:1035F00085E00E941F0C21E0892B09F420E0209334
:10360000DC050E94ED03D1CB5090C2055092C1055C
:1036100080915F078A3018F09AE0892E01C0882EC9
:1036200090916007911103C0982E981801C0912CB9
:103630000E94271081E60E94870E87EBE82E85E026
:10364000F82E8A94FFEF8F1639F08FEF0E94870EC5
:10365000D7018D937D01F5CF992029F08FEF0E943E
:10366000870E9A94F9CF0E94241060E787E00E94A9
:103670002A108091C0058093C205815085198093DE
:10368000C3051092C5051092C40597CEEFEAF6E087
:103690001382128288EE93E0A0E0B0E084839583E9
:1036A000A683B78326E235E03183208325EC30E022
:1036B0003587248724EC30E03787268720EC30E0FC
:1036C000318B208B21EC30E0338B228B22EC30E0ED
:1036D000358B248B26EC30E0378B268B118E128EA7
:1036E000138E148EECE4F7E01382128284839583A8
:1036F000A683B78388E395E091838083E0E7F7E0D2
:103700001382128220E830E03583248380E490E045
:10371000978386833187208793878287158A1586CA
:1037200014861786168681E0848B2FEF3FEF338B4C
:10373000228B318B208B868B178A118E108E8AE418
:1037400095E0918380838FEF848F80A3868F858F10
:1037500084E0878FE8E5F7E087E090E0918380835D
:1037600088E090E093838283168280E287831086CC
:1037700085E0868785E090E0A0E0B0E0848B958BC3
:10378000A68BB78B11860895BB274A3031F4992355
:1037900022F4BDE2909581959F4F0C94D01BBB27DE
:1037A000FB015527AA27880F991FAA1FA41710F0FD
:1037B000A41B83955051B9F7A05DAA3308F0A95D09
:1037C000A193009779F7B111B1931192CB010C94A9
:1037D000E91BDC01FC01672F71917723E1F7329738
:1037E00004C07C916D9370836291AE17BF07C8F3DC
:1037F00008952F923F924F925F926F927F928F9295
:103800009F92AF92BF92CF92DF92EF92FF920F936F
:103810001F93CF93DF93CDB7DEB7CA1BDB0B0FB679
:10382000F894DEBF0FBECDBF09942A883988488836
:103830005F846E847D848C849B84AA84B984C884CC
:10384000DF80EE80FD800C811B81AA81B981CE0FC3
:10385000D11D0FB6F894DEBF0FBECDBFED010895A8
:10386000A1E21A2EAA1BBB1BFD010DC0AA1FBB1F84
:10387000EE1FFF1FA217B307E407F50720F0A21BF6
:10388000B30BE40BF50B661F771F881F991F1A9463
:1038900069F760957095809590959B01AC01BD018D
:1038A000CF010895EE0FFF1F0590F491E02D0994CC
:1038B0000F931F93CF93DF938230910510F482E032
:1038C00090E0E091A007F091A10720E030E0A0E0B7
:1038D000B0E0309719F1408151810281138148177E
:1038E0005907C8F08417950769F4109731F01296BC
:1038F0000C93129713961C9327C00093A007109364
:10390000A10722C02115310519F04217530718F4F9
:103910009A01BD01EF01DF01F801DBCF211531056F
:10392000F9F0281B390B2430310580F48A819B8102
:103930006115710521F0FB019383828304C090938C
:10394000A1078093A007FE01329644C0FE01E20F5A
:10395000F31F8193919322503109398328833AC010
:1039600020919E0730919F07232B41F4209102055F
:103970003091030530939F0720939E072091000507
:10398000309101052115310541F42DB73EB7409125
:10399000040550910505241B350BE0919E07F0911D
:1039A0009F07E217F307A0F42E1B3F0B28173907D8
:1039B00078F0AC014E5F5F4F2417350748F04E0F8B
:1039C0005F1F50939F0740939E078193919302C07E
:1039D000E0E0F0E0CF01DF91CF911F910F910895CA
:1039E000CF93DF93009709F481C0FC0132971382D3
:1039F0001282A091A007B091A107109781F42081B5
:103A00003181820F931F20919E0730919F072817C5
:103A1000390751F5F0939F07E0939E0767C0ED01CA
:103A200020E030E0CE17DF0740F44A815B819E0141
:103A300041155105F1F0EA01F5CFD383C2834081EE
:103A40005181840F951FC817D90759F4888199812E
:103A5000840F951F0296918380838A819B81938333
:103A600082832115310529F4F093A107E093A00783
:103A70003DC0E901FB83EA8349915991C40FD51FE9
:103A8000EC17FD0761F480819181840F951F0296E8
:103A9000E90199838883828193819B838A83E0E013
:103AA000F0E012968D919C911397009719F0FD010B
:103AB000DC01F7CF8D919C9111979D012E5F3F4FB7
:103AC000820F931F20919E0730919F072817390777
:103AD00069F4309729F41092A1071092A00702C050
:103AE00013821282B0939F07A0939E07DF91CF911C
:103AF0000895A0E0B0E0EFE7FDE10C94FD1BEC01C0
:103B0000009721F4CB010E94581CB4C0FC01E60FC1
:103B1000F71F9C0122503109E217F30708F4A8C0EF
:103B2000D9010D911C91119706171707B0F00530B8
:103B3000110508F49BC0C80104978617970708F47D
:103B400095C002501109061B170B019311936D9339
:103B50007C93CF010E94F01C89C05B01A01AB10ABE
:103B60004C01800E911EA091A007B091A107612C7D
:103B7000712CE12CF12C109709F446C08D919C9189
:103B80001197A815B905B1F56C0142E0C40ED11C1E
:103B9000CA14DB0478F14C018A189B08640142E0E6
:103BA000C40ED11C1296BC9012971396AC91B5E03E
:103BB000CB16D10440F0B282A38391828082D901D6
:103BC0006D937C9309C00E5F1F4F800F911FF90109
:103BD00091838083EB2DFA2FE114F10431F0D701AA
:103BE0001396FC93EE93129741C0F093A107E093D4
:103BF000A0073CC06816790608F43C017D011296C6
:103C00000D90BC91A02DB7CF80919E0790919F07FA
:103C100088169906E1F466167706C8F480910005C7
:103C200090910105009741F48DB79EB7409104052E
:103C300050910505841B950BE817F907C8F4F0931C
:103C40009F07E0939E07F901718360830FC0CB014A
:103C50000E94581C7C01009759F0A801BE010E94E7
:103C6000441ECE010E94F01CC70104C0CE0102C058
:103C700080E090E0CDB7DEB7EEE00C94191C81E057
:103C800090E0F8940C94541EFB01DC0102C00190FA
:103C90000D9241505040D8F70895FB01DC0101908E
:0C3CA0000D920020E1F70895F894FFCF8A
:103CAC000000000000000000000000000000000008
:103CBC0000000000000000000000000000000000F8
:103CCC0000000000000000000000000000000000E8
:103CDC000000000000000000000000000000008058
:103CEC0080800000000000000000000000000000C8
:103CFC00008080C0C0000000000000000000000038
:103D0C0000000000000000000000000000000000A7
:103D1C000000000000000000000000000000000097
:103D2C000000000000000000000000000000000087
:103D3C000000000080C0E0F0F8FCF8E0000000009B
:103D4C0000000000000000000000000000808080E7
:103D5C00808000808000000000808080808000FFD8
:103D6C00FFFF000000008080808000008080000049
:103D7C0080FFFF80800080800080808080008080B9
:103D8C000000000000808000008C8E84000080F811
:103D9C00F8F88000000000000000000000000000A7
:103DAC00F0F0F0F0F0F0F0F0F0F0F0F0E0E0C080C7
:103DBC0000E0FCFEFFFFFF7FFFFFFFFFFF000000A6
:103DCC000000000000000000000000FEFFC7010121
:103DDC00010183FFFF00007CFEC70101010183FF8D
:103DEC00FFFF0038FEC78301010183C7FFFF0000FE
:103DFC0001FFFF010100FFFF0701010100007FFF30
:103E0C0080000000FFFF7F0000FFFFFF000001FFAC
:103E1C00FFFF010000000000000000000000000097
:103E2C00030F3F7F7FFFFFFFFFFFFFFFE7C7C78F3A
:103E3C008F9FBFFFFFC3C0F0FFFFFFFFFFFCFCFC29
:103E4C00FCFCFCFCFCF8F8F0F0E0C0000103030300
:103E5C00030301030300000000010303030301013A
:103E6C00030100000001030303030101030300002D
:103E7C000003030000000303000000000000000129
:103E8C00030303030301000000010301000000030E
:103E9C000301000000000000000000000000000012
:103EAC0000000080C0E0F0F9FFFFFFFFFF3F1F0F95
:103EBC0087C7F7FFFF1F1F3DFCF8F8F8F87C7DFF64
:103ECC00FFFFFFFFFFFFFF7F3F0F070030300000B9
:103EDC0000000000000000000000000000000000D6
:103EEC0000000000FEFEFC000000000000000000CE
:103EFC0000000000000000000000000000E0C00016
:103F0C000000000000000000000030300000000045
:103F1C000000000000000000000000000000000095
:103F2C0000C0FEFFFFFFFFFFFFFFFFFF7F7F3F1F74
:103F3C000F071F7FFFFFF8F8FFFFFFFFFFFEF8E002
:103F4C00000000010000000000000000FEFE000068
:103F5C0000FCFEFC0C06060EFCF80000F0F81C0E33
:103F6C000606060CFFFFFF0000FEFE00000000FC32
:103F7C00FEFC00183C7E66E6CE84000006FFFF06C1
:103F8C0006FCFEFC0C0606060000FEFE0000C0F857
:103F9C00FC4E4646464E7C7840183C76E6CECC80AD
:103FAC000000000000000000000000000000000005
:103FBC000000000001070F1F1F3F3F3F3F1F0F0373
:103FCC000000000000000000000000000F0F0000C7
:103FDC00000F0F0F000000000F0F000003070E0C66
:103FEC0018180C060F0F0F0000010F0E0C180C0FF9
:103FFC00070100040E0C180C0F070000000F0F0037
:10400C00000F0F0F0000000000000F0F0000000752
:10401C00070C0C181C0C060600040E0C180C0F07D1
:10402C000000000000000000000000000000000084
:10403C000000000000000000000000000000000074
:10404C000000000000000000000000000000000064
:10405C000000000000000000000000000000000054
:10406C000000000000000000000000000000000044
:10407C000000000000000000000000000000000034
:10408C000000000000000000000000000000000024
:10409C000000000000000000000000000000000014
:1040AC000000A2078000314E6F646532314E6F64A0
:1040BC006531000103070F1F3F7F0080C0E0F0F85F
:1040CC00FCFE000000007E030B0F1503CB03460320
:1040DC002403380300000000BC0A8F0AEC0A4E09C6
:1040EC00870A730A640A00000000F10A0B0FEC0A3D
:1040FC00EB0AFA064E0977094F096B095F097E092D
:10410C004E099907980745049F0597087A080D08EA
:10411C00AE075374617274696E672E2E2E000D0AF1
:10412C00005B532C204C2C20522C2052455D3A2005
:10413C00004D5347203A2000524F54203A20005053
:0C414C004F54203A200048203A20000088
:107800000C94343C0C94513C0C94513C0C94513CE1
:107810000C94513C0C94513C0C94513C0C94513CB4
:107820000C94513C0C94513C0C94513C0C94513CA4
:107830000C94513C0C94513C0C94513C0C94513C94
:107840000C94513C0C94513C0C94513C0C94513C84
:107850000C94513C0C94513C0C94513C0C94513C74
:107860000C94513C0C94513C11241FBECFEFD8E036
:10787000DEBFCDBF11E0A0E0B1E0ECE9FFE702C060
:1078800005900D92A230B107D9F712E0A2E0B1E065
:1078900001C01D92AD30B107E1F70E942D3D0C945F
:1078A000CC3F0C94003C982F959595959595959582
:1078B000905D8F708A307CF0282F295A8091C0000B
:1078C00085FFFCCF9093C6008091C00085FFFCCF60
:1078D0002093C6000895282F205DF0CF982F809127
:1078E000C00085FFFCCF9093C6000895EF92FF92F1
:1078F0000F931F93EE24FF2487018091C00087FD22
:1079000017C00894E11CF11C011D111D81E4E8164B
:1079100082E4F8068FE0080780E0180770F3E09132
:107920000401F091050109958091C00087FFE9CF1E
:107930008091C6001F910F91FF90EF9008950E94D3
:10794000763C982F8091C00085FFFCCF9093C600B5
:1079500091362CF490330CF09053892F089597555D
:10796000892F08951F930E949F3C182F0E949F3CCF
:107970001295107F810F1F9108951F93182F882350
:1079800021F00E94763C1150E1F71F9108951F935A
:10799000182F0E94763C803249F0809103018F5F5E
:1079A000809303018530C1F01F9108958091C0003C
:1079B00085FFFCCF84E18093C6008091C00085FFE5
:1079C000FCCF1093C6008091C00085FFFCCF80E102
:1079D0008093C6001F910895E0910401F091050184
:1079E00009951F9108950E94763C803241F0809164
:1079F00003018F5F80930301853081F008958091AA
:107A0000C00085FFFCCF84E18093C6008091C00058
:107A100085FFFCCF80E18093C6000895E0910401CA
:107A2000F09105010995089540E951E08823A1F0FE
:107A30002D9A28EE33E0FA013197F1F721503040CA
:107A4000D1F72D9828EE33E0FA013197F1F7215064
:107A50003040D1F7815061F708953F924F925F9285
:107A60006F927F928F929F92AF92BF92CF92DF924E
:107A7000EF92FF920F931F93CF93DF93000080E16B
:107A80008093C4001092C50088E18093C10086E015
:107A90008093C2005098589A259A81E00E94143D24
:107AA00024E1F22E9EE1E92E85E9D82E0FE0C02ECA
:107AB00010E1B12EAA24A394B1E49B2EA6E58A2E50
:107AC000F2E57F2EE0E26E2E79E4572E63E5462E36
:107AD00050E5352E0E94763C8033B1F18133B9F107
:107AE000803409F46FC0813409F476C0823409F41B
:107AF00085C0853409F488C0803531F1823521F1A3
:107B0000813511F1853509F485C0863509F48DC0BC
:107B1000843609F496C0843709F403C1853709F423
:107B200072C1863709F466C0809103018F5F80932C
:107B30000301853079F6E0910401F0910501099582
:107B40000E94763C803351F60E94F33CC3CF0E94E2
:107B5000763C803249F78091C00085FFFCCFF092DF
:107B6000C6008091C00085FFFCCF9092C600809136
:107B7000C00085FFFCCF8092C6008091C00085FFC9
:107B8000FCCF7092C6008091C00085FFFCCF609250
:107B9000C6008091C00085FFFCCF5092C600809146
:107BA000C00085FFFCCF4092C6008091C00085FFD9
:107BB000FCCF3092C6008091C00085FFFCCFB09210
:107BC000C60088CF0E94763C863808F4BDCF0E945C
:107BD000763C0E94F33C7ECF0E94763C803809F4CC
:107BE0009CC0813809F40BC1823809F43CC1883942
:107BF00009F48FC080E00E94C73C6CCF84E10E94F2
:107C0000BD3C0E94F33C66CF85E00E94BD3C0E94D3
:107C1000F33C60CF0E94763C809306010E94763C44
:107C2000809307010E94F33C55CF0E94763C80333D
:107C300009F41DC183E00E94BD3C80E00E94C73C66
:107C400049CF0E94763C809309020E94763C809343
:107C5000080280910C028E7F80930C020E94763C79
:107C6000853409F415C18091080290910902892B8D
:107C700089F000E010E00E94763CF801E85FFE4FDA
:107C800080830F5F1F4F80910802909109020817AF
:107C9000190788F30E94763C803209F045CF809125
:107CA0000C0280FF01C16091060170910701660F0F
:107CB000771F7093070160930601A0910802B091AD
:107CC00009021097C9F0E8E0F1E09B01AD014E0F09
:107CD0005F1FF999FECF32BD21BD819180BDFA9A17
:107CE000F99A2F5F3F4FE417F50799F76A0F7B1F4B
:107CF00070930701609306018091C00085FFFCCF5F
:107D0000F092C6008091C00085FFFCCFB092C60003
:107D1000E1CE83E00E94C73CDDCE82E00E94C73CFA
:107D2000D9CE0E94763C809309020E94763C8093D3
:107D300008028091060190910701880F991F909386
:107D40000701809306010E94763C853409F4A6C0A1
:107D500080910C028E7F80930C020E94763C8032D0
:107D600009F0B8CE8091C00085FFFCCFF092C6002C
:107D7000609108027091090261157105B9F140E046
:107D800050E080910C02A82FA170B82FB27011C0E2
:107D9000BB2309F45CC0E0910601F0910701319624
:107DA000F0930701E09306014F5F5F4F46175707B7
:107DB000E8F4AA2369F3F999FECF209106013091E6
:107DC000070132BD21BDF89A90B58091C00085FFB2
:107DD000FCCF9093C6002F5F3F4F30930701209355
:107DE00006014F5F5F4F4617570718F38091C00099
:107DF00085FDE5CE8091C00085FFF8CFE0CE81E023
:107E00000E94C73C67CE0E94763C803209F08CCE3F
:107E10008091C00085FFFCCFF092C6008091C00029
:107E200085FFFCCFE092C6008091C00085FFFCCFAB
:107E3000D092C6008091C00085FFFCCFC092C600E2
:107E40008091C00085FFFCCFB092C60043CEE09188
:107E50000601F091070194918091C00085FFFCCF4D
:107E60009093C6009CCF80E10E94C73C33CE0E9415
:107E7000763C0E94763C182F0E94763C112309F430
:107E800083C0113009F484C08FE00E94C73C22CE29
:107E900080910C02816080930C02E5CE80910C02EF
:107EA000816080930C0259CF809107018823880F4D
:107EB000880B8A2180930B02809106019091070123
:107EC000880F991F90930701809306018091080203
:107ED00080FF09C080910802909109020196909359
:107EE000090280930802F894F999FECF1127E091D6
:107EF0000601F0910701C8E0D1E08091080290915D
:107F00000902103091F40091570001700130D9F34B
:107F100003E000935700E89500915700017001308D
:107F2000D9F301E100935700E89509901990009169
:107F3000570001700130D9F301E000935700E89534
:107F40001395103498F011270091570001700130FB
:107F5000D9F305E000935700E895009157000170B0
:107F60000130D9F301E100935700E895329602976A
:107F700009F0C7CF103011F00296E5CF112480919F
:107F8000C00085FFB9CEBCCE8EE10E94C73CA2CD19
:0C7F900085E90E94C73C9ECDF894FFCF0D
:027F9C00800063
:040000030000780081
:00000001FF