:100000000C9460000C9488000C9488000C94880078
:100010000C9488000C9488000C9488000C94880040
:100020000C9488000C9488000C9488000C94880030
:100030000C9488000C9488000C9488000C94880020
:100040000C94ED010C9488000C9488000C948800AA
:100050000C9488000C9488000C9488000C94880000
:100060000C9488000C948800000000080002010035
:10007000000304070000000000000000000102036C
:10008000040500000000250028002B0000000000EF
:10009000240027002A0004040404040404040202C7
:1000A00002020202030303030303010204081020F7
:1000B0004080010204081020010204081020F0030F
:1000C00011241FBECFEFD8E0DEBFCDBF21E0A2E1FB
:1000D000B1E001C01D92A433B207E1F711E0A0E046
:1000E000B1E0E4E2F8E002C005900D92A231B10760
:1000F000D9F710E0C0E6D0E004C02197FE010E94CD
:100100000A04CF35D107C9F70E9437020C941004B6
:100110000C94000090E0FC01E655FF4F2491FC0197
:10012000EA56FF4F8491882399F090E0880F991F39
:10013000FC01E457FF4FA591B491FC01EE57FF4F2E
:10014000859194918FB7F894EC91E22BEC938FBF4B
:10015000089590E0FC01E859FF4F2491FC01E65519
:10016000FF4F3491FC01EA56FF4FE491EE2309F46E
:100170003CC0222339F1233091F038F42130A9F02A
:10018000223001F584B58F7D12C0273091F02830E0
:10019000A1F02430B9F4809180008F7D03C080915C
:1001A00080008F77809380000DC084B58F7784BDE9
:1001B00009C08091B0008F7703C08091B0008F7D1F
:1001C0008093B000F0E0EE0FFF1FEE57FF4FA591B8
:1001D000B4919FB7F894611104C08C913095382385
:1001E00002C0EC913E2B3C939FBF089520911C01CF
:1001F00030911D0140911E0150911F0124173507B8
:1002000021F0682F822F0C94A90008958230910567
:1002100038F0880F991F880F991F05970197F1F7FC
:100220000895CF93DF939CB59F7D9CBD9CB5937F34
:100230009CBD9CB59C7F9CBD9DB591609DBDCCE156
:10024000D1E0682F8A810E94A9008C899D89DF9165
:10025000CF910C9406013FB7F894809117019091CB
:100260001801A0911901B0911A0126B5A89B05C0EB
:100270002F3F19F00196A11DB11D3FBFBA2FA92F25
:10028000982F8827820F911DA11DB11DBC01CD01A2
:1002900042E0660F771F881F991F4A95D1F708958E
:1002A0008F929F92AF92BF92CF92DF92EF92FF9286
:1002B0006B017C010E942B014B015C01C114D10434
:1002C000E104F104F1F00E942B01DC01CB0188195B
:1002D0009909AA09BB09883E9340A105B10570F3AD
:1002E00021E0C21AD108E108F10888EE880E83E007
:1002F000981EA11CB11CC114D104E104F10419F72A
:10030000DDCFFF90EF90DF90CF90BF90AF909F90A8
:100310008F9008958EBD00000DB407FEFDCF8EB501
:100320000895CF93DF93C82FD62F80E00E9411014C
:100330008C2F8F7180620E948A01C82F8D2F0E949E
:100340008A0181E00E9411018C2FDF91CF910895E5
:10035000CF93C82F80E00E9411018C2F8F710E94D3
:100360008A018FEF0E948A01C82F81E00E9411014B
:100370008C2FCF910895CF93C82F80E00E94110158
:100380008C2F0E948A01C82F81E00E9411018C2FBE
:10039000CF9108950F931F93CF93DF93D82FC62F3C
:1003A00080E00E9411018D2F8F7180620E948A016E
:1003B000D82F00E011E0CC2339F0F80181918F01B2
:1003C0000E948A01C150F7CF81E00E9411018D2F58
:1003D000DF91CF911F910F9108951F920F920FB649
:1003E0000F9211242F933F938F939F93AF93BF93BB
:1003F0008091130190911401A0911501B091160103
:100400003091120123E0230F2D3720F40196A11D16
:10041000B11D05C026E8230F0296A11DB11D209332
:1004200012018093130190931401A0931501B093CE
:1004300016018091170190911801A0911901B091B6
:100440001A010196A11DB11D809317019093180107
:10045000A0931901B0931A01BF91AF919F918F9111
:100460003F912F910F900FBE0F901F901895CF9333
:10047000DF93CDB7DEB72C970FB6F894DEBF0FBE73
:10048000CDBF789484B5826084BD84B5816084BD1D
:1004900085B5826085BD85B5816085BD80916E0022
:1004A000816080936E001092810080918100826053
:1004B0008093810080918100816080938100809190
:1004C00080008160809380008091B100846080937F
:1004D000B1008091B00081608093B00080917A007B
:1004E000846080937A0080917A00826080937A00A1
:1004F00080917A00816080937A0080917A00806890
:1005000080937A001092C10080911C0190911D018E
:1005100020911E0130911F018217930711F00E9454
:100520008A0080911E0190911F0120911C01309141
:100530001D012817390711F00E948A001FB7F8948F
:1005400080911B01811124C0E0EAF0E08491E4EB8A
:10055000F0E09491E82FF0E0EE0FFF1FE457FF4F1B
:10056000A591B491EC91E92321F461E08AE00E9425
:10057000A9008AE00E948A008CB580618CBD8CB590
:1005800080648CBD8DE00E948A008BE00E948A000E
:1005900080911B018F5F80931B011FBF80E00E9431
:1005A000F60081E00E94110165E070E080E090E0DB
:1005B0000E9450016CE080E00E9491016FE584E0B0
:1005C0000E94910186E00E94A801877D182F106289
:1005D0008BE990E0A0E0B0E080932C0190932D0196
:1005E000A0932E01B0932F01612F86E00E9491010C
:1005F00086E00E94A801181709F4EEC086E00E9468
:10060000A80186E00E94A80145E550E060E070E0A6
:1006100040932C0150932D0160932E0170932F0174
:10062000682F677D86E00E94910186E00E94A80104
:1006300080E00E94110180E50E948A0183E70E9408
:100640008A0181E00E94110160E08DE10E94910128
:1006500060E08CE10E9491011092240160E787E044
:100660000E9491016CE485E00E94910182EE0E945B
:10067000BB0181EE0E94BB0180E00E94A80181FDC8
:100680000BC0682F626080E00E94910165E070E01D
:1006900080E090E00E94500180E00E94A801682F55
:1006A0006E7F80E00E9491016FEF84E00E949101D3
:1006B00060912A018AE00E94CA0160912A0180E1CA
:1006C0000E94CA016091230181E10E94910180E0B2
:1006D0000E94F60080912C0190912D010E9406014C
:1006E0008DE10E94A80181FF09C080912C019091A9
:1006F0002D010E94060181EE0E94BB0180E00E9454
:10070000A801682F6E7F80E00E94910182E00E9424
:10071000A801ECE7F0E0E49161E070E001C0660F51
:10072000EA95EAF7682B82E00E94910180E0C82EEA
:1007300080E0D82E8CE0E6E0F1E0DE011196019039
:100740000D928A95E1F710912301012F1D3008F0D9
:100750000CE080912401811102C0101B01C010E047
:1007600080E00E94110180EA0E948A01CE01019678
:100770007C01015030F0F70181917F010E948A01D4
:10078000F8CF112329F080E00E948A011150F9CF9F
:1007900081E00E94110181E00E94F6008FEF0E942B
:1007A000BB018073D9F380E00E94F60060E787E028
:1007B0000E94910184FF03C081EE0E94BB0168EE9C
:1007C00073E080E090E00E945001C114D10409F46C
:1007D000B1CF0E940000AECF81E0809322010ECF06
:1007E000ECE1F1E088E090E09183808387E090E0A5
:1007F00093838283168280E28783108685E08687D2
:1008000085E090E0A0E0B0E0848B958BA68BB78B61
:1008100011860895EE0FFF1F0590F491E02D0994C5
:04082000F894FFCF7A
:1008240030303030310048656C6C6F20576F726C1B
:0208340064005E
:00000001FF
