:100000000C94EB020C9413030C9413030C94130341
:100010000C9413030C9413030C9413030C94130308
:100020000C9413030C9413030C9413030C941303F8
:100030000C9413030C9413030C9413030C941303E8
:100040000C9460140C9413030C943D130C9417132C
:100050000C9413030C9413030C9413030C941303C8
:100060000C94E20B0C9413031112131415160A0BC3
:100070000C0D0E0F0102040810204080010204083C
:1000800010200102040810200000000025002800B4
:100090002B00040404040404040402020202020209
:1000A00003030303030300000000003E5B4F5B3EBD
:1000B0003E6B4F6B3E1C3E7C3E1C183C7E3C181C2D
:1000C000577D571C1C5E7F5E1C00183C1800FFE724
:1000D000C3E7FF0018241800FFE7DBE7FF30483ACA
:1000E000060E2629792926407F050507407F05252C
:1000F0003F5A3CE73C5A7F3E1C1C08081C1C3E7FB4
:1001000014227F22145F5F005F5F06097F017F007A
:100110006689956A606060606094A2FFA29408049A
:100120007E040810207E201008082A1C08081C2ABB
:1001300008081E101010100C1E0C1E0C30383E3813
:1001400030060E3E0E06000000000000005F0000BA
:100150000007000700147F147F14242A7F2A12232B
:100160001308646236495620500008070300001C3B
:100170002241000041221C002A1C7F1C2A08083E44
:100180000808008070300008080808080000606057
:100190000020100804023E5149453E00427F4000C5
:1001A00072494949462141494D331814127F10279D
:1001B000454545393C4A49493141211109073649EC
:1001C000494936464949291E0000140000004034C0
:1001D00000000008142241141414141400412214C5
:1001E0000802015909063E415D594E7C1211127CEC
:1001F0007F494949363E414141227F4141413E7F4D
:10020000494949417F090909013E414151737F082C
:1002100008087F00417F41002040413F017F0814D2
:1002200022417F404040407F021C027F7F04081033
:100230007F3E4141413E7F090909063E4151215E11
:100240007F09192946264949493203017F01033FA5
:100250004040403F1F2040201F3F4038403F631434
:1002600008146303047804036159494D43007F4136
:1002700041410204081020004141417F0402010273
:100280000440404040400003070800205454784098
:100290007F284444383844444428384444287F382C
:1002A0005454541800087E090218A4A49C787F08AE
:1002B00004047800447D40002040403D007F102829
:1002C000440000417F40007C047804787C080404EA
:1002D000783844444438FC1824241818242418FC82
:1002E0007C08040408485454542404043F44243C27
:1002F0004040207C1C2040201C3C4030403C442896
:100300001028444C9090907C4464544C440008362F
:10031000410000007700000041360800020102049D
:10032000023C2623263C1EA1A161123A4040207ABD
:100330003854545559215555794122545478422105
:100340005554784020545579400C1E52721239553C
:100350005555593954545459395554545800004539
:100360007C410002457D420001457C407D12111216
:100370007DF0282528F07C545545002054547C54A9
:100380007C0A097F4932494949323A4444443A3265
:100390004A4848303A4141217A3A42402078009D0B
:1003A000A0A07D3D4242423D3D4040403D3C24FFB7
:1003B0002424487E4943662B2FFC2F2BFF0929F666
:1003C00020C0887E090320545479410000447D41B7
:1003D0003048484A32384040227A007A0A0A727D10
:1003E0000D19317D2629292F28262929292630482B
:1003F0004D4020380808080808080808382F10C899
:10040000ACBA2F102834FA00007B000008142A141C
:100410002222142A14085500550055AA55AA55AA97
:10042000FF55FF55FF000000FF00101010FF0014E3
:100430001414FF001010FF00FF1010F010F014143F
:1004400014FC001414F700FF0000FF00FF1414F464
:1004500004FC141417101F10101F101F1414141F65
:1004600000101010F0000000001F101010101F10DE
:10047000101010F010000000FF10101010101010DD
:100480001010FF10000000FF140000FF00FF00002C
:100490001F10170000FC04F414141710171414F4A0
:1004A00004F40000FF00F714141414141414F700DB
:1004B000F7141414171410101F101F141414F4142C
:1004C0001010F010F000001F101F0000001F14009B
:1004D0000000FC140000F010F01010FF10FF1414C6
:1004E00014FF141010101F00000000F010FFFFFF99
:1004F000FFFFF0F0F0F0F0FFFFFF0000000000FF52
:10050000FF0F0F0F0F0F3844443844FC4A4A4A3457
:100510007E02020606027E027E026355494163386E
:1005200044443C04407E201E2006027E020299A51F
:10053000E7A5991C2A492A1C4C7201724C304A4D7D
:100540004D303048784830BC625A463D3E494949B2
:10055000007E0101017E2A2A2A2A2A44445F44445B
:1005600040514A444040444A51400000FF0103E0EA
:1005700080FF000008086B6B083612362436060F21
:10058000090F06000018180000001010003040FF8E
:100590000101001F01011E00191D1712003C3C3C07
:1005A0003C00000000000001020304050000000000
:1005B000240027002A000000000023002600290054
:1005C0000000000800020100000304070000000012
:1005D00000000000B51B11241FBECFEFD8E0DEBF26
:1005E000CDBF27E0A6EBB5E001C01D92A639B2074A
:1005F000E1F715E0A0E0B1E0EAEAFDE302C0059012
:100600000D92A63BB107D9F712E0CBEED2E004C0C1
:100610002197FE010E94C11CCA3ED107C9F70E9462
:10062000EA140C94D31E0C9400006F927F928F9268
:100630009F92AF92BF92CF92DF92EF92FF920F9371
:100640001F93CF93DF93EC014B015A0169013801ED
:10065000E881F9810284F385E02D0995E881F9812B
:100660000288F389E02D87019601A501B401CE012E
:100670000995E881F981A501460D571D41505109A1
:100680000288F389E02D9601B401CE010995E88135
:10069000F9810088F189E02D9301A501B401CE0113
:1006A0000995E881F981C80CD91CB601615071091E
:1006B0000088F189E02D9301A501CE010995E8811B
:1006C000F9810688F789E02DCE01DF91CF911F9146
:1006D0000F91FF90EF90DF90CF90BF90AF909F90E1
:1006E0008F907F906F900994CF92DF92EF92FF925C
:1006F0000F931F93CF93DF9300D000D000D0CDB7DE
:10070000DEB76C01DC01ED91FC916217730789F48F
:10071000041715072CF4942F852FA801092F182FE3
:10072000041B150B98012F5F3F4F048CF58DE02DB6
:1007300012C04017510709F5261737072CF4962FDA
:10074000872FB901292F382F261B370B2F5F3F4FDB
:10075000068CF78DE02D8701C601099526960FB608
:10076000F894DEBF0FBECDBFDF91CF911F910F91E7
:10077000FF90EF90DF90CF9008950284F385E02DF5
:100780002D833E834B835C8369837A830995D601ED
:10079000ED91FC910488F589E02D2D813E814B81FE
:1007A0005C8169817A81C6010995D601ED91FC9140
:1007B0000688F789E02DC60126960FB6F894DEBFAD
:1007C0000FBECDBFDF91CF911F910F91FF90EF90A2
:1007D000DF90CF900994EF92FF920F931F93DC016B
:1007E000ED91FC9111971A960D911C911B971896FB
:1007F0002D913C91199700A0F1A1E02D7B0140E0E3
:1008000050E060E070E009951F910F91FF90EF902C
:1008100008954F925F926F927F928F929F92AF92C4
:10082000BF92CF92DF92EF92FF920F931F93CF93DD
:10083000DF9300D0CDB7DEB76C015A013901480112
:10084000DC01ED91FC910284F385E02D69837A83CC
:1008500009956981462E7A81572E640C751CD60144
:10086000ED91FC91461457046CF40088F189E02D59
:1008700087019401A501B201C6010995BFEF4B1A8A
:100880005B0AEDCF0688F789E02DC6010F900F9027
:10089000DF91CF911F910F91FF90EF90DF90CF905C
:1008A000BF90AF909F908F907F906F905F904F9090
:1008B0000994AF92BF92CF92DF92EF92FF920F9383
:1008C0001F93CF93DF9300D000D0CDB7DEB75C018C
:1008D0006901DC01ED91FC910284F385E02D4B83ED
:1008E0005C8369837A830995D501ED91FC916981D7
:1008F0007A819B012C0D3D1D215031090488F58919
:10090000E02D78014B815C818A01C5010995D501F3
:10091000ED91FC910688F789E02DC5010F900F90AD
:100920000F900F90DF91CF911F910F91FF90EF905B
:10093000DF90CF90BF90AF900994AF92BF92CF92CB
:10094000DF92EF92FF920F931F93CF93DF9300D02C
:1009500000D0CDB7DEB75C016901DC01ED91FC91FF
:100960000284F385E02D4B835C8369837A83099548
:10097000D501ED91FC914B815C81C40ED51EB1E097
:10098000CB1AD1080488F589E02D780186016981A8
:100990007A819B01C5010995D501ED91FC910688ED
:1009A000F789E02DC5010F900F900F900F90DF9108
:1009B000CF911F910F91FF90EF90DF90CF90BF905C
:1009C000AF9009940895EF92FF920F931F93DC016B
:1009D000ED91FC9100A0F1A1E02D09951F910F91DF
:1009E000FF90EF9008950F931F93DC01ED91FC9120
:1009F000068CF78DE02D09951F910F9108950F93A7
:100A00001F93DC01ED91FC91048CF58DE02D09958F
:100A10001F910F910895DC01ED91FC910084F18507
:100A2000E02D099408952F923F924F925F926F921A
:100A30007F928F929F92AF92BF92CF92DF92EF926E
:100A4000FF920F931F93CF93DF9300D01F92CDB7E8
:100A5000DEB74C017B836A836A0159011701980153
:100A6000241B350B37FF03C0319521953109C50192
:100A70004A815B81841B950B97FF03C091958195FB
:100A8000910951E059838217930714F019820BC022
:100A90009A2D8B2D5801092F182F9A818B81DB827B
:100AA000CA82C92ED82E8A819B81A816B9065CF409
:100AB0009C2D8D2D6801092F182F9A818B81BB8267
:100AC000AA82A92EB82E2501AA81BB814A1A5B0AE7
:100AD00038016C187D0877FE03C071946194710829
:100AE000720157FE03C0BFEFEB1AFB0AF594E794BF
:100AF000C016D1061CF00FEF1FEF1FC001E010E081
:100B00001CC0D401ED91FC91B9810484F585E02DE0
:100B10009101BB23C1F04A815B81B601C4010995F3
:100B2000E618F708F7FE04C0C00ED11EE40CF51C51
:100B3000EA81FB813196FB83EA834A815B81A416BB
:100B4000B506FCF604C0A6016A817B81E7CF0F9051
:100B50000F900F90DF91CF911F910F91FF90EF9029
:100B6000DF90CF90BF90AF909F908F907F906F90CD
:100B70005F904F903F902F9008950F931F93CF93C6
:100B8000DF93DC0155968C915597823071F083305C
:100B900009F1813009F08CC01496ED91FC91159704
:100BA000E41BF50BE21BF30B20C01496ED91FC91B6
:100BB0001597CF01861B970BBC01615071091696E2
:100BC000ED91FC911797CF01841B950BAC01421B53
:100BD000530B6EC01696ED91FC911797CF01861BB3
:100BE000970BBC0161507109FA0177FD1BC1169684
:100BF0008D919C911797681779070CF013C1F7FF37
:100C000004C02E0F3F1FE0E0F0E014968D919C9100
:100C10001597AF01420F531F841795071CF49C01D1
:100C20002E1B3F0B121613060CF0FCC0CB0177FDF8
:100C3000079643E0959587954A95E1F79695982F05
:100C4000882797958795E80FF91FE050FF4F677049
:100C5000772781E090E001C0880F6A95EAF7482F76
:100C60000130110541F088F00230110509F0DAC0B9
:100C70002E0F3F1F15C02E0F3F1FE217F30709F479
:100C8000D1C08081842B8193F8CF80952E0F3F1F98
:100C9000E217F30709F4C6C0908198239193F8CF27
:100CA000E217F30709F4BEC0808184278193F8CF4F
:100CB00077FDB8C014968D919C91159768177907A8
:100CC0000CF0B0C057FF04C0240F351F40E050E0C7
:100CD00016968D919C911797FA01E20FF31F8E17CC
:100CE0009F071CF49C01241B350B121613060CF0F5
:100CF00099C0A22F842F86958695869590E8899F26
:100D0000600D711D1124FB01E050FF4F4770A9F1E8
:100D100098E0941B492F50E0EA01C65EDA4F8881C3
:100D2000291790F4421B51092FEF30E002C035958E
:100D300027954A95E2F782230130110541F068F0CA
:100D40000230110589F06EC00130110519F42081BF
:100D5000822B0CC00130110520F480952081822364
:100D600005C00230110531F4208182278083A91744
:100D700008F458C0A91BE058FF4FA83048F10230D2
:100D8000110559F4EF018A2F988190959883C058E6
:100D9000DF4F88508830C0F730C081E00130110546
:100DA00009F080E08195EF019A2F8883C058DF4FCA
:100DB00098509830D0F788EF8A0F8695869586955B
:100DC00090E8899FE00DF11D1124E058FF4FA770B6
:100DD000AA2341F1B0E0AE5EBA4F8C91013011050B
:100DE00029F038F002301105D1F01CC09081892B18
:100DF00018C080959081892314C088EF8A0F86954A
:100E00008695869590E8899FE00DF11D1124E058A4
:100E1000FF4FA77039F0B0E0AE5EBA4F8C91908171
:100E200089278083DF91CF911F910F9108950F93B0
:100E30001F93CF93DF93DC01FB0155968C9155975F
:100E4000823081F0833019F1813051F514968D9103
:100E50009C911597BC01641B750BAB014150510966
:100E6000BF0181C014966D917C911597CB018E1BAB
:100E70009F0BFC0116968D919C911797BC01641BEA
:100E8000750BAB0141505109E21BF30B09C01696DB
:100E90006D917C9117976E1B7F0B621B730B63C068
:100EA00057FD1CC116968D919C91179748175907AD
:100EB0000CF014C1F7FF04C02E0F3F1FE0E0F0E07C
:100EC00014968D919C911597BF01620F731F861721
:100ED00097071CF49C012E1B3F0B121613060CF0F7
:100EE000FDC0CA0157FD079663E0959587956A9501
:100EF000E1F79695982F882797958795E80FF91F22
:100F0000E050FF4F4770552781E090E001C0880F07
:100F10004A95EAF7482F0130110541F088F0023078
:100F2000110509F0DBC02E0F3F1F15C02E0F3F1F0C
:100F3000E217F30709F4D2C08081842B8193F8CFA4
:100F400080952E0F3F1FE217F30709F4C7C0908169
:100F500098239193F8CFE217F30709F4BFC080817B
:100F600084278193F8CF57FDB9C014968D919C9139
:100F70001597481759070CF0B1C077FF04C0260F2A
:100F8000371F60E070E016968D919C911797FB01DA
:100F9000E20FF31F8E179F071CF49C01261B370BD3
:100FA000121613060CF09AC0A22F862F86958695EE
:100FB000869590E8899F400D511D1124FA01E0505B
:100FC000FF4F6770A9F198E0961B492F50E0EA01A6
:100FD000C65EDA4F8881291790F4421B51092FEF22
:100FE00030E002C0359527954A95E2F7822301301B
:100FF000110541F068F00230110589F06FC0013031
:10100000110519F42081822B0CC00130110520F448
:1010100080952081822305C00230110531F42081A2
:1010200082278083A91708F459C0A91BE058FF4FF5
:10103000A83048F10230110559F4EF018A2F988148
:1010400090959883C058DF4F88508830C0F731C0E2
:1010500081E00130110509F080E08195EF019A2FC0
:101060008883C058DF4F98509830D0F788EF8A0FA8
:1010700086958695869560E8869FE00DF11D112482
:10108000E058FF4FA770AA2349F1B0E0AE5EBA4F17
:101090008C910130110529F038F002301105D9F09A
:1010A0001DC09081892B03C0809590818923808306
:1010B00015C088EF8A0F86958695869570E8879F7C
:1010C000E00DF11D1124E058FF4FA77039F0B0E09A
:1010D000AE5EBA4F8C9190818927E9CFDF91CF9195
:1010E0001F910F910895FC0177FD9AC0808591852D
:1010F000681779070CF094C057FD92C082859385DC
:10110000481759070CF08CC08589823009F07CC0E3
:1011100084819581DC01A61BB70BBD01615071096B
:1011200086819781FC01E41BF50BAF014150510909
:101130000AC0813041F484819581841B950BAB01F9
:10114000BC01615071092130310529F008F12230CC
:101150003105E1F10895FA0157FD3796A3E0F595C1
:10116000E795AA95E1F7F695FE2FEE27F795E79517
:101170006E0F7F1FFB01E050FF4F4770552781E046
:1011800090E001C0880F4A95EAF79081892B3AC018
:10119000FA0157FD379623E0F595E7952A95E1F793
:1011A000F695FE2FEE27F795E7956E0F7F1FFB0153
:1011B000E050FF4F4770552781E090E001C0880F55
:1011C0004A95EAF78095908189231CC0FA0157FD62
:1011D000379683E0F595E7958A95E1F7F695FE2F2A
:1011E000EE27F795E7956E0F7F1FFB01E050FF4F4D
:1011F0004770552781E090E001C0880F4A95EAF7D3
:101200009081892780830895833009F092CF868169
:101210009781861B970BBA01AC014150510993CFBE
:10122000089585ED8093BC008091BC0084FDFCCFC7
:1012300010927906089540912E06262F30E0240F53
:10124000311D21323105DCF4209179062430C9F4B6
:10125000FC0180E090E0861758F430912E06219131
:10126000DC01A45FB94FA30FB11D2C930196F3CFFE
:1012700080912E06680F60932E0680E0089581E02D
:10128000089582E00895089581E090E03091B705D7
:101290002091B605321710F480E090E09195819589
:1012A000910908958091B7059091B605891730F49A
:1012B0008F5F8093B70580E090E008958FEF9FEFF8
:1012C00008958091B60590E02091B705821B9109A1
:1012D0000895CF92DF92EF92FF920F931F93CF93D7
:1012E000DF937C01262F972F8A0180917A0688232D
:1012F00091F0C62FD72F6E01C40ED51ECC15DD057B
:1013000071F06991D701ED91FC910190F081E02D90
:10131000C7010995F3CF642F822F0E941B09C801D2
:10132000DF91CF911F910F91FF90EF90DF90CF90C1
:101330000895CF93DF931F92CDB7DEB769832091D5
:101340007A062223D1F020919D06203240F021E040
:1013500030E0FC013383228380E090E015C080916F
:101360007B06E82FF0E0E458F94F998190838F5F76
:1013700080937B0680939D0605C061E0CE010196B7
:101380000E941B0981E090E00F90DF91CF910895BA
:10139000089580E090E008952F923F924F925F92DF
:1013A0006F927F928F929F92AF92BF92CF92DF9275
:1013B000EF92FF920F931F93CF93DF93CDB7DEB7DA
:1013C0006C970FB6F894DEBF0FBECDBF9C8F8B8F8E
:1013D0005B011A011F830E833701C982DC01589615
:1013E0004D915C9159974115510509F0E5C018964A
:1013F0008D919C911997681779070CF0CAC11A96BC
:101400008D919C911B97281639060CF0C2C18C2C2B
:10141000912CFB0136E0C39EE00DF11D1124FB87EA
:10142000EA871E161F060CF0B4C1C40133E0880F12
:10143000991F3A95E1F79D878C87820D931D1816A9
:1014400019060CF0A6C157968C91811103C0203B60
:1014500008F02F5FAB8DBC8DED91FC91119702844C
:10146000F385E02DCD012A8F09952A8DB5E02B9FBC
:1014700090011124F5013596FF87EE87BB82AA8281
:101480002501A9014A195B09598B488BC1010896AE
:101490009B8B8A8BE889F989E40DF51DEA55FF4F8E
:1014A0009491988761013D822C82A885A0FF13C08A
:1014B000AB8DBC8DED91FC91B981B13031F40484D8
:1014C000F585E02D2E813F8116C00684F785E02D3D
:1014D000EE80FF801AC0EE81FF816E167F06F1F06C
:1014E000AB8DBC8DED91FC91B981B13051F4048488
:1014F000F585E02D9301A601B2018B8D9C8D099598
:101500000DC00684F785E02D7301840194014C81A0
:101510005D816A817B818B8D9C8D0995E885E6953F
:10152000E887FFEFCF1ADF0A2C813D81280D391D96
:101530003D832C834A895B89C416D50609F0B5CF53
:101540005FEF451A550A8A819B81880D991D9B83FF
:101550008A83AE85BF854A165B0609F09BCFEE8174
:10156000FF816E167F0609F4F2C0EB8DFC8DA08121
:10157000B181F981F13079F4B5016B5F7F4F5096FD
:10158000ED91FC915197830128E030E0A1018B8D12
:101590009C8D0995DCC06A857B85681979091E9642
:1015A000ED91FC911F9773010C851D859401A1019C
:1015B0008B8D9C8D0995CBC0FA013496949132970E
:1015C00065917491291BCB01B7E02B9F800D911D74
:1015D0001124FA01259134913B8B2A8BFC01459112
:1015E00054915B834A83FC013296C49031965491A6
:1015F0005E87329614913196D4908981823058F06A
:10160000612E012E000C7708AD2D0D2C000CBB0BAC
:10161000B987A88704C019861886612C712CAB8DF8
:10162000BC8DED91FC9111970284F385E02DCD01E5
:101630000995B9818B2E912C689CC001699C900DF5
:10164000789C900D1124FC01EA0DFB1DFD87EC87B1
:101650001C82712C612CE12F110FFF0B95012E0FB5
:101660003F1F3B872A87AC0CB11CA5014E0F5F1FA3
:101670005F8B4E8BC1018D0D911DD7FC9A95998F73
:10168000888F4E85641608F062C0862D90E04885EC
:101690005985480F591F489D9001499D300D589D0F
:1016A000300D1124D901A20DB31DB98BA88BAA84CA
:1016B000BB844C845D84DC80BA85DB1AE88DF98DAF
:1016C000E80FF91FFD8BEC8B8D2D8A0D2E893F893C
:1016D000A216B306B9F1877061F48A819B810196E5
:1016E000EA89FB89AA81BB81EA0FFB1F74909B8367
:1016F0008A8377FE20C0AB8DBC8DED91FC91B981C2
:10170000B13061F40484F585E02D2E813F814C8950
:101710005D89B5018B8D9C8D09950DC00684F7857B
:10172000E02DEE80FF808401940148895989B2013F
:101730008B8D9C8D0995770CEFEFAE1ABE0A480C85
:10174000591CC2CF3C813C0D3C8363949ACFAB8D36
:10175000BC8DED91FC9111970688F789E02DCD01A4
:101760006C960FB6F894DEBF0FBECDBFDF91CF9160
:101770001F910F91FF90EF90DF90CF90BF90AF90AF
:101780009F908F907F906F905F904F903F902F90A1
:1017900009946C960FB6F894DEBF0FBECDBFDF91F3
:1017A000CF911F910F91FF90EF90DF90CF90BF905E
:1017B000AF909F908F907F906F905F904F903F90F1
:1017C0002F9008951F920F920FB60F9211242F930E
:1017D0003F934F935F936F937F938F939F93AF93B9
:1017E000BF93EF93FF938091B900887F803609F40F
:1017F0009CC068F5883209F45BC090F4803109F42C
:1018000054C038F4882309F4F6C0883009F44DC078
:10181000F6C0883109F44CC0803209F45DC0EFC0D5
:10182000803409F468C048F4803309F455C0883323
:1018300009F0E5C080937706D8C0803509F44FC021
:10184000883509F45DC0883409F0D9C0D6C088391C
:1018500009F4C7C0A8F4883709F467C038F488369B
:1018600009F463C0803709F460C0C9C0883809F43E
:10187000B8C0803909F45FC0803809F0C0C05BC0CF
:10188000803B09F486C038F4803A09F466C0883A8F
:1018900009F47FC0B4C0803C09F4A7C0883C09F4B7
:1018A000A4C0883B09F48AC0AAC08091540610C025
:1018B0009091760680917506981770F5E0917606FE
:1018C00081E08E0F80937606F0E0EB5AF94F80812D
:1018D0008093BB0085EC86C0809377068EC0E09134
:1018E000760681E08E0F809376068091BB00F0E053
:1018F000EB5AF94F808390917606809175066EC001
:10190000E091760681E08E0F809376068091BB0091
:10191000F0E0EB5AF94F80838091780681116DC019
:1019200081E08093530684EA61C083E08093790666
:1019300010925206CFCF80915206803208F051C0EB
:10194000E091520681E08E0F809352068091BB0099
:10195000F0E0EE5CF94F8083BDCF85EC8093BC0056
:101960001092790680915206803230F4E09152064E
:10197000F0E0EE5CF94F10826091520670E0E09169
:101980003006F091310682E396E0099510925206F6
:1019900036C084E08093790610922F0610922E06AE
:1019A000E0912C06F0912D06099580912E0681116B
:1019B00005C081E080932E0610920C06E0912F0660
:1019C00081E08E0F80932F06F0E0E45FF94F808175
:1019D0008093BB0090912F0680912E06981708F4F3
:1019E00079CF85E88093BC000AC085EC8093BC0069
:1019F0001092790604C0109277060E941109FF9197
:101A0000EF91BF91AF919F918F917F916F915F9176
:101A10004F913F912F910F900FBE0F901F901895EF
:101A20008EBD00000DB407FEFDCF8EB50895CF9397
:101A3000CFB7F89480910B06811127C0ECE9F0E054
:101A40008491EEE7F0E09491E82FF0E0EE0FFF1FB5
:101A5000E455FA4FA591B491EC91E92321F461E0AA
:101A60008AE00E94981361E08AE00E94C8138CB556
:101A700080618CBD8CB580648CBD61E08DE00E947E
:101A8000C81361E08BE00E94C81380910B068F5F42
:101A900080930B06CFBFCF910895CF92DF92EF9244
:101AA000FF921F93CF93DF93182FEB018FB7F8941A
:101AB000C090B805D090B905E090BA05F090BB058C
:101AC0008FBF812F0E946F13892B31F580910706FC
:101AD00090910806A0910906B0910A06A701960107
:101AE000281B390B4A0B5B0BDA01C9018039914085
:101AF000A105B10588F0812F0E946F13892B21F475
:101B0000988181E089278883C0920706D0920806D1
:101B1000E0920906F0920A06DF91CF911F91FF90A3
:101B2000EF90DF90CF9008958F929F92AF92BF92E7
:101B30000F931F93CF93DF93CDB7DEB7A1970FB667
:101B4000F894DEBF0FBECDBF19A2423008F44AE0C0
:101B50008E010F5D1F4F842E912CA12CB12CA5015D
:101B600094010E949F1CE62FB901CA01015011097E
:101B7000EA3014F4E05D01C0E95CD801EC93232B5A
:101B8000242B252B61F7B8018FE597E00E94D5142F
:101B9000A1960FB6F894DEBF0FBECDBFDF91CF91F7
:101BA0001F910F91BF90AF909F908F9008950F93CA
:101BB0001F93CF93DF93EC0188819981009729F0DF
:101BC0002A813B812617370788F48B016F5F7F4F8F
:101BD0000E94F41D009761F0998388831B830A8318
:101BE0002C813D81232B11F4FC01108281E001C086
:101BF00080E0DF91CF911F910F91089520919D0674
:101C000090919C06213208F04AC08091790681119A
:101C1000FCCF32E03093790631E0309378063FEF25
:101C2000309377061092760620937506ACE7B6E0FF
:101C300045E556E0FA013E2F341B321718F43D916A
:101C40003193F9CF1092540620915406990F922B9C
:101C50009093540690915306913061F4109253067C
:101C6000909154069093BB009091BC0093FDF8CFE7
:101C700095EC01C095EE9093BC009091790692305E
:101C8000E1F3909177069F3F79F08091770680325B
:101C900041F080917706803331F084E005C081E027
:101CA00003C082E001C083E010927B0610929D0683
:101CB00010927A0608959091800791110C94100D5E
:101CC00028E030E040E8E0918307F09184075081FC
:101CD00090918A07909595239083E0918107F091E8
:101CE000820790918907542F582319F05081952B22
:101CF00003C05081909595239083E0918307F091E4
:101D00008407508190918A07952B908346952150A6
:101D10003109C9F60895CF93C82F80917B078F3F73
:101D200059F1E0918507F0918607808190918B07AA
:101D3000982B9083E0918707F091880720819091FC
:101D40008C07909592239083E0918507F091860708
:101D5000208190918B079095922390838C2F0E94E5
:101D60005B0EE0918507F0918607908180918B074B
:101D7000892B8083CF9108958091790791E090938A
:101D80007A0680939C0610927B0610929D0660E076
:101D90008BE397E00E9499096C2F8BE397E00E94F8
:101DA0009909CF910C94FE0DCF93DF939CB59F7D45
:101DB0009CBD9CB5937F9CBD9CB59C7F9CBD9DB5F7
:101DC00091609DBDC7E4D7E0682F8A810E94981377
:101DD0008C899D89DF91CF910C941B1481E00C9428
:101DE000D40E80E00C94D40E1F93CF93DF9300D0D9
:101DF000CDB7DEB76A8389830E94F10E89818F7126
:101E000080620E94100D182F6A81862F0E94100D8B
:101E10000E94EE0E812F0F900F90DF91CF911F91B6
:101E20000895CF93DF931F92CDB7DEB789830E94C9
:101E3000F10E89818F710E94100D8FEF0E94100D9D
:101E400089830E94EE0E89810F90DF91CF910895D2
:101E5000CF93DF931F92CDB7DEB70E94F10E81EED4
:101E60000E94100D89830E94EE0E89810F90DF91F0
:101E7000CF91089520914707309148074091490735
:101E800050914A072417350721F0682F822F0C94B0
:101E90009813089580E00E943A0F8091570790911F
:101EA00058070E941B148DE10E94110F81FF08C08A
:101EB00080915707909158070E941B140E94280F89
:101EC00080E00E94110F682F6E7F80E00E94F40E68
:101ED00082E00E94110FE6EAF5E0E49161E070E033
:101EE00001C0660FEA95EAF7682B82E00C94F40EC5
:101EF000EF92FF920F931F93CF93DF9300D01F9227
:101F0000CDB7DEB7162F4A837B8389830E94F10EFB
:101F100089818F7180620E94100D082FE12E7B81D4
:101F2000F72E4A81140F1E1531F0F70181917F01C0
:101F30000E94100DF8CF0E94EE0E802F0F900F9090
:101F40000F90DF91CF911F910F91FF90EF90089527
:101F50000F931F93CF938C0186E00E94110FC82F1F
:101F6000C77D0230110531F4C0628BE990E0A0E03A
:101F7000B0E00DC00130110529F085E590E0A0E04A
:101F8000B0E005C0C86081E490E0A0E0B0E08093DC
:101F9000570790935807A0935907B0935A076C2F8F
:101FA00086E00E94F40E86E00E94110F91E08C13EF
:101FB00090E0892FCF911F910F91089580E00E94AA
:101FC000110F81FD0BC0682F626080E00E94F40E4B
:101FD00065E070E080E090E00C9426140895CF93C3
:101FE000DF93682F70E080E090E04AE00E94940D5B
:101FF000EC016EE775E08FE597E00E94D5148C0F39
:102000009D1FDF91CF910895CF92DF92EF92FF92C3
:10201000CF93DF936C01990FEE08FF08F7FE1FC006
:10202000E0915F07F09160070190F081E02D6DE293
:102030008FE597E00995EC0166277727CB016C19AE
:102040007D098E099F094AE00E94940D8C0F9D1F07
:10205000DF91CF91FF90EF90DF90CF9008954AE00D
:10206000C701B601DF91CF91FF90EF90DF90CF9045
:102070000C94940DEF92FF920F931F93CF93DF93E5
:1020800000D0CDB7DEB78C0180E289831A82F801D7
:10209000E480F580FFEFEF1AFF0AB701C8010E9444
:1020A000D70D882381F0F8012081318184819581C9
:1020B000BE016F5F7F4F820F931F0E94CC1EF801FD
:1020C000F582E48281E00F900F90DF91CF911F9114
:1020D0000F91FF90EF900895CF92DF92EF92FF92D1
:1020E0000F931F93CF93DF9300D000D0CDB7DEB70F
:1020F0008C01862F4AE09E012F5F3F4F6901B90195
:1021000090E00E94331CF60101900020E9F731971E
:10211000EC19FD09D8011496ED90FC9015973097B5
:10212000B9F0EE0EFF1EB701C8010E94D70D88233B
:1021300081F0F8012081318184819581B601820F7F
:10214000931F0E94CC1ED8011596FC92EE92149714
:1021500081E00F900F900F900F90DF91CF911F9122
:102160000F91FF90EF90DF90CF900895EF92FF9244
:102170000F931F93CF93DF93EC017B018A01BA0188
:102180000E94D70D2881398181110DC0211531059B
:1021900019F0C9010E945C1D198218821D821C82DF
:1021A0001B821A8206C01D830C83B701C9010E94DD
:1021B000CC1ECE01DF91CF911F910F91FF90EF9038
:1021C00008950F931F93CF93DF93EC01E881F9817A
:1021D000DB0114964D915C9115976D917C91028075
:1021E000F381E02D09958C016EE775E0CE010E9428
:1021F000D514800F911FDF91CF911F910F910895FA
:10220000FC01538D448D252F30E0842F90E0821BFC
:10221000930B541710F0CF96089501970895FC0181
:10222000918D828D981761F0828DDF01A80FB11D0D
:102230005D968C91928D9F5F9F73928F90E0089531
:102240008FEF9FEF0895FC01918D828D981731F0EB
:10225000828DE80FF11D858D90E008958FEF9FEF3F
:102260000895FC01918D228D892F90E0805C9F4F15
:10227000821B91098F73992708958EE996E00E9439
:10228000311121E0892B09F420E0822F0895FC010F
:10229000848DDF01A80FB11DA35ABF4F2C91848DEF
:1022A00090E001968F739927848FA689B7892C9324
:1022B000A089B1898C9180648C93938D848D9813BF
:1022C00006C00288F389E02D80818F7D8083089588
:1022D000EF92FF920F931F93CF93DF93EC0181E076
:1022E000888F9B8D8C8D981305C0E889F989808132
:1022F00085FD24C0F62E0B8D10E00F5F1F4F0F736E
:102300001127E02E8C8DE8120CC00FB607FCFACF17
:10231000E889F989808185FFF5CFCE010E944711B8
:10232000F1CF8B8DFE01E80FF11DE35AFF4FF082D4
:102330000B8FEA89FB898081806207C0EE89FF8963
:102340006083E889F98980818064808381E090E0FE
:10235000DF91CF911F910F91FF90EF900895CF9350
:10236000DF93EC01888D8823C9F0EA89FB8980819D
:1023700085FD05C0A889B9898C9186FD0FC00FB66F
:1023800007FCF5CF808185FFF2CFA889B9898C91B0
:1023900085FFEDCFCE010E944711E7CFDF91CF91AE
:1023A000089580E090E0892B29F00E943D11811171
:1023B0000C9400000895833081F028F4813099F066
:1023C0008230A1F008958730A9F08830B9F08430C8
:1023D000D1F4809180008F7D03C0809180008F7741
:1023E00080938000089584B58F7702C084B58F7D77
:1023F00084BD08958091B0008F7703C08091B000B4
:102400008F7D8093B00008953FB7F89480918E0738
:1024100090918F07A0919007B091910726B5A89B46
:1024200005C02F3F19F00196A11DB11D3FBFBA2F66
:10243000A92F982F8827820F911DA11DB11DBC01C6
:10244000CD0142E0660F771F881F991F4A95D1F78B
:1024500008950895FC016370658B848195812681C0
:102460003781613039F0633029F091878087338775
:1024700022870895318720879387828708950E9455
:10248000BE1EAF92BF92CF92EF92FF920F931F9317
:10249000CF93DF93EC01262F888D998D009709F05B
:1024A00040C06A3059F41D861C862C898E859F8514
:1024B00038E0239F800D911D112441C06D3009F437
:1024C000AAC08E898823C1F03C898C859D8546E011
:1024D000349F800D911D112448855985481759074F
:1024E0005CF41D861C868E859F8548E0349F800D98
:1024F000911D11249F878E87EA88FB880889198996
:102500004E855F856C857D85CC88CE010E94CC0987
:102510002C898C859D8536E0239F800D911D11248B
:1025200042C06A3079F41D861C862C89FC013696DF
:10253000E4918E859F852E9F800D911D11249F878C
:102540008E8769C06D3009F466C0FC013496349101
:10255000631708F460C03196E491E61708F45BC095
:10256000FC013296A590B490462F50E0431B5109D0
:1025700037E0349FB001359F700D1124A60EB71EB1
:10258000F501329634913196E491332311F0E11143
:102590000DC0F5013496E4912C898C859D85E29FD0
:1025A000800D911D11249D878C8735C0F5013596CE
:1025B00044915E89552311F16C89E32FF0E0E40F1B
:1025C000F11D47FDFA956E9FD0016F9FB00D11244C
:1025D0004C855D854A0F5B1FE885F985E417F50793
:1025E0006CF41D861C86FC013696E4918E859F85D1
:1025F0006E9F800D911D11249F878E87EA88FB882E
:10260000088919894E855F856C857D85CC88CE01CA
:102610000E94CC09BECF81E090E0DF91CF911F9165
:102620000F91FF90EF90CF90BF90AF9008951F92C1
:102630000F920FB60F9211242F933F934F935F93F6
:102640006F937F938F939F93AF93BF93EF93FF937A
:102650008EE996E00E944711FF91EF91BF91AF91F3
:102660009F918F917F916F915F914F913F912F91AA
:102670000F900FBE0F901F9018951F920F920FB6DC
:102680000F9211242F938F939F93EF93FF93E091D9
:10269000AE06F091AF068081E091B406F091B506E8
:1026A00082FD12C090818091B7068F5F8F73209159
:1026B000B806821751F0E091B706F0E0E256F94F04
:1026C000958F8093B70601C08081FF91EF919F9114
:1026D0008F912F910F900FBE0F901F901895CF9351
:1026E000DF93282F30E0F901E054FA4F8491F9018B
:1026F000EC58FF4FD491F901EE56FF4FC491CC2313
:1027000091F081110E94DB11EC2FF0E0EE0FFF1F22
:10271000EA54FA4FA591B491EC91ED2381E090E059
:1027200021F480E002C080E090E0DF91CF91089535
:102730001F93CF93DF93282F30E0F901E054FA4F35
:102740008491F901EC58FF4FD491F901EE56FF4FF7
:10275000C491CC23C9F0162F81110E94DB11EC2FFC
:10276000F0E0EE0FFF1FE857FF4FA591B4918FB730
:10277000F894111105C09C91ED2FE095E92302C05A
:10278000EC91ED2BEC938FBFDF91CF911F910895CA
:10279000CF93DF9390E0FC01EC58FF4F2491FC01B4
:1027A000EE56FF4F8491882361F190E0880F991FC6
:1027B000FC01E455FA4FC591D491FC01E857FF4F55
:1027C000A591B491611109C09FB7F89488812095B3
:1027D00082238883EC912E230BC0623061F49FB773
:1027E000F8943881822F809583238883EC912E2B57
:1027F0002C939FBF06C08FB7F894E8812E2B2883B7
:102800008FBFDF91CF9108958E3008F08E50877082
:10281000806480937C0080917A00806480937A0049
:1028200080917A0086FDFCCF80917800209179001C
:1028300090E0922B08958230910538F0880F991F0F
:10284000880F991F05970197F1F708958F929F922E
:10285000AF92BF92CF92DF92EF92FF926B017C0119
:102860000E9404124B015C01C114D104E104F10483
:10287000F1F00E940412DC01CB0188199909AA0920
:10288000BB09883E9340A105B10570F321E0C21A4F
:10289000D108E108F10888EE880E83E0981EA11C9B
:1028A000B11CC114D104E104F10419F7DDCFFF908C
:1028B000EF90DF90CF90BF90AF909F908F90089552
:1028C0001F920F920FB60F9211242F933F938F9365
:1028D0009F93AF93BF938091B8059091B905A09154
:1028E000BA05B091BB0530918D0723E0230F2D373A
:1028F00020F40196A11DB11D05C026E8230F029604
:10290000A11DB11D20938D078093B8059093B90543
:10291000A093BA05B093BB0580918E0790918F0765
:10292000A0919007B09191070196A11DB11D8093D0
:102930008E0790938F07A0939007B0939107BF9154
:10294000AF919F918F913F912F910F900FBE0F905C
:102950001F901895CF92DF92EF92FF920F931F93E3
:10296000CF93DF936C017A018B01C0E0D0E0CE15EC
:10297000DF0589F0D8016D918D01D601ED91FC91B3
:102980000190F081E02DC6010995892B11F47E019B
:1029900002C02196ECCFC701DF91CF911F910F911B
:1029A000FF90EF90DF90CF9008956115710579F059
:1029B000FB0101900020E9F73197AF01461B570B4F
:1029C000DC01ED91FC910280F381E02D099480E01F
:1029D00090E00895CF93DF93CDB7DEB72E970FB673
:1029E000F894DEBF0FBECDBF789484B5826084BDFD
:1029F00084B5816084BD85B5826085BD85B5816003
:102A000085BD80916E00816080936E001092810080
:102A1000809181008260809381008091810081603B
:102A200080938100809180008160809380008091FC
:102A3000B10084608093B1008091B0008160809388
:102A4000B00080917A00846080937A0080917A004F
:102A5000826080937A0080917A00816080937A000E
:102A600080917A00806880937A001092C100E09192
:102A7000AE06F091AF0682E08083E091AA06F09165
:102A8000AB061082E091AC06F091AD068FEC80832E
:102A90001092B606E091B206F091B30686E080830C
:102AA000E091B006F091B106808180618083E09171
:102AB000B006F091B106808188608083E091B00615
:102AC000F091B106808180688083E091B006F0913A
:102AD000B10680818F7D808362E775E08EE996E0A4
:102AE0000E94D5146EE775E08EE996E00E94D51439
:102AF00062E084E00E94C81362E082E00E94C81392
:102B000062E083E00E94C81362E089E00E94C8137B
:102B100062E086E00E94C81362E085E00E94C8136C
:102B200080914707909148072091490730914A07C3
:102B30008217930719F061E00E94C813809149073A
:102B400090914A0720914707309148072817390785
:102B500019F061E00E94C8130E94170D80E00E94E6
:102B60003A0F81E00E94D40E65E070E080E090E0D2
:102B70000E9426146CE080E00E94F40E6FE584E071
:102B80000E94F40E82E090E00E94A80F882319F0C2
:102B900081E080934D0786E00E94110F80E090E075
:102BA0000E94A80F0E94F10E80E50E94100D83E79D
:102BB0000E94100D0E94EE0E60E08DE10E94F40E66
:102BC00060E08CE10E94F40E10924F0760E787E00E
:102BD0000E94F40E6CE485E00E94F40E0E94F10E57
:102BE00082EE0E94100D0E94EE0E0E94280F0E949D
:102BF000DE0F80E00E94110F682F6E7F80E00E9440
:102C0000F40E80E090E00E94A80F65E284E00E944C
:102C1000F40E60E085E00E94F40E409155076CE0F0
:102C200075E08AE00E94780F409155076CE075E0EE
:102C300080E10E94780F60914E0781E10E94F40EBE
:102C40004091550750E066E075E080E597E00E940E
:102C5000C31EEEE6F0E084914091550766E075E012
:102C60000E94780FE8E6F0E0849160914E070E94A0
:102C7000F40E82E00E94110F66EA862E65E0962E21
:102C8000F401949161E070E001C0660F9A95EAF753
:102C9000682B82E00E94F40E0E944A0F82E080932B
:102CA0007A078CE38093790780917B078F3F09F443
:102CB0008BC061E080917D070E94C81361E0809124
:102CC0007F070E94C81380917F07082E000C990B84
:102CD000FC01EE56FF4FE491F0E0EE0FFF1FE857C6
:102CE000FF4F259134913093860720938507FC018F
:102CF000EC58FF4FE491E0938B0780917D07082EFD
:102D0000000C990BFC01EE56FF4FE491F0E0EE0F42
:102D1000FF1FE857FF4F2591349130938807209388
:102D20008707FC01EC58FF4FE491E0938C078091FA
:102D3000800781113EC061E080917B070E94C8132B
:102D400061E080917C070E94C81380917C07082E67
:102D5000000C990BFC01EE56FF4FE491F0E0EE0FF2
:102D6000FF1FE857FF4F259134913093840720933C
:102D70008307FC01EC58FF4FE491E0938A078091B0
:102D80007B07082E000C990BFC01EE56FF4FE491D7
:102D9000F0E0EE0FFF1FE857FF4F2591349130937D
:102DA000820720938107FC01EC58FF4FE491E093E8
:102DB000890780918007882371F10E94170D80E5B3
:102DC0008CBD81E08DBD27C01092B7051092B6056D
:102DD00010927B0610929D061092790681E08093F6
:102DE00078061092530661E082E10E94981361E038
:102DF00083E10E9498138091B9008E7F8093B9007F
:102E00008091B9008D7F8093B90088E48093B800E9
:102E100085E48093BC0080917E0787FD1EC061E041
:102E20000E94C81361E080917E070E94981361E0C0
:102E300070E080E090E00E94261460E080917E07C0
:102E40000E9498136AE070E080E090E00E942614EF
:102E500061E080917E070E9498138EEA0E948B0E9B
:102E600085ED0E948B0E80E80E948B0E88EA0E94FE
:102E70008B0E8FE30E948B0E83ED0E948B0E80E001
:102E80000E948B0E80E40E948B0E8DE80E948B0EB8
:102E900084E10E948B0E80E20E948B0E80E00E94F3
:102EA0008B0E81EA0E948B0E88EC0E948B0E8AEDBD
:102EB0000E948B0E82E10E948B0E81E80E948B0E95
:102EC0008FEC0E948B0E89ED0E948B0E81EF0E9489
:102ED0008B0E8BED0E948B0E80E40E948B0E84EA99
:102EE0000E948B0E86EA0E948B0E8EE20E948B0E51
:102EF0008FEA0E948B0E80E094E0E0E0F1E0DF01D9
:102F00009C011D9221503040E1F7EE24E394F12C16
:102F1000A8E3CA2ED12C0AE010E0B4E16B2E712C8C
:102F20008EE1A82EB12C2FB7F8948091B80590911E
:102F3000B905A091BA05B091BB052FBF80930306D8
:102F400090930406A0930506B09306064091FF05F2
:102F50005091000660910106709102061C012D013E
:102F6000241A350A460A570A25EF221621E03206AE
:102F70004104510440F08093FF0590930006A09314
:102F80000106B09302064091FB055091FC0560914B
:102F9000FD057091FE05841B950BA60BB70B893EB2
:102FA0009340A105B10508F457C01A8219821C820A
:102FB0001B821E821D8240E050E060E875E0CE0179
:102FC00001960E94B6106091D305CE0101960E9431
:102FD0006C10CE0101960E943A106091D405CE018A
:102FE00001960E946C10CE0101960E943A106091E9
:102FF000D505CE0101960E946C10CE0101960E946B
:103000003A106091D605CE0101960E946C10CE0157
:1030100001960E943A106091DC05CE0101960E9453
:103020006C10BE016F5F7F4F8EE996E00E94E11049
:1030300089819A810E945C1D80910306909104060B
:10304000A0910506B09106068093FB059093FC05C0
:10305000A093FD05B093FE05209003063090040672
:1030600040900506509006068091F7059091F8056E
:10307000A091F905B091FA05A2019101281B390B25
:103080004A0B5B0B293C31054105510508F470C022
:1030900081E00E94041497FD039695958795959578
:1030A00087958093C30580E00E94041497FD0396E2
:1030B00095958795959587958093C20583E00E94A5
:1030C000041497FD0396959587959595879580931C
:1030D000C50582E00E94041497FD03969595879597
:1030E000959587958093C40586E00E94041497FD0A
:1030F000039695958795959587958093C9058091B9
:10310000EE058093CB0584E00E946F132091CC05DF
:10311000919581959109822781709927092E000C3C
:10312000AA0BBB0B82272091E4052195282722704A
:1031300082279091E3059195982794708927909123
:10314000ED0591959827987089278093CC058091FB
:10315000D2058093C1058093CD058F5F8093D20502
:103160002092F7053092F8054092F9055092FA0541
:103170008091F3059091F405A091F505B091F605C5
:10318000A2019101281B390B4A0B5B0B2B3F310528
:103190004105510508F48DC02092CE053092CF052F
:1031A0004092D0055092D1050E944A0F80914E075F
:1031B000982F8D3008F09CE020914F07211103C01B
:1031C000891B8F8301C01F829A870E94F10E80EABB
:1031D0000E94100D22EC35E09A85915060F0D901E3
:1031E0008D919D01A88739879A870E94100D9A8535
:1031F00039852885F2CF9F81992339F080E09A871D
:103200000E94100D9A859150F7CF0E94EE0E81E03A
:103210000E943A0F0E94F10E8FEF0E94100D8887D6
:103220000E94EE0E88858073A9F380E00E943A0F19
:1032300060E787E00E94F40E84FD0E94280F0E9440
:10324000DE0F80E00E94110F682F616080E00E9415
:10325000F40E60E787E00E94F40E81E00E943A0FCE
:1032600080915007882341F04091550760E577E051
:103270008AE00E94780F0FC082E00E94110FF401D3
:103280009491B70101C0660F9A95EAF7609568239B
:1032900082E00E94F40E8DE10E94110F81FD0E94D8
:1032A000280F2092F3053092F4054092F5055092D4
:1032B000F6058091030690910406A0910506B09151
:1032C00006064091EF055091F0056091F10570916F
:1032D000F205841B950BA60BB70B8F3E9240A10500
:1032E000B10508F43CC181E080937307F092720746
:1032F000E0927107F0927007E0926F0710926C07EE
:1033000010926B07D0926E07C0926D078091D20524
:103310008695869590E00E94041034E6232E312C89
:1033200030926C0720926B07D0926E07C0926D07A7
:103330008091DC058695869590E00E94041010939C
:103340006C0700936B0710926E0710926D0761E88F
:1033500075E08FE597E00E94D5148091D3050E9417
:10336000EF0F10936C0700936B0710936E07009399
:103370006D0767E875E08FE597E00E94D5148091AE
:10338000D3050E94EF0F10936C0700936B077092A8
:103390006E0760926D076DE875E08FE597E00E941B
:1033A000D5148091D5050E94EF0F10936C07009300
:1033B0006B07B0926E07A0926D0763E975E08FE529
:1033C00097E00E94D5141A8219821C821B821E82E9
:1033D0001D8240E050E060E875E0CE0101960E9459
:1033E000B6108091D605813069F038F0823091F4C2
:1033F00048E050E06CEA75E009C048E050E069E957
:1034000075E004C049E050E062EA75E0CE01019643
:103410000E94B610BE016F5F7F4F8FE597E00E945C
:10342000E11081E20E948B0E80E00E948B0E8FE7FC
:103430000E948B0E82E20E948B0E80E00E948B0E17
:1034400087E00E948B0E80917B078F3FA1F1E09176
:103450008507F0918607908180918B07892B808367
:10346000E0918707F0918807908180918C07892BE4
:103470008083E0918507F0918607908180918B078A
:1034800080958923808320E0422E21E0522ED201B4
:103490008D912D010E945B0EB0E04B16B5E05B06EE
:1034A000B1F7E0918507F0918607908180918B07B5
:1034B000892B808339C02090B8002F828CE08093C4
:1034C000B80090E0492E91E0592E8091790733247D
:1034D000339430927A0680939C0610927B06109269
:1034E0009D0660E48BE397E00E949909212C312C22
:1034F000F201E20DF31D60818BE397E00E949909D0
:103500002FEF221A320A30E12316310489F70E9484
:10351000FE0D40E1440E511C50E0451655E05506A5
:10352000A1F62F802092B800A0E0B1E0E0E0F4E046
:103530001D923197E9F789819A810E945C1D8091E3
:10354000030690910406A0910506B09106068093AB
:10355000EF059093F005A093F105B093F20587E194
:103560000E94110F80FDF8C04090DE054092DD05FD
:1035700080914E078A3008F4EDC09AE020914F0701
:10358000211103C0582E591A01C0512C9A870E944C
:10359000F10E81E60E94100D83ED282E85E0382E75
:1035A0009A85915040F08FEF9A870E94100DD101BB
:1035B0008D931D01F5CF552029F08FEF0E94100D3E
:1035C0005A94F9CF0E94EE0E60E787E00E94F40E55
:1035D0008091DC058093DE05815084198093DF059E
:1035E0001092E1051092E0058091D30581110CC085
:1035F0008091D405882341F08091DC05811104C0BD
:1036000081E08093E20502C01092E20564EE75E06D
:1036100082E00E944D0D63EE75E083E00E944D0D47
:103620006DEE75E089E00E944D0D86E00E946F13FB
:1036300021E0892B09F420E02093E90585E00E9430
:103640006F1321E0892B09F420E02093EB05E09132
:10365000EA05F091E905E11106C0FF2309F465C010
:10366000211108C05EC0FF2319F0F1115EC02CC00B
:1036700021112AC04091030650910406609105066D
:10368000709106062090E5053090E6054090E7052C
:103690005090E805DB01CA0182199309A409B50914
:1036A000C397A105B10568F04093E5055093E60581
:1036B0006093E7057093E8053091EE053150309343
:1036C000EE05E111D2CF2DC0222379F180910306BE
:1036D00090910406A0910506B09106064091E5057B
:1036E0005091E6056091E7057091E8051C012D01F8
:1036F000241A350A460A570AB201A101433351057B
:103700006105710590F08093E5059093E605A0931F
:10371000E705B093E8058091EE058F5F8093EE0595
:1037200004C0FF2311F0222389F286E00E946F1368
:1037300021E0892B09F420E02093EA0585E00E942E
:103740006F1321E0892B09F420E02093EC050E94FF
:10375000D111E9CB982F12CF81E08093E1058091C0
:10376000E0058F5F8093E0053FCFEEE9F6E013823E
:10377000128288EE93E0A0E0B0E084839583A68374
:10378000B78326E235E03183208325EC30E03587AE
:10379000248724EC30E03787268720EC30E0318B1B
:1037A000208B21EC30E0338B228B22EC30E0358B08
:1037B000248B26EC30E0378B268B118E128E138EE5
:1037C000148EEBE3F7E01382128284839583A68341
:1037D000B78388E395E091838083EFE5F7E0138278
:1037E000128220E830E03583248380E490E09783E0
:1037F00086833187208793878287158A158614866A
:103800001786168681E0848B2FEF3FEF338B228B58
:10381000318B208B868B178A118E108E8AE495E06F
:10382000918380838FEF848F80A3868F858F84E040
:10383000878FE7E4F7E087E090E09183808388E07A
:1038400090E093838283168280E28783108685E0EE
:10385000868785E090E0A0E0B0E0848B958BA68B16
:10386000B78B11860895BB274A3031F4992322F48F
:10387000BDE2909581959F4F0C943F1CBB27FB01A7
:103880005527AA27880F991FAA1FA41710F0A41B59
:1038900083955051B9F7A05DAA3308F0A95DA193B3
:1038A000009779F7B111B1931192CB010C94581C88
:1038B000DC01FC01672F71917723E1F7329704C097
:1038C0007C916D9370836291AE17BF07C8F3089522
:1038D0002F923F924F925F926F927F928F929F9220
:1038E000AF92BF92CF92DF92EF92FF920F931F930E
:1038F000CF93DF93CDB7DEB7CA1BDB0B0FB6F894BF
:10390000DEBF0FBECDBF09942A88398848885F84FE
:103910006E847D848C849B84AA84B984C884DF806F
:10392000EE80FD800C811B81AA81B981CE0FD11D53
:103930000FB6F894DEBF0FBECDBFED010895A1E232
:103940001A2EAA1BBB1BFD010DC0AA1FBB1FEE1F19
:10395000FF1FA217B307E407F50720F0A21BB30B64
:10396000E40BF50B661F771F881F991F1A9469F7E0
:1039700060957095809590959B01AC01BD01CF013C
:103980000895EE0FFF1F0590F491E02D0994CF9359
:10399000DF938230910510F482E090E0E09194078B
:1039A000F091950720E030E0C0E0D0E0309711F1D1
:1039B0004081518148175907C0F04817590761F4F1
:1039C00082819381209719F09B838A832BC09093E7
:1039D00095078093940726C02115310519F04217E9
:1039E000530718F49A01BE01DF01EF010280F38151
:1039F000E02DDCCF2115310509F1281B390B2430CE
:103A0000310590F412968D919C9113976115710573
:103A100021F0FB019383828304C0909395078093E8
:103A20009407FD01329644C0FD01E20FF31F81931C
:103A30009193225031092D933C933AC020919207E3
:103A400030919307232B41F4209102053091030517
:103A50003093930720939207209100053091010540
:103A60002115310541F42DB73EB740910405509121
:103A70000505241B350BE0919207F0919307E2179F
:103A8000F307A0F42E1B3F0B2817390778F0AC0181
:103A90004E5F5F4F2417350748F04E0F5F1F50935E
:103AA0009307409392078193919302C0E0E0F0E086
:103AB000CF01DF91CF9108950F931F93CF93DF93A1
:103AC000009709F48CC0FC01329713821282009196
:103AD0009407109195070115110581F4208131811A
:103AE000820F931F2091920730919307281739076F
:103AF00079F5F0939307E093920771C0D80140E005
:103B000050E0AE17BF0750F412962D913C911397D9
:103B1000AD012115310509F1D901F3CF9D01DA017C
:103B20003383228360817181860F971F82179307E9
:103B300069F4EC0128813981260F371F2E5F3F4F32
:103B4000318320838A819B8193838283452B29F44F
:103B5000F0939507E093940742C01396FC93EE937D
:103B60001297ED01499159919E01240F351FE217DB
:103B7000F30771F480819181840F951F029611964D
:103B80009C938E938281938113969C938E9312972C
:103B9000E0E0F0E0D80112968D919C911397009788
:103BA00019F0F8018C01F6CF8D919C9198012E5F50
:103BB0003F4F820F931F2091920730919307281750
:103BC000390769F4309729F41092950710929407F9
:103BD00002C0138212821093930700939207DF9121
:103BE000CF911F910F910895A0E0B0E0EAEFFDE1C1
:103BF0000C946C1CEC01009721F4CB010E94C71CB3
:103C0000B8C0FC01E60FF71F9C0122503109E217F2
:103C1000F30708F4ACC0D9010D911C911197061758
:103C20001707B0F00530110508F49FC0C8010497CC
:103C30008617970708F499C002501109061B170B45
:103C4000019311936D937C93CF010E945C1D8DC0F5
:103C50005B01A01AB10A4C01800E911EA09194073D
:103C6000B091950740E050E0E12CF12C109709F459
:103C70004AC0A815B905D1F56D907C9011976301E4
:103C800082E0C80ED11CCA14DB0480F1A3014A19DA
:103C90005B096A0182E0C80ED11C1296BC90129793
:103CA0001396AC91B5E0CB16D10440F0B282A38359
:103CB00051834083D9016D937C930AC00E5F1F4FDF
:103CC000C301800F911FF90191838083EB2DFA2F9F
:103CD000E114F10431F0D7011396FC93EE9312979F
:103CE00044C0F0939507E09394073FC08D919C9159
:103CF00011974817590708F4AC017D0112960D90F1
:103D0000BC91A02DB3CF8091920790919307881515
:103D10009905E1F446175707C8F480910005909182
:103D20000105009741F48DB79EB74091040550916D
:103D30000505841B950BE817F907C8F4F093930762
:103D4000E0939207F901718360830FC0CB010E9459
:103D5000C71C7C01009759F0A801BE010E94C31E38
:103D6000CE010E945C1DC70104C0CE0102C080E0EC
:103D700090E0CDB7DEB7EEE00C94881C81E090E0D7
:103D8000F8940C94D31EFB01DC0102C001900D924B
:103D900041505040D8F70895FB01DC0101900D928D
:0A3DA0000020E1F70895F894FFCF2A
:103DAA000000000000000000000000000000000009
:103DBA0000000000000000000000000000000000F9
:103DCA0000000000000000000000000000000000E9
:103DDA000000000000000000000000000000008059
:103DEA0080800000000000000000000000000000C9
:103DFA00008080C0C0000000000000000000000039
:103E0A0000000000000000000000000000000000A8
:103E1A000000000000000000000000000000000098
:103E2A000000000000000000000000000000000088
:103E3A000000000080C0E0F0F8FCF8E0000000009C
:103E4A0000000000000000000000000000808080E8
:103E5A00808000808000000000808080808000FFD9
:103E6A00FFFF00000000808080800000808000004A
:103E7A0080FFFF80800080800080808080008080BA
:103E8A000000000000808000008C8E84000080F812
:103E9A00F8F88000000000000000000000000000A8
:103EAA00F0F0F0F0F0F0F0F0F0F0F0F0E0E0C080C8
:103EBA0000E0FCFEFFFFFF7FFFFFFFFFFF000000A7
:103ECA000000000000000000000000FEFFC7010122
:103EDA00010183FFFF00007CFEC70101010183FF8E
:103EEA00FFFF0038FEC78301010183C7FFFF0000FF
:103EFA0001FFFF010100FFFF0701010100007FFF31
:103F0A0080000000FFFF7F0000FFFFFF000001FFAD
:103F1A00FFFF010000000000000000000000000098
:103F2A00030F3F7F7FFFFFFFFFFFFFFFE7C7C78F3B
:103F3A008F9FBFFFFFC3C0F0FFFFFFFFFFFCFCFC2A
:103F4A00FCFCFCFCFCF8F8F0F0E0C0000103030301
:103F5A00030301030300000000010303030301013B
:103F6A00030100000001030303030101030300002E
:103F7A00000303000000030300000000000000012A
:103F8A00030303030301000000010301000000030F
:103F9A000301000000000000000000000000000013
:103FAA0000000080C0E0F0F9FFFFFFFFFF3F1F0F96
:103FBA0087C7F7FFFF1F1F3DFCF8F8F8F87C7DFF65
:103FCA00FFFFFFFFFFFFFF7F3F0F070030300000BA
:103FDA0000000000000000000000000000000000D7
:103FEA0000000000FEFEFC000000000000000000CF
:103FFA0000000000000000000000000000E0C00017
:10400A000000000000000000000030300000000046
:10401A000000000000000000000000000000000096
:10402A0000C0FEFFFFFFFFFFFFFFFFFF7F7F3F1F75
:10403A000F071F7FFFFFF8F8FFFFFFFFFFFEF8E003
:10404A00000000010000000000000000FEFE000069
:10405A0000FCFEFC0C06060EFCF80000F0F81C0E34
:10406A000606060CFFFFFF0000FEFE00000000FC33
:10407A00FEFC00183C7E66E6CE84000006FFFF06C2
:10408A0006FCFEFC0C0606060000FEFE0000C0F858
:10409A00FC4E4646464E7C7840183C76E6CECC80AE
:1040AA000000000000000000000000000000000006
:1040BA000000000001070F1F1F3F3F3F3F1F0F0374
:1040CA000000000000000000000000000F0F0000C8
:1040DA00000F0F0F000000000F0F000003070E0C67
:1040EA0018180C060F0F0F0000010F0E0C180C0FFA
:1040FA00070100040E0C180C0F070000000F0F0038
:10410A00000F0F0F0000000000000F0F0000000753
:10411A00070C0C181C0C060600040E0C180C0F07D2
:10412A000000000000000000000000000000000085
:10413A000000000000000000000000000000000075
:10414A000000000000000000000000000000000065
:10415A000000000000000000000000000000000055
:10416A000000000000000000000000000000000045
:10417A000000000000000000000000000000000035
:10418A000000000000000000000000000000000025
:10419A000000000000000000000000000000000015
:1041AA00000096078000314E6F646532314E6F64AD
:1041BA006531000103070F1F3F7F0080C0E0F0F860
:1041CA00FCFE000000006811AA140011AF113111A1
:1041DA000F1123110000000099096909C90943094F
:1041EA00610952094409000000004112AA14C909D0
:1041FA00C809730812050B05E304FF04F304130549
:10420A00E2042A122912BD0517070904EB037403F5
:10421A0015035374617274696E672E2E2E000D0A8F
:10422A0000564C203A20005652203A200044495366
:10423A003A20004D4F443A20005374616E64617213
:10424A006400456E6368616E636564004D65617301
:06425A00757265640000AE
:107800000C94343C0C94513C0C94513C0C94513CE1
:107810000C94513C0C94513C0C94513C0C94513CB4
:107820000C94513C0C94513C0C94513C0C94513CA4
:107830000C94513C0C94513C0C94513C0C94513C94
:107840000C94513C0C94513C0C94513C0C94513C84
:107850000C94513C0C94513C0C94513C0C94513C74
:107860000C94513C0C94513C11241FBECFEFD8E036
:10787000DEBFCDBF11E0A0E0B1E0ECE9FFE702C060
:1078800005900D92A230B107D9F712E0A2E0B1E065
:1078900001C01D92AD30B107E1F70E942D3D0C945F
:1078A000CC3F0C94003C982F959595959595959582
:1078B000905D8F708A307CF0282F295A8091C0000B
:1078C00085FFFCCF9093C6008091C00085FFFCCF60
:1078D0002093C6000895282F205DF0CF982F809127
:1078E000C00085FFFCCF9093C6000895EF92FF92F1
:1078F0000F931F93EE24FF2487018091C00087FD22
:1079000017C00894E11CF11C011D111D81E4E8164B
:1079100082E4F8068FE0080780E0180770F3E09132
:107920000401F091050109958091C00087FFE9CF1E
:107930008091C6001F910F91FF90EF9008950E94D3
:10794000763C982F8091C00085FFFCCF9093C600B5
:1079500091362CF490330CF09053892F089597555D
:10796000892F08951F930E949F3C182F0E949F3CCF
:107970001295107F810F1F9108951F93182F882350
:1079800021F00E94763C1150E1F71F9108951F935A
:10799000182F0E94763C803249F0809103018F5F5E
:1079A000809303018530C1F01F9108958091C0003C
:1079B00085FFFCCF84E18093C6008091C00085FFE5
:1079C000FCCF1093C6008091C00085FFFCCF80E102
:1079D0008093C6001F910895E0910401F091050184
:1079E00009951F9108950E94763C803241F0809164
:1079F00003018F5F80930301853081F008958091AA
:107A0000C00085FFFCCF84E18093C6008091C00058
:107A100085FFFCCF80E18093C6000895E0910401CA
:107A2000F09105010995089540E951E08823A1F0FE
:107A30002D9A28EE33E0FA013197F1F721503040CA
:107A4000D1F72D9828EE33E0FA013197F1F7215064
:107A50003040D1F7815061F708953F924F925F9285
:107A60006F927F928F929F92AF92BF92CF92DF924E
:107A7000EF92FF920F931F93CF93DF93000080E16B
:107A80008093C4001092C50088E18093C10086E015
:107A90008093C2005098589A259A81E00E94143D24
:107AA00024E1F22E9EE1E92E85E9D82E0FE0C02ECA
:107AB00010E1B12EAA24A394B1E49B2EA6E58A2E50
:107AC000F2E57F2EE0E26E2E79E4572E63E5462E36
:107AD00050E5352E0E94763C8033B1F18133B9F107
:107AE000803409F46FC0813409F476C0823409F41B
:107AF00085C0853409F488C0803531F1823521F1A3
:107B0000813511F1853509F485C0863509F48DC0BC
:107B1000843609F496C0843709F403C1853709F423
:107B200072C1863709F466C0809103018F5F80932C
:107B30000301853079F6E0910401F0910501099582
:107B40000E94763C803351F60E94F33CC3CF0E94E2
:107B5000763C803249F78091C00085FFFCCFF092DF
:107B6000C6008091C00085FFFCCF9092C600809136
:107B7000C00085FFFCCF8092C6008091C00085FFC9
:107B8000FCCF7092C6008091C00085FFFCCF609250
:107B9000C6008091C00085FFFCCF5092C600809146
:107BA000C00085FFFCCF4092C6008091C00085FFD9
:107BB000FCCF3092C6008091C00085FFFCCFB09210
:107BC000C60088CF0E94763C863808F4BDCF0E945C
:107BD000763C0E94F33C7ECF0E94763C803809F4CC
:107BE0009CC0813809F40BC1823809F43CC1883942
:107BF00009F48FC080E00E94C73C6CCF84E10E94F2
:107C0000BD3C0E94F33C66CF85E00E94BD3C0E94D3
:107C1000F33C60CF0E94763C809306010E94763C44
:107C2000809307010E94F33C55CF0E94763C80333D
:107C300009F41DC183E00E94BD3C80E00E94C73C66
:107C400049CF0E94763C809309020E94763C809343
:107C5000080280910C028E7F80930C020E94763C79
:107C6000853409F415C18091080290910902892B8D
:107C700089F000E010E00E94763CF801E85FFE4FDA
:107C800080830F5F1F4F80910802909109020817AF
:107C9000190788F30E94763C803209F045CF809125
:107CA0000C0280FF01C16091060170910701660F0F
:107CB000771F7093070160930601A0910802B091AD
:107CC00009021097C9F0E8E0F1E09B01AD014E0F09
:107CD0005F1FF999FECF32BD21BD819180BDFA9A17
:107CE000F99A2F5F3F4FE417F50799F76A0F7B1F4B
:107CF00070930701609306018091C00085FFFCCF5F
:107D0000F092C6008091C00085FFFCCFB092C60003
:107D1000E1CE83E00E94C73CDDCE82E00E94C73CFA
:107D2000D9CE0E94763C809309020E94763C8093D3
:107D300008028091060190910701880F991F909386
:107D40000701809306010E94763C853409F4A6C0A1
:107D500080910C028E7F80930C020E94763C8032D0
:107D600009F0B8CE8091C00085FFFCCFF092C6002C
:107D7000609108027091090261157105B9F140E046
:107D800050E080910C02A82FA170B82FB27011C0E2
:107D9000BB2309F45CC0E0910601F0910701319624
:107DA000F0930701E09306014F5F5F4F46175707B7
:107DB000E8F4AA2369F3F999FECF209106013091E6
:107DC000070132BD21BDF89A90B58091C00085FFB2
:107DD000FCCF9093C6002F5F3F4F30930701209355
:107DE00006014F5F5F4F4617570718F38091C00099
:107DF00085FDE5CE8091C00085FFF8CFE0CE81E023
:107E00000E94C73C67CE0E94763C803209F08CCE3F
:107E10008091C00085FFFCCFF092C6008091C00029
:107E200085FFFCCFE092C6008091C00085FFFCCFAB
:107E3000D092C6008091C00085FFFCCFC092C600E2
:107E40008091C00085FFFCCFB092C60043CEE09188
:107E50000601F091070194918091C00085FFFCCF4D
:107E60009093C6009CCF80E10E94C73C33CE0E9415
:107E7000763C0E94763C182F0E94763C112309F430
:107E800083C0113009F484C08FE00E94C73C22CE29
:107E900080910C02816080930C02E5CE80910C02EF
:107EA000816080930C0259CF809107018823880F4D
:107EB000880B8A2180930B02809106019091070123
:107EC000880F991F90930701809306018091080203
:107ED00080FF09C080910802909109020196909359
:107EE000090280930802F894F999FECF1127E091D6
:107EF0000601F0910701C8E0D1E08091080290915D
:107F00000902103091F40091570001700130D9F34B
:107F100003E000935700E89500915700017001308D
:107F2000D9F301E100935700E89509901990009169
:107F3000570001700130D9F301E000935700E89534
:107F40001395103498F011270091570001700130FB
:107F5000D9F305E000935700E895009157000170B0
:107F60000130D9F301E100935700E895329602976A
:107F700009F0C7CF103011F00296E5CF112480919F
:107F8000C00085FFB9CEBCCE8EE10E94C73CA2CD19
:0C7F900085E90E94C73C9ECDF894FFCF0D
:027F9C00800063
:040000030000780081
:00000001FF