:100000000C9465000C948D000C948D000C948D0064
:100010000C948D000C948D000C948D000C948D002C
:100020000C948D000C948D000C948D000C948D001C
:100030000C948D000C948D000C948D000C948D000C
:100040000C94C7030C948D000C94D1010C94C70739
:100050000C948D000C948D000C948D000C948D00EC
:100060000C948D000C948D000000000025002800E9
:100070002B000000000023002600290000000008DB
:10008000000201000003040700000000000000005F
:1000900000000000240027002A00010204081020AC
:1000A000408001020408102001020408102004040A
:1000B0000404040404040202020202020303030310
:1000C00003030001020304050B0811241FBECFEF38
:1000D000D8E0DEBFCDBF26E0AEE3B1E001C01D92A7
:1000E000A431B207E1F711E0A0E0B1E0EEE1FAE1FE
:1000F00002C005900D92AE33B107D9F710E0C5E606
:10010000D0E004C02197FE010E940B0BC436D1073A
:10011000C9F70E9465080C940D0D0C940000089519
:1001200080E090E00895FC01538D448D252F30E050
:10013000842F90E0821B930B541710F0CF960895F4
:1001400001970895FC01918D828D981761F0828D41
:10015000DF01A80FB11D5D968C91928D9F5F9F73FB
:10016000928F90E008958FEF9FEF0895FC01918D9D
:10017000828D981731F0828DE80FF11D858D90E00A
:1001800008958FEF9FEF0895FC01918D228D892FA7
:1001900090E0805C9F4F821B91098F73992708958F
:1001A00080E090E0892B29F00E94EA0581110C94EF
:1001B00000000895833081F028F4813099F0823076
:1001C000A1F008958730A9F08830B9F08430D1F4D7
:1001D000809180008F7D03C0809180008F77809315
:1001E0008000089584B58F7702C084B58F7D84BD6B
:1001F00008958091B0008F7703C08091B0008F7D0B
:100200008093B00008958E3008F08E50877080641F
:1002100080937C0080917A00806480937A00809142
:100220007A0086FDFCCF809178002091790090E0E3
:10023000922B0895EF92FF920F931F93CF93DF932A
:10024000CDB7DEB72E970FB6F894DEBF0FBECDBF89
:100250001A8619861C861B861E861D8660E070E045
:10026000CE0109960E94330729853A8581110DC078
:100270002115310519F0C9010E94A90B1A861986AA
:100280001E861D861C861B8607C01E861D8660E393
:1002900071E0C9010E94060D60914301CE010996EB
:1002A0000E949C07CE0109960E9488076091440134
:1002B000CE0109960E949C07CE0109960E948807EC
:1002C00060914501CE0109960E949C07CE010996D6
:1002D0000E94880760914601CE0109960E949C0702
:1002E000CE0109960E94880760914A01CE010996C5
:1002F0000E949C07CE0109960E94880760914C01DC
:10030000CE0109960E949C07CE0109960E9488079B
:100310004FE050E06EE171E0CE0109960E945A076D
:1003200000E010E0CE0101967C0180914D0190E04B
:10033000002E02C0959587950A94E2F74AE0B7012E
:10034000817099270E949F0AF70101900020E9F728
:100350003197AF014E195F09B701CE0109960E948E
:100360005A070F5F1F4F08301105F9F64D855E855E
:1003700069857A8584E691E00E94C0050E942B077A
:1003800089859A850E94A90B2E960FB6F894DEBF38
:100390000FBECDBFDF91CF911F910F91FF90EF90D6
:1003A00008951F920F920FB60F9211242F938F93DF
:1003B0009F93EF93FF93E0917401F0917501808119
:1003C000E0917A01F0917B0182FD12C090818091D1
:1003D0007D018F5F8F7320917E01821751F0E09134
:1003E0007D01F0E0EC59FE4F958F80937D0101C0B7
:1003F0008081FF91EF919F918F912F910F900FBE70
:100400000F901F901895FC01848DDF01A80FB11D7E
:10041000A35ABF4F2C91848D90E001968F7399273A
:10042000848FA689B7892C93A089B1898C91837018
:1004300080648C93938D848D981306C00288F38911
:10044000E02D80818F7D80830895EF92FF920F933E
:100450001F93CF93DF93EC0181E0888F9B8D8C8D70
:10046000981305C0E889F989808185FD26C0F62E9C
:100470000B8D10E00F5F1F4F0F731127E02E8C8D37
:10048000E8120CC00FB607FCFACFE889F989808121
:1004900085FFF5CFCE010E940302F1CF8B8DFE01C7
:1004A000E80FF11DE35AFF4FF0829FB7F8940B8FCE
:1004B000EA89FB89808180620AC09FB7F894EE893F
:1004C000FF896083E889F9898081837080648083F3
:1004D0009FBF81E090E0DF91CF911F910F91FF903E
:1004E000EF900895CF93DF93EC01888D8823C9F0B6
:1004F000EA89FB89808185FD05C0A889B9898C912D
:1005000086FD0FC00FB607FCF5CF808185FFF2CFC7
:10051000A889B9898C9185FFEDCFCE010E94030295
:10052000E7CFDF91CF910895CF93DF93282F30E06D
:10053000F901E458FF4F8491F901E656FF4FD49139
:10054000F901E255FF4FC491CC2391F081110E9433
:10055000DA00EC2FF0E0EE0FFF1FEE58FF4FA591F1
:10056000B491EC91ED2381E090E021F480E002C0B1
:1005700080E090E0DF91CF91089581E00E94030137
:1005800097FD03969595879595958795809344015A
:1005900080E00E94030197FD0396959587959595B8
:1005A00087958093430183E00E94030197FD0396A2
:1005B00095958795959587958093460182E00E9451
:1005C000030197FD0396959587959595879580935B
:1005D000450186E00E94030197FD03969595879556
:1005E0009595879580934A0180915F0180934C0196
:1005F00084E00E94940220914D019195819591098A
:100600008227817099278227909159019195982787
:100610009270982780915801819589278470892745
:1006200090915E01919598279870892780934D014C
:100630008091420180934E018F5F80934201089523
:100640001F93CF93DF93282F30E0F901E458FF4F39
:100650008491F901E656FF4FD491F901E255FF4F1D
:10066000C491CC23C1F0162F81110E94DA00EC2F27
:10067000F0E0EE0FFF1FE859FF4FA591B4919FB72F
:10068000F894111104C08C91D095D82302C0EC913C
:10069000DE2BDC939FBFDF91CF911F910895CF9305
:1006A000DF9390E0FC01E656FF4F2491FC01E255F8
:1006B000FF4F8491882361F190E0880F991FFC011E
:1006C000E057FF4FC591D491FC01E859FF4FA59128
:1006D000B491611109C09FB7F89488812095822355
:1006E0008883EC912E230BC0623061F49FB7F8949D
:1006F0008881322F309583238883EC912E2B2C9385
:100700009FBF06C08FB7F894E8812E2B28838FBF38
:10071000DF91CF9108958230910538F0880F991FAD
:10072000880F991F05970197F1F708953FB7F8943F
:100730008091540190915501A0915601B0915701BB
:1007400026B5A89B05C02F3F19F00196A11DB11D2C
:100750003FBFBA2FA92F982F8827820F911DA11D67
:10076000B11DBC01CD0142E0660F771F881F991FA4
:100770004A95D1F708952FB7F89460915001709180
:10078000510180915201909153012FBF08951F9202
:100790000F920FB60F9211242F933F938F939F9335
:1007A000AF93BF938091500190915101A09152015C
:1007B000B091530130914F0123E0230F2D3720F4E6
:1007C0000196A11DB11D05C026E8230F0296A11DAB
:1007D000B11D20934F018093500190935101A0933C
:1007E0005201B09353018091540190915501A09111
:1007F0005601B09157010196A11DB11D809354017E
:1008000090935501A0935601B0935701BF91AF91BA
:100810009F918F913F912F910F900FBE0F901F903E
:1008200018958EBD00000DB407FEFDCF8EB508955E
:100830000F931F93CF93DF930E94FD06C091080290
:10084000DC2FCD3008F0DCE080910902811102C07C
:10085000CD1B01C0C0E080E00E942D0680EA0E940E
:10086000110403E411E0D15030F0F80181918F01BF
:100870000E941104F8CFCC2329F080E00E941104DB
:10088000C150F9CF81E00E942D0681E00E94E00670
:100890008FEF0E9447068073D9F380E00E94E00644
:1008A00060E787E00E946C0684FD0E9456060E9465
:1008B000F00680E00E945906682F616080E00E9487
:1008C0006C0660E787E00E946C0681E00E94E0060B
:1008D00080910A02882341F040910F026AE072E0A1
:1008E0008AE00E94B90612C082E00E945906E2EC3A
:1008F000F0E0E49121E030E001C0220FEA95EAF750
:100900002095622F682382E00E946C068DE10E9490
:10091000590681FF06C0DF91CF911F910F910C9472
:100920005606DF91CF911F910F910895EF92FF929C
:100930000F931F93CF93DF937C01A8ECEA0EF11C79
:10094000D701ED91FC913A9768F4FC0100E010E0CA
:10095000A481B581AB2B49F00F5F1F4F74960A300D
:100960001105B1F78FEF9FEF26C021153105D1F3A7
:10097000A4E1A09FF001A19FF00D1124EC01CE0F86
:10098000DF1F49875A876B877C873D832C831F82B3
:100990001E8218861E861D8681E0898B0E94BB03FD
:1009A000688379838A839B83F70180819181019693
:1009B00091838083C801DF91CF911F910F91FF90A8
:1009C000EF9008954F925F926F927F928F929F92D5
:1009D000AF92BF92CF92DF92EF92FF920F931F934D
:1009E000CF93DF938C010E94BB036B017C01E80174
:1009F00008531F4FFE0121E030E042E050E0138A2F
:100A0000128A84819581892BA1F180809180A280B6
:100A1000B38081859285A385B48526013701481866
:100A200059086A087B08481659066A067B0608F1C9
:100A3000880D991DAA1DBB1D80839183A283B3835A
:100A400081898823B1F0A585B685109719F4338B79
:100A5000228B0FC0878590898A179B0750F4338BB0
:100A6000228B0196908B87878A179B0710F0538BF8
:100A7000428B7496E017F10711F684E1F82E8A890B
:100A80009B89892B41F18885EC81FD81882321F0A8
:100A90008E819F81099501C009958A899B8902975A
:100AA000D1F4F80180819181892BA9F08C819D81FD
:100AB000892B89F0FE018F2D11928A95E9F70E940A
:100AC000BB03688379838A839B83F801808191814A
:100AD0000197918380836496C017D10781F6DF91D7
:100AE000CF911F910F91FF90EF90DF90CF90BF902B
:100AF000AF909F908F907F906F905F904F900895F0
:100B0000CF92DF92EF92FF921F93CF93DF93182F34
:100B1000EB010E94BB036B017C01812F0E949402B8
:100B2000892B31F580913E0190913F01A0914001C8
:100B3000B0914101A7019601281B390B4A0B5B0BB1
:100B4000DA01C90180399140A105B10588F0812FF2
:100B50000E949402892B21F4988181E0892788835F
:100B6000C0923E01D0923F01E0924001F0924101DB
:100B7000DF91CF911F91FF90EF90DF90CF9008957C
:100B8000CF92DF92EF92FF920F931F93CF93DF9359
:100B90006C017A018B01C0E0D0E0CE15DF0581F059
:100BA000D8016D918D01D601ED91FC910190F081FC
:100BB000E02DC6010995892B11F02196EECF7E011B
:100BC000C701DF91CF911F910F91FF90EF90DF90C0
:100BD000CF90089584E691E00E94C40021E0892B23
:100BE00009F420E0822F08958F929F92AF92BF92D6
:100BF000CF92DF92EF92FF920E9496034B015C012D
:100C000085E0C82ED12CE12CF12C0E949603DC014A
:100C1000CB0188199909AA09BB09883E9340A1050F
:100C2000B10598F321E0C21AD108E108F10888EE75
:100C3000880E83E0981EA11CB11CC114D104E104EC
:100C4000F10419F7FF90EF90DF90CF90BF90AF9035
:100C50009F908F9008950E94F80CCF93DF939CB5DE
:100C60009F7D9CBD9CB5937F9CBD9CB59C7F9CBD8E
:100C70009DB591609DBDC1E0D2E0682F8A810E9440
:100C800020038C899D89DF91CF910C948B03CF93A6
:100C9000C82F80E00E942D068C2F0E941104C82FBF
:100CA00081E00E942D068C2FCF91089581EE0C9447
:100CB0004706CF93C82F80E00E942D068C2F8F719E
:100CC0000E9411048FEF0E941104C82F81E00E943E
:100CD0002D068C2FCF910895CF93DF93C82FD62F59
:100CE00080E00E942D068C2F8F7180620E9411047B
:100CF000C82F8D2F0E94110481E00E942D068C2F99
:100D0000DF91CF9108950F931F93CF938C0186E0CD
:100D10000E945906C82FC77D0230110531F4C06208
:100D20008BE990E0A0E0B0E00DC00130110529F0A2
:100D300085E590E0A0E0B0E005C0C86081E490E007
:100D4000A0E0B0E08093110290931202A0931302EE
:100D5000B09314026C2F86E00E946C0686E00E941D
:100D6000590691E0C81390E0892FCF911F910F9100
:100D70000895EF92FF920F931F93CF93DF93182F55
:100D80007B01C42F80E00E942D06812F8F7180622D
:100D90000E941104D82F8701CC2339F0F8018191EA
:100DA0008F010E941104C150F7CF81E00E942D06EF
:100DB0008D2FDF91CF911F910F91FF90EF900895AC
:100DC00020910102309102024091030250910402ED
:100DD0002417350721F0682F822F0C9420030895E3
:100DE00080E00E94590681FD07C0682F626080E0A4
:100DF0000E946C060C94F405089580E00E94E006C1
:100E000080911102909112020E948B038DE10E9449
:100E1000590681FF08C080911102909112020E9430
:100E20008B030E94560680E00E945906682F6E7F51
:100E300080E00E946C0682E00E945906E2ECF0E03D
:100E4000E49161E070E001C0660FEA95EAF7682B73
:100E500082E00C946C0642E050E06EE271E084E6C1
:100E600091E00C94C0050F931F93CF93DF93EC0197
:100E700088819981009729F02A813B8126173707BD
:100E800088F48B016F5F7F4F0E94320C009761F0F6
:100E9000998388831B830A832C813D81232B11F442
:100EA000FC01108281E001C080E0DF91CF911F91B1
:100EB0000F910895EF92FF920F931F93CF93DF93BB
:100EC0006115710511F480E01CC041155105C1F098
:100ED0007B01EC018C819D818A01080F191FB801EB
:100EE000CE010E943307882371F3288139818C81D8
:100EF0009D81B701820F931F0E94060D1D830C83F5
:100F000081E0DF91CF911F910F91FF90EF900895B5
:100F1000CF93DF9300D0CDB7DEB720E229831A82CA
:100F200041E050E0BE016F5F7F4F0E945A070F9073
:100F30000F90DF91CF910895EF92FF920F931F933F
:100F4000CF93DF9300D000D0CDB7DEB77C01862FE2
:100F50004AE08E010F5F1F4FB80190E00E949F0A88
:100F6000F80101900020E9F73197AF01401B510BC8
:100F7000B801C7010E945A070F900F900F900F9071
:100F8000DF91CF911F910F91FF90EF9008951F92E5
:100F90000F920FB60F9211242F933F934F935F93AD
:100FA0006F937F938F939F93AF93BF93EF93FF9331
:100FB00084E691E00E940302FF91EF91BF91AF910F
:100FC0009F918F917F916F915F914F913F912F9161
:100FD0000F900FBE0F901F901895CF93DF93D82FCF
:100FE000C92F0E94BB03ED2FFC2FAF0148535F4F69
:100FF00024E1DF01322F1D923A95E9F76083718376
:10100000828393837496E417F50799F7118210820F
:10101000DF91CF910895E4E6F1E01382128288EE29
:1010200093E0A0E0B0E084839583A683B78380E15A
:1010300091E09183808385EC90E09587848784ECB0
:1010400090E09787868780EC90E0918B808B81EC95
:1010500090E0938B828B82EC90E0958B848B86EC76
:1010600090E0978B868B118E128E138E148E86E4F1
:1010700095E00E94ED078CE794E00E94ED0782EB7B
:1010800093E00E94ED0788EE92E00E94ED078EE16A
:1010900092E00E94ED07E1E0F2E087E090E09183CA
:1010A000808388E090E093838283168280E2878346
:1010B000108685E0868785E090E0A0E0B0E0848B34
:1010C000958BA68BB78B11860895789484B5826032
:1010D00084BD84B5816084BD85B5826085BD85B5DC
:1010E000816085BD80916E00816080936E0010925A
:1010F00081008091810082608093810080918100D5
:101100008160809381008091800081608093800065
:101110008091B10084608093B1008091B0008160C3
:101120008093B00080917A00846080937A008091EF
:101130007A00826080937A0080917A008160809347
:101140007A0080917A00806880937A001092C100C2
:10115000E0917401F091750182E08083E09170016B
:10116000F09171011082E0917201F09173018FECA6
:10117000808310927C01E0917801F091790186E002
:101180008083E0917601F091770180818061808396
:10119000E0917601F0917701808188608083E09111
:1011A0007601F0917701808180688083E0917601FB
:1011B000F091770180818F7D80834BE050E061E387
:1011C00071E084E691E00E94C0050E942B0762E076
:1011D00084E00E944F0362E082E00E944F0362E0DD
:1011E00083E00E944F0362E089E00E944F0362E0C7
:1011F00086E00E944F0362E085E00E944F038091E9
:1012000001029091020220910302309104028217A0
:10121000930719F061E00E944F03809103029091BF
:10122000040220910102309102022817390719F0B7
:1012300061E00E944F03CFB7F894809119028111A9
:1012400027C0E8EBF0E08491E4EAF0E09491E82F25
:10125000F0E0EE0FFF1FE057FF4FA591B491EC9126
:10126000E92321F461E08AE00E94200361E08AE042
:101270000E944F038CB580618CBD8CB580648CBDA1
:1012800061E08DE00E944F0361E08BE00E944F031C
:10129000809119028F5F80931902CFBF80E00E9476
:1012A000E00681E00E942D060E94F4056CE080E0DB
:1012B0000E946C066FE584E00E946C0682E090E07C
:1012C0000E948306882319F081E08093070286E05C
:1012D0000E94590680E090E00E94830680E00E9410
:1012E0002D0680E50E94110483E70E94110481E02D
:1012F0000E942D0660E08DE10E946C0660E08CE1AA
:101300000E946C061092090260E787E00E946C065A
:101310006CE485E00E946C0682EE0E9447060E9403
:1013200056060E94F00680E00E945906682F6E7FE4
:1013300080E00E946C0680E090E00E94830665E2F7
:1013400084E00E946C0660E085E00E946C0640919B
:101350000F0266E071E08AE00E94B90640910F0238
:1013600066E071E080E10E94B9066091080281E1C7
:101370000E946C060E94FD062AE131E044EF51E034
:1013800060E070E086E495E00E9496042DEB32E088
:1013900048EC50E060E070E082EB93E00E9496043D
:1013A00028E134E04AEF50E060E070E088EE92E03F
:1013B0000E9496040E94BB036093600170936101D8
:1013C000809362019093630182EB93E00E94E204B8
:1013D00088EE92E00E94E20486E495E00E94E20436
:1013E00069E571E082E00E94800568E571E083E0D4
:1013F0000E9480056EE571E089E00E94800586E02C
:101400000E94940221E0892B09F420E020935A01E4
:1014100085E00E94940221E0009709F420E02093E7
:101420005C01E0915B0120915A01E11106C0222389
:1014300009F470C0009709F550C0222319F021115A
:1014400069C033C0009789F54091600150916101F6
:101450006091620170916301C0901A02D0901B02EA
:10146000E0901C02F0901D024C195D096E097F0985
:101470004739510561057105C0F0409160015091F7
:101480006101609162017091630140931A0250936F
:101490001B0260931C0270931D0230915F0131505A
:1014A00030935F01E111CBCF18C0892B99F1809166
:1014B000600190916101A0916201B09163018093FC
:1014C0001A0290931B02A0931C02B0931D028091FC
:1014D0005F018F5F80935F011DC02223D9F0892BAC
:1014E000C9F48091600190916101A0916201B09175
:1014F000630140911A0250911B0260911C0270918D
:101500001D02841B950BA60BB70B87399105A1050E
:10151000B10568F686E00E94940221E0892B09F467
:1015200020E020935B0185E00E94940221E0892B5A
:1015300009F420E020935D010E94D0003BCFBB273F
:101540004A3031F4992322F4BDE2909581959F4F62
:101550000C94AB0ABB27FB015527AA27880F991FBC
:10156000AA1FA41710F0A41B83955051B9F7A05DD2
:10157000AA3308F0A95DA193009779F7B111B1934F
:101580001192CB010C94C40ADC01FC01672F71910C
:101590007723E1F7329704C07C916D937083629159
:1015A000AE17BF07C8F308952F923F924F925F92F4
:1015B0006F927F928F929F92AF92BF92CF92DF9263
:1015C000EF92FF920F931F93CF93DF93CDB7DEB7C8
:1015D000CA1BDB0B0FB6F894DEBF0FBECDBF09945C
:1015E0002A88398848885F846E847D848C849B84B3
:1015F000AA84B984C884DF80EE80FD800C811B81C1
:10160000AA81B981CE0FD11D0FB6F894DEBF0FBEEF
:10161000CDBFED010895EE0FFF1F0590F491E02D71
:1016200009940F931F93CF93DF938230910510F4A9
:1016300082E090E0E0911206F091130620E030E0A5
:10164000A0E0B0E0309719F140815181028113810F
:1016500048175907C8F08417950769F4109731F0B7
:1016600012960C93129713961C9327C000931206A0
:101670001093130622C02115310519F042175307A4
:1016800018F49A01BD01EF01DF01F801DBCF21154C
:101690003105F9F0281B390B2430310580F48A819B
:1016A0009B816115710521F0FB019383828304C046
:1016B0009093130680931206FE01329644C0FE01F9
:1016C000E20FF31F819391932250310939832883CC
:1016D0003AC02091100630911106232B41F420913D
:1016E00002013091030130931106209310062091DE
:1016F0000001309101012115310541F42DB73EB7AC
:101700004091040150910501241B350BE091100616
:10171000F0911106E217F307A0F42E1B3F0B2817D8
:10172000390778F0AC014E5F5F4F2417350748F05A
:101730004E0F5F1F509311064093100681939193B3
:1017400002C0E0E0F0E0CF01DF91CF911F910F9157
:101750000895CF93DF93009709F481C0FC0132977D
:1017600013821282A0911206B0911306109781F491
:1017700020813181820F931F209110063091110634
:101780002817390751F5F0931106E093100667C04A
:10179000ED0120E030E0CE17DF0740F44A815B81A5
:1017A0009E0141155105F1F0EA01F5CFD383C283C3
:1017B00040815181840F951FC817D90759F488813A
:1017C0009981840F951F0296918380838A819B81E2
:1017D000938382832115310529F4F0931306E09356
:1017E00012063DC0E901FB83EA8349915991C40F78
:1017F000D51FEC17FD0761F480819181840F951F3F
:101800000296E90199838883828193819B838A83ED
:10181000E0E0F0E012968D919C911397009719F0FB
:10182000FD01DC01F7CF8D919C9111979D012E5FF9
:101830003F4F820F931F20911006309111062817F9
:10184000390769F4309729F41092130610921206A2
:1018500002C013821282B0931106A0931006DF918A
:10186000CF910895A0E0B0E0E8E3FCE00C94D80A42
:10187000EC01009721F4CB010E94110BB4C0FC01D4
:10188000E60FF71F9C0122503109E217F30708F415
:10189000A8C0D9010D911C91119706171707B0F038
:1018A0000530110508F49BC0C801049786179707F7
:1018B00008F495C002501109061B170B01931193F0
:1018C0006D937C93CF010E94A90B89C05B01A01A84
:1018D000B10A4C01800E911EA0911206B091130620
:1018E000612C712CE12CF12C109709F446C08D91DC
:1018F0009C911197A815B905B1F56C0142E0C40E91
:10190000D11CCA14DB0478F14C018A189B086401CD
:1019100042E0C40ED11C1296BC9012971396AC9163
:10192000B5E0CB16D10440F0B282A38391828082CD
:10193000D9016D937C9309C00E5F1F4F800F911FDB
:10194000F90191838083EB2DFA2FE114F10431F03A
:10195000D7011396FC93EE93129741C0F0931306B0
:10196000E09312063CC06816790608F43C017D013C
:1019700012960D90BC91A02DB7CF8091100690913A
:10198000110688169906E1F466167706C8F4809168
:10199000000190910101009741F48DB79EB74091ED
:1019A000040150910501841B950BE817F907C8F451
:1019B000F0931106E0931006F901718360830FC064
:1019C000CB010E94110B7C01009759F0A801BE01C8
:1019D0000E94FD0CCE010E94A90BC70104C0CE01DC
:1019E00002C080E090E0CDB7DEB7EEE00C94F40AE0
:1019F00081E090E0F8940C940D0DFB01DC0102C035
:101A000001900D9241505040D8F70895FB01DC0140
:0E1A100001900D920020E1F70895F894FFCFA9
:101A1E00000014068000314E6F6465310000000036
:101A2E002502C00593007202C400A200B6005B53EB
:101A3E002C204C2C20522C2052455D3A20000D0AB1
:0E1A4E00005374617274696E672E2E2E0000B4
:107800000C94343C0C94513C0C94513C0C94513CE1
:107810000C94513C0C94513C0C94513C0C94513CB4
:107820000C94513C0C94513C0C94513C0C94513CA4
:107830000C94513C0C94513C0C94513C0C94513C94
:107840000C94513C0C94513C0C94513C0C94513C84
:107850000C94513C0C94513C0C94513C0C94513C74
:107860000C94513C0C94513C11241FBECFEFD8E036
:10787000DEBFCDBF11E0A0E0B1E0ECE9FFE702C060
:1078800005900D92A230B107D9F712E0A2E0B1E065
:1078900001C01D92AD30B107E1F70E942D3D0C945F
:1078A000CC3F0C94003C982F959595959595959582
:1078B000905D8F708A307CF0282F295A8091C0000B
:1078C00085FFFCCF9093C6008091C00085FFFCCF60
:1078D0002093C6000895282F205DF0CF982F809127
:1078E000C00085FFFCCF9093C6000895EF92FF92F1
:1078F0000F931F93EE24FF2487018091C00087FD22
:1079000017C00894E11CF11C011D111D81E4E8164B
:1079100082E4F8068FE0080780E0180770F3E09132
:107920000401F091050109958091C00087FFE9CF1E
:107930008091C6001F910F91FF90EF9008950E94D3
:10794000763C982F8091C00085FFFCCF9093C600B5
:1079500091362CF490330CF09053892F089597555D
:10796000892F08951F930E949F3C182F0E949F3CCF
:107970001295107F810F1F9108951F93182F882350
:1079800021F00E94763C1150E1F71F9108951F935A
:10799000182F0E94763C803249F0809103018F5F5E
:1079A000809303018530C1F01F9108958091C0003C
:1079B00085FFFCCF84E18093C6008091C00085FFE5
:1079C000FCCF1093C6008091C00085FFFCCF80E102
:1079D0008093C6001F910895E0910401F091050184
:1079E00009951F9108950E94763C803241F0809164
:1079F00003018F5F80930301853081F008958091AA
:107A0000C00085FFFCCF84E18093C6008091C00058
:107A100085FFFCCF80E18093C6000895E0910401CA
:107A2000F09105010995089540E951E08823A1F0FE
:107A30002D9A28EE33E0FA013197F1F721503040CA
:107A4000D1F72D9828EE33E0FA013197F1F7215064
:107A50003040D1F7815061F708953F924F925F9285
:107A60006F927F928F929F92AF92BF92CF92DF924E
:107A7000EF92FF920F931F93CF93DF93000080E16B
:107A80008093C4001092C50088E18093C10086E015
:107A90008093C2005098589A259A81E00E94143D24
:107AA00024E1F22E9EE1E92E85E9D82E0FE0C02ECA
:107AB00010E1B12EAA24A394B1E49B2EA6E58A2E50
:107AC000F2E57F2EE0E26E2E79E4572E63E5462E36
:107AD00050E5352E0E94763C8033B1F18133B9F107
:107AE000803409F46FC0813409F476C0823409F41B
:107AF00085C0853409F488C0803531F1823521F1A3
:107B0000813511F1853509F485C0863509F48DC0BC
:107B1000843609F496C0843709F403C1853709F423
:107B200072C1863709F466C0809103018F5F80932C
:107B30000301853079F6E0910401F0910501099582
:107B40000E94763C803351F60E94F33CC3CF0E94E2
:107B5000763C803249F78091C00085FFFCCFF092DF
:107B6000C6008091C00085FFFCCF9092C600809136
:107B7000C00085FFFCCF8092C6008091C00085FFC9
:107B8000FCCF7092C6008091C00085FFFCCF609250
:107B9000C6008091C00085FFFCCF5092C600809146
:107BA000C00085FFFCCF4092C6008091C00085FFD9
:107BB000FCCF3092C6008091C00085FFFCCFB09210
:107BC000C60088CF0E94763C863808F4BDCF0E945C
:107BD000763C0E94F33C7ECF0E94763C803809F4CC
:107BE0009CC0813809F40BC1823809F43CC1883942
:107BF00009F48FC080E00E94C73C6CCF84E10E94F2
:107C0000BD3C0E94F33C66CF85E00E94BD3C0E94D3
:107C1000F33C60CF0E94763C809306010E94763C44
:107C2000809307010E94F33C55CF0E94763C80333D
:107C300009F41DC183E00E94BD3C80E00E94C73C66
:107C400049CF0E94763C809309020E94763C809343
:107C5000080280910C028E7F80930C020E94763C79
:107C6000853409F415C18091080290910902892B8D
:107C700089F000E010E00E94763CF801E85FFE4FDA
:107C800080830F5F1F4F80910802909109020817AF
:107C9000190788F30E94763C803209F045CF809125
:107CA0000C0280FF01C16091060170910701660F0F
:107CB000771F7093070160930601A0910802B091AD
:107CC00009021097C9F0E8E0F1E09B01AD014E0F09
:107CD0005F1FF999FECF32BD21BD819180BDFA9A17
:107CE000F99A2F5F3F4FE417F50799F76A0F7B1F4B
:107CF00070930701609306018091C00085FFFCCF5F
:107D0000F092C6008091C00085FFFCCFB092C60003
:107D1000E1CE83E00E94C73CDDCE82E00E94C73CFA
:107D2000D9CE0E94763C809309020E94763C8093D3
:107D300008028091060190910701880F991F909386
:107D40000701809306010E94763C853409F4A6C0A1
:107D500080910C028E7F80930C020E94763C8032D0
:107D600009F0B8CE8091C00085FFFCCFF092C6002C
:107D7000609108027091090261157105B9F140E046
:107D800050E080910C02A82FA170B82FB27011C0E2
:107D9000BB2309F45CC0E0910601F0910701319624
:107DA000F0930701E09306014F5F5F4F46175707B7
:107DB000E8F4AA2369F3F999FECF209106013091E6
:107DC000070132BD21BDF89A90B58091C00085FFB2
:107DD000FCCF9093C6002F5F3F4F30930701209355
:107DE00006014F5F5F4F4617570718F38091C00099
:107DF00085FDE5CE8091C00085FFF8CFE0CE81E023
:107E00000E94C73C67CE0E94763C803209F08CCE3F
:107E10008091C00085FFFCCFF092C6008091C00029
:107E200085FFFCCFE092C6008091C00085FFFCCFAB
:107E3000D092C6008091C00085FFFCCFC092C600E2
:107E40008091C00085FFFCCFB092C60043CEE09188
:107E50000601F091070194918091C00085FFFCCF4D
:107E60009093C6009CCF80E10E94C73C33CE0E9415
:107E7000763C0E94763C182F0E94763C112309F430
:107E800083C0113009F484C08FE00E94C73C22CE29
:107E900080910C02816080930C02E5CE80910C02EF
:107EA000816080930C0259CF809107018823880F4D
:107EB000880B8A2180930B02809106019091070123
:107EC000880F991F90930701809306018091080203
:107ED00080FF09C080910802909109020196909359
:107EE000090280930802F894F999FECF1127E091D6
:107EF0000601F0910701C8E0D1E08091080290915D
:107F00000902103091F40091570001700130D9F34B
:107F100003E000935700E89500915700017001308D
:107F2000D9F301E100935700E89509901990009169
:107F3000570001700130D9F301E000935700E89534
:107F40001395103498F011270091570001700130FB
:107F5000D9F305E000935700E895009157000170B0
:107F60000130D9F301E100935700E895329602976A
:107F700009F0C7CF103011F00296E5CF112480919F
:107F8000C00085FFB9CEBCCE8EE10E94C73CA2CD19
:0C7F900085E90E94C73C9ECDF894FFCF0D
:027F9C00800063
:040000030000780081
:00000001FF