:100000000C9455050C947D050C947D050C947D0590
:100010000C947D050C947D050C947D050C947D0558
:100020000C947D050C947D050C947D050C947D0548
:100030000C947D050C947D050C947D050C947D0538
:100040000C94B7160C947D050C9488150C946215CD
:100050000C947D050C947D050C947D050C947D0518
:100060000C94090D0C947D0500000000003E5B4FD0
:100070005B3E3E6B4F6B3E1C3E7C3E1C183C7E3C08
:10008000181C577D571C1C5E7F5E1C00183C180016
:10009000FFE7C3E7FF0018241800FFE7DBE7FF30A6
:1000A000483A060E2629792926407F050507407F14
:1000B00005253F5A3CE73C5A7F3E1C1C08081C1C87
:1000C0003E7F14227F22145F5F005F5F06097F017D
:1000D0007F006689956A606060606094A2FFA29468
:1000E00008047E040810207E201008082A1C080836
:1000F0001C2A08081E101010100C1E0C1E0C303884
:100100003E3830060E3E0E06000000000000005F84
:1001100000000007000700147F147F14242A7F2AA0
:100120001223130864623649562050000807030062
:10013000001C2241000041221C002A1C7F1C2A08AE
:10014000083E080800807030000808080808000011
:1001500060600020100804023E5149453E00427F85
:10016000400072494949462141494D331814127FD4
:100170001027454545393C4A494931412111090774
:100180003649494936464949291E000014000000F5
:1001900040340000000814224114141414140041C7
:1001A00022140802015909063E415D594E7C121184
:1001B000127C7F494949363E414141227F414141BC
:1001C0003E7F494949417F090909013E4141517337
:1001D0007F0808087F00417F41002040413F017FA8
:1001E000081422417F404040407F021C027F7F0470
:1001F00008107F3E4141413E7F090909063E4151B9
:10020000215E7F09192946264949493203017F01A8
:10021000033F4040403F1F2040201F3F4038403FA9
:10022000631408146303047804036159494D4300BF
:100230007F4141410204081020004141417F0402F6
:10024000010204404040404000030708002054548D
:1002500078407F284444383844444428384444286B
:100260007F385454541800087E090218A4A49C78BE
:100270007F0804047800447D40002040403D007F1A
:100280001028440000417F40007C047804787C08FA
:100290000404783844444438FC18242418182424CE
:1002A00018FC7C08040408485454542404043F44B3
:1002B000243C4040207C1C2040201C3C4030403CE2
:1002C00044281028444C9090907C4464544C440042
:1002D00008364100000077000000413608000201A6
:1002E0000204023C2623263C1EA1A161123A404092
:1002F000207A38545455592155557941225454780F
:1003000042215554784020545579400C1E527212A7
:100310003955555559395454545939555454580030
:1003200000457C410002457D420001457C407D1234
:1003300011127DF0282528F07C5455450020545496
:100340007C547C0A097F4932494949323A44444441
:100350003A324A4848303A4141217A3A424020787C
:10036000009DA0A07D3D4242423D3D4040403D3C7D
:1003700024FF2424487E4943662B2FFC2F2BFF09A2
:1003800029F620C0887E0903205454794100004496
:100390007D413048484A32384040227A007A0A0A81
:1003A000727D0D19317D2629292F282629292926F4
:1003B00030484D4020380808080808080808382F39
:1003C00010C8ACBA2F102834FA00007B00000814C3
:1003D0002A142222142A14085500550055AA55AA99
:1003E00055AAFF55FF55FF000000FF00101010FF39
:1003F00000141414FF001010FF00FF1010F010F094
:10040000141414FC001414F700FF0000FF00FF1484
:1004100014F404FC141417101F10101F101F1414D0
:10042000141F00101010F0000000001F101010101A
:100430001F10101010F010000000FF10101010100E
:1004400010101010FF10000000FF140000FF00FF4C
:1004500000001F10170000FC04F4141417101714E8
:1004600014F404F40000FF00F7141414141414140A
:10047000F700F7141414171410101F101F1414147D
:10048000F4141010F010F000001F101F0000001FE7
:1004900014000000FC140000F010F01010FF10FF1A
:1004A000141414FF141010101F00000000F010FFAF
:1004B000FFFFFFFFF0F0F0F0F0FFFFFF0000000093
:1004C00000FFFF0F0F0F0F0F3844443844FC4A4A17
:1004D0004A347E02020606027E027E0263554941CC
:1004E000633844443C04407E201E2006027E020203
:1004F00099A5E7A5991C2A492A1C4C7201724C3017
:100500004A4D4D303048784830BC625A463D3E49ED
:100510004949007E0101017E2A2A2A2A2A44445F91
:10052000444440514A444040444A51400000FF0185
:1005300003E080FF000008086B6B08361236243693
:10054000060F090F060000181800000010100030F8
:1005500040FF0101001F01011E00191D1712003C80
:100560003C3C3C00000000001112131415160A0B4D
:100570000C0D0E0FDB40A4A62EAFDA0281DA128139
:10058000DA02818F2000A1C8D300408DAED580A8AB
:10059000010204081020408001020408102001021A
:1005A0000408102000000000250028002B0004048F
:1005B000040404040404020202020202030303030B
:1005C00003030000600000000000000000000000C5
:1005D000000000E00000000000000000000000003B
:1005E0000001E0000000000000000000000000002A
:1005F00001F0000000000000000000000000000307
:10060000F00000000000000000000000000007F003
:100610000000000000000000000000000007F800DB
:100620000000000000000000000000000FF80000C3
:100630000003C0007E000001E0007F0FF800000012
:1006400003C000FE000001E000FFEFF8000000031F
:10065000C000FE000001E000FFFFF800000003C042
:1006600000F00000000F007FFE7FC0000003C0000C
:10067000F00000000F003FFE7FF83FF1FBCFFCFED3
:10068000F3BC3DEFE01FFE7FFF7FFBFFDFFEFEFFC1
:10069000BC3DEFE01FC6FFFF7FFBFFDFFEFEFFBCA0
:1006A0003DEFE00FE3C7FE787BC3DE1EF0FFBC3DED
:1006B000EF0007FF87FC787BC3DE1EF0F83C3DEFC0
:1006C0000001FFFFF0007BC3C01EF0F03C3DEF00D7
:1006D00001F37FE03FFBC3CFFEF0F03C3DEF0003B2
:1006E000E33F807FFBC3DFFEF0F03C3DEF0007E718
:1006F0003C00787BC3DE1EF0F03C3DEF0007FFBE00
:1007000000787BC3DE1EF0F03C3DEF0007FFFE00EB
:10071000787BC3DE1EF0F03C3DEF000FFFFE007F54
:10072000FBFFDFFEF0F03FFDEFE00FFFFF007FFB80
:10073000FFDFFEF0F03FFDEFE00FF9FF003E79F93B
:10074000CF9EF0F01F3DE7E01FF1FF00000000002A
:10075000000000000000001F80FF007FFFFFFFFF80
:10076000FFFFFFFFFFE01C007F007FFFFFFFFEB4E5
:100770006D888D18E000001F007FFFFFFFFE95AD24
:100780007DB577E000000F007FFFFFFFFEA5AD9D68
:100790008D19E0000006007FFFFFFFFEB5ADEDB54F
:1007A0007EE000000000000180000000000000006A
:1007B0000000038000000000000000000007C000EF
:1007C000000000000000000007C000000000000062
:1007D0000000000FC00000000000000000001FE04B
:1007E0000000000000000000001FE000000000000A
:1007F000000000003FE00000000000000000003F9B
:10080000F00000000000000000007FF00000000089
:100810000000001FF87FF0000000000000003FFE15
:100820007FF0000000000000003FFF7FF0000000AC
:10083000000000001FFFFBE0000000000000000FB0
:10084000FFF9FFC00000000000000FFFF9FFF800F3
:10085000000000000007FFF1FFFF000000000000A3
:1008600003FC73FFFF80000000000001FE3FFFFF5C
:1008700080000000000000FF1E0FFF0000000000CD
:1008800000007FFE1FFC000000000000003FFFFF93
:10089000F8000000000000000FDFFFE00000000093
:1008A0000000001F19FFC0000000000000003F3CD6
:1008B000FF00000000000000007E7CF80000000047
:1008C000000000007FFE7C0000000000000000FF30
:1008D000FFFC0000000000000000FFFFFE00000021
:1008E0000000000000FFFFFE00000000000000010B
:1008F000FFEFFE0000000000000001FFCFFE00003F
:10090000000000000003FF07FE00000000000000E0
:1009100003FC07FE0000000000000003F003FE00DF
:10092000000000000000018000FE00000000000048
:10093000000000007E000000000000000000003EFB
:10094000000000000000000000000C00000000009B
:1009500000078000FC000003C0000000078001FCCD
:10096000000003C0000000078001FC000003C0007D
:100970000000078001E00000001E00000007800169
:10098000E00000001E007FE3F79FF9FDE7787BDFC2
:10099000C0FFF7FFBFFDFDFF787BDFC0FFF7FFBFA4
:1009A000FDFDFF787BDFC0F0F787BC3DE1FF787B82
:1009B000DE00F0F787BC3DE1F0787BDE0000F787D2
:1009C000803DE1E0787BDE007FF7879FFDE1E07806
:1009D0007BDE00FFF787BFFDE1E0787BDE00F0F70C
:1009E00087BC3DE1E0787BDE00F0F787BC3DE1E0CD
:1009F000787BDE00F0F787BC3DE1E0787BDE00FF2E
:100A0000F7FFBFFDE1E07FFBDFC0FFF7FFBFFDE1C8
:100A1000E07FFBDFC07CF3F39F3DE1E03E7BCFC096
:100A20000000000000000000000000FFFFFFFFFFCB
:100A3000FFFFFFFFFFC0FFFFFFFFFD68DB111A3163
:100A4000C0FFFFFFFFFD2B5AFB6AEFC0FFFFFFFF58
:100A5000FD4B5B3B1A33C0FFFFFFFFFD6B5BDB6AA7
:100A6000FDC02200FF210000010203040500010374
:100A7000070F1F3F7F0080C0E0F0F8FCFE00000081
:100A800000240027002A000000000023002600297F
:100A9000000000000800020100000304070000003D
:100AA0000000000000005320601811241FBECFEF8B
:100AB000D8E0DEBFCDBF24E0A4EFB1E001C01D92BD
:100AC000AC37B207E1F711E0A0E0B1E0EAE6F8E404
:100AD00002C005900D92A43FB107D9F715E0C4E517
:100AE000D5E004C02197FE010E940F22C335D10733
:100AF000C9F70E9480180C9428240C940000FC0173
:100B000077FDB9C080859185681779070CF0B3C06F
:100B100057FDB1C082859385481759070CF0089599
:100B20008689823079F484819581DC01A61BB70B1C
:100B3000BD016150710986819781DC01A41BB50B51
:100B4000AD010EC0833009F084C064277527CB0146
:100B5000842795276827792746815781481B590B99
:100B6000415051092130310531F048F12230310531
:100B700009F44AC00895CA0157FD07969C01A3E0F5
:100B800035952795AA95E1F7A481B5812A9FC001E3
:100B90002B9F900D3A9F900D1124680F791F078CA1
:100BA000F0A1E02DE60FF71F4770552781E090E098
:100BB00001C0880F4A95EAF79081892B48C0CA0185
:100BC00057FD07969C0193E0359527959A95E1F797
:100BD000A481B5812A9FC0012B9F900D3A9F900D53
:100BE0001124680F791F078CF0A1E02DE60FF71F85
:100BF0004770552781E090E001C0880F4A95EAF7D9
:100C000080959081892323C0CA0157FD07969C01D6
:100C100083E0359527958A95E1F7A481B5812A9FD0
:100C2000C0012B9F900D3A9F900D1124680F791FE2
:100C3000078CF0A1E02DE60FF71F4770552781E0E4
:100C400090E001C0880F4A95EAF790818927808358
:100C50000895813009F086CF6427752746275727E6
:100C60006427752784819581DC01A61BB70BBD0124
:100C70006150710977CF08950895FC016370668B08
:100C80008481958126813781613039F0633029F084
:100C900091878087338722870895318720879387BC
:100CA000828708952F923F924F925F926F927F9228
:100CB0008F929F92AF92BF92CF92DF92EF92FF926C
:100CC0000F931F93CF93DF93CDB7DEB76C970FB61B
:100CD000F894DEBF0FBECDBF9C8F8B8F1B014A01E6
:100CE000198708873701A982DC0159964D915C91DB
:100CF0005A974115510509F0FFC018968D919C91A6
:100D00001997681779070CF0E1C11A968D919C919B
:100D10001B97881699060CF0D9C1EC2DF0E0FB83E7
:100D2000EA83AB0166E0C69E400D511D11245D872C
:100D30004C87141615060CF0C9C18A2D90E09B87CC
:100D40008A8733E0880F991F3A95E1F79F878E874E
:100D5000880D991D181619060CF0B8C158968C917B
:100D6000811103C0203B08F02F5FAB8DBC8DED914E
:100D7000FC9111970284F385E02DCD012A8F09950E
:100D80002A8DB5E02B9F90011124EC2DF0E0F98B1A
:100D9000E88BA1014B5F5F4F5B8B4A8B3D822C82BE
:100DA0002101B901621973097D8B6C8B9981892F9F
:100DB00090E09F8B8E8BD4011896B98FA88FEC8909
:100DC000FD89E40DF51DE859FF4FD49054019F8231
:100DD0008E82D0FE16C0AB8DBC8DED91FC91B1E042
:100DE000CB1209C02981213031F40484F585E02D2E
:100DF0002885398519C00684F785E02DE884F984B3
:100E00001DC0488559856416750619F1AB8DBC8DDA
:100E1000ED91FC91B1E0CB120DC02981213051F44C
:100E20000484F585E02D9301A501B2018B8D9C8D85
:100E300009950FC00684F785E02D73010A851B858F
:100E40002A813B814E815F816C817D818B8D9C8D60
:100E50000995D6943FEFA31AB30A4E815F816E893C
:100E60007F89460F571F5F834E83888D998DA81603
:100E7000B90609F0AECF9FEF491A590AAC81BD817E
:100E8000E889F989AE0FBF1FBD83AC832A893B89EE
:100E90004216530609F093CF4885598564167506A6
:100EA00009F4F2C0AB8DBC8DED91FC91B1E0CB1299
:100EB00011C02981213071F4B1016B5F7F4F00882F
:100EC000F189E02D830128E030E0A4018B8D9C8D19
:100ED0000995DAC06C857D854A815B81641B750B41
:100EE0000684F785E02D73010E851F859A01A40104
:100EF0008B8D9C8D0995C8C0FA01349694913297D8
:100F000065917491291BCB01B7E02B9F800D911D3A
:100F10001124FA01259134913B8B2A8BFC01A59079
:100F2000B490FC0132965490319634913C873296BD
:100F300014913196749041E04C1518F0598152305B
:100F400068F0612F012E000C770B7B836A83872D5D
:100F5000072C000C990B9D838C8304C01D821C827E
:100F60001B821A82AB8DBC8DED91FC91119702848E
:100F7000F385E02DCD010995412CD12C612CF9810F
:100F8000EF2FF0E0FF83EE832C2D30E03B872A87A4
:100F9000A401470D511D77FC5A955F8B4E8BB10113
:100FA000610F711D17FD7A95798F688F5C856516C5
:100FB00008F06AC0262D30E04C815D81420F531F3E
:100FC0006E817F81469FC001479F900D569F900D77
:100FD0001124DC01A80DB91DB98BA88B842D712CAF
:100FE000EE89FF89E20FF31FFD8BEC8B751408F07F
:100FF00048C071E0780F7E87877041F4C501019683
:10100000EA89FB89EA0DFB1DD4905C01D7FE35C04F
:10101000AB8DBC8DED91FC91B1E0CB1212C029815A
:10102000213079F40484F585E02D288539854C89B3
:101030005D89688D798D670D711D8B8D9C8D0995EE
:101040001CC08A819B81870D911D4A855B85849F89
:10105000B001859F700D949F700D1124620D731D5A
:101060000684F785E02DE884F9840E811F819A01BA
:10107000488959898B8D9C8D0995DD0C73948E85DB
:10108000B5CF450C639492CFAB8DBC8DED91FC91A7
:1010900011970688F789E02DCD016C960FB6F8946C
:1010A000DEBF0FBECDBFDF91CF911F910F91FF909B
:1010B000EF90DF90CF90BF90AF909F908F907F90F8
:1010C0006F905F904F903F902F9009946C960FB661
:1010D000F894DEBF0FBECDBFDF91CF911F910F916E
:1010E000FF90EF90DF90CF90BF90AF909F908F9048
:1010F0007F906F905F904F903F902F9008958F92C8
:101100009F92AF92CF92EF92FF920F931F93CF9344
:10111000DF93EC01262F898D9A8D009709F042C04C
:101120006A3059F41D861C862D898E859F8538E08E
:10113000239F800D911D112443C06D3009F4AAC076
:101140008F898823C9F03C898C859D8546E0349F32
:10115000800D911D1124488559854817590764F45D
:101160001D861C863D898E859F8548E0349F800DB5
:10117000911D11249F878E87EA88FB880889198929
:101180004E855F856C857D85AD88CC88CE010E94BB
:1011900052062C898C859D8536E0239F800D911DFC
:1011A00011243EC06A3079F41D861C862D89FC010D
:1011B0003696E4918E859F852E9F800D911D11247A
:1011C0009F878E8767C06D3009F464C0FC01349638
:1011D0003491631708F45EC03196E491E61708F481
:1011E00059C0462F431B342FFC01329685909490B2
:1011F00047E0349F800C911C1124F4013296349105
:101200003196E491332311F0E1110DC0F4013496CD
:10121000E4912C898C859D85E29F800D911D112480
:101220009D878C8737C0F401359644915F8955239B
:1012300019F15C89E32FF0E0E40FF11D47FDFA9509
:101240005E9FB0015F9F700D11244C855D85460F38
:10125000571F688579856417750774F41D861C8689
:101260003D89FC013696E4918E859F853E9F800DD9
:10127000911D11249F878E87EA88FB880889198928
:101280004E855F856C857D85AD88CC88CE010E94BA
:101290005206BCCF81E090E0DF91CF911F910F917A
:1012A000FF90EF90CF90AF909F908F9008956F92A6
:1012B0007F928F929F92AF92BF92CF92DF92EF92E6
:1012C000FF920F931F93CF93DF93EC014B015A01D1
:1012D00069013801E881F9810284F385E02D0995DF
:1012E000E881F9810288F389E02D87019601A50143
:1012F000B401CE010995E881F981A501460D571D7C
:10130000415051090288F389E02D9601B401CE01C4
:101310000995E881F9810088F189E02D9301A50103
:10132000B401CE010995E881F981C80CD91CB60138
:10133000615071090088F189E02D9301A501CE016A
:101340000995E881F9810688F789E02DCE01DF91C2
:10135000CF911F910F91FF90EF90DF90CF90BF90B2
:10136000AF909F908F907F906F900994CF92DF9273
:10137000EF92FF920F931F93CF93DF9300D000D093
:1013800000D0CDB7DEB76C01DC01ED91FC916217A6
:10139000730789F4041715072CF4942F852FA801DF
:1013A000092F182F041B150B98012F5F3F4F048C3A
:1013B000F58DE02D12C04017510709F526173707A4
:1013C0002CF4962F872FB901292F382F261B370B86
:1013D0002F5F3F4F068CF78DE02D8701C6010995E1
:1013E00026960FB6F894DEBF0FBECDBFDF91CF912A
:1013F0001F910F91FF90EF90DF90CF90089502849E
:10140000F385E02D2D833E834B835C8369837A8350
:101410000995D601ED91FC910488F589E02D2D8187
:101420003E814B815C8169817A81C6010995D60133
:10143000ED91FC910688F789E02DC60126960FB63E
:10144000F894DEBF0FBECDBFDF91CF911F910F91FA
:10145000FF90EF90DF90CF900994EF92FF920F935F
:101460001F93DC01ED91FC9111971A960D911C913F
:101470001B9718962D913C91199700A0F1A1E02D92
:101480007B0140E050E060E070E009951F910F9112
:10149000FF90EF9008954F925F926F927F928F929C
:1014A0009F92AF92BF92CF92DF92EF92FF920F93F3
:1014B0001F93CF93DF9300D0CDB7DEB76C015A01F5
:1014C00039014801DC01ED91FC910284F385E02DA6
:1014D00069837A8309956981462E7A81572E640C37
:1014E000751CD601ED91FC91461457046CF40088EC
:1014F000F189E02D87019401A501B201C60109958A
:10150000BFEF4B1A5B0AEDCF0688F789E02DC601C5
:101510000F900F90DF91CF911F910F91FF90EF905F
:10152000DF90CF90BF90AF909F908F907F906F9003
:101530005F904F900994AF92BF92CF92DF92EF925B
:10154000FF920F931F93CF93DF9300D000D0CDB7BE
:10155000DEB75C016901DC01ED91FC910284F38549
:10156000E02D4B835C8369837A830995D501ED91E6
:10157000FC9169817A819B012C0D3D1D215031091F
:101580000488F589E02D78014B815C818A01C501D1
:101590000995D501ED91FC910688F789E02DC501EB
:1015A0000F900F900F900F90DF91CF911F910F919F
:1015B000FF90EF90DF90CF90BF90AF900994AF92E3
:1015C000BF92CF92DF92EF92FF920F931F93CF9330
:1015D000DF9300D000D0CDB7DEB75C016901DC013C
:1015E000ED91FC910284F385E02D4B835C8369834C
:1015F0007A830995D501ED91FC914B815C81C40EF4
:10160000D51EB1E0CB1AD1080488F589E02D780108
:10161000860169817A819B01C5010995D501ED910A
:10162000FC910688F789E02DC5010F900F900F906F
:101630000F90DF91CF911F910F91FF90EF90DF906E
:10164000CF90BF90AF9009940895EF92FF920F93BF
:101650001F93DC01ED91FC9100A0F1A1E02D099513
:101660001F910F91FF90EF9008950F931F93DC014E
:10167000ED91FC91068CF78DE02D09951F910F914E
:1016800008950F931F93DC01ED91FC91048CF58D6F
:10169000E02D09951F910F910895DC01ED91FC91CA
:1016A0000084F185E02D099408952F923F924F9286
:1016B0005F926F927F928F929F92AF92BF92CF92E2
:1016C000DF92EF92FF920F931F93CF93DF9300D09F
:1016D0001F92CDB7DEB74C017B836A836A01590143
:1016E00017019801241B350B37FF03C03195219555
:1016F0003109C5014A815B81841B950B97FF03C0AB
:1017000091958195910951E059838217930714F0BF
:1017100019820BC09A2D8B2D5801092F182F9A81F1
:101720008B81DB82CA82C92ED82E8A819B81A81622
:10173000B9065CF49C2D8D2D6801092F182F9A8114
:101740008B81BB82AA82A92EB82E2501AA81BB81DA
:101750004A1A5B0A38016C187D0877FE03C0719441
:1017600061947108720157FE03C0BFEFEB1AFB0AC8
:10177000F594E794C016D1061CF00FEF1FEF1FC0C1
:1017800001E010E01CC0D401ED91FC91B98104840A
:10179000F585E02D9101BB23C1F04A815B81B60143
:1017A000C4010995E618F708F7FE04C0C00ED11E63
:1017B000E40CF51CEA81FB813196FB83EA834A81C4
:1017C0005B81A416B506FCF604C0A6016A817B8184
:1017D000E7CF0F900F900F90DF91CF911F910F9156
:1017E000FF90EF90DF90CF90BF90AF909F908F9041
:1017F0007F906F905F904F903F902F90089585ED70
:101800008093BC008091BC0084FDFCCF10928602C6
:10181000089540913B02262F30E0240F311D2132E4
:101820003105DCF4209186022430C9F4FC0180E00B
:1018300090E0861758F430913B022191DC01A75EBD
:10184000BD4FA30FB11D2C930196F3CF80913B02A6
:10185000680F60933B0280E0089581E0089582E084
:101860000895089581E090E03091880220918702E8
:10187000321710F480E090E09195819591090895D8
:101880008091880290918702891730F48F5F80934E
:10189000880280E090E008958FEF9FEF0895809197
:1018A000870290E020918802821B91090895CF92CF
:1018B000DF92EF92FF920F931F93CF93DF937C0100
:1018C000262F972F8A018091D802882391F0C62F66
:1018D000D72F6E01C40ED51ECC15DD0571F06991B0
:1018E000D701ED91FC910190F081E02DC7010995A0
:1018F000F3CF642F822F0E94090CC801DF91CF9192
:101900001F910F91FF90EF90DF90CF900895CF93AC
:10191000DF931F92CDB7DEB769832091D8022223CF
:10192000D1F02091D502203240F021E030E0FC01DE
:101930003383228380E090E015C08091D602E82FA7
:10194000F0E0E750FE4F998190838F5F8093D6023D
:101950008093D50205C061E0CE0101960E94090C7A
:1019600081E090E00F90DF91CF910895089580E09D
:1019700090E008950F931F93DC015696EC915697D3
:10198000E23061F0E33009F1E13081F51496ED9138
:10199000FC911597E41BF50B319723C0DC011496DD
:1019A000ED91FC911597DF01A61BB70BBD01DC0182
:1019B0001696ED91FC911797DF01A41BB50BAD01B5
:1019C00041505109621B730B11C0FA01DC011696DC
:1019D0004D915C911797DA01A61BB70BBD01621BF5
:1019E000730BAB01BF010E9468170CC057FD0AC002
:1019F000DC011696ED91FC9117974E175F0714F4D2
:101A00000E9401171F910F91089508958CBD9DBDEF
:101A100008951F920F920FB60F9211242F933F93A8
:101A20004F935F936F937F938F939F93AF93BF93E6
:101A3000EF93FF938091B900887F803609F49CC0B2
:101A400068F5883209F45BC090F4803109F454C021
:101A500038F4882309F4F6C0883009F44DC0F6C084
:101A6000883109F44CC0803209F45DC0EFC0803485
:101A700009F468C048F4803309F455C0883309F08C
:101A8000E5C080936002D8C0803509F44FC0883526
:101A900009F45DC0883409F0D9C0D6C0883909F48A
:101AA000C7C0A8F4883709F467C038F4883609F449
:101AB00063C0803709F460C0C9C0883809F4B8C071
:101AC000803909F45FC0803809F0C0C05BC0803B3A
:101AD00009F486C038F4803A09F466C0883A09F4FB
:101AE0007FC0B4C0803C09F4A7C0883C09F4A4C0FE
:101AF000883B09F48AC0AAC08091830210C09091EB
:101B0000820280918102981770F5E091820281E053
:101B10008E0F80938202F0E0EF59FD4F8081809319
:101B2000BB0085EC86C0809360028EC0E09182028B
:101B300081E08E0F809382028091BB00F0E0EF592C
:101B4000FD4F808390918202809181026EC0E0916E
:101B5000820281E08E0F809382028091BB00F0E0D0
:101B6000EF59FD4F80838091850281116DC081E026
:101B70008093840284EA61C083E08093860210929D
:101B80005F02CFCF80915F02803208F051C0E091B8
:101B90005F0281E08E0F80935F028091BB00F0E0D6
:101BA000E15CFD4F8083BDCF85EC8093BC0010923B
:101BB000860280915F02803230F4E0915F02F0E0B3
:101BC000E15CFD4F108260915F0270E0E0913D02A8
:101BD000F0913E028FE392E0099510925F0236C0C9
:101BE00084E08093860210923C0210923B02E091C6
:101BF0003902F0913A02099580913B02811105C0AA
:101C000081E080933B0210921902E0913C0281E056
:101C10008E0F80933C02F0E0E75EFD4F8081809361
:101C2000BB0090913C0280913B02981708F479CF59
:101C300085E88093BC000AC085EC8093BC001092BC
:101C4000860204C0109260020E94FF0BFF91EF9188
:101C5000BF91AF919F918F917F916F915F914F91C4
:101C60003F912F910F900FBE0F901F9018959B01E1
:101C7000AC0160E074E284EF90E00E94ED21DA01B3
:101C8000C9014097A109B109B695A7959795879580
:101C90008093B80008952091D5029091D702213207
:101CA00008F04AC0809186028111FCCF32E0309367
:101CB000860231E0309385023FEF3093600210924C
:101CC000820220938102A9EFB1E041E652E0FA01DD
:101CD0003E2F341B321718F43D913193F9CF1092F7
:101CE000830220918302990F922B9093830290910B
:101CF0008402913061F41092840290918302909357
:101D0000BB009091BC0093FDF8CF95EC01C095EE1F
:101D10009093BC00909186029230E1F39091600222
:101D20009F3F79F080916002803241F080916002A3
:101D3000803331F084E005C081E003C082E001C05F
:101D400083E01092D6021092D5021092D802089524
:101D50008EBD00000DB407FEFDCF8EB508951F9314
:101D6000CF93DF93FC01858D968D009729F1162F77
:101D7000EF0121A131E03093D8022093D7021092D5
:101D8000D6021092D502DC01ED91FC910190F08118
:101D9000E02D60E009958D8D9E8DDC01ED91FC912B
:101DA0000190F081E02D612F09958D8D9E8DDF9141
:101DB000CF911F910C944B0EA5A5B6A59C9183A91C
:101DC000809589238C93838D948D892B31F0862F78
:101DD000DF91CF911F910C94A80E28E030E080E8AD
:101DE000A1A5B2A591A9482F462319F04C91942B97
:101DF00003C04C91909594239C93A3A5B4A54C91BA
:101E000092A9942B9C93A3A5B4A54C9192A99095CB
:101E100094239C9386952150310911F7DF91CF913E
:101E20001F910895CF93CFB7F8948091F801811155
:101E300027C0E8EBF5E08491EAE9F5E09491E82F1A
:101E4000F0E0EE0FFF1FE358F54FA591B491EC9130
:101E5000E92321F461E08AE00E94E31561E08AE071
:101E60000E9413168CB580618CBD8CB580648CBDCE
:101E700061E08DE00E94131661E08BE00E94131672
:101E80008091F8018F5F8093F801CFBFCF910895C3
:101E90000F931F93CF93DF9300D000D000D0CDB726
:101EA000DEB764E671E0CE0101960E941C1309E8DA
:101EB00012E0F8016081CE0101960E94D212CE019B
:101EC00001960E94A012F8016181CE0101960E9444
:101ED000D212CE0101960E94A012F8016281CE01B9
:101EE00001960E94D212CE0101960E94A012F80122
:101EF0006381CE0101960E94D212CE0101960E940A
:101F0000A012F8016185CE0101960E94D2124D8186
:101F10005E8169817A8189ED92E00E94E40F62E638
:101F200071E089ED92E00E945C1389819A810E94A0
:101F3000AA2226960FB6F894DEBF0FBECDBFDF9162
:101F4000CF911F910F910895CF92DF92EF92FF9260
:101F50001F93CF93DF93182FEB010E94AB166B01F9
:101F60007C01812F0E94BA15892B31F58091F401F3
:101F70009091F501A091F601B091F701A7019601AA
:101F8000281B390B4A0B5B0BDA01C90180399140E0
:101F9000A105B10588F0812F0E94BA15892B21F483
:101FA000988181E089278883C092F401D092F5015D
:101FB000E092F601F092F701DF91CF911F91FF902F
:101FC000EF90DF90CF900895CF92DF92EF92FF9243
:101FD0000F931F93CF93DF936C017A018B01C0E0C5
:101FE000D0E0CE15DF0589F0D8016D918D01D601C5
:101FF000ED91FC910190F081E02DC6010995892BAE
:1020000011F47E0102C02196ECCFC701DF91CF9180
:102010001F910F91FF90EF90DF90CF9008950F9355
:102020001F93CF93DF93EC0188819981009729F06A
:102030002A813B812617370788F48B016F5F7F4F1A
:102040000E944223009761F0998388831B830A834F
:102050002C813D81232B11F4FC01108281E001C011
:1020600080E0DF91CF911F910F91089520912A0474
:1020700030912B04C901079697FD079623E09595AB
:1020800087952A95E1F72091280430912904829FB1
:10209000A001839F500D929F500D112460E070E0CD
:1020A00080914304909144040C941A243F924F92DF
:1020B0005F926F927F928F929F92AF92BF92CF92D8
:1020C000DF92EF92FF920F931F93CF93DF9300D095
:1020D00000D000D0CDB7DEB72C013B014A01590139
:1020E000C901079697FD07969C0193E035952795C2
:1020F0009A95E1F73A832983C12CD12CE12CF12C5C
:10210000312CC701860D971D9C838B83E016F10649
:10211000CCF51E821D82ED81FE81EA15FB0554F58A
:102120008D819E8187709927892B11F0330C0EC009
:10213000ED81FE81F7FD379683E0F595E7958A9569
:10214000E1F7EC0DFD1DE80DF91D349037FE0CC0D4
:1021500021E030E04B815C816D817E81640D751DD5
:1021600084E294E00E944D0B8D819E8101969E83B6
:102170008D83D1CFFFEFEF1AFF0A29813A81C20E7A
:10218000D31EBFCF26960FB6F894DEBF0FBECDBFCD
:10219000DF91CF911F910F91FF90EF90DF90CF9043
:1021A000BF90AF909F908F907F906F905F904F9077
:1021B0003F900895FF920F931F93CF93DF93EC010D
:1021C000F62E8091410490914204009709F451C089
:1021D0002091450431E03093D8022093D702109229
:1021E000D6021092D502DC01ED91FC910190F081B4
:1021F000E02D60E009958E01D1E0CF0DFF24F3942E
:102200008091410490914204C01761F1D032C8F02E
:102210000E944B0E80914504F092D8028093D70221
:102220001092D6021092D5028091410490914204FE
:10223000DC01ED91FC910190F081E02D60E00995C9
:10224000D1E08091410490914204F8016491DC0155
:10225000ED91FC910190F081E02D0995DF5F0F5F1A
:102260001F4FCECFDF91CF911F910F91FF900C9414
:102270004B0EE0915104F09152042081809157045B
:102280008095822380838E01C60FC017C1F1F801AB
:10229000849120913F0430914004232B19F00E9437
:1022A000A80E2AC028E030E040E8E0914D04F0910B
:1022B0004E0490915504542F582319F05081952BBA
:1022C00003C05081909595239083E0914F04F09145
:1022D0005004508190915604952B9083E0914F04C7
:1022E000F0915004508190915604909595239083DD
:1022F000469521503109C9F60F5F1F4FC6CFDF91B8
:10230000CF911F910F91FF900895CF93DF939CB5CC
:102310009F7D9CBD9CB5937F9CBD9CB59C7F9CBDC7
:102320009DB591609DBDCCE0D4E0682F8A810E946C
:10233000E3158C899D89DF91CF910C94661681E01D
:102340000C94851180E00C9485111F93CF93DF933B
:1023500000D0CDB7DEB76A8389830E94A21189813C
:102360008F7180620E94A80E182F6A81862F0E94AA
:10237000A80E0E949F11812F0F900F90DF91CF9197
:102380001F910895CF93DF931F92CDB7DEB7898356
:102390000E94A21189818F710E94A80E8FEF0E9466
:1023A000A80E89830E949F1189810F90DF91CF91A0
:1023B0000895CF93DF931F92CDB7DEB70E94A2118D
:1023C00081EE0E94A80E89830E949F1189810F903F
:1023D000DF91CF91089520910C0430910D0440912C
:1023E0000E0450910F042417350721F0682F822F17
:1023F0000C94E315089580E00E94EB1180911C0479
:1024000090911D040E9466168DE10E94C21181FF09
:1024100008C080911C0490911D040E9466160E94C1
:10242000D91180E00E94C211682F6E7F80E00E9467
:10243000A51182E00E94C211E7E6FAE0E49161E0B2
:1024400070E001C0660FEA95EAF7682B82E00C9411
:10245000A511EF92FF920F931F93CF93DF9300D0BC
:102460001F92CDB7DEB7162F4A837B8389830E94E4
:10247000A21189818F7180620E94A80E082FE12E1F
:102480007B81F72E4A81140F1E1531F0F7018191DF
:102490007F010E94A80EF8CF0E949F11802F0F90FD
:1024A0000F900F90DF91CF911F910F91FF90EF90C0
:1024B00008950F931F93CF938C0186E00E94C21161
:1024C000C82FC77D0230110531F4C0628BE990E05E
:1024D000A0E0B0E00DC00130110529F085E590E0E5
:1024E000A0E0B0E005C0C86081E490E0A0E0B0E00A
:1024F00080931C0490931D04A0931E04B0931F04AA
:102500006C2F86E00E94A51186E00E94C21191E026
:102510008C1390E0892FCF911F910F91089580E047
:102520000E94C21181FD0BC0682F626080E00E9492
:10253000A51165E070E080E090E00C9471160895BC
:10254000EF92FF920F931F93CF93DF9300D0CDB7FD
:10255000DEB78C0180E289831A82F801E480F5807D
:10256000FFEFEF1AFF0AB701C8010E940F1088237E
:1025700081F0F8012081318184819581BE016F5FF6
:102580007F4F820F931F0E942124F801F582E4827D
:1025900081E00F900F90DF91CF911F910F91FF90ED
:1025A000EF900895CF92DF92EF92FF920F931F93D7
:1025B000CF93DF9300D000D0CDB7DEB78C01862F4C
:1025C0004AE09E012F5F3F4F6901B90190E00E94F0
:1025D0007521F60101900020E9F73197EC19FD090A
:1025E000D8011496ED90FC9015973097B9F0EE0E47
:1025F000FF1EB701C8010E940F10882381F0F80167
:102600002081318184819581B601820F931F0E94C0
:102610002124D8011596FC92EE92149781E00F9038
:102620000F900F900F90DF91CF911F910F91FF901E
:10263000EF90DF90CF900895EF92FF920F931F934A
:10264000CF93DF93EC01198218821B821A821D82BC
:102650001C826115710549F18B01FB01019000207D
:10266000E9F731977F01E61AF70AB7010E940F10C8
:102670002881398181110DC02115310519F0C90159
:102680000E94AA22198218821D821C821B821A8231
:102690000CC0FD82EC82B801C901DF91CF911F917E
:1026A0000F91FF90EF900C942124DF91CF911F9117
:1026B0000F91FF90EF9008956115710579F0FB017E
:1026C00001900020E9F73197AF01461B570BDC0161
:1026D000ED91FC910280F381E02D099480E090E07F
:1026E00008958F929F92AF92BF92CF92DF92EF9216
:1026F000FF920F931F93CF93DF93CDB7DEB7A197D0
:102700000FB6F894DEBF0FBECDBF6C01990FEE0877
:10271000FF08F7FE33C0E0912404F09125040190F6
:10272000F081E02D6DE284E294E009958C0122278E
:102730003327A9012C193D094E095F0919A2CE01C1
:1027400081967C019AE0892E912CA12CB12CCA0192
:10275000B901A50194010E94ED21605DF70162932A
:102760007F01211531054105510589F7BF0184E23B
:1027700094E00E945C13800F911F1FC0A701960177
:1027800019A28E010F5D1F4F8AE0C82ED12CE12CBB
:10279000F12CCA01B901A70196010E94ED21605DEB
:1027A000F80162938F01211531054105510589F723
:1027B000BF0184E294E00E945C13A1960FB6F894E6
:1027C000DEBF0FBECDBFDF91CF911F910F91FF9064
:1027D000EF90DF90CF90BF90AF909F908F90089533
:1027E000FC01538D448D252F30E0842F90E0821B17
:1027F000930B541710F0CF96089501970895FC019C
:10280000918D828D981761F0828DDF01A80FB11D27
:102810005D968C91928D9F5F9F73928F90E008954B
:102820008FEF9FEF0895FC01918D828D981731F005
:10283000828DE80FF11D858D90E008958FEF9FEF59
:102840000895FC01918D228D892F90E0805C9F4F2F
:10285000821B91098F739927089589ED92E00E9458
:10286000211421E0892B09F420E0822F0895FC0136
:10287000848DDF01A80FB11DA35ABF4F2C91848D09
:1028800090E001968F739927848FA689B7892C933E
:10289000A089B1898C9180648C93938D848D9813D9
:1028A00006C00288F389E02D80818F7D80830895A2
:1028B000EF92FF920F931F93CF93DF93EC0181E090
:1028C000888F9B8D8C8D981305C0E889F98980814C
:1028D00085FD24C0F62E0B8D10E00F5F1F4F0F7388
:1028E0001127E02E8C8DE8120CC00FB607FCFACF32
:1028F000E889F989808185FFF5CFCE010E943714E0
:10290000F1CF8B8DFE01E80FF11DE35AFF4FF082EE
:102910000B8FEA89FB898081806207C0EE89FF897D
:102920006083E889F98980818064808381E090E018
:10293000DF91CF911F910F91FF90EF900895CF936A
:10294000DF93EC01888D8823C9F0EA89FB898081B7
:1029500085FD05C0A889B9898C9186FD0FC00FB689
:1029600007FCF5CF808185FFF2CFA889B9898C91CA
:1029700085FFEDCFCE010E943714E7CFDF91CF91D5
:10298000089580E090E0892B29F00E942D14811198
:102990000C9400000895833081F028F4813099F080
:1029A0008230A1F008958730A9F08830B9F08430E2
:1029B000D1F4809180008F7D03C0809180008F775B
:1029C00080938000089584B58F7702C084B58F7D91
:1029D00084BD08958091B0008F7703C08091B000CE
:1029E0008F7D8093B00008953FB7F8948091740470
:1029F00090917504A0917604B091770426B5A89BB8
:102A000005C02F3F19F00196A11DB11D3FBFBA2F80
:102A1000A92F982F8827820F911DA11DB11DBC01E0
:102A2000CD0142E0660F771F881F991F4A95D1F7A5
:102A300008950E940C241F93CF93DF93EC01162F6F
:102A40008D8D9E8D892B39F06FA978AD89AD9AADAA
:102A50000E94370E0FC08B8D9C8D892B21F08DA984
:102A60009EA90E94060DEFA5F8A990818CA98095DA
:102A700089238083111102C066EA01C067EACE0192
:102A80000E94AF0E8D8D9E8D892B49F06BAD7CAD74
:102A90008DAD9EADDF91CF911F910C94370EEFA5B8
:102AA000F8A990818CA9892B80838B8D9C8D892B93
:102AB00029F0DF91CF911F910C94050DDF91CF91FB
:102AC0001F9108951F920F920FB60F9211242F930A
:102AD0003F934F935F936F937F938F939F93AF93A6
:102AE000BF93EF93FF9389ED92E00E943714FF911B
:102AF000EF91BF91AF919F918F917F916F915F9176
:102B00004F913F912F910F900FBE0F901F901895EE
:102B10001F920F920FB60F9211242F938F939F93B2
:102B2000EF93FF93E091E902F091EA028081E09156
:102B3000EF02F091F00282FD12C090818091F202CA
:102B40008F5F8F732091F302821751F0E091F202B0
:102B5000F0E0E752FD4F958F8093F20201C0808133
:102B6000FF91EF919F918F912F910F900FBE0F903A
:102B70001F901895CF93DF93282F30E0F901EF567F
:102B8000F54F8491F901E057FA4FD491F901E255DC
:102B9000FA4FC491CC2391F081110E94CB14EC2FF9
:102BA000F0E0EE0FFF1FE957F54FA591B491EC91BE
:102BB000ED2381E090E021F480E002C080E090E02D
:102BC000DF91CF9108951F93CF93DF93282F30E0AB
:102BD000F901EF56F54F8491F901E057FA4FD4917E
:102BE000F901E255FA4FC491CC23C9F0162F811197
:102BF0000E94CB14EC2FF0E0EE0FFF1FEC55FA4FC4
:102C0000A591B4918FB7F894111105C09C91ED2F47
:102C1000E095E92302C0EC91ED2BEC938FBFDF919F
:102C2000CF911F910895CF93DF9390E0FC01E0577F
:102C3000FA4F2491FC01E255FA4F8491882361F107
:102C400090E0880F991FFC01E358F54FC591D4918E
:102C5000FC01EC55FA4FA591B491611109C09FB7E1
:102C6000F8948881209582238883EC912E230BC0D1
:102C7000623061F49FB7F8943881822F8095832366
:102C80008883EC912E2B2C939FBF06C08FB7F894AE
:102C9000E8812E2B28838FBFDF91CF9108958E304E
:102CA00008F08E508770806480937C0080917A0059
:102CB000806480937A0080917A0086FDFCCF8091B9
:102CC00078002091790090E0922B08958230910550
:102CD00038F0880F991F880F991F05970197F1F712
:102CE00008958F929F92AF92BF92CF92DF92EF9210
:102CF000FF926B017C010E94F4144B015C01C11432
:102D0000D104E104F104F1F00E94F414DC01CB01E0
:102D100088199909AA09BB09883E9340A105B10504
:102D200070F321E0C21AD108E108F10888EE880E9C
:102D300083E0981EA11CB11CC114D104E104F1046C
:102D400019F7DDCFFF90EF90DF90CF90BF90AF905D
:102D50009F908F9008952FB7F894609170047091B0
:102D6000710480917204909173042FBF08951F9293
:102D70000F920FB60F9211242F933F938F939F932F
:102D8000AF93BF938091700490917104A0917204ED
:102D9000B091730430916F0423E0230F2D3720F49A
:102DA0000196A11DB11D05C026E8230F0296A11DA5
:102DB000B11D20936F048093700490937104A093CD
:102DC0007204B09373048091740490917504A0917F
:102DD0007604B09177040196A11DB11D809374040F
:102DE00090937504A0937604B0937704BF91AF914C
:102DF0009F918F913F912F910F900FBE0F901F9039
:102E000018950F931F93CF93DF9377FF04C0260F7E
:102E1000371F60E070E0DC011496CD91DC911597CE
:102E2000FB01E20FF31FCE17DF071CF49E01261BE8
:102E3000370B121613060CF046C0FA0157FD3796F1
:102E4000DF01E3E0B595A795EA95E1F7AC9FF001C6
:102E5000AD9FF00DBC9FF00D11246E0F7F1FDC01A4
:102E60005F96ED91FC919097E60FF71F47705527FD
:102E700081E090E001C0880F4A95EAF7482F0130C1
:102E8000110539F078F002301105E9F42E0F3F1FDB
:102E900013C02E0F3F1FE217F307A9F08081842B88
:102EA0008193F9CF80952E0F3F1FE217F30759F05A
:102EB000908198239193F9CFE217F30721F0808155
:102EC00084278193F9CFDF91CF911F910F910895BE
:102ED000EF92FF920F931F93CF93DF93EC0177FD57
:102EE000A4C0EC80FD806E157F050CF09EC057FFDE
:102EF00004C0240F351F40E050E08E819F81FA010D
:102F0000E20FF31F8E179F071CF49C01241B350B47
:102F1000121613060CF089C0922F842F8695869581
:102F200086958E9DD0018F9DB00D11246A0F7B1F59
:102F3000AF8DB8A1A60FB71F4770A9F188E0841B19
:102F4000482F682F70E0FB01EB58F54FE4912817EC
:102F500090F4621B71092FEF30E002C03595279580
:102F60006A95E2F7E2230130110541F070F002307A
:102F7000110579F05AC00130110519F48C91E82B34
:102F80000AC00130110508F049C0E0958C91E82392
:102F900002C08C91E827EC932C813D81941708F4B2
:102FA00044C0A20FB31FE92FE41BE830F8F0023051
:102FB000110561F48E2F9C9190959C932C813D81FD
:102FC000A20FB31F88508830B0F70FC081E0011501
:102FD000110509F480E081959E2F8C932C813D8111
:102FE000A20FB31F98509830C0F7E770EE23E9F0B6
:102FF000F0E0E359F54FE4910130110539F048F064
:103000000230110591F48C91E82706C08C91E82BD1
:1030100003C0E0958C91E823EC9307C002301105C2
:1030200009F4B7CFAE0DBF1DBECFDF91CF911F9179
:103030000F91FF90EF9008950F931F93CF93DF931D
:10304000DC015696EC915697E23071F0E330E9F0EE
:10305000E13079F5FB0114960D90BC91A02DA41BD5
:10306000B50BA21BB30B18C0EC01EC81FD81E61B74
:10307000F70BBF0161507109EE81FF81DF01A41BD5
:10308000B50BAD01421B530B14C0DA01EC01EE810C
:10309000FF81E61BF70B3197F7FD0DC0EC014E8168
:1030A0005F81E417F5073CF4AF01BD010E940117F1
:1030B00002C00E946817DF91CF911F910F91089570
:1030C000CF93DF93CCE0D4E02697888199810E944A
:1030D000AA2283E0C637D807B9F78AE391E0909334
:1030E0002504809324048091430490914404009724
:1030F00021F0DF91CF910C94AA22DF91CF91089516
:10310000CF93DF9300D000D01F92CDB7DEB7789475
:1031100084B5826084BD84B5816084BD85B58260DC
:1031200085BD85B5816085BD80916E00816080938D
:103130006E001092810080918100826080938100F6
:103140008091810081608093810080918000816006
:10315000809380008091B10084608093B100809161
:10316000B00081608093B00080917A008460809389
:103170007A0080917A00826080937A0080917A0050
:10318000816080937A0080917A00806880937A00D1
:103190001092C100E091E902F091EA0282E080839E
:1031A000E091E502F091E6021082E091E702F091F1
:1031B000E8028FEC80831092F102E091ED02F09131
:1031C000EE0286E08083E091EB02F091EC028081D8
:1031D00080618083E091EB02F091EC028081886055
:1031E0008083E091EB02F091EC0280818068808323
:1031F000E091EB02F091EC0280818F7D808365E6A7
:1032000071E089ED92E00E945C1362E671E089ED65
:1032100092E00E945C1362E084E00E94131662E078
:1032200082E00E94131662E083E00E94131662E0BF
:1032300089E00E94131662E086E00E94131662E0A5
:1032400085E00E94131680910C0490910D0420914A
:103250000E0430910F048217930719F061E00E9469
:10326000131680910E0490910F0420910C0430915C
:103270000D042817390719F061E00E9413160E9407
:10328000120F80E00E94EB1181E00E94851165E041
:1032900070E080E090E00E9471166CE080E00E9497
:1032A000A5116FE584E00E94A51182E090E00E94E4
:1032B0005912882319F081E08093120486E00E945D
:1032C000C21180E090E00E9459120E94A21180E594
:1032D0000E94A80E83E70E94A80E0E949F1160E042
:1032E0008DE10E94A51160E08CE10E94A511109271
:1032F000140460E787E00E94A5116CE485E00E9459
:10330000A5110E94A21182EE0E94A80E0E949F1198
:103310000E94D9110E948F1280E00E94C211682F72
:103320006E7F80E00E94A51180E090E00E9459121B
:1033300065E284E00E94A51160E085E00E94A5118D
:1033400040911A046CE071E08AE00E9429124091D9
:103350001A046CE071E080E10E942912609113046C
:1033600081E10E94A51140911A0450E066E071E0ED
:1033700085E194E00E941124EEE6F5E0849140910D
:103380001A0466E071E00E942912E8E6F5E08491F3
:10339000609113040E94A51182E00E94C21117E6F9
:1033A000612E1AE0712EF301949161E070E001C08A
:1033B000660F9A95EAF7682B82E00E94A5110E9499
:1033C000FB118091430490914404892B11F52091C5
:1033D0002A0430912B04C901079697FD0796B3E0A4
:1033E00095958795BA95E1F72091280430912904A5
:1033F0001C01229EC001239E900D329E900D11242F
:103400000E9415229093440480934304892B09F46D
:10341000E6C00E94361020912A0430912B0480913E
:10342000280490912904213231050CF43FC4B901DC
:103430006054710977FF02C06F5F7F4F7595679584
:103440008255910997FD019600E410E022E530E0F5
:1034500042EA57E0959587950E94561082E0809346
:1034600046048091410490914204892B09F432C4AE
:103470008CE3809345041092880210928702109288
:10348000D6021092D5021092860281E080938502C6
:103490001092840261E082E10E94E31561E083E121
:1034A0000E94E3158091B9008E7F8093B9008091CE
:1034B000B9008D7F8093B90088E48093B80085E4DB
:1034C0008093BC0080914C0487FD1EC061E00E9487
:1034D000131661E080914C040E94E31561E070E0F6
:1034E00080E090E00E94711660E080914C040E94A0
:1034F000E3156AE070E080E090E00E94711661E000
:1035000080914C040E94E315809141049091420403
:10351000892B09F46CC460915B0470915C04809108
:103520005D0490915E040E94370E64E08CE895E0A3
:103530000E94DA1060912A04615084E294E00E94B3
:10354000AF0E64E088E895E00E94DA1080914604AE
:10355000813009F463C464E184E294E00E94AF0E18
:1035600064E084E895E00E94DA108091280490914C
:1035700029048038910509F064C480912A0490914F
:103580002B048032910509F04BC464E080E895E09B
:103590000E94DA1069ED84E294E00E94AF0E8091FF
:1035A0004604813009F469C461EF84E294E00E942A
:1035B000AF0E66E084E795E00E94DA108091410446
:1035C00090914204892B09F45AC460915F04709170
:1035D000600480916104909162040E94370E0E9401
:1035E000361001E010E087E3C82ED12C93E7A92E16
:1035F000B12C2AE0822E912C0E94AB166093D1024E
:103600007093D2028093D3029093D4022091CD0282
:103610003091CE024091CF025091D002DC01CB011B
:10362000821B930BA40BB50B853F9140A105B105FF
:1036300090F00E94480F8091D1029091D202A09107
:10364000D302B091D4028093CD029093CE02A09386
:10365000CF02B093D0022090D1023090D20240909D
:10366000D3025090D4028091C9029091CA02A091D5
:10367000CB02B091CC02A2019101281B390B4A0B5D
:103680005B0B293C31054105510508F470C081E010
:103690000E944F1697FD039695958795959587956A
:1036A00080939A0280E00E944F1697FD03969595AD
:1036B0008795959587958093990283E00E944F1690
:1036C00097FD0396959587959595879580939C0290
:1036D00082E00E944F1697FD0396959587959595E4
:1036E000879580939B0286E00E944F1697FD039674
:1036F00095958795959587958093A0028091BC02BA
:103700008093A20284E00E94BA152091A3029195B1
:1037100081959109822781709927092E000CAA0BA7
:10372000BB0B82272091B202219528272270822785
:103730009091B10291959827947089279091BB023E
:1037400091959827987089278093A3028091AA0267
:10375000809398028093A4028F5F8093AA022092A4
:10376000C9023092CA024092CB025092CC028091A0
:10377000C5029091C602A091C702B091C802A201F1
:103780009101281B390B4A0B5B0B2B3F310541057F
:10379000510508F4A4C02092A5023092A6024092DE
:1037A000A7025092A8020E94FB1190911304592E77
:1037B0009D3010F06CE0562E80911404811103C0EE
:1037C000492E451801C0412C0E94A21180EA0E9496
:1037D000A80E59E9E52E52E0F52E5A94BFEF5B167C
:1037E00031F0D7018D917D010E94A80EF6CF4420C3
:1037F00029F080E00E94A80E4A94F9CF0E949F1100
:1038000081E00E94EB110E94AB161B012C010E946B
:10381000A2118FEF0E94A80E89830E949F118981B7
:10382000807389F40E94AB16DC01CB0182199309E5
:10383000A409B50980369105A105B10540F381E0E1
:1038400080931B040AC080E00E94EB1160E787E0D0
:103850000E94A51184FD0E94D9110E948F1280E060
:103860000E94C211682F616080E00E94A51160E78C
:1038700087E00E94A51181E00E94EB118091150460
:10388000882341F040911A0465E174E08AE00E94C7
:1038900029120FC082E00E94C211F3019491B80175
:1038A00001C0660F9A95EAF76095682382E00E944E
:1038B000A5118DE10E94C21181FD0E94D911809154
:1038C000D1029091D202A091D302B091D402809300
:1038D000C5029093C602A093C702B093C80280911C
:1038E000D1029091D202A091D302B091D402409122
:1038F000C1025091C2026091C3027091C402841B44
:10390000950BA60BB70B893E9340A105B10590F02E
:103910000E94480F8091D1029091D202A091D302CF
:10392000B091D4028093C1029093C202A093C302CB
:10393000B093C4028091D1029091D202A091D3029F
:10394000B091D4024091BD025091BE026091BF027D
:103950007091C002841B950BA60BB70B8F3E924053
:10396000A105B10508F49CC18091BC0265E00E94EC
:10397000E121F92E81E0809338048093390410937B
:1039800037040093360410933504009334041092E6
:10399000310410923004D0923304C09232048091EA
:1039A000AA028695869590E00E947113B092310428
:1039B000A0923004D0923304C09232048F2D90E054
:1039C0000E94711310933104009330043AE0F39E87
:1039D000C00111249093330480933204E0912404B5
:1039E000F09125040190F081E02D6EE384E294E0F3
:1039F000099589E00E94BA15892B39F48091A902B2
:103A0000811103C0F394F092A902E12CF12C212C36
:103A1000312C46E0542E9092310480923004F09282
:103A20003304E0923204529CF001539CF00D1124B7
:103A30008091A9024EE1489FE00DF11D1124EA5842
:103A4000FC4F448155816081718184E294E00E9441
:103A5000E40F5FEF251A350A8AE0E80EF11C96E0C4
:103A600029163104C1F68091410490914204892BBA
:103A700059F060915B0470915C0480915D049091B9
:103A80005E040E94370E16C080913F04909140045E
:103A9000892B31F08091590490915A040E94060DAF
:103AA000E0915304F09154049081809158048095E2
:103AB0008923808365E082E69AE00E94DA106091B3
:103AC0002804615084E294E00E94AF0E20912A0401
:103AD00030912B04C901079697FD079633E0959521
:103AE00087953A95E1F72091280430912904829F27
:103AF0007001839FF00C929FF00C112440904304BE
:103B0000509044048091410490914204E40CF51CCF
:103B1000009709F44EC02091450431E03093D8025B
:103B20002093D7021092D6021092D502DC01ED91BB
:103B3000FC910190F081E02D60E40995120121E0F3
:103B40005524539480914104909142042E143F04D3
:103B500069F12032C8F00E944B0E809145045092CA
:103B6000D8028093D7021092D6021092D50280918B
:103B7000410490914204DC01ED91FC910190F081AF
:103B8000E02D60E4099521E0809141049091420488
:103B9000F10161911F01DC01ED91FC910190F08137
:103BA000E02D2983099529812F5FCCCF0E944B0EF0
:103BB00043C0E0915104F0915204908180915704E8
:103BC000892B80834E145F04B9F1F20181912F019A
:103BD00020913F0430914004232B19F00E94A80E3D
:103BE000F1CF28E030E040E8E0914D04F0914E0440
:103BF00090915504542F582319F05081952B03C0F0
:103C00005081909595239083E0914F04F09150045A
:103C1000508190915604952B9083E0914F04F09140
:103C20005004508190915604909595239083469529
:103C300021503109C9F6C6CF8091410490914204C8
:103C4000892B59F060915F04709160048091610448
:103C5000909162040E94370E11C0E0915304F091DC
:103C60005404908180915804892B808380913F0473
:103C700090914004892B11F00E94050D0E9436108E
:103C80008091D1029091D202A091D302B091D4023E
:103C90008093BD029093BE02A093BF02B093C00276
:103CA00087E10E94C21180FFFDC0F4C1B9016052DA
:103CB000710977FF02C06F5F7F4F759567958357D6
:103CC000910997FD019600E210E023E730E042EC15
:103CD00055E0C0CB61E080914A040E94131661E078
:103CE00080914B040E94131680914A04082E000C08
:103CF000990BFC01E255FA4FE491F0E0EE0FFF1F43
:103D0000EC55FA4F2591349130935204209351048D
:103D1000FC01E057FA4FE491E093570480914B0483
:103D2000082E000C990BFC01E255FA4FE491F0E0EB
:103D3000EE0FFF1FEC55FA4FA591B491B0935404C8
:103D4000A0935304FC01E057FA4FE491E093580428
:103D50008C91E82BEC9380913F0490914004892B47
:103D600019F00E94120FAECB61E0809148040E94CE
:103D7000131661E0809149040E9413168091480453
:103D8000082E000C990BFC01E255FA4FE491F0E08B
:103D9000EE0FFF1FEC55FA4F2591349130934E04EE
:103DA00020934D04FC01E057FA4FE491E093550451
:103DB00080914904082E000C990BFC01E255FA4F42
:103DC000E491F0E0EE0FFF1FEC55FA4FA591B4918E
:103DD000B0935004A0934F04FC01E057FA4FE491D4
:103DE000E09356048C91E095E823EC936BCB8091A3
:103DF0003F0490914004892B31F0809159049091B7
:103E00005A040E94060DE0915304F09154049081ED
:103E10008091580480958923808387CB60E19CCB77
:103E20008034910509F0B6CB63E08DE795E00E9400
:103E3000DA1080914604813011F06FEC19C06FE9FF
:103E400017C08036910509F0A5CB80912A04909186
:103E50002B04409709F09ECB63E08AE795E00E942F
:103E6000DA1080914604813011F06FEA01C060E100
:103E700084E294E00E94AF0E8DCB62E296CBE0919B
:103E80005304F0915404908180915804892B8083CD
:103E900080913F0490914004892B09F4A0CB0E94AB
:103EA000050D9DCB3090AC023092AB029091130483
:103EB0009A3008F4EDC02AE0522E8091140481114A
:103EC00003C0492E451801C0412C0E94A21181E671
:103ED0000E94A80E89E8E82E82E0F82E5A94BFEFDF
:103EE0005B1639F08FEF0E94A80ED7018D937D01EC
:103EF000F5CF442029F08FEF0E94A80E4A94F9CF05
:103F00000E949F1160E787E00E94A51180919202B4
:103F10008093AC02815083198093AD021092AF025E
:103F20001092AE028091890281110CC080918A02A8
:103F3000882341F080919202811104C081E0809336
:103F4000B00202C01092B00262EB72E082E00E9406
:103F5000A40F61EB72E083E00E94A40F6BEB72E0B0
:103F600089E00E94A40F86E00E94BA1521E0892B07
:103F700009F420E02093B70285E00E94BA1521E001
:103F8000892B09F420E02093B9023091B802E09126
:103F9000B702311106C0EE2309F465C0211108C033
:103FA0005EC0EE2319F0E1115EC02CC021112AC0C1
:103FB0004091D1025091D2026091D3027091D4020B
:103FC0002090B3023090B4024090B5025090B602F7
:103FD000DB01CA0182199309A409B509C397A10598
:103FE000B10568F04093B3025093B4026093B502F8
:103FF0007093B6029091BC0291509093BC02311123
:10400000D2CF2DC0222379F18091D1029091D2029A
:10401000A091D302B091D4024091B3025091B40266
:104020006091B5027091B6021C012D01241A350A67
:10403000460A570AB201A1014333510561057105D2
:1040400090F08093B3029093B402A093B502B09322
:10405000B6028091BC028F5F8093BC0204C0EE2345
:1040600011F0222389F286E00E94BA1521E0892B03
:1040700009F420E02093B80285E00E94BA1521E0FF
:10408000892B09F420E02093BA020E94C114B4CA1B
:10409000592E13CF81E08093AF028091AE028F5FE3
:1040A0008093AE023FCFE9EDF2E01382128248EE38
:1040B00053E060E070E0448355836683778386E154
:1040C00091E09183808385EC90E09587848784ECF0
:1040D00090E09787868780EC90E0918B808B81ECD5
:1040E00090E0938B828B82EC90E0958B848B86ECB6
:1040F00090E0978B868B118E128E138E148EA3E612
:10410000B4E013961C921E92129714964D935D93F1
:104110006D937C93179788E291E011969C938E9310
:10412000E4E2F4E01382128220E830E03583248355
:1041300080E290E097838683318720879387828708
:10414000168A158614861786168681E0858B848BE1
:104150002FEF3FEF338B228B318B208B878B108E91
:10416000128E118E8AE391E091838083148E138ED8
:10417000B68FA58F10A2178E8FEF84A385A386A379
:1041800087A384E080A780E585AB16AAECE0F4E085
:1041900087E090E09183808388E090E0938382833E
:1041A000168280E28783108685E0868785E090E02E
:1041B000A0E0B0E0848B958BA68BB78B118661E76E
:1041C00071E086E793E00E941C1367E771E08CE7DB
:1041D00093E00E941C136DE771E082E893E00E9477
:1041E0001C1363E871E088E893E00E941C1369E8FF
:1041F00071E08EE893E00E941C136FE871E084E99F
:1042000093E00E941C1365E971E08AE993E00E9443
:104210001C136BE971E080EA93E00E941C1361EAD1
:1042200071E086EA93E00E941C1367EA71E08CEA71
:1042300093E00E941C136CEA71E082EB93E00E9411
:104240001C1362EB71E088EB93E00E941C1368EB97
:1042500071E08EEB93E00E941C136EEB71E084EC36
:1042600093E00E941C1367EA71E08AEC93E00E94DD
:104270001C1364EC71E080ED93E00E941C136AEC67
:1042800071E086ED93E00E941C1360ED71E08CED0F
:1042900093E00E941C1366ED71E082EE93E00E94B1
:1042A0001C1367EA71E088EE93E00E941C136CED2A
:1042B00071E08EEE93E00E941C1362EE71E084EFD9
:1042C00093E00E941C1368EE71E08AEF93E00E9475
:1042D0001C136EEE71E080E094E00E941C1367EA0C
:1042E00071E086E094E00C941C13BB274A3031F453
:1042F000992322F4BDE2909581959F4F0C948121E2
:10430000BB27FB015527AA27880F991FAA1FA417AF
:1043100010F0A41B83955051B9F7A05DAA3308F0A3
:10432000A95DA193009779F7B111B1931192CB01D7
:104330000C949A21DC01FC01672F71917723E1F73E
:10434000329704C07C916D9370836291AE17BF0762
:10435000C8F308952F923F924F925F926F927F928F
:104360008F929F92AF92BF92CF92DF92EF92FF9285
:104370000F931F93CF93DF93CDB7DEB7CA1BDB0B31
:104380000FB6F894DEBF0FBECDBF09942A883988D6
:1043900048885F846E847D848C849B84AA84B984DD
:1043A000C884DF80EE80FD800C811B81AA81B981E9
:1043B000CE0FD11D0FB6F894DEBF0FBECDBFED01FD
:1043C0000895991B79E004C0991F961708F0961B71
:1043D000881F7A95C9F780950895A1E21A2EAA1B25
:1043E000BB1BFD010DC0AA1FBB1FEE1FFF1FA217A5
:1043F000B307E407F50720F0A21BB30BE40BF50BA2
:10440000661F771F881F991F1A9469F7609570952A
:10441000809590959B01AC01BD01CF010895EE0FF1
:10442000FF1F0590F491E02D0994CF93DF93823024
:10443000910510F482E090E0E0917A04F0917B0421
:1044400020E030E0C0E0D0E0309711F140815181B0
:1044500048175907C0F04817590761F482819381C2
:10446000209719F09B838A832BC090937B048093C1
:104470007A0426C02115310519F04217530718F4A4
:104480009A01BE01DF01EF010280F381E02DDCCF54
:104490002115310509F1281B390B2430310590F421
:1044A00012968D919C9113976115710521F0FB0176
:1044B0009383828304C090937B0480937A04FD01EC
:1044C000329644C0FD01E20FF31F81939193225075
:1044D00031092D933C933AC02091780430917904AE
:1044E000232B41F420910201309103013093790490
:1044F00020937804209100013091010121153105AC
:1045000041F42DB73EB74091040150910501241BA1
:10451000350BE0917804F0917904E217F307A0F4E9
:104520002E1B3F0B2817390778F0AC014E5F5F4F09
:104530002417350748F04E0F5F1F509379044093BE
:1045400078048193919302C0E0E0F0E0CF01DF9125
:10455000CF9108950F931F93CF93DF93009709F4A2
:104560008CC0FC0132971382128200917A04109160
:104570007B040115110581F420813181820F931F85
:1045800020917804309179042817390779F5F09350
:104590007904E093780471C0D80140E050E0AE1790
:1045A000BF0750F412962D913C911397AD01211540
:1045B000310509F1D901F3CF9D01DA01338322835B
:1045C00060817181860F971F8217930769F4EC0150
:1045D00028813981260F371F2E5F3F4F318320837B
:1045E0008A819B8193838283452B29F4F0937B04FA
:1045F000E0937A0442C01396FC93EE931297ED0178
:10460000499159919E01240F351FE217F30771F468
:1046100080819181840F951F029611969C938E93B1
:104620008281938113969C938E931297E0E0F0E041
:10463000D80112968D919C911397009719F0F8016B
:104640008C01F6CF8D919C9198012E5F3F4F820F88
:10465000931F20917804309179042817390769F461
:10466000309729F410927B0410927A0402C01382CE
:1046700012821093790400937804DF91CF911F91F7
:104680000F910895A0E0B0E0E8E4F3E20C94AE21CD
:10469000EC01009721F4CB010E941522B8C0FC0167
:1046A000E60FF71F9C0122503109E217F30708F4C7
:1046B000ACC0D9010D911C91119706171707B0F0E6
:1046C0000530110508F49FC0C801049786179707A5
:1046D00008F499C002501109061B170B019311939E
:1046E0006D937C93CF010E94AA228DC05B01A01A1A
:1046F000B10A4C01800E911EA0917A04B0917B0406
:1047000040E050E0E12CF12C109709F44AC0A815C4
:10471000B905D1F56D907C901197630182E0C80EC8
:10472000D11CCA14DB0480F1A3014A195B096A0198
:1047300082E0C80ED11C1296BC9012971396AC91D1
:10474000B5E0CB16D10440F0B282A38351834083FD
:10475000D9016D937C930AC00E5F1F4FC301800F78
:10476000911FF90191838083EB2DFA2FE114F1045D
:1047700031F0D7011396FC93EE93129744C0F09357
:104780007B04E0937A043FC08D919C911197481768
:10479000590708F4AC017D0112960D90BC91A02D33
:1047A000B3CF809178049091790488159905E1F44C
:1047B00046175707C8F480910001909101010097B6
:1047C00041F48DB79EB74091040150910501841BBF
:1047D000950BE817F907C8F4F0937904E09378048F
:1047E000F901718360830FC0CB010E9415227C0107
:1047F000009759F0A801BE010E941124CE010E9429
:10480000AA22C70104C0CE0102C080E090E0CDB76B
:10481000DEB7EEE00C94CA2181E090E0F8940C94AD
:104820002824FB01DC0102C001900D924150504050
:10483000D8F70895DC0101C06D9341505040E0F776
:104840000895FB01DC0101900D920020E1F708952D
:1048500015E0C4E5D5E004C0FE010E940F222196B8
:0A486000C535D107C9F7F894FFCF62
:10486A0000007C048000314E6F646532314E6F6403
:10487A006531000000005814E40FF0139F1421144E
:10488A00FF13131400000000870C570CB70C310CEF
:10489A004F0C400C320C000000007F08E40FB70CEC
:1048AA00B60C7F05540B4D0B250B410B350B550BE5
:1048BA00240B3D061B151C18BA0C4B0A2D0AB60907
:1048CA0057090D0A005374617274696E672E2E2E91
:1048DA00004D454E5531004D454E5532004D454E21
:1048EA005533004D454E55340053504152450053FF
:1048FA00554231310053554231320053554231331A
:10490A00005355423134004241434B005355423221
:10491A003100535542323200535542323300535517
:10492A004232340053554233310053554233320038
:10493A0053554233330053554233340053554234AE
:10494A0031005355423432005355423433005355E3
:04495A0042343400AF
:00000001FF
